{"abi":[{"type":"function","name":"afterPresale","inputs":[],"outputs":[],"stateMutability":"nonpayable"},{"type":"function","name":"bumpRewards","inputs":[{"name":"bnbAmount","type":"uint256","internalType":"uint256"}],"outputs":[],"stateMutability":"nonpayable"},{"type":"function","name":"burnTokens","inputs":[{"name":"amount","type":"uint256","internalType":"uint256"}],"outputs":[],"stateMutability":"nonpayable"},{"type":"function","name":"exchangeHelper","inputs":[],"outputs":[{"name":"","type":"address","internalType":"address"}],"stateMutability":"view"},{"type":"function","name":"getAccumulatedFees","inputs":[],"outputs":[{"name":"","type":"uint256","internalType":"uint256"},{"name":"","type":"uint256","internalType":"uint256"}],"stateMutability":"view"},{"type":"function","name":"getFunctionSelectors","inputs":[],"outputs":[{"name":"","type":"bytes4[]","internalType":"bytes4[]"}],"stateMutability":"pure"},{"type":"function","name":"getPositions","inputs":[],"outputs":[{"name":"positions","type":"tuple[3]","internalType":"struct LiquidityPosition[3]","components":[{"name":"lowerTick","type":"int24","internalType":"int24"},{"name":"upperTick","type":"int24","internalType":"int24"},{"name":"liquidity","type":"uint128","internalType":"uint128"},{"name":"price","type":"uint256","internalType":"uint256"},{"name":"tickSpacing","type":"int24","internalType":"int24"}]}],"stateMutability":"view"},{"type":"function","name":"getProtocolParameters","inputs":[],"outputs":[{"name":"","type":"tuple","internalType":"struct ProtocolParameters","components":[{"name":"floorPercentage","type":"uint8","internalType":"uint8"},{"name":"anchorPercentage","type":"uint8","internalType":"uint8"},{"name":"idoPriceMultiplier","type":"uint8","internalType":"uint8"},{"name":"floorBips","type":"uint16[2]","internalType":"uint16[2]"},{"name":"shiftRatio","type":"uint256","internalType":"uint256"},{"name":"slideRatio","type":"uint256","internalType":"uint256"},{"name":"discoveryBips","type":"int24","internalType":"int24"},{"name":"shiftAnchorUpperBips","type":"int24","internalType":"int24"},{"name":"slideAnchorUpperBips","type":"int24","internalType":"int24"},{"name":"lowBalanceThresholdFactor","type":"uint256","internalType":"uint256"},{"name":"highBalanceThresholdFactor","type":"uint256","internalType":"uint256"},{"name":"inflationFee","type":"uint256","internalType":"uint256"},{"name":"loanFee","type":"uint256","internalType":"uint256"},{"name":"deployFee","type":"uint256","internalType":"uint256"},{"name":"presalePremium","type":"uint256","internalType":"uint256"},{"name":"selfRepayLtvTreshold","type":"uint256","internalType":"uint256"}]}],"stateMutability":"view"},{"type":"function","name":"getReferralEntity","inputs":[{"name":"who","type":"address","internalType":"address"}],"outputs":[{"name":"","type":"tuple","internalType":"struct ReferralEntity","components":[{"name":"code","type":"bytes8","internalType":"bytes8"},{"name":"totalReferred","type":"uint256","internalType":"uint256"}]}],"stateMutability":"view"},{"type":"function","name":"getTimeSinceLastMint","inputs":[],"outputs":[{"name":"","type":"uint256","internalType":"uint256"}],"stateMutability":"view"},{"type":"function","name":"mintTokens","inputs":[{"name":"to","type":"address","internalType":"address"},{"name":"amount","type":"uint256","internalType":"uint256"}],"outputs":[{"name":"","type":"bool","internalType":"bool"}],"stateMutability":"nonpayable"},{"type":"function","name":"pool","inputs":[],"outputs":[{"name":"","type":"address","internalType":"contract IUniswapV3Pool"}],"stateMutability":"view"},{"type":"function","name":"selfRepayLoans","inputs":[{"name":"amountToPull","type":"uint256","internalType":"uint256"},{"name":"start","type":"uint256","internalType":"uint256"},{"name":"limit","type":"uint256","internalType":"uint256"}],"outputs":[],"stateMutability":"nonpayable"},{"type":"function","name":"setManager","inputs":[{"name":"manager","type":"address","internalType":"address"}],"outputs":[],"stateMutability":"nonpayable"},{"type":"function","name":"setModelHelper","inputs":[{"name":"modelHelper","type":"address","internalType":"address"}],"outputs":[],"stateMutability":"nonpayable"},{"type":"function","name":"setProtocolParameters","inputs":[{"name":"protocolParameters","type":"tuple","internalType":"struct ProtocolParameters","components":[{"name":"floorPercentage","type":"uint8","internalType":"uint8"},{"name":"anchorPercentage","type":"uint8","internalType":"uint8"},{"name":"idoPriceMultiplier","type":"uint8","internalType":"uint8"},{"name":"floorBips","type":"uint16[2]","internalType":"uint16[2]"},{"name":"shiftRatio","type":"uint256","internalType":"uint256"},{"name":"slideRatio","type":"uint256","internalType":"uint256"},{"name":"discoveryBips","type":"int24","internalType":"int24"},{"name":"shiftAnchorUpperBips","type":"int24","internalType":"int24"},{"name":"slideAnchorUpperBips","type":"int24","internalType":"int24"},{"name":"lowBalanceThresholdFactor","type":"uint256","internalType":"uint256"},{"name":"highBalanceThresholdFactor","type":"uint256","internalType":"uint256"},{"name":"inflationFee","type":"uint256","internalType":"uint256"},{"name":"loanFee","type":"uint256","internalType":"uint256"},{"name":"deployFee","type":"uint256","internalType":"uint256"},{"name":"presalePremium","type":"uint256","internalType":"uint256"},{"name":"selfRepayLtvTreshold","type":"uint256","internalType":"uint256"}]}],"outputs":[],"stateMutability":"nonpayable"},{"type":"function","name":"setReferralEntity","inputs":[{"name":"code","type":"bytes8","internalType":"bytes8"},{"name":"amount","type":"uint256","internalType":"uint256"}],"outputs":[],"stateMutability":"nonpayable"},{"type":"function","name":"teamMultiSig","inputs":[],"outputs":[{"name":"","type":"address","internalType":"address"}],"stateMutability":"view"},{"type":"function","name":"updatePositions","inputs":[{"name":"_positions","type":"tuple[3]","internalType":"struct LiquidityPosition[3]","components":[{"name":"lowerTick","type":"int24","internalType":"int24"},{"name":"upperTick","type":"int24","internalType":"int24"},{"name":"liquidity","type":"uint128","internalType":"uint128"},{"name":"price","type":"uint256","internalType":"uint256"},{"name":"tickSpacing","type":"int24","internalType":"int24"}]}],"outputs":[],"stateMutability":"nonpayable"},{"type":"event","name":"LoanRepaidOnBehalf","inputs":[{"name":"who","type":"address","indexed":true,"internalType":"address"},{"name":"amount","type":"uint256","indexed":false,"internalType":"uint256"},{"name":"collateralReleased","type":"uint256","indexed":false,"internalType":"uint256"}],"anonymous":false},{"type":"error","name":"InvalidDecimals","inputs":[]},{"type":"error","name":"InvalidTick","inputs":[]},{"type":"error","name":"InvalidTicks","inputs":[]},{"type":"error","name":"NotAuthorized","inputs":[]},{"type":"error","name":"NotInitialized","inputs":[]},{"type":"error","name":"OnlyInternalCalls","inputs":[]},{"type":"error","name":"OutOfRange","inputs":[]}],"bytecode":{"object":"0x608060405234801561000f575f80fd5b50615772806200001e5f395ff3fe608060405234801561000f575f80fd5b506004361061011c575f3560e01c8063854567f1116100a9578063d0ebdbe71161006e578063d0ebdbe71461025a578063dee02ffa1461026d578063e237980914610283578063f0dda65c14610296578063fd896f9d146102b9575f80fd5b8063854567f11461020f578063899e86891461021757806395d7d0ad1461021f578063bf2e3dd214610232578063c58aad8714610245575f80fd5b80632ba25014116100ef5780632ba25014146101b1578063530096c1146101b95780635df45a37146101cc5780636d1b229d146101e757806380275860146101fa575f80fd5b806301cd16311461012057806316f0115b1461015d57806319b10ac314610189578063259b8fd81461019e575b5f80fd5b61013361012e366004614705565b6102ce565b6040805182516001600160c01b031916815260209283015192810192909252015b60405180910390f35b602b54600160301b90046001600160a01b03165b6040516001600160a01b039091168152602001610154565b61019c61019736600461485e565b6103da565b005b61019c6101ac366004614961565b61059b565b610171610652565b61019c6101c7366004614997565b6107d4565b602c54602d5460408051928352602083019190915201610154565b61019c6101f5366004614997565b610ff8565b61020261117b565b60405161015491906149ae565b61017161125d565b61019c6112ce565b61019c61022d366004614a33565b6113e9565b61019c610240366004614705565b611450565b61024d611527565b6040516101549190614b22565b61019c610268366004614705565b611648565b61027561171f565b604051908152602001610154565b61019c610291366004614c21565b61172e565b6102a96102a4366004614c4a565b61189b565b6040519015158152602001610154565b6102c161193f565b6040516101549190614c66565b604080518082019091525f8082526020820152604051631f1c398f60e21b81526001600160a01b03831660048201525f9073__$02d520d13cf184fb066b4c9912635b5d1d$__90637c70e63c906024015f60405180830381865af4158015610338573d5f803e3d5ffd5b505050506040513d5f823e601f3d908101601f1916820160405261035f9190810190614cd5565b90505f61036b82612088565b90506001600160c01b03198116610397575050604080518082019091525f808252602082015292915050565b6001600160c01b03199081165f908152602e60209081526040918290208251808401909352805460c01b9093168252600190920154918101919091529392505050565b6001546001600160a01b0316331480159061047157505f546040805163854567f160e01b815290516001600160a01b039092169163854567f1916004808201926020929091908290030181865afa158015610437573d5f803e3d5ffd5b505050506040513d601f19601f8201168201806040525081019061045b9190614d72565b6001600160a01b0316336001600160a01b031614155b1561048f5760405163ea8e4eb560e01b815260040160405180910390fd5b8051600a80546020840151604085015160ff908116620100000262ff0000199282166101000261ffff199094169190951617919091171691909117815560608201518291906104e290600b906002614550565b506080820151600282015560a0820151600382015560c082015160048201805460e085015161010086015162ffffff908116600160301b0268ffffff0000000000001992821663010000000265ffffffffffff199094169190951617919091171691909117905561012082015160058201556101408201516006820155610160820151600782015561018082015160088201556101a082015160098201556101c0820151600a8201556101e090910151600b9091015550565b6105a3610652565b6001600160a01b0316336001600160a01b0316146105d45760405163ea8e4eb560e01b815260040160405180910390fd5b6001600160c01b031982165f818152602e6020908152604091829020600101548251808401909352928252810161060b8484614da1565b90526001600160c01b0319939093165f908152602e602090815260409091208451815467ffffffffffffffff191660c09190911c1781559301516001909301929092555050565b60025460408051808201909152600e81526d22bc31b430b733b2a432b63832b960911b60208201525f916001600160a01b0316908290829063197c6b2d90309061069b906120ee565b6040518363ffffffff1660e01b81526004016106b8929190614db4565b602060405180830381865afa1580156106d3573d5f803e3d5ffd5b505050506040513d601f19601f820116820180604052508101906106f79190614d72565b90506001600160a01b0381166107ce57816001600160a01b031663dacb2d016107456040518060400160405280600e81526020016d22bc31b430b733b2a432b63832b960911b8152506120ee565b6040518263ffffffff1660e01b815260040161078c9181526040602082018190526011908201527037379022bc31b430b733b2a432b63832b960791b606082015260800190565b602060405180830381865afa1580156107a7573d5f803e3d5ffd5b505050506040513d601f19601f820116820180604052508101906107cb9190614d72565b90505b92915050565b6001546001600160a01b0316331480159061086b57505f546040805163854567f160e01b815290516001600160a01b039092169163854567f1916004808201926020929091908290030181865afa158015610831573d5f803e3d5ffd5b505050506040513d601f19601f820116820180604052508101906108559190614d72565b6001600160a01b0316336001600160a01b031614155b156108895760405163ea8e4eb560e01b815260040160405180910390fd5b60165460ff166108ac576040516321c4e35760e21b815260040160405180910390fd5b6040805161010081018252601e54600281810b60608085019182526301000000808504840b6080808801919091526001600160801b03600160301b96879004811660a0808a0191909152601f5460c08a015260208054880b60e08b015295895289518082018b5260215480890b8252858104890b828901528990048316818c015260225481870152602354880b81850152868a015289519081018a5260245480880b8252938404870b9581019590955291869004909116838801526025549183019190915260265490920b9181019190915282840152601754602b5493516317886cbb60e11b815292935f9384936001600160a01b0393841693632f10d976936109c193929004169030908690600401614e01565b608060405180830381865afa1580156109dc573d5f803e3d5ffd5b505050506040513d601f19601f82011682018060405250810190610a009190614e31565b601754602b546040516317886cbb60e11b81529397509195505f94506001600160a01b039081169350632f10d97692610a4b92600160301b9004909116903090600190600401614e01565b608060405180830381865afa158015610a66573d5f803e3d5ffd5b505050506040513d601f19601f82011682018060405250810190610a8a9190614e31565b602b54885151919550610abe9450600160301b90046001600160a01b03169250309150875f5b60200201516020015161214a565b602b54610ae790600160301b90046001600160a01b031630866001602002015151876001610ab0565b42602855601754604051636013be6d60e01b81523060048201525f916001600160a01b031690636013be6d90602401602060405180830381865afa158015610b31573d5f803e3d5ffd5b505050506040513d601f19601f82011682018060405250810190610b559190614e8a565b5f549091506001600160a01b031663f0dda65c30610b738985612229565b6040518363ffffffff1660e01b8152600401610b90929190614db4565b5f604051808303815f87803b158015610ba7575f80fd5b505af1158015610bb9573d5f803e3d5ffd5b50506018546001600160a01b03169150610be89050576040516321c4e35760e21b815260040160405180910390fd5b6029546018546001600160a01b039182169163a9059cbb9116610c0b8985612229565b6040518363ffffffff1660e01b8152600401610c28929190614db4565b6020604051808303815f875af1158015610c44573d5f803e3d5ffd5b505050506040513d601f19601f82011682018060405250810190610c689190614eb0565b506018546001600160a01b0316633c6b16ab610c848884612229565b6040518263ffffffff1660e01b8152600401610ca291815260200190565b5f604051808303815f87803b158015610cb9575f80fd5b505af1158015610ccb573d5f803e3d5ffd5b5050602b545f9250610cfa9150600160301b90046001600160a01b03163087610cf48b89614da1565b8a61224b565b90505f80602b0160069054906101000a90046001600160a01b03166001600160a01b0316633850c7bd6040518163ffffffff1660e01b815260040160e060405180830381865afa158015610d50573d5f803e3d5ffd5b505050506040513d601f19601f82011682018060405250810190610d749190614ec9565b50506040805160c081018252602b546001600160a01b03600160301b90910481168252306020830152601654620100009004811682840152601754811660608301526019548116608080840191909152601b5490911660a083015282519081019092529596505f95610f6f9550935091508190508b8560200201516020015160020b8152602001610f4d610e078761236c565b306001600160a01b031663c58aad876040518163ffffffff1660e01b815260040161022060405180830381865afa158015610e44573d5f803e3d5ffd5b505050506040513d601f19601f82011682018060405250810190610e689190614fb9565b60e001515f602b0160069054906101000a90046001600160a01b03166001600160a01b031663d21220a76040518163ffffffff1660e01b8152600401602060405180830381865afa158015610ebf573d5f803e3d5ffd5b505050506040513d601f19601f82011682018060405250810190610ee39190614d72565b6001600160a01b031663313ce5676040518163ffffffff1660e01b8152600401602060405180830381865afa158015610f1e573d5f803e3d5ffd5b505050506040513d601f19601f82011682018060405250810190610f4291906150bc565b8f51608001516126a1565b60020b8152602001610f5f8d8a6150d7565b815260200160019052600161279c565b604080516060810182528581526020810183905299810151908a01529050610f96886136b1565b601754604051634986609560e11b81523060048201526001600160a01b039091169063930cc12a906024015f6040518083038186803b158015610fd7575f80fd5b505afa158015610fe9573d5f803e3d5ffd5b50505050505050505050505050565b5f546001600160a01b031633148015906110125750333014155b156110305760405163139f696160e31b815260040160405180910390fd5b5f602b0160069054906101000a90046001600160a01b03166001600160a01b0316630dfe16816040518163ffffffff1660e01b8152600401602060405180830381865afa158015611083573d5f803e3d5ffd5b505050506040513d601f19601f820116820180604052508101906110a79190614d72565b5f5460405163095ea7b360e01b81526001600160a01b039283169263095ea7b3926110d9929116908590600401614db4565b6020604051808303815f875af11580156110f5573d5f803e3d5ffd5b505050506040513d601f19601f820116820180604052508101906111199190614eb0565b505f54604051631dd319cb60e01b81526001600160a01b0390911690631dd319cb9061114b9030908590600401614db4565b5f604051808303815f87803b158015611162575f80fd5b505af1158015611174573d5f803e3d5ffd5b5050505050565b6111836145e5565b506040805161010081018252601e54600281810b60608085019182526301000000808504840b6080808801919091526001600160801b03600160301b96879004811660a0808a0191909152601f5460c08a015260208054880b60e08b015295895289518082018b5260215480890b8252858104890b828901528990048316818c015260225481870152602354880b81850152868a015289519081018a5260245480880b8252938404870b9581019590955295909104909416828701526025549082015260265490910b918101919091529181019190915290565b5f80546040805163854567f160e01b815290516001600160a01b039092169163854567f1916004808201926020929091908290030181865afa1580156112a5573d5f803e3d5ffd5b505050506040513d601f19601f820116820180604052508101906112c99190614d72565b905090565b6019546001600160a01b031633146112f95760405163ea8e4eb560e01b815260040160405180910390fd5b6002546040805180820190915260088152672232b83637bcb2b960c11b60208201525f916001600160a01b03169063dacb2d0190611336906120ee565b6040518263ffffffff1660e01b8152600401611377918152604060208201819052600b908201526a3737902232b83637bcb2b960a91b606082015260800190565b602060405180830381865afa158015611392573d5f803e3d5ffd5b505050506040513d601f19601f820116820180604052508101906113b69190614d72565b5f54604051637d19a2cb60e01b81526001600160a01b038084166004830152929350911690637d19a2cb9060240161114b565b5f546001600160a01b031633148015906114035750333014155b156114215760405163139f696160e31b815260040160405180910390fd5b60165460ff16611444576040516321c4e35760e21b815260040160405180910390fd5b61144d816136b1565b50565b6001546001600160a01b031633148015906114e757505f546040805163854567f160e01b815290516001600160a01b039092169163854567f1916004808201926020929091908290030181865afa1580156114ad573d5f803e3d5ffd5b505050506040513d601f19601f820116820180604052508101906114d19190614d72565b6001600160a01b0316336001600160a01b031614155b156115055760405163ea8e4eb560e01b815260040160405180910390fd5b601780546001600160a01b0319166001600160a01b0392909216919091179055565b61152f614612565b6040805161020081018252600a805460ff8082168452610100820481166020850152620100009091041682840152825180840193849052919290916060840191600b90600290825f855b82829054906101000a900461ffff1661ffff168152602001906002019060208260010104928301926001038202915080841161157957505050928452505050600282810154602083015260038301546040830152600483015480820b606084015263010000008104820b6080840152600160301b9004900b60a0820152600582015460c0820152600682015460e0820152600782015461010082015260088201546101208201526009820154610140820152600a820154610160820152600b9091015461018090910152919050565b6001546001600160a01b031633148015906116df57505f546040805163854567f160e01b815290516001600160a01b039092169163854567f1916004808201926020929091908290030181865afa1580156116a5573d5f803e3d5ffd5b505050506040513d601f19601f820116820180604052508101906116c99190614d72565b6001600160a01b0316336001600160a01b031614155b156116fd5760405163ea8e4eb560e01b815260040160405180910390fd5b600180546001600160a01b0319166001600160a01b0392909216919091179055565b6028545f906112c990426150d7565b6001546001600160a01b031633148015906117c557505f546040805163854567f160e01b815290516001600160a01b039092169163854567f1916004808201926020929091908290030181865afa15801561178b573d5f803e3d5ffd5b505050506040513d601f19601f820116820180604052508101906117af9190614d72565b6001600160a01b0316336001600160a01b031614155b156117e35760405163ea8e4eb560e01b815260040160405180910390fd5b60405163d964946560e01b81526004810184905260248101839052604481018290525f908190309063d96494659060640160408051808303815f875af115801561182f573d5f803e3d5ffd5b505050506040513d601f19601f8201168201806040525081019061185391906150ea565b604080518281526020810184905292945090925033917f2bbfc23fd6a105f538bf6e1e6ff8f72f3e83b172c766d7b64219d5314ae50327910160405180910390a25050505050565b5f80546001600160a01b031633148015906118b65750333014155b156118d45760405163139f696160e31b815260040160405180910390fd5b426028555f54604051633c37699760e21b81526001600160a01b039091169063f0dda65c906119099086908690600401614db4565b5f604051808303815f87803b158015611920575f80fd5b505af1158015611932573d5f803e3d5ffd5b5060019695505050505050565b60408051601080825261022082019092526060915f91906020820161020080368337505060408051808201909152600e81526d7465616d4d756c7469536967282960901b6020909101525080519091507f854567f1ebcf52af01539bbb2eb91efa4f35506d34e268a7a77e05fac717b9d69082905f906119c1576119c1614e76565b6001600160e01b031990921660209283029190910182015260408051808201909152601781527f67657450726f746f636f6c506172616d6574657273282900000000000000000091015280517fc58aad872b3b4ca1be02017b517aa3d4dc2cde8329ed50f2f7b5e8d426b87df89082906001908110611a4257611a42614e76565b6001600160e01b031990921660209283029190910182015260408051808201909152601681527567657454696d6553696e63654c6173744d696e74282960501b91015280517fdee02ffaa72188dc53f5a6b5d074114cf589f27a6f21fc80fb35e5a154d604029082906002908110611abc57611abc614e76565b6001600160e01b0319909216602092830291909101820152604080518082019091526014815273676574416363756d756c6174656446656573282960601b91015280517f5df45a3726e2430fc7db93443f7d212a24cee57c63dfca1e6d9d339521e8fb6c9082906003908110611b3457611b34614e76565b6001600160e01b0319909216602092830291909101820152604080518082019091526006815265706f6f6c282960d01b91015280517f16f0115b5901d3f6295e520505af05475e18f6f1e134f347475c881a6302260d9082906004908110611b9e57611b9e614e76565b6001600160e01b031990921660209283029190910182015260408051808201909152600e81526d676574506f736974696f6e73282960901b91015280517f80275860e94ae2352a6f96e7331d60fec5acb8be3449303acc2955074b0ae8919082906005908110611c1057611c10614e76565b6001600160e01b031990921660209283029190910182015260408051808201909152600e81526d616674657250726573616c65282960901b91015280517f899e8689d09c1013329814dcc3cd2004aa09d9c22649cb76a50b413c8cae4e1f9082906006908110611c8257611c82614e76565b60200260200101906001600160e01b03191690816001600160e01b031916815250506040518060c00160405280608681526020016156b7608691398051906020012081600781518110611cd757611cd7614e76565b6001600160e01b03199092166020928302919091018201526040805180820190915260138152727365744d616e6167657228616464726573732960681b91015280517fd0ebdbe7294e51559dff65347642239c2dcc3c1d04b820c6861367535fbf89929082906008908110611d4e57611d4e614e76565b6001600160e01b031990921660209283029190910182015260408051808201909152601781527f7365744d6f64656c48656c70657228616464726573732900000000000000000091015280517fbf2e3dd255f1f52978ed60b745decb4605079c3c6617d6a8e938f1f35e0133a49082906009908110611dcf57611dcf614e76565b60200260200101906001600160e01b03191690816001600160e01b03191681525050604051806060016040528060378152602001615680603791398051906020012081600a81518110611e2457611e24614e76565b6001600160e01b031990921660209283029190910182015260408051808201909152601b81527f6d696e74546f6b656e7328616464726573732c75696e7432353629000000000091015280517ff0dda65cf836e94d4ef937906c9c60bfee0b848c2d3202142a7cc87420ad437c908290600b908110611ea557611ea5614e76565b6001600160e01b03199092166020928302919091018201526040805180820190915260138152726275726e546f6b656e732875696e743235362960681b91015280517f6d1b229dafadcd720d5a60a73409508ab97a09a020cffe742460e5a58f790b61908290600c908110611f1c57611f1c614e76565b6001600160e01b031990921660209283029190910182015260408051808201909152601481527362756d70526577617264732875696e743235362960601b91015280517f530096c131d9ad2b3b17e74222f2388ada153f41ef6761c38b4de2869ec33206908290600d908110611f9457611f94614e76565b60200260200101906001600160e01b03191690816001600160e01b0319168152505060405180606001604052806021815260200161565f602191398051906020012081600e81518110611fe957611fe9614e76565b6001600160e01b031990921660209283029190910182015260408051808201909152601a81527f676574526566657272616c456e7469747928616464726573732900000000000091015280517f01cd1631ab7a801894b59f4ef875af07b548e19aab5cc8946f6ad36c343dd3bc908290600f90811061206a5761206a614e76565b6001600160e01b031990921660209283029190910190910152919050565b5f808290506008815111156120e45760405162461bcd60e51b815260206004820152601a60248201527f537472696e6720746f6f206c6f6e6720666f722062797465733800000000000060448201526064015b60405180910390fd5b6020015192915050565b80515f908290820361210257505f92915050565b602081511115612110575f80fd5b602083015181519092505b60208110156121435761212f81601f6150d7565b61213a90600861510c565b5060010161211b565b5050919050565b6040516bffffffffffffffffffffffff193060601b16602082015260e883811b603483015282901b60378201525f90603a0160408051601f1981840301815290829052805160209091012063514ea4bf60e01b82526004820181905291505f906001600160a01b0387169063514ea4bf9060240160a060405180830381865afa1580156121d9573d5f803e3d5ffd5b505050506040513d601f19601f820116820180604052508101906121fd9190615123565b5050505090505f816001600160801b031611156122215761222186868686856137ce565b505050505050565b5f816122376012600a615261565b612241908561510c565b6107cb9190615280565b612253614692565b81518051602090910151600291820b910b1361228257604051631434ed7f60e01b815260040160405180910390fd5b815180516020909101516122bb918891889190865f6020020151608001515f60405180604001604052808c81526020018b8152506138e8565b90505f6040518060600160405280838152602001846001600381106122e2576122e2614e76565b60200201518152602001846002600381106122ff576122ff614e76565b602002015190526040516395d7d0ad60e01b81529091506001600160a01b038716906395d7d0ad906123359084906004016149ae565b5f604051808303815f87803b15801561234c575f80fd5b505af115801561235e573d5f803e3d5ffd5b505050505095945050505050565b5f6401000276a36001600160a01b038316108015906123a7575073fffd8963efd1fc6a506488495d951d5263988d266001600160a01b038316105b6123d75760405162461bcd60e51b81526020600482015260016024820152602960f91b60448201526064016120db565b640100000000600160c01b03602083901b166001600160801b03811160071b81811c67ffffffffffffffff811160061b90811c63ffffffff811160051b90811c61ffff811160041b90811c60ff8111600390811b91821c600f811160021b90811c918211600190811b92831c9790881196179094179092171790911717176080811061247257612468607f826150d7565b83901c9150612483565b61247d81607f6150d7565b83901b91505b5f6040612491608084615293565b901b9050828302607f1c92508260801c80603f1b8217915083811c935050828302607f1c92508260801c80603e1b8217915083811c935050828302607f1c92508260801c80603d1b8217915083811c935050828302607f1c92508260801c80603c1b8217915083811c935050828302607f1c92508260801c80603b1b8217915083811c935050828302607f1c92508260801c80603a1b8217915083811c935050828302607f1c92508260801c8060391b8217915083811c935050828302607f1c92508260801c8060381b8217915083811c935050828302607f1c92508260801c8060371b8217915083811c935050828302607f1c92508260801c8060361b8217915083811c935050828302607f1c92508260801c8060351b8217915083811c935050828302607f1c92508260801c8060341b8217915083811c935050828302607f1c92508260801c8060331b8217915083811c935050828302607f1c92508260801c8060321b82179150505f81693627a301d71055774c8561261391906152b2565b90505f60806126326f028f6481ab7f045a5af012a19d003aaa84615293565b901d90505f6080612653846fdb2df09e81959a81455e260799a0632f6152e1565b901d90508060020b8260020b1461269257886001600160a01b031661267782613a5e565b6001600160a01b0316111561268c5781612694565b80612694565b815b9998505050505050505050565b5f8073__$00856c2daf1848075e4d6b3791a97a7365$__63b7df07b36126c688613e6f565b6040516001600160e01b031960e084901b1681526001600160a01b03909116600482015260ff87166024820152604401602060405180830381865af4158015612711573d5f803e3d5ffd5b505050506040513d601f19601f820116820180604052508101906127359190614e8a565b90505f612745828760020b613e79565b90505f612753828688613ef2565b9050620d89e719600282900b12806127715750620d89e8600282900b135b1561278f57604051637db3aba760e01b815260040160405180910390fd5b925050505b949350505050565b6127a4614692565b825f015160020b836020015160020b136127d1576040516333a3bdff60e21b815260040160405180910390fd5b5f845f01516001600160a01b0316630dfe16816040518163ffffffff1660e01b8152600401602060405180830381865afa158015612811573d5f803e3d5ffd5b505050506040513d601f19601f820116820180604052508101906128359190614d72565b6040516370a0823160e01b81523060048201526001600160a01b0391909116906370a0823190602401602060405180830381865afa158015612879573d5f803e3d5ffd5b505050506040513d601f19601f8201168201806040525081019061289d9190614e8a565b90505f855f01516001600160a01b0316630dfe16816040518163ffffffff1660e01b8152600401602060405180830381865afa1580156128df573d5f803e3d5ffd5b505050506040513d601f19601f820116820180604052508101906129039190614d72565b6040808801519051636eb1769f60e11b81523060048201526001600160a01b03918216602482015291169063dd62ed3e90604401602060405180830381865afa158015612952573d5f803e3d5ffd5b505050506040513d601f19601f820116820180604052508101906129769190614e8a565b90505f865f01516001600160a01b031663d21220a76040518163ffffffff1660e01b8152600401602060405180830381865afa1580156129b8573d5f803e3d5ffd5b505050506040513d601f19601f820116820180604052508101906129dc9190614d72565b6040808901519051636eb1769f60e11b81523060048201526001600160a01b03918216602482015291169063dd62ed3e90604401602060405180830381865afa158015612a2b573d5f803e3d5ffd5b505050506040513d601f19601f82011682018060405250810190612a4f9190614e8a565b90505f198214612b3057865f01516001600160a01b0316630dfe16816040518163ffffffff1660e01b8152600401602060405180830381865afa158015612a98573d5f803e3d5ffd5b505050506040513d601f19601f82011682018060405250810190612abc9190614d72565b6001600160a01b031663095ea7b388604001515f196040518363ffffffff1660e01b8152600401612aee929190614db4565b6020604051808303815f875af1158015612b0a573d5f803e3d5ffd5b505050506040513d601f19601f82011682018060405250810190612b2e9190614eb0565b505b5f198114612c0f57865f01516001600160a01b031663d21220a76040518163ffffffff1660e01b8152600401602060405180830381865afa158015612b77573d5f803e3d5ffd5b505050506040513d601f19601f82011682018060405250810190612b9b9190614d72565b6001600160a01b031663095ea7b388604001515f196040518363ffffffff1660e01b8152600401612bcd929190614db4565b6020604051808303815f875af1158015612be9573d5f803e3d5ffd5b505050506040513d601f19601f82011682018060405250810190612c0d9190614eb0565b505b600286606001516002811115612c2757612c27614dcd565b036135d05760608701518751602089015160405163526ed0d160e11b81525f936001600160a01b03169263a4dda1a292612c78926004016001600160a01b0392831681529116602082015260400190565b602060405180830381865afa158015612c93573d5f803e3d5ffd5b505050506040513d601f19601f82011682018060405250810190612cb79190614e8a565b90505f885f01516001600160a01b0316630dfe16816040518163ffffffff1660e01b8152600401602060405180830381865afa158015612cf9573d5f803e3d5ffd5b505050506040513d601f19601f82011682018060405250810190612d1d9190614d72565b6001600160a01b03166318160ddd6040518163ffffffff1660e01b8152600401602060405180830381865afa158015612d58573d5f803e3d5ffd5b505050506040513d601f19601f82011682018060405250810190612d7c9190614e8a565b90505f895f01516001600160a01b0316633850c7bd6040518163ffffffff1660e01b815260040160e060405180830381865afa158015612dbe573d5f803e3d5ffd5b505050506040513d601f19601f82011682018060405250810190612de29190614ec9565b5050505050509050306001600160a01b031663c58aad876040518163ffffffff1660e01b815260040161022060405180830381865afa158015612e27573d5f803e3d5ffd5b505050506040513d601f19601f82011682018060405250810190612e4b9190614fb9565b6101200151612e5a9084615280565b8610156131a65787156131a6575f8a60a001516001600160a01b03166383183fd9845f306001600160a01b031663dee02ffa6040518163ffffffff1660e01b8152600401602060405180830381865afa158015612eb9573d5f803e3d5ffd5b505050506040513d601f19601f82011682018060405250810190612edd9190614e8a565b11612ee9576001612f49565b306001600160a01b031663dee02ffa6040518163ffffffff1660e01b8152600401602060405180830381865afa158015612f25573d5f803e3d5ffd5b505050506040513d601f19601f82011682018060405250810190612f499190614e8a565b60405163b7df07b360e01b81526001600160a01b03871660048201526012602482015273__$00856c2daf1848075e4d6b3791a97a7365$__9063b7df07b390604401602060405180830381865af4158015612fa6573d5f803e3d5ffd5b505050506040513d601f19601f82011682018060405250810190612fca9190614e8a565b8f606001516001600160a01b0316636013be6d306040518263ffffffff1660e01b815260040161300991906001600160a01b0391909116815260200190565b602060405180830381865afa158015613024573d5f803e3d5ffd5b505050506040513d601f19601f820116820180604052508101906130489190614e8a565b6040516001600160e01b031960e087901b1681526004810194909452602484019290925260448301526064820152608401602060405180830381865afa158015613094573d5f803e3d5ffd5b505050506040513d601f19601f820116820180604052508101906130b89190614e8a565b90508015806130c657508281115b1561313e57306001600160a01b031663c58aad876040518163ffffffff1660e01b815260040161022060405180830381865afa158015613108573d5f803e3d5ffd5b505050506040513d601f19601f8201168201806040525081019061312c9190614fb9565b610120015161313b9085615280565b90505b604051633c37699760e21b8152309063f0dda65c906131639083908590600401614db4565b6020604051808303815f875af115801561317f573d5f803e3d5ffd5b505050506040513d601f19601f820116820180604052508101906131a39190614eb0565b50505b306001600160a01b031663c58aad876040518163ffffffff1660e01b815260040161022060405180830381865afa1580156131e3573d5f803e3d5ffd5b505050506040513d601f19601f820116820180604052508101906132079190614fb9565b61014001516132169084615280565b861061334c578761334c57604051636d1b229d60e01b8152600481018790523090636d1b229d906024015f604051808303815f87803b158015613257575f80fd5b505af1158015613269573d5f803e3d5ffd5b50505050306001600160a01b031663f0dda65c30306001600160a01b031663c58aad876040518163ffffffff1660e01b815260040161022060405180830381865afa1580156132ba573d5f803e3d5ffd5b505050506040513d601f19601f820116820180604052508101906132de9190614fb9565b61014001516132ed9087615280565b6040518363ffffffff1660e01b815260040161330a929190614db4565b6020604051808303815f875af1158015613326573d5f803e3d5ffd5b505050506040513d601f19601f8201168201806040525081019061334a9190614eb0565b505b895f01516001600160a01b0316630dfe16816040518163ffffffff1660e01b8152600401602060405180830381865afa15801561338b573d5f803e3d5ffd5b505050506040513d601f19601f820116820180604052508101906133af9190614d72565b6040516370a0823160e01b81523060048201526001600160a01b0391909116906370a0823190602401602060405180830381865afa1580156133f3573d5f803e3d5ffd5b505050506040513d601f19601f820116820180604052508101906134179190614e8a565b9550855f036135cc57306001600160a01b031663f0dda65c30306001600160a01b031663c58aad876040518163ffffffff1660e01b815260040161022060405180830381865afa15801561346d573d5f803e3d5ffd5b505050506040513d601f19601f820116820180604052508101906134919190614fb9565b61012001516134a09087615280565b6040518363ffffffff1660e01b81526004016134bd929190614db4565b6020604051808303815f875af11580156134d9573d5f803e3d5ffd5b505050506040513d601f19601f820116820180604052508101906134fd9190614eb0565b50895f01516001600160a01b0316630dfe16816040518163ffffffff1660e01b8152600401602060405180830381865afa15801561353d573d5f803e3d5ffd5b505050506040513d601f19601f820116820180604052508101906135619190614d72565b6040516370a0823160e01b81523060048201526001600160a01b0391909116906370a0823190602401602060405180830381865afa1580156135a5573d5f803e3d5ffd5b505050506040513d601f19601f820116820180604052508101906135c99190614e8a565b95505b5050505b86604001516001600160a01b031663ae9b8277885f015130895f01518a602001518b6060015160405180604001604052808b81526020016001600281111561361a5761361a614dcd565b8f60600151600281111561363057613630614dcd565b1461363c576001613642565b8e604001515b8152506040518763ffffffff1660e01b815260040161366696959493929190615308565b60a0604051808303815f875af1158015613682573d5f803e3d5ffd5b505050506040513d601f19601f820116820180604052508101906136a6919061535b565b979650505050505050565b80518051601e805460208085015160408087015162ffffff96871665ffffffffffff1995861617630100000093881684021775ffffffffffffffffffffffffffffffff00000000000019908116600160301b6001600160801b039384168102919091179097556060808a0151601f556080998a0151865462ffffff19908116918b16919091178755868c0151805160218054838b0151848a0151938f16918d1691909117908e168a021786169187168c02919091179055808301516022558b0151602380548316918c169190911790559a8401518051602480549883015196830151918c169890991697909717948a1690950293909317169316909402919091179091559081015160255590910151602680549093169116179055565b60405163a34123a760e01b8152600284810b600483015283900b60248201526001600160801b03821660448201526001600160a01b0386169063a34123a79060640160408051808303815f875af115801561382b573d5f803e3d5ffd5b505050506040513d601f19601f8201168201806040525081019061384f91906150ea565b50506040516309e3d67b60e31b81526001600160a01b038581166004830152600285810b602484015284900b60448301526001600160801b03606483018190526084830152861690634f1eb3d89060a40160408051808303815f875af11580156138bb573d5f803e3d5ffd5b505050506040513d601f19601f820116820180604052508101906138df91906153ca565b50505050505050565b6138f0614692565b5f886001600160a01b0316633850c7bd6040518163ffffffff1660e01b815260040160e060405180830381865afa15801561392d573d5f803e3d5ffd5b505050506040513d601f19601f820116820180604052508101906139519190614ec9565b50505050505090505f61397c826139678a613a5e565b6139708a613a5e565b87516020890151614039565b9050600285600281111561399257613992614dcd565b036139e05783515f036139e05783516139aa906140fa565b6040516020016139ba9190615402565b60408051601f198184030181529082905262461bcd60e51b82526120db9160040161547f565b6001600160801b03811615613a03576139fe8a8a8a8a858a5f614220565b613a1e565b8351613a0e906140fa565b6040516020016139ba9190615491565b6040805160a0810182526002998a0b815297890b60208901526001600160801b039091169087015250505f6060850152505090910b608082015292915050565b5f805f8360020b12613a73578260020b613a80565b8260020b613a80906154df565b9050613a8f620d89e7196154f9565b60020b811115613ac55760405162461bcd60e51b81526020600482015260016024820152601560fa1b60448201526064016120db565b5f816001165f03613ada57600160801b613aec565b6ffffcb933bd6fad37aa2d162d1a5940015b70ffffffffffffffffffffffffffffffffff1690506002821615613b2b576080613b26826ffff97272373d413259a46990580e213a61510c565b901c90505b6004821615613b55576080613b50826ffff2e50f5f656932ef12357cf3c7fdcc61510c565b901c90505b6008821615613b7f576080613b7a826fffe5caca7e10e4e61c3624eaa0941cd061510c565b901c90505b6010821615613ba9576080613ba4826fffcb9843d60f6159c9db58835c92664461510c565b901c90505b6020821615613bd3576080613bce826fff973b41fa98c081472e6896dfb254c061510c565b901c90505b6040821615613bfd576080613bf8826fff2ea16466c96a3843ec78b326b5286161510c565b901c90505b6080821615613c27576080613c22826ffe5dee046a99a2a811c461f1969c305361510c565b901c90505b610100821615613c52576080613c4d826ffcbe86c7900a88aedcffc83b479aa3a461510c565b901c90505b610200821615613c7d576080613c78826ff987a7253ac413176f2b074cf7815e5461510c565b901c90505b610400821615613ca8576080613ca3826ff3392b0822b70005940c7a398e4b70f361510c565b901c90505b610800821615613cd3576080613cce826fe7159475a2c29b7443b29c7fa6e889d961510c565b901c90505b611000821615613cfe576080613cf9826fd097f3bdfd2022b8845ad8f792aa582561510c565b901c90505b612000821615613d29576080613d24826fa9f746462d870fdf8a65dc1f90e061e561510c565b901c90505b614000821615613d54576080613d4f826f70d869a156d2a1b890bb3df62baf32f761510c565b901c90505b618000821615613d7f576080613d7a826f31be135f97d08fd981231505542fcfa661510c565b901c90505b62010000821615613dab576080613da6826f09aa508b5b7a84e1c677de54f3e99bc961510c565b901c90505b62020000821615613dd6576080613dd1826e5d6af8dedb81196699c329225ee60461510c565b901c90505b62040000821615613e00576080613dfb826d2216e584f5fa1ea926041bedfe9861510c565b901c90505b62080000821615613e28576080613e23826b048a170391f7dc42444e8fa261510c565b901c90505b5f8460020b1315613e4157613e3e815f19615280565b90505b613e5064010000000082615519565b15613e5c576001613e5e565b5f5b6127949060ff16602083901c614da1565b5f6107ce82613a5e565b5f808212613ead575f612710613e8f848661510c565b613e999190615280565b9050613ea58185614da1565b9150506107ce565b5f612710613eba846154df565b613ec4908661510c565b613ece9190615280565b905083811115613ee1575f9150506107ce565b613ea581856150d7565b5092915050565b5f60068260ff1610158015613f0b575060128260ff1611155b613f2857604051630692acc560e51b815260040160405180910390fd5b5f613f3483601261552c565b613f3f90600a615545565b9050613f4b81866152b2565b94508361402468033dd1780914b9684073__$28bae0af19d0e90d77349cc0e88bc3c39a$__63bc4225aa613f878a670de0b6b3a76400006152b2565b6040516001600160e01b031960e084901b1681526004810191909152670de0b6b3a764000060248201526706f05b59d3b200006044820152606401602060405180830381865af4158015613fdd573d5f803e3d5ffd5b505050506040513d601f19601f820116820180604052508101906140019190614e8a565b61400b9190615293565b61401f600288900b658334ae9d7c0a6152b2565b6143a4565b61402e9190615553565b9150505b9392505050565b5f836001600160a01b0316856001600160a01b03161115614058579293925b846001600160a01b0316866001600160a01b0316116140835761407c8585856143f3565b90506140f1565b836001600160a01b0316866001600160a01b031610156140e3575f6140a98786866143f3565b90505f6140b787898661445b565b9050806001600160801b0316826001600160801b0316106140d857806140da565b815b925050506140f1565b6140ee85858461445b565b90505b95945050505050565b6060815f036141205750506040805180820190915260018152600360fc1b602082015290565b815f5b8115614149578061413381615572565b91506141429050600a83615280565b9150614123565b5f8167ffffffffffffffff81111561416357614163614720565b6040519080825280601f01601f19166020018201604052801561418d576020820181803683370190505b509050815b8515614217576141a36001826150d7565b90505f6141b1600a88615280565b6141bc90600a61510c565b6141c690886150d7565b6141d190603061558a565b90505f8160f81b9050808484815181106141ed576141ed614e76565b60200101906001600160f81b03191690815f1a90535061420e600a89615280565b97505050614192565b50949350505050565b6040805180820190915260048152631b5a5b9d60e21b6020820152606090821561428d57604051806040016040528060058152602001641cda1a599d60da1b81525090505f816040516020016142779291906155a3565b6040516020818303038152906040529150614324565b5f8460028111156142a0576142a0614dcd565b036142b8575f816040516020016142779291906155a3565b60018460028111156142cc576142cc614dcd565b036142e5576001816040516020016142779291906155a3565b60028460028111156142f9576142f9614dcd565b03614324576002816040516020016143129291906155a3565b60405160208183030381529060405291505b604051633c8a7d8d60e01b81526001600160a01b038a1690633c8a7d8d90614358908b908b908b908b9089906004016155be565b60408051808303815f875af1158015614373573d5f803e3d5ffd5b505050506040513d601f19601f8201168201806040525081019061439791906150ea565b5050505050505050505050565b5f611388612710836143b686836152b2565b6143c091906155ff565b6143ca919061562b565b136143de576143d982846155ff565b6107cb565b6143e882846155ff565b6107cb9060016152e1565b5f826001600160a01b0316846001600160a01b03161115614412579192915b5f614434856001600160a01b0316856001600160a01b0316600160601b614490565b905061402e6144568483614448898961563e565b6001600160a01b0316614490565b614536565b5f826001600160a01b0316846001600160a01b0316111561447a579192915b61279461445683600160601b614448888861563e565b5f80805f19858709858702925082811083820303915050805f036144c4575f84116144b9575f80fd5b508290049050614032565b8084116144cf575f80fd5b5f8486880960026001871981018816978890046003810283188082028403028082028403028082028403028082028403028082028403029081029092039091025f889003889004909101858311909403939093029303949094049190911702949350505050565b806001600160801b038116811461454b575f80fd5b919050565b6001830191839082156145d5579160200282015f5b838211156145a557835183826101000a81548161ffff021916908361ffff1602179055509260200192600201602081600101049283019260010302614565565b80156145d35782816101000a81549061ffff02191690556002016020816001010492830192600103026145a5565b505b506145e19291506146bf565b5090565b60405180606001604052806003905b6145fc614692565b8152602001906001900390816145f45790505090565b60408051610200810182525f80825260208201819052918101919091526060810161463b6146d3565b81526020015f81526020015f81526020015f60020b81526020015f60020b81526020015f60020b81526020015f81526020015f81526020015f81526020015f81526020015f81526020015f81526020015f81525090565b6040805160a0810182525f8082526020820181905291810182905260608101829052608081019190915290565b5b808211156145e1575f81556001016146c0565b60405180604001604052806002906020820280368337509192915050565b6001600160a01b038116811461144d575f80fd5b5f60208284031215614715575f80fd5b8135614032816146f1565b634e487b7160e01b5f52604160045260245ffd5b604051610200810167ffffffffffffffff8111828210171561475857614758614720565b60405290565b60405160a0810167ffffffffffffffff8111828210171561475857614758614720565b6040805190810167ffffffffffffffff8111828210171561475857614758614720565b6040516060810167ffffffffffffffff8111828210171561475857614758614720565b60ff8116811461144d575f80fd5b803561454b816147c7565b61ffff8116811461144d575f80fd5b5f82601f8301126147fe575f80fd5b614806614781565b806040840185811115614817575f80fd5b845b8181101561483a57803561482c816147e0565b845260209384019301614819565b509095945050505050565b8060020b811461144d575f80fd5b803561454b81614845565b5f610220828403121561486f575f80fd5b614877614734565b614880836147d5565b815261488e602084016147d5565b602082015261489f604084016147d5565b60408201526148b184606085016147ef565b606082015260a0830135608082015260c083013560a08201526148d660e08401614853565b60c08201526101006148e9818501614853565b60e08301526101206148fc818601614853565b828401526101409150818501358184015250610160808501358284015261018091508185013581840152506101a080850135828401526101c091508185013581840152506101e080850135828401526102008501358184015250508091505092915050565b5f8060408385031215614972575f80fd5b82356001600160c01b031981168114614989575f80fd5b946020939093013593505050565b5f602082840312156149a7575f80fd5b5035919050565b6101e0810181835f5b6003811015614a165781518051600290810b8552602080830151820b818701526040808401516001600160801b0316908701526060808401519087015260809283015190910b9185019190915260a090930192909101906001016149b7565b50505092915050565b6001600160801b038116811461144d575f80fd5b5f6101e0808385031215614a45575f80fd5b83601f840112614a53575f80fd5b614a5b6147a4565b908301908085831115614a6c575f80fd5b845b83811015614aec5760a08188031215614a85575f80fd5b614a8d61475e565b8135614a9881614845565b8152602082810135614aa981614845565b82820152604083810135614abc81614a1f565b9083015260608381013590830152608080840135614ad981614845565b908301529084529092019160a001614a6e565b5095945050505050565b805f5b6002811015614b1c57815161ffff16845260209384019390910190600101614af9565b50505050565b815160ff16815261022081016020830151614b42602084018260ff169052565b506040830151614b57604084018260ff169052565b506060830151614b6a6060840182614af6565b50608083015160a083015260a083015160c083015260c0830151614b9360e084018260020b9052565b5060e0830151610100614baa8185018360020b9052565b8401519050610120614bc08482018360020b9052565b8401516101408481019190915284015161016080850191909152840151610180808501919091528401516101a0808501919091528401516101c0808501919091528401516101e0808501919091529093015161020090920191909152919050565b5f805f60608486031215614c33575f80fd5b505081359360208301359350604090920135919050565b5f8060408385031215614c5b575f80fd5b8235614989816146f1565b602080825282518282018190525f9190848201906040850190845b81811015614ca75783516001600160e01b03191683529284019291840191600101614c81565b50909695505050505050565b5f5b83811015614ccd578181015183820152602001614cb5565b50505f910152565b5f60208284031215614ce5575f80fd5b815167ffffffffffffffff80821115614cfc575f80fd5b818401915084601f830112614d0f575f80fd5b815181811115614d2157614d21614720565b604051601f8201601f19908116603f01168101908382118183101715614d4957614d49614720565b81604052828152876020848701011115614d61575f80fd5b6136a6836020830160208801614cb3565b5f60208284031215614d82575f80fd5b8151614032816146f1565b634e487b7160e01b5f52601160045260245ffd5b808201808211156107ce576107ce614d8d565b6001600160a01b03929092168252602082015260400190565b634e487b7160e01b5f52602160045260245ffd5b60038110614dfd57634e487b7160e01b5f52602160045260245ffd5b9052565b6001600160a01b03848116825283166020820152606081016127946040830184614de1565b805161454b81614845565b5f805f8060808587031215614e44575f80fd5b8451614e4f81614845565b6020860151909450614e6081614845565b6040860151606090960151949790965092505050565b634e487b7160e01b5f52603260045260245ffd5b5f60208284031215614e9a575f80fd5b5051919050565b8051801515811461454b575f80fd5b5f60208284031215614ec0575f80fd5b6107cb82614ea1565b5f805f805f805f60e0888a031215614edf575f80fd5b8751614eea816146f1565b6020890151909750614efb81614845565b6040890151909650614f0c816147e0565b6060890151909550614f1d816147e0565b6080890151909450614f2e816147e0565b60a089015190935063ffffffff81168114614f47575f80fd5b9150614f5560c08901614ea1565b905092959891949750929550565b805161454b816147c7565b5f82601f830112614f7d575f80fd5b614f85614781565b806040840185811115614f96575f80fd5b845b8181101561483a578051614fab816147e0565b845260209384019301614f98565b5f6102208284031215614fca575f80fd5b614fd2614734565b614fdb83614f63565b8152614fe960208401614f63565b6020820152614ffa60408401614f63565b604082015261500c8460608501614f6e565b606082015260a0830151608082015260c083015160a082015261503160e08401614e26565b60c0820152610100615044818501614e26565b60e0830152610120615057818601614e26565b828401526101409150818501518184015250610160808501518284015261018091508185015181840152506101a080850151828401526101c091508185015181840152506101e080850151828401526102008501518184015250508091505092915050565b5f602082840312156150cc575f80fd5b8151614032816147c7565b818103818111156107ce576107ce614d8d565b5f80604083850312156150fb575f80fd5b505080516020909101519092909150565b80820281158282048414176107ce576107ce614d8d565b5f805f805f60a08688031215615137575f80fd5b855161514281614a1f565b809550506020860151935060408601519250606086015161516281614a1f565b608087015190925061517381614a1f565b809150509295509295909350565b600181815b808511156151bb57815f19048211156151a1576151a1614d8d565b808516156151ae57918102915b93841c9390800290615186565b509250929050565b5f826151d1575060016107ce565b816151dd57505f6107ce565b81600181146151f357600281146151fd57615219565b60019150506107ce565b60ff84111561520e5761520e614d8d565b50506001821b6107ce565b5060208310610133831016604e8410600b841016171561523c575081810a6107ce565b6152468383615181565b805f190482111561525957615259614d8d565b029392505050565b5f6107cb83836151c3565b634e487b7160e01b5f52601260045260245ffd5b5f8261528e5761528e61526c565b500490565b8181035f831280158383131683831282161715613eeb57613eeb614d8d565b8082025f8212600160ff1b841416156152cd576152cd614d8d565b81810583148215176107ce576107ce614d8d565b8082018281125f83128015821682158216171561530057615300614d8d565b505092915050565b6001600160a01b03878116825286166020820152600285810b604083015284900b606082015260e0810161533f6080830185614de1565b825160a0830152602083015160c0830152979650505050505050565b5f60a0828403121561536b575f80fd5b61537361475e565b825161537e81614845565b8152602083015161538e81614845565b602082015260408301516153a181614a1f565b60408201526060838101519082015260808301516153be81614845565b60808201529392505050565b5f80604083850312156153db575f80fd5b82516153e681614a1f565b60208401519092506153f781614a1f565b809150509250929050565b7f5f6465706c6f79506f736974696f6e2831293a206c697175696469747920697381526401018101d160dd1b60208201525f8251615447816025850160208701614cb3565b9190910160250192915050565b5f815180845261546b816020860160208601614cb3565b601f01601f19169290920160200192915050565b602081525f6107cb6020830184615454565b7f5f6465706c6f79506f736974696f6e2832293a20616d6f756e7430206973203a8152600160fd1b60208201525f82516154d2816021850160208701614cb3565b9190910160210192915050565b5f600160ff1b82016154f3576154f3614d8d565b505f0390565b5f8160020b627fffff19810361551157615511614d8d565b5f0392915050565b5f826155275761552761526c565b500690565b60ff82811682821603908111156107ce576107ce614d8d565b5f6107cb60ff8416836151c3565b5f8260020b8260020b028060020b9150808214613eeb57613eeb614d8d565b5f6001820161558357615583614d8d565b5060010190565b60ff81811683821601908111156107ce576107ce614d8d565b60ff83168152604060208201525f6127946040830184615454565b60018060a01b03861681528460020b60208201528360020b60408201526001600160801b038316606082015260a060808201525f6136a660a0830184615454565b5f8261560d5761560d61526c565b600160ff1b82145f198414161561562657615626614d8d565b500590565b5f826156395761563961526c565b500790565b6001600160a01b03828116828216039080821115613eeb57613eeb614d8d56fe736574526566657272616c456e74697479286279746573382c75696e7432353629757064617465506f736974696f6e732828696e7432342c696e7432342c75696e743132382c75696e743235362c696e743234295b335d2973657450726f746f636f6c506172616d6574657273282875696e74382c75696e74382c75696e74382c75696e7431365b325d2c75696e743235362c75696e743235362c696e7432342c696e7432342c696e7432342c75696e743235362c75696e743235362c75696e743235362c75696e743235362c75696e743235362c75696e743235362929a2646970667358221220dab33a051a42682da439269f1afdafb1c1c41e3aa3eef0ea3f0309c4a344b50d64736f6c63430008170033","linkReferences":{"src/libraries/Conversions.sol":{"Conversions":[{"start":9923,"length":20},{"start":12172,"length":20}]},"src/libraries/Logarithm.sol":{"Logarithm":[{"start":16251,"length":20}]},"src/libraries/Utils.sol":{"Utils":[{"start":799,"length":20}]}}},"methodIdentifiers":{"afterPresale()":"899e8689","bumpRewards(uint256)":"530096c1","burnTokens(uint256)":"6d1b229d","exchangeHelper()":"2ba25014","getAccumulatedFees()":"5df45a37","getFunctionSelectors()":"fd896f9d","getPositions()":"80275860","getProtocolParameters()":"c58aad87","getReferralEntity(address)":"01cd1631","getTimeSinceLastMint()":"dee02ffa","mintTokens(address,uint256)":"f0dda65c","pool()":"16f0115b","selfRepayLoans(uint256,uint256,uint256)":"e2379809","setManager(address)":"d0ebdbe7","setModelHelper(address)":"bf2e3dd2","setProtocolParameters((uint8,uint8,uint8,uint16[2],uint256,uint256,int24,int24,int24,uint256,uint256,uint256,uint256,uint256,uint256,uint256))":"19b10ac3","setReferralEntity(bytes8,uint256)":"259b8fd8","teamMultiSig()":"854567f1","updatePositions((int24,int24,uint128,uint256,int24)[3])":"95d7d0ad"},"id":133}