{"abi":[{"type":"function","name":"adaptiveSupply","inputs":[],"outputs":[{"name":"","type":"address","internalType":"address"}],"stateMutability":"view"},{"type":"function","name":"factory","inputs":[],"outputs":[{"name":"","type":"address","internalType":"address"}],"stateMutability":"view"},{"type":"function","name":"getExcessReserveToken1","inputs":[],"outputs":[{"name":"","type":"uint256","internalType":"uint256"}],"stateMutability":"view"},{"type":"function","name":"getFunctionSelectors","inputs":[],"outputs":[{"name":"","type":"bytes4[]","internalType":"bytes4[]"}],"stateMutability":"pure"},{"type":"function","name":"getProtocolAddresses","inputs":[],"outputs":[{"name":"","type":"tuple","internalType":"struct ProtocolAddresses","components":[{"name":"pool","type":"address","internalType":"address"},{"name":"vault","type":"address","internalType":"address"},{"name":"deployer","type":"address","internalType":"address"},{"name":"modelHelper","type":"address","internalType":"address"},{"name":"presaleContract","type":"address","internalType":"address"},{"name":"adaptiveSupplyController","type":"address","internalType":"address"}]}],"stateMutability":"view"},{"type":"function","name":"getUnderlyingBalances","inputs":[{"name":"liquidityType","type":"uint8","internalType":"enum LiquidityType"}],"outputs":[{"name":"","type":"int24","internalType":"int24"},{"name":"","type":"int24","internalType":"int24"},{"name":"","type":"uint256","internalType":"uint256"},{"name":"","type":"uint256","internalType":"uint256"}],"stateMutability":"view"},{"type":"function","name":"getVaultInfo","inputs":[],"outputs":[{"name":"vaultInfo","type":"tuple","internalType":"struct VaultInfo","components":[{"name":"liquidityRatio","type":"uint256","internalType":"uint256"},{"name":"circulatingSupply","type":"uint256","internalType":"uint256"},{"name":"spotPriceX96","type":"uint256","internalType":"uint256"},{"name":"anchorCapacity","type":"uint256","internalType":"uint256"},{"name":"floorCapacity","type":"uint256","internalType":"uint256"},{"name":"token0","type":"address","internalType":"address"},{"name":"token1","type":"address","internalType":"address"},{"name":"newFloor","type":"uint256","internalType":"uint256"}]}],"stateMutability":"view"},{"type":"function","name":"initialize","inputs":[{"name":"_factory","type":"address","internalType":"address"},{"name":"_owner","type":"address","internalType":"address"},{"name":"_deployer","type":"address","internalType":"address"},{"name":"_pool","type":"address","internalType":"address"},{"name":"_stakingContract","type":"address","internalType":"address"},{"name":"_presaleContract","type":"address","internalType":"address"},{"name":"_tokenRepo","type":"address","internalType":"address"},{"name":"_params","type":"tuple","internalType":"struct ProtocolParameters","components":[{"name":"floorPercentage","type":"uint8","internalType":"uint8"},{"name":"anchorPercentage","type":"uint8","internalType":"uint8"},{"name":"idoPriceMultiplier","type":"uint8","internalType":"uint8"},{"name":"floorBips","type":"uint16[2]","internalType":"uint16[2]"},{"name":"shiftRatio","type":"uint256","internalType":"uint256"},{"name":"slideRatio","type":"uint256","internalType":"uint256"},{"name":"discoveryBips","type":"int24","internalType":"int24"},{"name":"shiftAnchorUpperBips","type":"int24","internalType":"int24"},{"name":"slideAnchorUpperBips","type":"int24","internalType":"int24"},{"name":"lowBalanceThresholdFactor","type":"uint256","internalType":"uint256"},{"name":"highBalanceThresholdFactor","type":"uint256","internalType":"uint256"},{"name":"inflationFee","type":"uint256","internalType":"uint256"},{"name":"loanFee","type":"uint256","internalType":"uint256"},{"name":"deployFee","type":"uint256","internalType":"uint256"},{"name":"presalePremium","type":"uint256","internalType":"uint256"}]}],"outputs":[],"stateMutability":"nonpayable"},{"type":"function","name":"initializeLiquidity","inputs":[{"name":"positions","type":"tuple[3]","internalType":"struct LiquidityPosition[3]","components":[{"name":"lowerTick","type":"int24","internalType":"int24"},{"name":"upperTick","type":"int24","internalType":"int24"},{"name":"liquidity","type":"uint128","internalType":"uint128"},{"name":"price","type":"uint256","internalType":"uint256"},{"name":"tickSpacing","type":"int24","internalType":"int24"}]}],"outputs":[],"stateMutability":"nonpayable"},{"type":"function","name":"modelHelper","inputs":[],"outputs":[{"name":"","type":"address","internalType":"address"}],"stateMutability":"view"},{"type":"function","name":"setFees","inputs":[{"name":"_feesAccumulatedToken0","type":"uint256","internalType":"uint256"},{"name":"_feesAccumulatedToken1","type":"uint256","internalType":"uint256"}],"outputs":[],"stateMutability":"nonpayable"},{"type":"function","name":"uniswapV3MintCallback","inputs":[{"name":"amount0Owed","type":"uint256","internalType":"uint256"},{"name":"amount1Owed","type":"uint256","internalType":"uint256"},{"name":"data","type":"bytes","internalType":"bytes"}],"outputs":[],"stateMutability":"nonpayable"},{"type":"event","name":"FloorUpdated","inputs":[{"name":"floorPrice","type":"uint256","indexed":false,"internalType":"uint256"},{"name":"floorCapacity","type":"uint256","indexed":false,"internalType":"uint256"}],"anonymous":false},{"type":"error","name":"AlreadyInitialized","inputs":[]},{"type":"error","name":"CallbackCaller","inputs":[]},{"type":"error","name":"InvalidPosition","inputs":[]},{"type":"error","name":"OnlyDeployer","inputs":[]},{"type":"error","name":"OnlyFactory","inputs":[]},{"type":"error","name":"OnlyInternalCalls","inputs":[]},{"type":"error","name":"ResolverNotSet","inputs":[]}],"bytecode":{"object":"0x608060405234801561000f575f80fd5b50611f278061001d5f395ff3fe608060405234801561000f575f80fd5b50600436106100b1575f3560e01c8063c45a01551161006e578063c45a0155146101f2578063d3487997146101fa578063ef5ddb311461020d578063f4a1a46d14610215578063fd896f9d14610250578063ffb938db14610265575f80fd5b80630b78f9c0146100b557806314cdce32146100ca5780637f98aa71146100dd5780637fd762af1461015c578063a1774da01461016f578063a3e44b33146101d2575b5f80fd5b6100c86100c3366004611744565b61027b565b005b6100c86100d83660046118a9565b6102e8565b6100e561079f565b60405161015391905f61010082019050825182526020830151602083015260408301516040830152606083015160608301526080830151608083015260a083015160018060a01b0380821660a08501528060c08601511660c0850152505060e083015160e083015292915050565b60405180910390f35b6100c861016a366004611a35565b61088b565b610177610a67565b604051610153919081516001600160a01b03908116825260208084015182169083015260408084015182169083015260608084015182169083015260808084015182169083015260a092830151169181019190915260c00190565b6101da610b0d565b6040516001600160a01b039091168152602001610153565b6101da610c98565b6100c8610208366004611b03565b610dd7565b6101da610fee565b610228610223366004611b7c565b61113a565b60408051600295860b81529390940b6020840152928201526060810191909152608001610153565b6102586111d2565b6040516101539190611ba1565b61026d61156e565b604051908152602001610153565b5f546001600160a01b031633148015906102955750333014155b156102b35760405163139f696160e31b815260040160405180910390fd5b815f6029015f8282546102c69190611c02565b9091555050602a80548291905f906102df908490611c02565b90915550505050565b6102f0610c98565b6001600160a01b0316336001600160a01b03161461032157604051630636a15760e11b815260040160405180910390fd5b7f69730368e6694620030103ebb8c2fe0f33ca206057d7fbee6e88a9161a059d29547f69730368e6694620030103ebb8c2fe0f33ca206057d7fbee6e88a9161a059d24906001600160a01b031661038b57604051630d09117560e41b815260040160405180910390fd5b6005810154600280546001600160a01b039283166001600160a01b031991821617909155602880546601000000000000600160d01b031916600160301b8a8516810291909117918290555f80549093168d85161790925560408051630dfe168160e01b815290519290910490921691630dfe16819160048083019260209291908290030181865afa158015610422573d5f803e3d5ffd5b505050506040513d601f19601f820116820180604052508101906104469190611c20565b602680546001600160a01b0319166001600160a01b039283161790556028546040805163d21220a760e01b81529051600160301b9092049092169163d21220a79160048083019260209291908290030181865afa1580156104a9573d5f803e3d5ffd5b505050506040513d601f19601f820116820180604052508101906104cd9190611c20565b602780546001600160a01b03199081166001600160a01b0393841617909155601480545f60258190556101808701516006805460ff191660ff9092169190911790556016805485168b87161790556017805485168a8716179055600555601a8054909316878516179092556101006001600160b01b031990921662010000938b169390930292909217179055610561610b0d565b601580546001600160a01b03929092166001600160a01b03199092169190911790558151600980546020850151604086015160ff908116620100000262ff0000199282166101000261ffff199094169190951617919091171691909117815560608301518391906105d690600a90600261169b565b506080820151600282015560a0820151600382015560c08201516004808301805460e086015161010087015162ffffff95861665ffffffffffff19909316929092176301000000918616919091021768ffffff0000000000001916600160301b94909116840217905561012084015160058401556101408401516006840155610160840151600784015561018084015160088401556101a084015160098401556101c090930151600a90920191909155600180546001600160a01b0319166001600160a01b038c811691909117909155305f908152602b6020908152604091829020805460ff191690556028548251630dfe168160e01b8152925194900490921693630dfe16819382820193929091908290030181865afa1580156106fd573d5f803e3d5ffd5b505050506040513d601f19601f820116820180604052508101906107219190611c20565b60405163095ea7b360e01b81526001600160a01b0389811660048301525f196024830152919091169063095ea7b3906044016020604051808303815f875af115801561076f573d5f803e3d5ffd5b505050506040513d601f19601f820116820180604052508101906107939190611c3b565b50505050505050505050565b6107f16040518061010001604052805f81526020015f81526020015f81526020015f81526020015f81526020015f6001600160a01b031681526020015f6001600160a01b031681526020015f81525090565b6107f9610b0d565b602854604051638a3fecc960e01b81526001600160a01b03600160301b909204821660048201523060248201526026548216604482015260275482166064820152911690638a3fecc99060840161010060405180830381865afa158015610862573d5f803e3d5ffd5b505050506040513d601f19601f820116820180604052508101906108869190611c5a565b905090565b6014546201000090046001600160a01b031633146108bc5760405163618bbdd560e01b815260040160405180910390fd5b60145460ff16156108df5760405162dc149f60e41b815260040160405180910390fd5b8051604001516001600160801b0316158061090957506020810151604001516001600160801b0316155b80610922575060408082015101516001600160801b0316155b156109405760405163673f032f60e11b815260040160405180910390fd5b6014805460ff1916600117905580518051601b805460208085015160408087015162ffffff96871665ffffffffffff1995861617630100000093881684021775ffffffffffffffffffffffffffffffff00000000000019908116600160301b6001600160801b039384168102919091179097556060808a0151601c556080998a0151601d805462ffffff19908116928c16929092179055868c01518051601e8054838b0151848a0151938f16918d1691909117908e168a021786169187168c0291909117905580830151601f558b015187548216908b161787559a8401518051602180549883015196830151918c169890991697909717948a1690950293909317169316909402919091179091559081015160225590910151602380549093169116179055565b6040805160c0810182525f80825260208201819052918101829052606081018290526080810182905260a08101919091526040805160c0810182526028546001600160a01b03600160301b90910481168252306020830152601454620100009004169181019190915260608101610adc610b0d565b6001600160a01b039081168252601754166020820152604001610afd610fee565b6001600160a01b03169052919050565b5f80610b176115fe565b90505f816001600160a01b031663197c6b2d30610b566040518060400160405280600b81526020016a26b7b232b62432b63832b960a91b81525061163f565b6040516001600160e01b031960e085901b1681526001600160a01b0390921660048301526024820152604401602060405180830381865afa158015610b9d573d5f803e3d5ffd5b505050506040513d601f19601f82011682018060405250810190610bc19190611c20565b90506001600160a01b038116610c9257816001600160a01b031663dacb2d01610c0c6040518060400160405280600b81526020016a26b7b232b62432b63832b960a91b81525061163f565b6040518263ffffffff1660e01b8152600401610c50918152604060208201819052600e908201526d37379026b7b232b62432b63832b960911b606082015260800190565b602060405180830381865afa158015610c6b573d5f803e3d5ffd5b505050506040513d601f19601f82011682018060405250810190610c8f9190611c20565b90505b92915050565b5f80610ca26115fe565b90505f816001600160a01b031663197c6b2d30610ce16040518060400160405280600b81526020016a4e6f6d61466163746f727960a81b81525061163f565b6040516001600160e01b031960e085901b1681526001600160a01b0390921660048301526024820152604401602060405180830381865afa158015610d28573d5f803e3d5ffd5b505050506040513d601f19601f82011682018060405250810190610d4c9190611c20565b90506001600160a01b038116610c9257816001600160a01b031663dacb2d01610d976040518060400160405280600b81526020016a4e6f6d61466163746f727960a81b81525061163f565b6040518263ffffffff1660e01b8152600401610c50918152604060208201819052600a90820152696e6f20466163746f727960b01b606082015260800190565b602854600160301b90046001600160a01b03163314610e09576040516348b77d9160e11b815260040160405180910390fd5b6026546040516370a0823160e01b81523060048201525f916001600160a01b0316906370a0823190602401602060405180830381865afa158015610e4f573d5f803e3d5ffd5b505050506040513d601f19601f82011682018060405250810190610e739190611d0f565b6027546040516370a0823160e01b81523060048201529192505f916001600160a01b03909116906370a0823190602401602060405180830381865afa158015610ebe573d5f803e3d5ffd5b505050506040513d601f19601f82011682018060405250810190610ee29190611d0f565b9050858210610f65578515610f655760265460405163a9059cbb60e01b8152336004820152602481018890526001600160a01b039091169063a9059cbb906044016020604051808303815f875af1158015610f3f573d5f803e3d5ffd5b505050506040513d601f19601f82011682018060405250810190610f639190611c3b565b505b848110610fe6578415610fe65760275460405163a9059cbb60e01b8152336004820152602481018790526001600160a01b039091169063a9059cbb906044016020604051808303815f875af1158015610fc0573d5f803e3d5ffd5b505050506040513d601f19601f82011682018060405250810190610fe49190611c3b565b505b505050505050565b5f80610ff86115fe565b90505f816001600160a01b031663197c6b2d3061103a6040518060400160405280600e81526020016d4164617074697665537570706c7960901b81525061163f565b6040516001600160e01b031960e085901b1681526001600160a01b0390921660048301526024820152604401602060405180830381865afa158015611081573d5f803e3d5ffd5b505050506040513d601f19601f820116820180604052508101906110a59190611c20565b90506001600160a01b038116610c9257816001600160a01b031663dacb2d016110f36040518060400160405280600e81526020016d4164617074697665537570706c7960901b81525061163f565b6040518263ffffffff1660e01b8152600401610c50918152604060208201819052601190820152706e6f204164617074697665537570706c7960781b606082015260800190565b5f805f80611146610b0d565b6028546040516317886cbb60e11b81526001600160a01b0392831692632f10d9769261118492600160301b9091049091169030908a90600401611d26565b608060405180830381865afa15801561119f573d5f803e3d5ffd5b505050506040513d601f19601f820116820180604052508101906111c39190611d68565b93509350935093509193509193565b60408051600880825261012082019092526060915f91906020820161010080368337505060408051808201909152600e81526d6765745661756c74496e666f282960901b6020909101525080519091507f7f98aa714a3525a7c26e3db0020339a51582b26f1979450e3cd048c68a8cda4b9082905f9061125457611254611cfb565b60200260200101906001600160e01b03191690816001600160e01b031916815250506040518060e0016040528060b38152602001611dd860b3913980519060200120816001815181106112a9576112a9611cfb565b60200260200101906001600160e01b03191690816001600160e01b031916815250506040518060600160405280603b8152602001611e8b603b913980519060200120816002815181106112fe576112fe611cfb565b60200260200101906001600160e01b03191690816001600160e01b031916815250506040518060600160405280602c8152602001611ec6602c9139805190602001208160038151811061135357611353611cfb565b6001600160e01b031990921660209283029190910182015260408051808201909152601c81527f676574556e6465726c79696e6742616c616e6365732875696e7438290000000091015280517ff4a1a46d9751fea7e3c0d062d30718ab082c893574174cf12af66e299ce647f590829060049081106113d4576113d4611cfb565b6001600160e01b031990921660209283029190910182015260408051808201909152601881527f67657445786365737352657365727665546f6b656e312829000000000000000091015280517fffb938db9e30e82b807a6ab855c99d6aa577bd70313c73ac1cad97f6c8af88dd908290600590811061145557611455611cfb565b6001600160e01b031990921660209283029190910182015260408051808201909152601681527567657450726f746f636f6c416464726573736573282960501b91015280517fa1774da0607326e7b68dddef0ef263fd071b35b63439913ee80d4e75e89b078390829060069081106114cf576114cf611cfb565b6001600160e01b031990921660209283029190910182015260408051808201909152601881527f736574466565732875696e743235362c75696e7432353629000000000000000091015280517f0b78f9c0c079f44f7aa9e8a073994e94ea5f1ec98f3c0123d3c8350dcfca20c2908290600790811061155057611550611cfb565b6001600160e01b031990921660209283029190910190910152919050565b5f80611578610b0d565b602854604051630c45b42360e11b81526001600160a01b03600160301b90920482166004820152306024820152831515604482015291169063188b684690606401602060405180830381865afa1580156115d4573d5f803e3d5ffd5b505050506040513d601f19601f820116820180604052508101906115f89190611d0f565b91505090565b6002546001600160a01b03168061163c57507f69730368e6694620030103ebb8c2fe0f33ca206057d7fbee6e88a9161a059d29546001600160a01b03165b90565b80515f908290820361165357505f92915050565b602081511115611661575f80fd5b602083015181519092505b60208110156116945761168081601f611dad565b61168b906008611dc0565b5060010161166c565b5050919050565b600183019183908215611720579160200282015f5b838211156116f057835183826101000a81548161ffff021916908361ffff16021790555092602001926002016020816001010492830192600103026116b0565b801561171e5782816101000a81549061ffff02191690556002016020816001010492830192600103026116f0565b505b5061172c929150611730565b5090565b5b8082111561172c575f8155600101611731565b5f8060408385031215611755575f80fd5b50508035926020909101359150565b6001600160a01b0381168114611778575f80fd5b50565b634e487b7160e01b5f52604160045260245ffd5b6040516101e0810167ffffffffffffffff811182821017156117b3576117b361177b565b60405290565b60405160a0810167ffffffffffffffff811182821017156117b3576117b361177b565b6040516060810167ffffffffffffffff811182821017156117b3576117b361177b565b803560ff8116811461180f575f80fd5b919050565b5f82601f830112611823575f80fd5b6040516040810181811067ffffffffffffffff821117156118465761184661177b565b806040525080604084018581111561185c575f80fd5b845b8181101561188557803561ffff81168114611877575f80fd5b83526020928301920161185e565b509195945050505050565b8060020b8114611778575f80fd5b803561180f81611890565b5f805f805f805f80888a036102e08112156118c2575f80fd5b89356118cd81611764565b985060208a01356118dd81611764565b975060408a01356118ed81611764565b965060608a01356118fd81611764565b955060808a013561190d81611764565b945060a08a013561191d81611764565b935060c08a013561192d81611764565b925061020060df1982011215611941575f80fd5b5061194a61178f565b61195660e08b016117ff565b81526119656101008b016117ff565b60208201526119776101208b016117ff565b604082015261014061198b8c828d01611814565b6060830152610180808c013560808401526101a0808d013560a08501526101c06119b6818f0161189e565b60c08601526119c86101e08f0161189e565b60e08601526119da6102008f0161189e565b6101008601526102208e01356101208601526102408e0135848601526102608e01356101608601526102808e0135838601526102a08e0135828601526102c08e01358186015250505050809150509295985092959890939650565b5f6101e0808385031215611a47575f80fd5b83601f840112611a55575f80fd5b611a5d6117dc565b908301908085831115611a6e575f80fd5b845b83811015611af95760a08188031215611a87575f80fd5b611a8f6117b9565b8135611a9a81611890565b8152602082810135611aab81611890565b828201526040838101356001600160801b0381168114611ac9575f80fd5b9083015260608381013590830152608080840135611ae681611890565b908301529084529092019160a001611a70565b5095945050505050565b5f805f8060608587031215611b16575f80fd5b8435935060208501359250604085013567ffffffffffffffff80821115611b3b575f80fd5b818701915087601f830112611b4e575f80fd5b813581811115611b5c575f80fd5b886020828501011115611b6d575f80fd5b95989497505060200194505050565b5f60208284031215611b8c575f80fd5b813560038110611b9a575f80fd5b9392505050565b602080825282518282018190525f9190848201906040850190845b81811015611be25783516001600160e01b03191683529284019291840191600101611bbc565b50909695505050505050565b634e487b7160e01b5f52601160045260245ffd5b80820180821115610c9257610c92611bee565b805161180f81611764565b5f60208284031215611c30575f80fd5b8151611b9a81611764565b5f60208284031215611c4b575f80fd5b81518015158114611b9a575f80fd5b5f610100808385031215611c6c575f80fd5b6040519081019067ffffffffffffffff82118183101715611c8f57611c8f61177b565b81604052835181526020840151602082015260408401516040820152606084015160608201526080840151608082015260a08401519150611ccf82611764565b8160a0820152611ce160c08501611c15565b60c082015260e084015160e0820152809250505092915050565b634e487b7160e01b5f52603260045260245ffd5b5f60208284031215611d1f575f80fd5b5051919050565b6001600160a01b038481168252831660208201526060810160038310611d5a57634e487b7160e01b5f52602160045260245ffd5b826040830152949350505050565b5f805f8060808587031215611d7b575f80fd5b8451611d8681611890565b6020860151909450611d9781611890565b6040860151606090960151949790965092505050565b81810381811115610c9257610c92611bee565b8082028115828204841417610c9257610c92611bee56fe696e697469616c697a6528616464726573732c616464726573732c616464726573732c616464726573732c616464726573732c616464726573732c616464726573732c2875696e74382c75696e74382c75696e74382c75696e7431365b325d2c75696e743235362c75696e743235362c696e7432342c696e7432342c696e7432342c75696e743235362c75696e743235362c75696e743235362c75696e743235362c75696e743235362c75696e743235362929696e697469616c697a654c69717569646974792828696e7432342c696e7432342c75696e743132382c75696e743235362c696e743234295b335d29756e697377617056334d696e7443616c6c6261636b2875696e743235362c75696e743235362c627974657329a26469706673582212208640a7cd1dce347faedfb9c0f92e0bb3f89b0768565363f9f0fc2e6782521b4864736f6c63430008170033","linkReferences":{}},"methodIdentifiers":{"adaptiveSupply()":"ef5ddb31","factory()":"c45a0155","getExcessReserveToken1()":"ffb938db","getFunctionSelectors()":"fd896f9d","getProtocolAddresses()":"a1774da0","getUnderlyingBalances(uint8)":"f4a1a46d","getVaultInfo()":"7f98aa71","initialize(address,address,address,address,address,address,address,(uint8,uint8,uint8,uint16[2],uint256,uint256,int24,int24,int24,uint256,uint256,uint256,uint256,uint256,uint256))":"14cdce32","initializeLiquidity((int24,int24,uint128,uint256,int24)[3])":"7fd762af","modelHelper()":"a3e44b33","setFees(uint256,uint256)":"0b78f9c0","uniswapV3MintCallback(uint256,uint256,bytes)":"d3487997"},"id":126}