{"abi":[{"type":"constructor","inputs":[{"name":"nomaFactoryAddress","type":"address","internalType":"address"},{"name":"wrappedMonAddress","type":"address","internalType":"address"}],"stateMutability":"nonpayable"},{"type":"receive","stateMutability":"payable"},{"type":"function","name":"WMON","inputs":[],"outputs":[{"name":"","type":"address","internalType":"address"}],"stateMutability":"view"},{"type":"function","name":"buyTokens","inputs":[{"name":"pool","type":"address","internalType":"address"},{"name":"price","type":"uint256","internalType":"uint256"},{"name":"minAmount","type":"uint256","internalType":"uint256"},{"name":"receiver","type":"address","internalType":"address"},{"name":"isLimitOrder","type":"bool","internalType":"bool"},{"name":"slippageTolerance","type":"uint256","internalType":"uint256"},{"name":"referralCode","type":"bytes8","internalType":"bytes8"}],"outputs":[],"stateMutability":"payable"},{"type":"function","name":"buyTokensWETH","inputs":[{"name":"pool","type":"address","internalType":"address"},{"name":"price","type":"uint256","internalType":"uint256"},{"name":"amount","type":"uint256","internalType":"uint256"},{"name":"minAmount","type":"uint256","internalType":"uint256"},{"name":"receiver","type":"address","internalType":"address"},{"name":"isLimitOrder","type":"bool","internalType":"bool"},{"name":"slippageTolerance","type":"uint256","internalType":"uint256"},{"name":"referralCode","type":"bytes8","internalType":"bytes8"}],"outputs":[],"stateMutability":"nonpayable"},{"type":"function","name":"nomaFactory","inputs":[],"outputs":[{"name":"","type":"address","internalType":"address"}],"stateMutability":"view"},{"type":"function","name":"pancakeV3SwapCallback","inputs":[{"name":"amount0Delta","type":"int256","internalType":"int256"},{"name":"amount1Delta","type":"int256","internalType":"int256"},{"name":"data","type":"bytes","internalType":"bytes"}],"outputs":[],"stateMutability":"nonpayable"},{"type":"function","name":"sellTokens","inputs":[{"name":"pool","type":"address","internalType":"address"},{"name":"price","type":"uint256","internalType":"uint256"},{"name":"amount","type":"uint256","internalType":"uint256"},{"name":"minAmount","type":"uint256","internalType":"uint256"},{"name":"receiver","type":"address","internalType":"address"},{"name":"isLimitOrder","type":"bool","internalType":"bool"},{"name":"slippageTolerance","type":"uint256","internalType":"uint256"},{"name":"referralCode","type":"bytes8","internalType":"bytes8"}],"outputs":[],"stateMutability":"nonpayable"},{"type":"function","name":"sellTokensETH","inputs":[{"name":"pool","type":"address","internalType":"address"},{"name":"price","type":"uint256","internalType":"uint256"},{"name":"amount","type":"uint256","internalType":"uint256"},{"name":"minAmount","type":"uint256","internalType":"uint256"},{"name":"receiver","type":"address","internalType":"address"},{"name":"isLimitOrder","type":"bool","internalType":"bool"},{"name":"slippageTolerance","type":"uint256","internalType":"uint256"},{"name":"referralCode","type":"bytes8","internalType":"bytes8"}],"outputs":[],"stateMutability":"nonpayable"},{"type":"function","name":"tokenInfo","inputs":[],"outputs":[{"name":"token0","type":"address","internalType":"address"},{"name":"token1","type":"address","internalType":"address"}],"stateMutability":"view"},{"type":"function","name":"uniswapV3SwapCallback","inputs":[{"name":"amount0Delta","type":"int256","internalType":"int256"},{"name":"amount1Delta","type":"int256","internalType":"int256"},{"name":"data","type":"bytes","internalType":"bytes"}],"outputs":[],"stateMutability":"nonpayable"},{"type":"event","name":"BoughtTokensETH","inputs":[{"name":"who","type":"address","indexed":false,"internalType":"address"},{"name":"amount","type":"uint256","indexed":false,"internalType":"uint256"}],"anonymous":false},{"type":"event","name":"BoughtTokensWETH","inputs":[{"name":"who","type":"address","indexed":false,"internalType":"address"},{"name":"amount","type":"uint256","indexed":false,"internalType":"uint256"}],"anonymous":false},{"type":"event","name":"SoldTokensETH","inputs":[{"name":"who","type":"address","indexed":false,"internalType":"address"},{"name":"amount","type":"uint256","indexed":false,"internalType":"uint256"}],"anonymous":false},{"type":"event","name":"SoldTokensWETH","inputs":[{"name":"who","type":"address","indexed":false,"internalType":"address"},{"name":"amount","type":"uint256","indexed":false,"internalType":"uint256"}],"anonymous":false},{"type":"error","name":"InvalidAmount","inputs":[]},{"type":"error","name":"InvalidDecimals","inputs":[]},{"type":"error","name":"InvalidSwap","inputs":[]},{"type":"error","name":"InvalidSwap","inputs":[]},{"type":"error","name":"NoETHSent","inputs":[]},{"type":"error","name":"NoToken0Received","inputs":[]},{"type":"error","name":"NoTokensExchanged","inputs":[]},{"type":"error","name":"SlippageExceeded","inputs":[]}],"bytecode":{"object":"0x6080604052600280546001600160a01b03199081169091556003805490911690553480156200002c575f80fd5b5060405162002772380380620027728339810160408190526200004f916200009d565b600380546001600160a01b039384166001600160a01b03199182161790915560028054929093169116179055620000d3565b80516001600160a01b038116811462000098575f80fd5b919050565b5f8060408385031215620000af575f80fd5b620000ba8362000081565b9150620000ca6020840162000081565b90509250929050565b61269180620000e15f395ff3fe608060405260043610610087575f3560e01c80636b0f2a13116100575780636b0f2a131461012f578063cda52ff31461014e578063e73a2a7a1461016d578063f1435d29146101a4578063fa461e33146100b3575f80fd5b8063170361601461009257806323a69e75146100b35780635eb48bcc146100d25780636addb663146100e5575f80fd5b3661008e57005b5f80fd5b34801561009d575f80fd5b506100b16100ac366004612128565b6101c3565b005b3480156100be575f80fd5b506100b16100cd3660046121a4565b610806565b6100b16100e036600461221d565b6109cb565b3480156100f0575f80fd5b505f5460015461010a916001600160a01b03908116911682565b604080516001600160a01b039384168152929091166020830152015b60405180910390f35b34801561013a575f80fd5b506100b1610149366004612128565b610f0a565b348015610159575f80fd5b506100b1610168366004612128565b61141f565b348015610178575f80fd5b5060035461018c906001600160a01b031681565b6040516001600160a01b039091168152602001610126565b3480156101af575f80fd5b5060025461018c906001600160a01b031681565b600354600160a01b900460ff16156101f65760405162461bcd60e51b81526004016101ed9061228f565b60405180910390fd5b6003805460ff60a01b1916600160a01b1790558561026c5760405162461bcd60e51b815260206004820152602d60248201527f45786368616e676548656c7065723a20416d6f756e74206d757374206265206760448201526c0726561746572207468616e203609c1b60648201526084016101ed565b5f886001600160a01b031663d0c93a7c6040518163ffffffff1660e01b8152600401602060405180830381865afa1580156102a9573d5f803e3d5ffd5b505050506040513d601f19601f820116820180604052508101906102cd91906122c6565b905060405180604001604052808a6001600160a01b0316630dfe16816040518163ffffffff1660e01b8152600401602060405180830381865afa158015610316573d5f803e3d5ffd5b505050506040513d601f19601f8201168201806040525081019061033a91906122e6565b6001600160a01b031681526020018a6001600160a01b031663d21220a76040518163ffffffff1660e01b8152600401602060405180830381865afa158015610384573d5f803e3d5ffd5b505050506040513d601f19601f820116820180604052508101906103a891906122e6565b6001600160a01b0390811690915281515f80549183166001600160a01b03199283168117909155602090930151600180549190931691161790556040516323b872dd60e01b8152336004820152306024820152604481018990526323b872dd906064016020604051808303815f875af1158015610427573d5f803e3d5ffd5b505050506040513d601f19601f8201168201806040525081019061044b9190612301565b5060408051610140810182526001600160a01b03808c1682525f8054821660208085018290526001805490941685870152306060860152608085019390935260a084018c905288151560c0850152845163313ce56760e01b81529451919460e0850193610504938f938993909263313ce567926004808401938290030181865afa1580156104db573d5f803e3d5ffd5b505050506040513d601f19601f820116820180604052508101906104ff919061231c565b6117eb565b6001600160a01b031681526020018581526020018881525090505f8061052983611807565b915091505f811261057c5760405162461bcd60e51b815260206004820152601c60248201527f45786368616e676548656c7065723a20496e76616c696420737761700000000060448201526064016101ed565b5f61058682612350565b600254604051632e1a7d4d60e01b8152600481018390529192506001600160a01b031690632e1a7d4d906024015f604051808303815f87803b1580156105ca575f80fd5b505af11580156105dc573d5f803e3d5ffd5b50506040516001600160a01b038c16925083156108fc02915083905f818181858888f19350505050158015610613573d5f803e3d5ffd5b505f61061f848d61236a565b5f546040516370a0823160e01b81523060048201526001600160a01b03909116906370a0823190602401602060405180830381865afa158015610664573d5f803e3d5ffd5b505050506040513d601f19601f82011682018060405250810190610688919061237d565b116106fb575f546040516370a0823160e01b81523060048201526001600160a01b03909116906370a0823190602401602060405180830381865afa1580156106d2573d5f803e3d5ffd5b505050506040513d601f19601f820116820180604052508101906106f6919061237d565b610705565b610705848d61236a565b90508015610780575f5460405163a9059cbb60e01b8152336004820152602481018390526001600160a01b039091169063a9059cbb906044016020604051808303815f875af115801561075a573d5f803e3d5ffd5b505050506040513d601f19601f8201168201806040525081019061077e9190612301565b505b6001600160c01b031987161561079b5761079b8e8885611a35565b7f9169c0979d20b8ac8954a8c6315813566dcd0f7156f9586b659f8b2c45a21c718a60ff85901d808601185b604080516001600160a01b03909316835260208301919091520160405180910390a150506003805460ff60a01b19169055505050505050505050505050565b60035460405163abd4e2d160e01b81523360048201525f916001600160a01b03169063abd4e2d190602401602060405180830381865afa15801561084c573d5f803e3d5ffd5b505050506040513d601f19601f8201168201806040525081019061087091906122e6565b90506001600160a01b03811661089957604051631115766760e01b815260040160405180910390fd5b5f851315610918575f5460405163a9059cbb60e01b8152336004820152602481018790526001600160a01b039091169063a9059cbb906044016020604051808303815f875af11580156108ee573d5f803e3d5ffd5b505050506040513d601f19601f820116820180604052508101906109129190612301565b50610994565b5f8413156109945760015460405163a9059cbb60e01b8152336004820152602481018690526001600160a01b039091169063a9059cbb906044016020604051808303815f875af115801561096e573d5f803e3d5ffd5b505050506040513d601f19601f820116820180604052508101906109929190612301565b505b5050604080518082019091525f808252602090910181905280546001600160a01b0319908116909155600180549091169055505050565b600354600160a01b900460ff16156109f55760405162461bcd60e51b81526004016101ed9061228f565b6003805460ff60a01b1916600160a01b17905534610a2657604051630b7cc7c360e11b815260040160405180910390fd5b5f876001600160a01b031663d0c93a7c6040518163ffffffff1660e01b8152600401602060405180830381865afa158015610a63573d5f803e3d5ffd5b505050506040513d601f19601f82011682018060405250810190610a8791906122c6565b90506040518060400160405280896001600160a01b0316630dfe16816040518163ffffffff1660e01b8152600401602060405180830381865afa158015610ad0573d5f803e3d5ffd5b505050506040513d601f19601f82011682018060405250810190610af491906122e6565b6001600160a01b03168152602001896001600160a01b031663d21220a76040518163ffffffff1660e01b8152600401602060405180830381865afa158015610b3e573d5f803e3d5ffd5b505050506040513d601f19601f82011682018060405250810190610b6291906122e6565b6001600160a01b0390811690915281515f80549183166001600160a01b03199283168117825560209485015160018054919095169316929092179092556040805163313ce56760e01b815290519293919263313ce567926004808401939192918290030181865afa158015610bd9573d5f803e3d5ffd5b505050506040513d601f19601f82011682018060405250810190610bfd919061231c565b6002546040516370a0823160e01b81523060048201529192505f916001600160a01b03909116906370a08231906024016020604051808303815f875af1158015610c49573d5f803e3d5ffd5b505050506040513d601f19601f82011682018060405250810190610c6d919061237d565b905060025f9054906101000a90046001600160a01b03166001600160a01b031663d0e30db0346040518263ffffffff1660e01b81526004015f604051808303818588803b158015610cbc575f80fd5b505af1158015610cce573d5f803e3d5ffd5b50505050505f6040518061014001604052808c6001600160a01b031681526020015f80015f9054906101000a90046001600160a01b03166001600160a01b031681526020015f6001015f9054906101000a90046001600160a01b03166001600160a01b03168152602001896001600160a01b031681526020015f151581526020013481526020018815158152602001610d688c87876117eb565b6001600160a01b031681526020018781526020018a81525090505f80610d8d83611807565b915091505f8212610db057604051622c26b960ea1b815260040160405180910390fd5b6002546040516370a0823160e01b81523060048201525f9186916001600160a01b03909116906370a08231906024016020604051808303815f875af1158015610dfb573d5f803e3d5ffd5b505050506040513d601f19601f82011682018060405250810190610e1f919061237d565b610e29919061236a565b90508015610ebf57600254604051632e1a7d4d60e01b8152600481018390526001600160a01b0390911690632e1a7d4d906024015f604051808303815f87803b158015610e74575f80fd5b505af1158015610e86573d5f803e3d5ffd5b50506040516001600160a01b038e16925083156108fc02915083905f818181858888f19350505050158015610ebd573d5f803e3d5ffd5b505b6001600160c01b0319881615610eda57610eda8e8984611a35565b7f33daa9f9211714f6792e0b7c3c14f2bd7f00356725f591ab25eef1830f4f99408b60ff85901d808601186107c7565b600354600160a01b900460ff1615610f345760405162461bcd60e51b81526004016101ed9061228f565b6003805460ff60a01b1916600160a01b17905585610f655760405163162908e360e11b815260040160405180910390fd5b5f886001600160a01b031663d0c93a7c6040518163ffffffff1660e01b8152600401602060405180830381865afa158015610fa2573d5f803e3d5ffd5b505050506040513d601f19601f82011682018060405250810190610fc691906122c6565b905060405180604001604052808a6001600160a01b0316630dfe16816040518163ffffffff1660e01b8152600401602060405180830381865afa15801561100f573d5f803e3d5ffd5b505050506040513d601f19601f8201168201806040525081019061103391906122e6565b6001600160a01b031681526020018a6001600160a01b031663d21220a76040518163ffffffff1660e01b8152600401602060405180830381865afa15801561107d573d5f803e3d5ffd5b505050506040513d601f19601f820116820180604052508101906110a191906122e6565b6001600160a01b0390811690915281515f80549183166001600160a01b03199283168117909155602090930151600180549190931691161790556040516323b872dd60e01b81523360048201523060248201526044810189905281906323b872dd906064016020604051808303815f875af1158015611122573d5f803e3d5ffd5b505050506040513d601f19601f820116820180604052508101906111469190612301565b505f6040518061014001604052808c6001600160a01b031681526020015f80015f9054906101000a90046001600160a01b03166001600160a01b031681526020015f6001015f9054906101000a90046001600160a01b03166001600160a01b03168152602001886001600160a01b031681526020016001151581526020018a815260200187151581526020016112288c865f80015f9054906101000a90046001600160a01b03166001600160a01b031663313ce5676040518163ffffffff1660e01b8152600401602060405180830381865afa1580156104db573d5f803e3d5ffd5b6001600160a01b031681526020018681526020018981525090505f8061124d83611807565b915091505f811261127157604051631115766760e01b815260040160405180910390fd5b5f61127c838d61236a565b6040516370a0823160e01b81523060048201526001600160a01b038716906370a0823190602401602060405180830381865afa1580156112be573d5f803e3d5ffd5b505050506040513d601f19601f820116820180604052508101906112e2919061237d565b11611352576040516370a0823160e01b81523060048201526001600160a01b038616906370a0823190602401602060405180830381865afa158015611329573d5f803e3d5ffd5b505050506040513d601f19601f8201168201806040525081019061134d919061237d565b61135c565b61135c838d61236a565b905080156113d45760405163a9059cbb60e01b8152336004820152602481018290526001600160a01b0386169063a9059cbb906044016020604051808303815f875af11580156113ae573d5f803e3d5ffd5b505050506040513d601f19601f820116820180604052508101906113d29190612301565b505b6001600160c01b03198716156113ef576113ef8e8884611a35565b7f9169c0979d20b8ac8954a8c6315813566dcd0f7156f9586b659f8b2c45a21c718a60ff84901d808501186107c7565b600354600160a01b900460ff16156114495760405162461bcd60e51b81526004016101ed9061228f565b6003805460ff60a01b1916600160a01b1790558561147a5760405163162908e360e11b815260040160405180910390fd5b5f886001600160a01b031663d0c93a7c6040518163ffffffff1660e01b8152600401602060405180830381865afa1580156114b7573d5f803e3d5ffd5b505050506040513d601f19601f820116820180604052508101906114db91906122c6565b905060405180604001604052808a6001600160a01b0316630dfe16816040518163ffffffff1660e01b8152600401602060405180830381865afa158015611524573d5f803e3d5ffd5b505050506040513d601f19601f8201168201806040525081019061154891906122e6565b6001600160a01b031681526020018a6001600160a01b031663d21220a76040518163ffffffff1660e01b8152600401602060405180830381865afa158015611592573d5f803e3d5ffd5b505050506040513d601f19601f820116820180604052508101906115b691906122e6565b6001600160a01b0390811690915281515f80549183166001600160a01b031992831617905560209092015160018054919092169216821790556040516323b872dd60e01b8152336004820152306024820152604481018990526323b872dd906064016020604051808303815f875af1158015611634573d5f803e3d5ffd5b505050506040513d601f19601f820116820180604052508101906116589190612301565b506001546040805163313ce56760e01b815290515f926001600160a01b03169163313ce5679160048083019260209291908290030181865afa1580156116a0573d5f803e3d5ffd5b505050506040513d601f19601f820116820180604052508101906116c4919061231c565b60408051610140810182526001600160a01b03808e1682525f805482166020840152600154821693830193909352891660608201526080810182905260a081018b905287151560c08201529192509060e081016117228c86866117eb565b6001600160a01b031681526020018681526020018981525090505f8061174783611807565b915091505f821261176b57604051631115766760e01b815260040160405180910390fd5b6001600160c01b0319861615611786576117868d8783611a35565b604080516001600160a01b038b16815260ff84901d8085011860208201527f97c6088a966cd0ebbedc701f66399b8b51aa01a317df60217d5867cd397c66f5910160405180910390a150506003805460ff60a01b191690555050505050505050505050565b5f6117ff6117fa858585611b2c565b611c71565b949350505050565b5f808260a001515f0361182d57604051631115766760e01b815260040160405180910390fd5b60608301516001600160a01b031661185857604051631115766760e01b815260040160405180910390fd5b8260c0015115801561186d5750610120830151155b1561188b57604051638199f5f360e01b815260040160405180910390fd5b5f8360c001516118d25783608001516118c2576118bd600173fffd8963efd1fc6a506488495d951d5263988d26612394565b6118d8565b6118bd6401000276a360016123bb565b8360e001515b84516060860151608087015160a080890151604051630251596160e31b81526001600160a01b03948516600482015292151560248401526044830152828516606483015260848201525f60a4820152929350169063128acb089060c40160408051808303815f875af192505050801561196e575060408051601f3d908101601f1916820190925261196b918101906123db565b60015b61198b57604051631115766760e01b815260040160405180910390fd5b8194508093505f8660800151156119cc575f82126119bc576040516304ecdfb360e41b815260040160405180910390fd5b6119c582612350565b90506119f8565b5f83126119ec576040516304ecdfb360e41b815260040160405180910390fd5b6119f583612350565b90505b8660c00151158015611a0e575086610120015181105b15611a2c57604051638199f5f360e01b815260040160405180910390fd5b50505050915091565b60035460405163abd4e2d160e01b81526001600160a01b0385811660048301525f92169063abd4e2d190602401602060405180830381865afa158015611a7d573d5f803e3d5ffd5b505050506040513d601f19601f82011682018060405250810190611aa191906122e6565b90506001600160a01b03811615611b26576001600160a01b03811663259b8fd88460ff85901d808601186040516001600160e01b031960e085901b1681526001600160c01b0319909216600483015260248201526044015f604051808303815f87803b158015611b0f575f80fd5b505af1158015611b21573d5f803e3d5ffd5b505050505b50505050565b5f60068260ff1610158015611b45575060128260ff1611155b611b6257604051630692acc560e51b815260040160405180910390fd5b5f611b6e8360126123fd565b611b7990600a6124f6565b9050611b858186612504565b945083611c5e68033dd1780914b9684073__$28bae0af19d0e90d77349cc0e88bc3c39a$__63bc4225aa611bc18a670de0b6b3a7640000612504565b6040516001600160e01b031960e084901b1681526004810191909152670de0b6b3a764000060248201526706f05b59d3b200006044820152606401602060405180830381865af4158015611c17573d5f803e3d5ffd5b505050506040513d601f19601f82011682018060405250810190611c3b919061237d565b611c459190612533565b611c59600288900b658334ae9d7c0a612504565b611c81565b611c689190612552565b95945050505050565b5f611c7b82611cd7565b92915050565b5f61138861271083611c938683612504565b611c9d9190612585565b611ca791906125b1565b13611cbb57611cb68284612585565b611cd0565b611cc58284612585565b611cd09060016125c4565b9392505050565b5f805f8360020b12611cec578260020b611cf9565b8260020b611cf990612350565b9050611d08620d89e7196125eb565b60020b811115611d3e5760405162461bcd60e51b81526020600482015260016024820152601560fa1b60448201526064016101ed565b5f816001165f03611d5357600160801b611d65565b6ffffcb933bd6fad37aa2d162d1a5940015b70ffffffffffffffffffffffffffffffffff1690506002821615611da4576080611d9f826ffff97272373d413259a46990580e213a61260b565b901c90505b6004821615611dce576080611dc9826ffff2e50f5f656932ef12357cf3c7fdcc61260b565b901c90505b6008821615611df8576080611df3826fffe5caca7e10e4e61c3624eaa0941cd061260b565b901c90505b6010821615611e22576080611e1d826fffcb9843d60f6159c9db58835c92664461260b565b901c90505b6020821615611e4c576080611e47826fff973b41fa98c081472e6896dfb254c061260b565b901c90505b6040821615611e76576080611e71826fff2ea16466c96a3843ec78b326b5286161260b565b901c90505b6080821615611ea0576080611e9b826ffe5dee046a99a2a811c461f1969c305361260b565b901c90505b610100821615611ecb576080611ec6826ffcbe86c7900a88aedcffc83b479aa3a461260b565b901c90505b610200821615611ef6576080611ef1826ff987a7253ac413176f2b074cf7815e5461260b565b901c90505b610400821615611f21576080611f1c826ff3392b0822b70005940c7a398e4b70f361260b565b901c90505b610800821615611f4c576080611f47826fe7159475a2c29b7443b29c7fa6e889d961260b565b901c90505b611000821615611f77576080611f72826fd097f3bdfd2022b8845ad8f792aa582561260b565b901c90505b612000821615611fa2576080611f9d826fa9f746462d870fdf8a65dc1f90e061e561260b565b901c90505b614000821615611fcd576080611fc8826f70d869a156d2a1b890bb3df62baf32f761260b565b901c90505b618000821615611ff8576080611ff3826f31be135f97d08fd981231505542fcfa661260b565b901c90505b6201000082161561202457608061201f826f09aa508b5b7a84e1c677de54f3e99bc961260b565b901c90505b6202000082161561204f57608061204a826e5d6af8dedb81196699c329225ee60461260b565b901c90505b62040000821615612079576080612074826d2216e584f5fa1ea926041bedfe9861260b565b901c90505b620800008216156120a157608061209c826b048a170391f7dc42444e8fa261260b565b901c90505b5f8460020b13156120ba576120b7815f19612622565b90505b6120c964010000000082612635565b156120d55760016120d7565b5f5b6117ff9060ff16602083901c612648565b6001600160a01b03811681146120fc575f80fd5b50565b80151581146120fc575f80fd5b80356001600160c01b031981168114612123575f80fd5b919050565b5f805f805f805f80610100898b031215612140575f80fd5b883561214b816120e8565b97506020890135965060408901359550606089013594506080890135612170816120e8565b935060a0890135612180816120ff565b925060c0890135915061219560e08a0161210c565b90509295985092959890939650565b5f805f80606085870312156121b7575f80fd5b8435935060208501359250604085013567ffffffffffffffff808211156121dc575f80fd5b818701915087601f8301126121ef575f80fd5b8135818111156121fd575f80fd5b88602082850101111561220e575f80fd5b95989497505060200194505050565b5f805f805f805f60e0888a031215612233575f80fd5b873561223e816120e8565b96506020880135955060408801359450606088013561225c816120e8565b9350608088013561226c816120ff565b925060a0880135915061228160c0890161210c565b905092959891949750929550565b6020808252601e908201527f45786368616e676548656c7065723a205265656e7472616e742063616c6c0000604082015260600190565b5f602082840312156122d6575f80fd5b81518060020b8114611cd0575f80fd5b5f602082840312156122f6575f80fd5b8151611cd0816120e8565b5f60208284031215612311575f80fd5b8151611cd0816120ff565b5f6020828403121561232c575f80fd5b815160ff81168114611cd0575f80fd5b634e487b7160e01b5f52601160045260245ffd5b5f600160ff1b82016123645761236461233c565b505f0390565b81810381811115611c7b57611c7b61233c565b5f6020828403121561238d575f80fd5b5051919050565b6001600160a01b038281168282160390808211156123b4576123b461233c565b5092915050565b6001600160a01b038181168382160190808211156123b4576123b461233c565b5f80604083850312156123ec575f80fd5b505080516020909101519092909150565b60ff8281168282160390811115611c7b57611c7b61233c565b600181815b8085111561245057815f19048211156124365761243661233c565b8085161561244357918102915b93841c939080029061241b565b509250929050565b5f8261246657506001611c7b565b8161247257505f611c7b565b81600181146124885760028114612492576124ae565b6001915050611c7b565b60ff8411156124a3576124a361233c565b50506001821b611c7b565b5060208310610133831016604e8410600b84101617156124d1575081810a611c7b565b6124db8383612416565b805f19048211156124ee576124ee61233c565b029392505050565b5f611cd060ff841683612458565b8082025f8212600160ff1b8414161561251f5761251f61233c565b8181058314821517611c7b57611c7b61233c565b8181035f8312801583831316838312821617156123b4576123b461233c565b5f8260020b8260020b028060020b91508082146123b4576123b461233c565b634e487b7160e01b5f52601260045260245ffd5b5f8261259357612593612571565b600160ff1b82145f19841416156125ac576125ac61233c565b500590565b5f826125bf576125bf612571565b500790565b8082018281125f8312801582168215821617156125e3576125e361233c565b505092915050565b5f8160020b627fffff1981036126035761260361233c565b5f0392915050565b8082028115828204841417611c7b57611c7b61233c565b5f8261263057612630612571565b500490565b5f8261264357612643612571565b500690565b80820180821115611c7b57611c7b61233c56fea26469706673582212207f2ee3d68004bba2fb7d3ab0753651acbb393e54b971185f08fafe6b0be40e7564736f6c63430008170033","linkReferences":{"src/libraries/Logarithm.sol":{"Logarithm":[{"start":7288,"length":20}]}}},"methodIdentifiers":{"WMON()":"f1435d29","buyTokens(address,uint256,uint256,address,bool,uint256,bytes8)":"5eb48bcc","buyTokensWETH(address,uint256,uint256,uint256,address,bool,uint256,bytes8)":"cda52ff3","nomaFactory()":"e73a2a7a","pancakeV3SwapCallback(int256,int256,bytes)":"23a69e75","sellTokens(address,uint256,uint256,uint256,address,bool,uint256,bytes8)":"6b0f2a13","sellTokensETH(address,uint256,uint256,uint256,address,bool,uint256,bytes8)":"17036160","tokenInfo()":"6addb663","uniswapV3SwapCallback(int256,int256,bytes)":"fa461e33"},"id":59}