{"abi":[{"type":"function","name":"addCollateral","inputs":[{"name":"amount","type":"uint256","internalType":"uint256"}],"outputs":[],"stateMutability":"nonpayable"},{"type":"function","name":"borrow","inputs":[{"name":"borrowAmount","type":"uint256","internalType":"uint256"},{"name":"duration","type":"uint256","internalType":"uint256"}],"outputs":[],"stateMutability":"nonpayable"},{"type":"function","name":"defaultLoans","inputs":[],"outputs":[],"stateMutability":"nonpayable"},{"type":"function","name":"getFunctionSelectors","inputs":[],"outputs":[{"name":"","type":"bytes4[]","internalType":"bytes4[]"}],"stateMutability":"pure"},{"type":"function","name":"payback","inputs":[{"name":"amount","type":"uint256","internalType":"uint256"}],"outputs":[],"stateMutability":"nonpayable"},{"type":"function","name":"roll","inputs":[{"name":"newDuration","type":"uint256","internalType":"uint256"}],"outputs":[],"stateMutability":"nonpayable"},{"type":"function","name":"shift","inputs":[],"outputs":[],"stateMutability":"nonpayable"},{"type":"function","name":"slide","inputs":[],"outputs":[],"stateMutability":"nonpayable"},{"type":"event","name":"Borrow","inputs":[{"name":"who","type":"address","indexed":true,"internalType":"address"},{"name":"borrowAmount","type":"uint256","indexed":false,"internalType":"uint256"},{"name":"duration","type":"uint256","indexed":false,"internalType":"uint256"}],"anonymous":false},{"type":"event","name":"DefaultLoans","inputs":[],"anonymous":false},{"type":"event","name":"Payback","inputs":[{"name":"who","type":"address","indexed":true,"internalType":"address"}],"anonymous":false},{"type":"event","name":"RollLoan","inputs":[{"name":"who","type":"address","indexed":true,"internalType":"address"}],"anonymous":false},{"type":"event","name":"Shift","inputs":[],"anonymous":false},{"type":"event","name":"Slide","inputs":[],"anonymous":false},{"type":"error","name":"AboveThreshold","inputs":[]},{"type":"error","name":"BelowThreshold","inputs":[]},{"type":"error","name":"InvalidDecimals","inputs":[]},{"type":"error","name":"InvalidTick","inputs":[]},{"type":"error","name":"NoLiquidity","inputs":[]},{"type":"error","name":"OnlyNotEmptyPositions","inputs":[]},{"type":"error","name":"OutOfRange","inputs":[]},{"type":"error","name":"PositionsLength","inputs":[]},{"type":"error","name":"SafeERC20FailedOperation","inputs":[{"name":"token","type":"address","internalType":"address"}]},{"type":"error","name":"ZeroLiquidty","inputs":[]}],"bytecode":{"object":"0x608060405234801561001057600080fd5b50614f37806100206000396000f3fe608060405234801561001057600080fd5b50600436106100885760003560e01c8063982f3bfd1161005b578063982f3bfd146100c5578063a846c2fd146100cd578063bcc46e83146100e0578063fd896f9d146100f357600080fd5b80630ecbcdab1461008d57806312fc41ca146100a25780631f7b4f30146100aa5780635f260855146100bd575b600080fd5b6100a061009b3660046142e8565b610111565b005b6100a06101ae565b6100a06100b836600461430a565b610353565b6100a06103d8565b6100a0610456565b6100a06100db36600461430a565b61055b565b6100a06100ee36600461430a565b6105e0565b6100fb61063a565b6040516101089190614323565b60405180910390f35b604051636bb5c0bd60e11b81523360048201526024810183905260448101829052309063d76b817a90606401600060405180830381600087803b15801561015757600080fd5b505af115801561016b573d6000803e3d6000fd5b505060408051858152602081018590523393507fe1979fe4c35e0cef342fef5668e2c8e7a7e9f5d5d1ca8fee0ac6c427fa4153af92500160405180910390a25050565b6000306001600160a01b031663802758606040518163ffffffff1660e01b81526004016101e060405180830381865afa1580156101ef573d6000803e3d6000fd5b505050506040513d601f19601f820116820180604052508101906102139190614469565b90506000306001600160a01b031663a1774da06040518163ffffffff1660e01b815260040160c060405180830381865afa158015610255573d6000803e3d6000fd5b505050506040513d601f19601f82011682018060405250810190610279919061450b565b9050610285818361091e565b505060408051631d8feb4f60e01b815233600482015282516001600160a01b03908116602483015260208401518116604483015291830151821660648201526060830151821660848201526080830151821660a482015260a083015190911660c48201523090631d8feb4f9060e401600060405180830381600087803b15801561030e57600080fd5b505af1158015610322573d6000803e3d6000fd5b50506040517f4e7f4c591a7da2f29fa296a59268851382577661a96cf8be96d925ddcd06d5a3925060009150a15050565b60405163b331fdcb60e01b815233600482015260248101829052309063b331fdcb90604401600060405180830381600087803b15801561039257600080fd5b505af11580156103a6573d6000803e3d6000fd5b50506040513392507ff9e904a8d040a3f74a4002f93a8cd4e02aba8c67e2811307e0ee4af9e88796cb9150600090a250565b306001600160a01b0316635f2608556040518163ffffffff1660e01b8152600401600060405180830381600087803b15801561041357600080fd5b505af1158015610427573d6000803e3d6000fd5b50506040517f3f4d122f92634272d53f63c3461a9c56e9b63085a55b1c67deeeecee989dbe2a925060009150a1565b6000306001600160a01b031663802758606040518163ffffffff1660e01b81526004016101e060405180830381865afa158015610497573d6000803e3d6000fd5b505050506040513d601f19601f820116820180604052508101906104bb9190614469565b90506000306001600160a01b031663a1774da06040518163ffffffff1660e01b815260040160c060405180830381865afa1580156104fd573d6000803e3d6000fd5b505050506040513d601f19601f82011682018060405250810190610521919061450b565b905061052d8183610d60565b506040517ff32746b4cd878ae944732ad09d04c73d4b7f950f8323aed34107cc478a087ace90600090a15050565b604051637a7cee4360e01b8152336004820152602481018290523090637a7cee4390604401600060405180830381600087803b15801561059a57600080fd5b505af11580156105ae573d6000803e3d6000fd5b50506040513392507fd7fbec11dbe04073dfbfa8c6a50d73565d9a0039dc14b9a9a4c55829bc6791c99150600090a250565b6040516336badcf760e11b8152336004820152602481018290523090636d75b9ee90604401600060405180830381600087803b15801561061f57600080fd5b505af1158015610633573d6000803e3d6000fd5b5050505050565b60408051600680825260e08201909252606091600091906020820160c08036833750506040805180820190915260078152667368696674282960c81b6020909101525080519091507f12fc41ca56ca3aa7ff9259abf3e0211600a967707c7f2c9ce1cf0ad9baf5f1069082906000906106b5576106b56145b6565b6001600160e01b0319909216602092830291909101820152604080518082019091526007815266736c696465282960c81b91015280517f982f3bfd4ba393dca0e196f8741ba8d559ed4cac6b306e3d133a86b025b22b9c9082906001908110610720576107206145b6565b6001600160e01b031990921660209283029190910182015260408051808201909152601781527f626f72726f772875696e743235362c75696e743235362900000000000000000091015280517f0ecbcdab8ac064968137359b115f0e2755ddc707151fb6866170eb68ffdcd75e90829060029081106107a1576107a16145b6565b6001600160e01b031990921660209283029190910182015260408051808201909152601081526f7061796261636b2875696e743235362960801b91015280517fa846c2fd0056b2382d08e083a7ed7335e6131532025dbb3e44182616a16f0b399082906003908110610815576108156145b6565b6001600160e01b031990921660209283029190910182015260408051808201909152600d81526c726f6c6c2875696e743235362960981b91015280517f1f7b4f30c3ae826cfb96d5277648418a175aebb15abc0706d40403a2812488ab9082906004908110610886576108866145b6565b6001600160e01b0319909216602092830291909101820152604080518082019091526016815275616464436f6c6c61746572616c2875696e743235362960501b91015280517fbcc46e83f1d8463f1634778afba30ec31b14e799378d5b158bc87e23a7390e569082906005908110610900576109006145b6565b6001600160e01b031990921660209283029190910190910152919050565b600061092861429b565b83518360005b6003811015610a3d5760003083836003811061094c5761094c6145b6565b602002015151848460038110610964576109646145b6565b60200201516020015160405160200161097f939291906145cc565b60408051601f1981840301815290829052805160209091012063514ea4bf60e01b82526004820181905291506000906001600160a01b0386169063514ea4bf9060240160a060405180830381865afa1580156109df573d6000803e3d6000fd5b505050506040513d601f19601f82011682018060405250810190610a0391906145fa565b505050509050806001600160801b0316600003610a335760405163170d402360e01b815260040160405180910390fd5b505060010161092e565b506060860151865160208801516040516323c9deeb60e01b81526001600160a01b03928316600482015290821660248201529116906323c9deeb90604401602060405180830381865afa158015610a98573d6000803e3d6000fd5b505050506040513d601f19601f82011682018060405250810190610abc9190614651565b9350600080600080610acd8a611110565b9350935093509350306001600160a01b031663c58aad876040518163ffffffff1660e01b815260040161020060405180830381865afa158015610b14573d6000803e3d6000fd5b505050506040513d601f19601f82011682018060405250810190610b389190614704565b608001518811610d39576000610b5789610b528587614813565b6112ad565b610b618486614813565b610b6b9190614826565b90508415610d335760608b01518b516040516317886cbb60e11b81526000926001600160a01b031691632f10d97691610bab919030908690600401614871565b608060405180830381865afa158015610bc8573d6000803e3d6000fd5b505050506040513d601f19601f82011682018060405250810190610bec9190614896565b935050505060008c606001516001600160a01b031663280eabf48e600001518f602001518f600160038110610c2357610c236145b6565b602002015160016040518563ffffffff1660e01b8152600401610c49949392919061491b565b602060405180830381865afa158015610c66573d6000803e3d6000fd5b505050506040513d601f19601f82011682018060405250810190610c8a9190614651565b9050610ccf6040518061010001604052808f8152602001858152602001898152602001838152602001848152602001888152602001878152602001868152508d6112d8565b6040516395d7d0ad60e01b8152909a5030906395d7d0ad90610cf5908d9060040161497c565b600060405180830381600087803b158015610d0f57600080fd5b505af1158015610d23573d6000803e3d6000fd5b5050505050505050505050610d57565b50610d52565b60405163e40aeaf560e01b815260040160405180910390fd5b505050505b50509250929050565b610d6861429b565b82518260005b6003811015610e7d57600030838360038110610d8c57610d8c6145b6565b602002015151848460038110610da457610da46145b6565b602002015160200151604051602001610dbf939291906145cc565b60408051601f1981840301815290829052805160209091012063514ea4bf60e01b82526004820181905291506000906001600160a01b0386169063514ea4bf9060240160a060405180830381865afa158015610e1f573d6000803e3d6000fd5b505050506040513d601f19601f82011682018060405250810190610e4391906145fa565b505050509050806001600160801b0316600003610e735760405163170d402360e01b815260040160405180910390fd5b5050600101610d6e565b506000610e8986611110565b5050915050306001600160a01b031663c58aad876040518163ffffffff1660e01b815260040161020060405180830381865afa158015610ecd573d6000803e3d6000fd5b505050506040513d601f19601f82011682018060405250810190610ef19190614704565b60a001516060870151875160208901516040516323c9deeb60e01b81526001600160a01b03928316600482015290821660248201529116906323c9deeb90604401602060405180830381865afa158015610f4f573d6000803e3d6000fd5b505050506040513d601f19601f82011682018060405250810190610f739190614651565b106110ef57600080600080610f8c8a600001518a61142a565b604051622de3e760e61b81526004810185905260248101849052939750919550935091503090630b78f9c090604401600060405180830381600087803b158015610fd557600080fd5b505af1158015610fe9573d6000803e3d6000fd5b5050604051622de3e760e61b81526004810185905260248101849052309250630b78f9c09150604401600060405180830381600087803b15801561102c57600080fd5b505af1158015611040573d6000803e3d6000fd5b50508b5161106792509050308b60016020020151518c60015b60200201516020015161150a565b895161107f90308b60026020020151518c6002611059565b61108a8a8a876115f0565b895181526040516395d7d0ad60e01b815290985030906395d7d0ad906110b4908b9060040161497c565b600060405180830381600087803b1580156110ce57600080fd5b505af11580156110e2573d6000803e3d6000fd5b5050505050505050611107565b604051625713a160e91b815260040160405180910390fd5b50505092915050565b600080600080600085606001516001600160a01b0316632f10d97687600001513060016040518463ffffffff1660e01b815260040161115193929190614871565b608060405180830381865afa15801561116e573d6000803e3d6000fd5b505050506040513d601f19601f820116820180604052508101906111929190614896565b935050505060008087606001516001600160a01b0316632f10d97689600001513060026040518463ffffffff1660e01b81526004016111d393929190614871565b608060405180830381865afa1580156111f0573d6000803e3d6000fd5b505050506040513d601f19601f820116820180604052508101906112149190614896565b60608c01518c5160208e015160405163526ed0d160e11b81526001600160a01b03928316600482015290821660248201529397509195506000945016915063a4dda1a290604401602060405180830381865afa158015611278573d6000803e3d6000fd5b505050506040513d601f19601f8201168201806040525081019061129c9190614651565b975092955093509150509193509193565b60006112bb6012600a614a6f565b6112c58385614a7b565b6112cf9190614aa8565b90505b92915050565b6112e061429b565b600083600001516040015190506000816001600160a01b031663de0ca7e1866020015187608001518860400151886040518563ffffffff1660e01b815260040161132d9493929190614abc565b602060405180830381865afa15801561134a573d6000803e3d6000fd5b505050506040513d601f19601f8201168201806040525081019061136e9190614651565b905061142185600001516040518061016001604052808860000151600001516001600160a01b031681526020018860000151604001516001600160a01b03168152602001886020015181526020018481526020018860000151606001516001600160a01b03168152602001886000015160a001516001600160a01b03168152602001886080015181526020018860a0015181526020018860c0015181526020018860e001518152602001878152506119b4565b95945050505050565b6000806000806000866001600160a01b0316633850c7bd6040518163ffffffff1660e01b815260040160e060405180830381865afa158015611470573d6000803e3d6000fd5b505050506040513d601f19601f820116820180604052508101906114949190614aef565b50505050505090506114c9866000600381106114b2576114b26145b6565b6020020151308960016114c486611c79565b611fb3565b94506114d68660016114b2565b92506114f18660005b6020020151308960006114c486611c79565b93506114fe8660016114df565b91505092959194509250565b6000308383604051602001611521939291906145cc565b60408051601f1981840301815290829052805160209091012063514ea4bf60e01b82526004820181905291506000906001600160a01b0387169063514ea4bf9060240160a060405180830381865afa158015611581573d6000803e3d6000fd5b505050506040513d601f19601f820116820180604052508101906115a591906145fa565b5050505090506000816001600160801b031611156115cf576115ca86868686856123eb565b6115e8565b60405163367e98e760e11b815260040160405180910390fd5b505050505050565b6115f861429b565b600084600001516001600160a01b0316633850c7bd6040518163ffffffff1660e01b815260040160e060405180830381865afa15801561163c573d6000803e3d6000fd5b505050506040513d601f19601f820116820180604052508101906116609190614aef565b50505050505090506118038560405180608001604052808760006003811061168a5761168a6145b6565b60200201516020015160020b81526020016117e86116a786611c79565b306001600160a01b031663c58aad876040518163ffffffff1660e01b815260040161020060405180830381865afa1580156116e6573d6000803e3d6000fd5b505050506040513d601f19601f8201168201806040525081019061170a9190614704565b61010001518b600001516001600160a01b0316630dfe16816040518163ffffffff1660e01b8152600401602060405180830381865afa158015611751573d6000803e3d6000fd5b505050506040513d601f19601f820116820180604052508101906117759190614b77565b6001600160a01b031663313ce5676040518163ffffffff1660e01b8152600401602060405180830381865afa1580156117b2573d6000803e3d6000fd5b505050506040513d601f19601f820116820180604052508101906117d69190614b94565b8b60005b60200201516080015161250b565b60020b81526020810187905260400160015b9052600061260b565b82600160200201819052506119a76040518060c0016040528087600001516001600160a01b0316815260200187602001516001600160a01b0316815260200187604001516001600160a01b0316815260200187606001516001600160a01b0316815260200187608001516001600160a01b031681526020018760a001516001600160a01b03168152506040518060800160405280876000600381106118aa576118aa6145b6565b6020020151608001518660016020020151602001516118c99190614baf565b60020b81526020016119866118dd86611c79565b306001600160a01b031663c58aad876040518163ffffffff1660e01b815260040161020060405180830381865afa15801561191c573d6000803e3d6000fd5b505050506040513d601f19601f820116820180604052508101906119409190614704565b60c001518b600001516001600160a01b0316630dfe16816040518163ffffffff1660e01b8152600401602060405180830381865afa158015611751573d6000803e3d6000fd5b60020b8152602001600081526020016002808111156117fa576117fa614839565b6040830152509392505050565b6119bc61429b565b61014082015151604001516001600160801b031615611c1e576000806000806119ee866000015187610140015161142a565b604051622de3e760e61b81526004810185905260248101849052939750919550935091503090630b78f9c090604401600060405180830381600087803b158015611a3757600080fd5b505af1158015611a4b573d6000803e3d6000fd5b5050604051622de3e760e61b81526004810185905260248101849052309250630b78f9c09150604401600060405180830381600087803b158015611a8e57600080fd5b505af1158015611aa2573d6000803e3d6000fd5b50508751610140890151805151611ac194509192503091906000611059565b8551610140870151604081015151611ade92913091906002611059565b8551610140870151602081015151611afb92913091906001611059565b60c08601516040870151611b0f9082614813565b1115611ba757611ba7866020015187604001518860c00151611b319190614813565b88600001516001600160a01b031663d21220a76040518163ffffffff1660e01b8152600401602060405180830381865afa158015611b73573d6000803e3d6000fd5b505050506040513d601f19601f82011682018060405250810190611b979190614b77565b6001600160a01b03169190613596565b611bb187876135ed565b8051604001519095506001600160801b03161580611bde57506020850151604001516001600160801b0316155b80611bf7575060408086015101516001600160801b0316155b15611c1557604051636180f03f60e11b815260040160405180910390fd5b505050506112d2565b60405162461bcd60e51b815260206004820152602560248201527f7368696674506f736974696f6e733a206e6f206c697175696469747920696e20604482015264233637b7b960d91b60648201526084015b60405180910390fd5b60006401000276a36001600160a01b03831610801590611cb5575073fffd8963efd1fc6a506488495d951d5263988d266001600160a01b038316105b611ce55760405162461bcd60e51b81526020600482015260016024820152602960f91b6044820152606401611c70565b640100000000600160c01b03602083901b166001600160801b03811160071b81811c67ffffffffffffffff811160061b90811c63ffffffff811160051b90811c61ffff811160041b90811c60ff8111600390811b91821c600f811160021b90811c918211600190811b92831c97908811961790941790921717909117171760808110611d8057611d76607f82614826565b83901c9150611d91565b611d8b81607f614826565b83901b91505b60006040611da0608084614bd4565b901b9050828302607f1c92508260801c80603f1b8217915083811c935050828302607f1c92508260801c80603e1b8217915083811c935050828302607f1c92508260801c80603d1b8217915083811c935050828302607f1c92508260801c80603c1b8217915083811c935050828302607f1c92508260801c80603b1b8217915083811c935050828302607f1c92508260801c80603a1b8217915083811c935050828302607f1c92508260801c8060391b8217915083811c935050828302607f1c92508260801c8060381b8217915083811c935050828302607f1c92508260801c8060371b8217915083811c935050828302607f1c92508260801c8060361b8217915083811c935050828302607f1c92508260801c8060351b8217915083811c935050828302607f1c92508260801c8060341b8217915083811c935050828302607f1c92508260801c8060331b8217915083811c935050828302607f1c92508260801c8060321b8217915050600081693627a301d71055774c85611f239190614bf4565b905060006080611f436f028f6481ab7f045a5af012a19d003aaa84614bd4565b901d905060006080611f65846fdb2df09e81959a81455e260799a0632f614c24565b901d90508060020b8260020b14611fa457886001600160a01b0316611f8982613b40565b6001600160a01b03161115611f9e5781611fa6565b80611fa6565b815b9998505050505050505050565b6000806000806000806000896001600160a01b031663514ea4bf8c8e600001518f60200151604051602001611fea939291906145cc565b604051602081830303815290604052805190602001206040518263ffffffff1660e01b815260040161201e91815260200190565b60a060405180830381865afa15801561203b573d6000803e3d6000fd5b505050506040513d601f19601f8201168201806040525081019061205f91906145fa565b505092509250925088156121ef57896001600160a01b031663f30583996040518163ffffffff1660e01b8152600401602060405180830381865afa1580156120ab573d6000803e3d6000fd5b505050506040513d601f19601f820116820180604052508101906120cf9190614651565b8c5160405163f30dba9360e01b815260029190910b60048201529094506001600160a01b038b169063f30dba939060240161010060405180830381865afa15801561211e573d6000803e3d6000fd5b505050506040513d601f19601f820116820180604052508101906121429190614c4c565b90919293949596509091929394955090919293509091925090915090505080965050896001600160a01b031663f30dba938d602001516040518263ffffffff1660e01b815260040161219d919060029190910b815260200190565b61010060405180830381865afa1580156121bb573d6000803e3d6000fd5b505050506040513d601f19601f820116820180604052508101906121df9190614c4c565b50939a5061236d95505050505050565b896001600160a01b031663461413196040518163ffffffff1660e01b8152600401602060405180830381865afa15801561222d573d6000803e3d6000fd5b505050506040513d601f19601f820116820180604052508101906122519190614651565b8c5160405163f30dba9360e01b815260029190910b60048201529094506001600160a01b038b169063f30dba939060240161010060405180830381865afa1580156122a0573d6000803e3d6000fd5b505050506040513d601f19601f820116820180604052508101906122c49190614c4c565b9091929394959650909192939495509091929394509091925090915090505080965050896001600160a01b031663f30dba938d602001516040518263ffffffff1660e01b8152600401612320919060029190910b815260200190565b61010060405180830381865afa15801561233e573d6000803e3d6000fd5b505050506040513d601f19601f820116820180604052508101906123629190614c4c565b50929a505050505050505b60008c6000015160020b8960020b1261238757508561238c565b508584035b60008d6020015160020b8a60020b12156123a75750856123ac565b508585035b8186038190036123d86001600160801b0387168d6123ca57856123cc565b865b8303600160801b613f58565b9f9e505050505050505050505050505050565b60405163a34123a760e01b8152600284810b600483015283900b60248201526001600160801b03821660448201526001600160a01b0386169063a34123a79060640160408051808303816000875af115801561244b573d6000803e3d6000fd5b505050506040513d601f19601f8201168201806040525081019061246f9190614cf6565b50506040516309e3d67b60e31b81526001600160a01b038581166004830152600285810b602484015284900b60448301526001600160801b03606483018190526084830152861690634f1eb3d89060a40160408051808303816000875af11580156124de573d6000803e3d6000fd5b505050506040513d601f19601f820116820180604052508101906125029190614d1a565b50505050505050565b60008073__$00856c2daf1848075e4d6b3791a97a7365$__63b7df07b36125318861400c565b6040516001600160e01b031960e084901b1681526001600160a01b03909116600482015260ff87166024820152604401602060405180830381865af415801561257e573d6000803e3d6000fd5b505050506040513d601f19601f820116820180604052508101906125a29190614651565b905060006125b3828760020b614017565b905060006125c2828688614094565b9050620d89e719600282900b12806125e05750620d89e8600282900b135b156125fe57604051637db3aba760e01b815260040160405180910390fd5b925050505b949350505050565b6040805160a081018252600080825260208201819052918101829052606081018290526080810191909152826000015160020b836020015160020b13612664576040516333a3bdff60e21b815260040160405180910390fd5b600084600001516001600160a01b0316630dfe16816040518163ffffffff1660e01b8152600401602060405180830381865afa1580156126a8573d6000803e3d6000fd5b505050506040513d601f19601f820116820180604052508101906126cc9190614b77565b6040516370a0823160e01b81523060048201526001600160a01b0391909116906370a0823190602401602060405180830381865afa158015612712573d6000803e3d6000fd5b505050506040513d601f19601f820116820180604052508101906127369190614651565b9050600085600001516001600160a01b0316630dfe16816040518163ffffffff1660e01b8152600401602060405180830381865afa15801561277c573d6000803e3d6000fd5b505050506040513d601f19601f820116820180604052508101906127a09190614b77565b6040808801519051636eb1769f60e11b81523060048201526001600160a01b03918216602482015291169063dd62ed3e90604401602060405180830381865afa1580156127f1573d6000803e3d6000fd5b505050506040513d601f19601f820116820180604052508101906128159190614651565b9050600086600001516001600160a01b031663d21220a76040518163ffffffff1660e01b8152600401602060405180830381865afa15801561285b573d6000803e3d6000fd5b505050506040513d601f19601f8201168201806040525081019061287f9190614b77565b6040808901519051636eb1769f60e11b81523060048201526001600160a01b03918216602482015291169063dd62ed3e90604401602060405180830381865afa1580156128d0573d6000803e3d6000fd5b505050506040513d601f19601f820116820180604052508101906128f49190614651565b905060001982146129e05786600001516001600160a01b0316630dfe16816040518163ffffffff1660e01b8152600401602060405180830381865afa158015612941573d6000803e3d6000fd5b505050506040513d601f19601f820116820180604052508101906129659190614b77565b604080890151905163095ea7b360e01b81526001600160a01b039182166004820152600019602482015291169063095ea7b3906044016020604051808303816000875af11580156129ba573d6000803e3d6000fd5b505050506040513d601f19601f820116820180604052508101906129de9190614d4d565b505b6000198114612aca5786600001516001600160a01b031663d21220a76040518163ffffffff1660e01b8152600401602060405180830381865afa158015612a2b573d6000803e3d6000fd5b505050506040513d601f19601f82011682018060405250810190612a4f9190614b77565b604080890151905163095ea7b360e01b81526001600160a01b039182166004820152600019602482015291169063095ea7b3906044016020604051808303816000875af1158015612aa4573d6000803e3d6000fd5b505050506040513d601f19601f82011682018060405250810190612ac89190614d4d565b505b600286606001516002811115612ae257612ae2614839565b036134b05760608701518751602089015160405163526ed0d160e11b81526000936001600160a01b03169263a4dda1a292612b34926004016001600160a01b0392831681529116602082015260400190565b602060405180830381865afa158015612b51573d6000803e3d6000fd5b505050506040513d601f19601f82011682018060405250810190612b759190614651565b9050600088600001516001600160a01b0316630dfe16816040518163ffffffff1660e01b8152600401602060405180830381865afa158015612bbb573d6000803e3d6000fd5b505050506040513d601f19601f82011682018060405250810190612bdf9190614b77565b6001600160a01b03166318160ddd6040518163ffffffff1660e01b8152600401602060405180830381865afa158015612c1c573d6000803e3d6000fd5b505050506040513d601f19601f82011682018060405250810190612c409190614651565b9050600089600001516001600160a01b0316633850c7bd6040518163ffffffff1660e01b815260040160e060405180830381865afa158015612c86573d6000803e3d6000fd5b505050506040513d601f19601f82011682018060405250810190612caa9190614aef565b5050505050509050306001600160a01b031663c58aad876040518163ffffffff1660e01b815260040161020060405180830381865afa158015612cf1573d6000803e3d6000fd5b505050506040513d601f19601f82011682018060405250810190612d159190614704565b6101200151612d249084614aa8565b8610156130705787156130705760008a60a001516001600160a01b03166383183fd9846000306001600160a01b031663dee02ffa6040518163ffffffff1660e01b8152600401602060405180830381865afa158015612d87573d6000803e3d6000fd5b505050506040513d601f19601f82011682018060405250810190612dab9190614651565b11612db7576001612e19565b306001600160a01b031663dee02ffa6040518163ffffffff1660e01b8152600401602060405180830381865afa158015612df5573d6000803e3d6000fd5b505050506040513d601f19601f82011682018060405250810190612e199190614651565b60405163b7df07b360e01b81526001600160a01b03871660048201526012602482015273__$00856c2daf1848075e4d6b3791a97a7365$__9063b7df07b390604401602060405180830381865af4158015612e78573d6000803e3d6000fd5b505050506040513d601f19601f82011682018060405250810190612e9c9190614651565b8f606001516001600160a01b0316636013be6d306040518263ffffffff1660e01b8152600401612edb91906001600160a01b0391909116815260200190565b602060405180830381865afa158015612ef8573d6000803e3d6000fd5b505050506040513d601f19601f82011682018060405250810190612f1c9190614651565b6040516001600160e01b031960e087901b1681526004810194909452602484019290925260448301526064820152608401602060405180830381865afa158015612f6a573d6000803e3d6000fd5b505050506040513d601f19601f82011682018060405250810190612f8e9190614651565b9050801580612f9c57508281115b1561301657306001600160a01b031663c58aad876040518163ffffffff1660e01b815260040161020060405180830381865afa158015612fe0573d6000803e3d6000fd5b505050506040513d601f19601f820116820180604052508101906130049190614704565b61012001516130139085614aa8565b90505b604051633c37699760e21b81523060048201819052602482018390529063f0dda65c90604401600060405180830381600087803b15801561305657600080fd5b505af115801561306a573d6000803e3d6000fd5b50505050505b306001600160a01b031663c58aad876040518163ffffffff1660e01b815260040161020060405180830381865afa1580156130af573d6000803e3d6000fd5b505050506040513d601f19601f820116820180604052508101906130d39190614704565b61014001516130e29084614aa8565b861061321f578761321f57604051636d1b229d60e01b8152600481018790523090636d1b229d90602401600060405180830381600087803b15801561312657600080fd5b505af115801561313a573d6000803e3d6000fd5b50505050306001600160a01b031663f0dda65c30306001600160a01b031663c58aad876040518163ffffffff1660e01b815260040161020060405180830381865afa15801561318d573d6000803e3d6000fd5b505050506040513d601f19601f820116820180604052508101906131b19190614704565b61014001516131c09087614aa8565b6040516001600160e01b031960e085901b1681526001600160a01b0390921660048301526024820152604401600060405180830381600087803b15801561320657600080fd5b505af115801561321a573d6000803e3d6000fd5b505050505b89600001516001600160a01b0316630dfe16816040518163ffffffff1660e01b8152600401602060405180830381865afa158015613261573d6000803e3d6000fd5b505050506040513d601f19601f820116820180604052508101906132859190614b77565b6040516370a0823160e01b81523060048201526001600160a01b0391909116906370a0823190602401602060405180830381865afa1580156132cb573d6000803e3d6000fd5b505050506040513d601f19601f820116820180604052508101906132ef9190614651565b9550856000036134ac57306001600160a01b031663f0dda65c30306001600160a01b031663c58aad876040518163ffffffff1660e01b815260040161020060405180830381865afa158015613348573d6000803e3d6000fd5b505050506040513d601f19601f8201168201806040525081019061336c9190614704565b610120015161337b9087614aa8565b6040516001600160e01b031960e085901b1681526001600160a01b0390921660048301526024820152604401600060405180830381600087803b1580156133c157600080fd5b505af11580156133d5573d6000803e3d6000fd5b5050505089600001516001600160a01b0316630dfe16816040518163ffffffff1660e01b8152600401602060405180830381865afa15801561341b573d6000803e3d6000fd5b505050506040513d601f19601f8201168201806040525081019061343f9190614b77565b6040516370a0823160e01b81523060048201526001600160a01b0391909116906370a0823190602401602060405180830381865afa158015613485573d6000803e3d6000fd5b505050506040513d601f19601f820116820180604052508101906134a99190614651565b95505b5050505b86604001516001600160a01b031663ae9b827788600001513089600001518a602001518b6060015160405180604001604052808b8152602001600160028111156134fc576134fc614839565b8f60600151600281111561351257613512614839565b1461351e576001613524565b8e604001515b8152506040518763ffffffff1660e01b815260040161354896959493929190614d68565b60a0604051808303816000875af1158015613567573d6000803e3d6000fd5b505050506040513d601f19601f8201168201806040525081019061358b9190614dbb565b979650505050505050565b604080516001600160a01b038416602482015260448082018490528251808303909101815260649091019091526020810180516001600160e01b031663a9059cbb60e01b1790526135e89084906141d4565b505050565b6135f561429b565b600082600001516001600160a01b0316633850c7bd6040518163ffffffff1660e01b815260040160e060405180830381865afa158015613639573d6000803e3d6000fd5b505050506040513d601f19601f8201168201806040525081019061365d9190614aef565b5050505050509050600083600001516001600160a01b0316630dfe16816040518163ffffffff1660e01b8152600401602060405180830381865afa1580156136a9573d6000803e3d6000fd5b505050506040513d601f19601f820116820180604052508101906136cd9190614b77565b6001600160a01b031663313ce5676040518163ffffffff1660e01b8152600401602060405180830381865afa15801561370a573d6000803e3d6000fd5b505050506040513d601f19601f8201168201806040525081019061372e9190614b94565b905083602001516001600160a01b0316636cc03e7d85600001513073__$00856c2daf1848075e4d6b3791a97a7365$__63b7df07b361378c8a610140015160006003811061377e5761377e6145b6565b60200201516020015161400c565b6040516001600160e01b031960e084901b1681526001600160a01b03909116600482015260ff88166024820152604401602060405180830381865af41580156137d9573d6000803e3d6000fd5b505050506040513d601f19601f820116820180604052508101906137fd9190614651565b886060015189604001518a60c001516138169190614813565b60c08b01516101408c0151516040516001600160e01b031960e08a901b1681526138499796959493929190600401614dd7565b60a0604051808303816000875af1158015613868573d6000803e3d6000fd5b505050506040513d601f19601f8201168201806040525081019061388c9190614dbb565b83526040805160c08101825285516001600160a01b039081168252602088810151821681840152888401518216838501526060808a01518316908401526080808a015183168185015260a0808b0151909316928401929092528351918201909352855183015160020b81526139bc92810161397f61390987611c79565b306001600160a01b031663c58aad876040518163ffffffff1660e01b815260040161020060405180830381865afa158015613948573d6000803e3d6000fd5b505050506040513d601f19601f8201168201806040525081019061396c9190614704565b60e001516101408b0151889060006117da565b60020b815260200187604001518861010001518960e001516139a19190614813565b6139ab9190614826565b815260200160015b9052600161260b565b8360016020020181905250613b326040518060c0016040528086600001516001600160a01b0316815260200187602001516001600160a01b0316815260200187604001516001600160a01b0316815260200187606001516001600160a01b0316815260200187608001516001600160a01b031681526020018760a001516001600160a01b03168152506040518060800160405280876101400151600060038110613a6857613a686145b6565b602002015160800151876001602002015160200151613a879190614baf565b60020b8152602001613b11613a9b87611c79565b306001600160a01b031663c58aad876040518163ffffffff1660e01b815260040161020060405180830381865afa158015613ada573d6000803e3d6000fd5b505050506040513d601f19601f82011682018060405250810190613afe9190614704565b60c001516101408b0151889060006117da565b60020b8152602001600081526020016002808111156139b3576139b3614839565b604084015250909392505050565b60008060008360020b12613b57578260020b613b64565b8260020b613b6490614e25565b9050613b73620d89e719614e41565b60020b811115613ba95760405162461bcd60e51b81526020600482015260016024820152601560fa1b6044820152606401611c70565b600081600116600003613bc057600160801b613bd2565b6ffffcb933bd6fad37aa2d162d1a5940015b70ffffffffffffffffffffffffffffffffff1690506002821615613c11576080613c0c826ffff97272373d413259a46990580e213a614a7b565b901c90505b6004821615613c3b576080613c36826ffff2e50f5f656932ef12357cf3c7fdcc614a7b565b901c90505b6008821615613c65576080613c60826fffe5caca7e10e4e61c3624eaa0941cd0614a7b565b901c90505b6010821615613c8f576080613c8a826fffcb9843d60f6159c9db58835c926644614a7b565b901c90505b6020821615613cb9576080613cb4826fff973b41fa98c081472e6896dfb254c0614a7b565b901c90505b6040821615613ce3576080613cde826fff2ea16466c96a3843ec78b326b52861614a7b565b901c90505b6080821615613d0d576080613d08826ffe5dee046a99a2a811c461f1969c3053614a7b565b901c90505b610100821615613d38576080613d33826ffcbe86c7900a88aedcffc83b479aa3a4614a7b565b901c90505b610200821615613d63576080613d5e826ff987a7253ac413176f2b074cf7815e54614a7b565b901c90505b610400821615613d8e576080613d89826ff3392b0822b70005940c7a398e4b70f3614a7b565b901c90505b610800821615613db9576080613db4826fe7159475a2c29b7443b29c7fa6e889d9614a7b565b901c90505b611000821615613de4576080613ddf826fd097f3bdfd2022b8845ad8f792aa5825614a7b565b901c90505b612000821615613e0f576080613e0a826fa9f746462d870fdf8a65dc1f90e061e5614a7b565b901c90505b614000821615613e3a576080613e35826f70d869a156d2a1b890bb3df62baf32f7614a7b565b901c90505b618000821615613e65576080613e60826f31be135f97d08fd981231505542fcfa6614a7b565b901c90505b62010000821615613e91576080613e8c826f09aa508b5b7a84e1c677de54f3e99bc9614a7b565b901c90505b62020000821615613ebc576080613eb7826e5d6af8dedb81196699c329225ee604614a7b565b901c90505b62040000821615613ee6576080613ee1826d2216e584f5fa1ea926041bedfe98614a7b565b901c90505b62080000821615613f0e576080613f09826b048a170391f7dc42444e8fa2614a7b565b901c90505b60008460020b1315613f2957613f2681600019614aa8565b90505b613f3864010000000082614e63565b15613f44576001613f47565b60005b6126039060ff16602083901c614813565b6000808060001985870985870292508281108382030391505080600003613f915760008411613f8657600080fd5b508290049050614005565b808411613f9d57600080fd5b600084868809851960019081018716968790049682860381900495909211909303600082900391909104909201919091029190911760038402600290811880860282030280860282030280860282030280860282030280860282030280860290910302029150505b9392505050565b60006112d282613b40565b600080821261404d57600061271061402f8486614a7b565b6140399190614aa8565b90506140458185614813565b9150506112d2565b600061271061405b84614e25565b6140659086614a7b565b61406f9190614aa8565b9050838111156140835760009150506112d2565b6140458185614826565b5092915050565b600060068260ff16101580156140ae575060128260ff1611155b6140cb57604051630692acc560e51b815260040160405180910390fd5b60006140d8836012614e77565b6140e390600a614e90565b90506140ef8186614bf4565b9450836141ca68033dd1780914b9684073__$28bae0af19d0e90d77349cc0e88bc3c39a$__63bc4225aa61412b8a670de0b6b3a7640000614bf4565b6040516001600160e01b031960e084901b1681526004810191909152670de0b6b3a764000060248201526706f05b59d3b200006044820152606401602060405180830381865af4158015614183573d6000803e3d6000fd5b505050506040513d601f19601f820116820180604052508101906141a79190614651565b6141b19190614bd4565b6141c5600288900b658334ae9d7c0a614bf4565b61424b565b6114219190614e9f565b600080602060008451602086016000885af1806141f7576040513d6000823e3d81fd5b50506000513d9150811561420f57806001141561421c565b6001600160a01b0384163b155b1561424557604051635274afe760e01b81526001600160a01b0385166004820152602401611c70565b50505050565b60006113886127108361425e8683614bf4565b6142689190614ebf565b6142729190614eed565b13614286576142818284614ebf565b6112cf565b6142908284614ebf565b6112cf906001614c24565b60405180606001604052806003905b6040805160a0810182526000808252602080830182905292820181905260608201819052608082015282526000199092019101816142aa5790505090565b600080604083850312156142fb57600080fd5b50508035926020909101359150565b60006020828403121561431c57600080fd5b5035919050565b6020808252825182820181905260009190848201906040850190845b818110156143655783516001600160e01b0319168352928401929184019160010161433f565b50909695505050505050565b634e487b7160e01b600052604160045260246000fd5b6040516101e0810167ffffffffffffffff811182821017156143ab576143ab614371565b60405290565b8051600281900b81146143c357600080fd5b919050565b80516001600160801b03811681146143c357600080fd5b600060a082840312156143f157600080fd5b60405160a0810181811067ffffffffffffffff8211171561441457614414614371565b604052905080614423836143b1565b8152614431602084016143b1565b6020820152614442604084016143c8565b60408201526060830151606082015261445d608084016143b1565b60808201525092915050565b60006101e080838503121561447d57600080fd5b83601f84011261448c57600080fd5b6040516060810181811067ffffffffffffffff821117156144af576144af614371565b6040529083019080858311156144c457600080fd5b845b838110156144e8576144d887826143df565b825260209091019060a0016144c6565b509095945050505050565b6001600160a01b038116811461450857600080fd5b50565b600060c0828403121561451d57600080fd5b60405160c0810181811067ffffffffffffffff8211171561454057614540614371565b604052825161454e816144f3565b8152602083015161455e816144f3565b60208201526040830151614571816144f3565b60408201526060830151614584816144f3565b60608201526080830151614597816144f3565b608082015260a08301516145aa816144f3565b60a08201529392505050565b634e487b7160e01b600052603260045260246000fd5b60609390931b6bffffffffffffffffffffffff1916835260e891821b6014840152901b6017820152601a0190565b600080600080600060a0868803121561461257600080fd5b61461b866143c8565b94506020860151935060408601519250614637606087016143c8565b9150614645608087016143c8565b90509295509295909350565b60006020828403121561466357600080fd5b5051919050565b805160ff811681146143c357600080fd5b805161ffff811681146143c357600080fd5b600082601f83011261469e57600080fd5b6040516040810181811067ffffffffffffffff821117156146c1576146c1614371565b80604052508060408401858111156146d857600080fd5b845b818110156146f9576146eb8161467b565b8352602092830192016146da565b509195945050505050565b6000610200828403121561471757600080fd5b61471f614387565b6147288361466a565b81526147366020840161466a565b60208201526147476040840161466a565b6040820152614759846060850161468d565b606082015260a0830151608082015260c083015160a082015261477e60e084016143b1565b60c08201526101006147918185016143b1565b60e08301526101206147a48186016143b1565b828401526101409150818501518184015250610160808501518284015261018091508185015181840152506101a080850151828401526101c091508185015181840152506101e084015181830152508091505092915050565b634e487b7160e01b600052601160045260246000fd5b808201808211156112d2576112d26147fd565b818103818111156112d2576112d26147fd565b634e487b7160e01b600052602160045260246000fd5b6003811061486d57634e487b7160e01b600052602160045260246000fd5b9052565b6001600160a01b0384811682528316602082015260608101612603604083018461484f565b600080600080608085870312156148ac57600080fd5b6148b5856143b1565b93506148c3602086016143b1565b6040860151606090960151949790965092505050565b805160020b8252602081015160020b60208301526001600160801b03604082015116604083015260608101516060830152608081015160020b60808301525050565b6001600160a01b03858116825284166020820152610100810161494160408301856148d9565b61142160e083018461484f565b8060005b6003811015614245576149668483516148d9565b60a0939093019260209190910190600101614952565b6101e081016112d2828461494e565b600181815b808511156149c65781600019048211156149ac576149ac6147fd565b808516156149b957918102915b93841c9390800290614990565b509250929050565b6000826149dd575060016112d2565b816149ea575060006112d2565b8160018114614a005760028114614a0a57614a26565b60019150506112d2565b60ff841115614a1b57614a1b6147fd565b50506001821b6112d2565b5060208310610133831016604e8410600b8410161715614a49575081810a6112d2565b614a53838361498b565b8060001904821115614a6757614a676147fd565b029392505050565b60006112cf83836149ce565b80820281158282048414176112d2576112d26147fd565b634e487b7160e01b600052601260045260246000fd5b600082614ab757614ab7614a92565b500490565b84815260208101849052604081018390526102408101611421606083018461494e565b805180151581146143c357600080fd5b600080600080600080600060e0888a031215614b0a57600080fd5b8751614b15816144f3565b9650614b23602089016143b1565b9550614b316040890161467b565b9450614b3f6060890161467b565b9350614b4d6080890161467b565b9250614b5b60a0890161466a565b9150614b6960c08901614adf565b905092959891949750929550565b600060208284031215614b8957600080fd5b8151614005816144f3565b600060208284031215614ba657600080fd5b6112cf8261466a565b600281810b9083900b01627fffff8113627fffff19821217156112d2576112d26147fd565b818103600083128015838313168383128216171561408d5761408d6147fd565b80820260008212600160ff1b84141615614c1057614c106147fd565b81810583148215176112d2576112d26147fd565b8082018281126000831280158216821582161715614c4457614c446147fd565b505092915050565b600080600080600080600080610100898b031215614c6957600080fd5b614c72896143c8565b9750602089015180600f0b8114614c8857600080fd5b80975050604089015195506060890151945060808901518060060b8114614cae57600080fd5b60a08a0151909450614cbf816144f3565b60c08a015190935063ffffffff81168114614cd957600080fd5b9150614ce760e08a01614adf565b90509295985092959890939650565b60008060408385031215614d0957600080fd5b505080516020909101519092909150565b60008060408385031215614d2d57600080fd5b614d36836143c8565b9150614d44602084016143c8565b90509250929050565b600060208284031215614d5f57600080fd5b6112cf82614adf565b6001600160a01b03878116825286166020820152600285810b604083015284900b606082015260e08101614d9f608083018561484f565b825160a0830152602083015160c0830152979650505050505050565b600060a08284031215614dcd57600080fd5b6112cf83836143df565b6001600160a01b0388811682528716602082015260408101869052606081018590526080810184905260a081018390526101608101614e1960c08301846148d9565b98975050505050505050565b6000600160ff1b8201614e3a57614e3a6147fd565b5060000390565b60008160020b627fffff198103614e5a57614e5a6147fd565b60000392915050565b600082614e7257614e72614a92565b500690565b60ff82811682821603908111156112d2576112d26147fd565b60006112cf60ff8416836149ce565b60008260020b8260020b028060020b915080821461408d5761408d6147fd565b600082614ece57614ece614a92565b600160ff1b821460001984141615614ee857614ee86147fd565b500590565b600082614efc57614efc614a92565b50079056fea2646970667358221220edbbc96af09838784a2b1249ab9c7ce5b5683355c6c1b9895c5907482a95d6e064736f6c63430008170033","linkReferences":{"src/libraries/Conversions.sol":{"Conversions":[{"start":9520,"length":20},{"start":11870,"length":20},{"start":14187,"length":20}]},"src/libraries/Logarithm.sol":{"Logarithm":[{"start":16673,"length":20}]}}},"methodIdentifiers":{"addCollateral(uint256)":"bcc46e83","borrow(uint256,uint256)":"0ecbcdab","defaultLoans()":"5f260855","getFunctionSelectors()":"fd896f9d","payback(uint256)":"a846c2fd","roll(uint256)":"1f7b4f30","shift()":"12fc41ca","slide()":"982f3bfd"},"id":129}