{"abi":[{"type":"function","name":"adaptiveSupply","inputs":[],"outputs":[{"name":"","type":"address","internalType":"address"}],"stateMutability":"view"},{"type":"function","name":"addCollateral","inputs":[{"name":"who","type":"address","internalType":"address"},{"name":"amount","type":"uint256","internalType":"uint256"}],"outputs":[],"stateMutability":"nonpayable"},{"type":"function","name":"afterPresale","inputs":[],"outputs":[],"stateMutability":"nonpayable"},{"type":"function","name":"borrowFromFloor","inputs":[{"name":"who","type":"address","internalType":"address"},{"name":"borrowAmount","type":"uint256","internalType":"uint256"},{"name":"duration","type":"uint256","internalType":"uint256"}],"outputs":[],"stateMutability":"nonpayable"},{"type":"function","name":"burnTokens","inputs":[{"name":"amount","type":"uint256","internalType":"uint256"}],"outputs":[],"stateMutability":"nonpayable"},{"type":"function","name":"calculateLoanFees","inputs":[{"name":"borrowAmount","type":"uint256","internalType":"uint256"},{"name":"duration","type":"uint256","internalType":"uint256"}],"outputs":[{"name":"","type":"uint256","internalType":"uint256"}],"stateMutability":"view"},{"type":"function","name":"defaultLoans","inputs":[],"outputs":[],"stateMutability":"nonpayable"},{"type":"function","name":"factory","inputs":[],"outputs":[{"name":"","type":"address","internalType":"address"}],"stateMutability":"view"},{"type":"function","name":"getAccumulatedFees","inputs":[],"outputs":[{"name":"","type":"uint256","internalType":"uint256"},{"name":"","type":"uint256","internalType":"uint256"}],"stateMutability":"view"},{"type":"function","name":"getActiveLoan","inputs":[{"name":"who","type":"address","internalType":"address"}],"outputs":[{"name":"borrowAmount","type":"uint256","internalType":"uint256"},{"name":"collateralAmount","type":"uint256","internalType":"uint256"},{"name":"fees","type":"uint256","internalType":"uint256"},{"name":"expiry","type":"uint256","internalType":"uint256"},{"name":"duration","type":"uint256","internalType":"uint256"}],"stateMutability":"view"},{"type":"function","name":"getCollateralAmount","inputs":[],"outputs":[{"name":"","type":"uint256","internalType":"uint256"}],"stateMutability":"view"},{"type":"function","name":"getExcessReserveToken1","inputs":[],"outputs":[{"name":"","type":"uint256","internalType":"uint256"}],"stateMutability":"view"},{"type":"function","name":"getFunctionSelectors","inputs":[],"outputs":[{"name":"","type":"bytes4[]","internalType":"bytes4[]"}],"stateMutability":"pure"},{"type":"function","name":"getPositions","inputs":[],"outputs":[{"name":"positions","type":"tuple[3]","internalType":"struct LiquidityPosition[3]","components":[{"name":"lowerTick","type":"int24","internalType":"int24"},{"name":"upperTick","type":"int24","internalType":"int24"},{"name":"liquidity","type":"uint128","internalType":"uint128"},{"name":"price","type":"uint256","internalType":"uint256"},{"name":"tickSpacing","type":"int24","internalType":"int24"}]}],"stateMutability":"view"},{"type":"function","name":"getProtocolAddresses","inputs":[],"outputs":[{"name":"","type":"tuple","internalType":"struct ProtocolAddresses","components":[{"name":"pool","type":"address","internalType":"address"},{"name":"vault","type":"address","internalType":"address"},{"name":"deployer","type":"address","internalType":"address"},{"name":"modelHelper","type":"address","internalType":"address"},{"name":"presaleContract","type":"address","internalType":"address"},{"name":"adaptiveSupplyController","type":"address","internalType":"address"}]}],"stateMutability":"view"},{"type":"function","name":"getProtocolParameters","inputs":[],"outputs":[{"name":"","type":"tuple","internalType":"struct ProtocolParameters","components":[{"name":"floorPercentage","type":"uint8","internalType":"uint8"},{"name":"anchorPercentage","type":"uint8","internalType":"uint8"},{"name":"idoPriceMultiplier","type":"uint8","internalType":"uint8"},{"name":"floorBips","type":"uint16[2]","internalType":"uint16[2]"},{"name":"shiftRatio","type":"uint256","internalType":"uint256"},{"name":"slideRatio","type":"uint256","internalType":"uint256"},{"name":"discoveryBips","type":"int24","internalType":"int24"},{"name":"shiftAnchorUpperBips","type":"int24","internalType":"int24"},{"name":"slideAnchorUpperBips","type":"int24","internalType":"int24"},{"name":"lowBalanceThresholdFactor","type":"uint256","internalType":"uint256"},{"name":"highBalanceThresholdFactor","type":"uint256","internalType":"uint256"},{"name":"inflationFee","type":"uint256","internalType":"uint256"},{"name":"loanFee","type":"uint256","internalType":"uint256"},{"name":"deployFee","type":"uint256","internalType":"uint256"},{"name":"presalePremium","type":"uint256","internalType":"uint256"}]}],"stateMutability":"view"},{"type":"function","name":"getTimeSinceLastMint","inputs":[],"outputs":[{"name":"","type":"uint256","internalType":"uint256"}],"stateMutability":"view"},{"type":"function","name":"getUnderlyingBalances","inputs":[{"name":"liquidityType","type":"uint8","internalType":"enum LiquidityType"}],"outputs":[{"name":"","type":"int24","internalType":"int24"},{"name":"","type":"int24","internalType":"int24"},{"name":"","type":"uint256","internalType":"uint256"},{"name":"","type":"uint256","internalType":"uint256"}],"stateMutability":"view"},{"type":"function","name":"getVaultInfo","inputs":[],"outputs":[{"name":"vaultInfo","type":"tuple","internalType":"struct VaultInfo","components":[{"name":"liquidityRatio","type":"uint256","internalType":"uint256"},{"name":"circulatingSupply","type":"uint256","internalType":"uint256"},{"name":"spotPriceX96","type":"uint256","internalType":"uint256"},{"name":"anchorCapacity","type":"uint256","internalType":"uint256"},{"name":"floorCapacity","type":"uint256","internalType":"uint256"},{"name":"token0","type":"address","internalType":"address"},{"name":"token1","type":"address","internalType":"address"},{"name":"newFloor","type":"uint256","internalType":"uint256"}]}],"stateMutability":"view"},{"type":"function","name":"initialize","inputs":[{"name":"_factory","type":"address","internalType":"address"},{"name":"_owner","type":"address","internalType":"address"},{"name":"_deployer","type":"address","internalType":"address"},{"name":"_pool","type":"address","internalType":"address"},{"name":"_stakingContract","type":"address","internalType":"address"},{"name":"_presaleContract","type":"address","internalType":"address"},{"name":"_tokenRepo","type":"address","internalType":"address"},{"name":"_params","type":"tuple","internalType":"struct ProtocolParameters","components":[{"name":"floorPercentage","type":"uint8","internalType":"uint8"},{"name":"anchorPercentage","type":"uint8","internalType":"uint8"},{"name":"idoPriceMultiplier","type":"uint8","internalType":"uint8"},{"name":"floorBips","type":"uint16[2]","internalType":"uint16[2]"},{"name":"shiftRatio","type":"uint256","internalType":"uint256"},{"name":"slideRatio","type":"uint256","internalType":"uint256"},{"name":"discoveryBips","type":"int24","internalType":"int24"},{"name":"shiftAnchorUpperBips","type":"int24","internalType":"int24"},{"name":"slideAnchorUpperBips","type":"int24","internalType":"int24"},{"name":"lowBalanceThresholdFactor","type":"uint256","internalType":"uint256"},{"name":"highBalanceThresholdFactor","type":"uint256","internalType":"uint256"},{"name":"inflationFee","type":"uint256","internalType":"uint256"},{"name":"loanFee","type":"uint256","internalType":"uint256"},{"name":"deployFee","type":"uint256","internalType":"uint256"},{"name":"presalePremium","type":"uint256","internalType":"uint256"}]}],"outputs":[],"stateMutability":"nonpayable"},{"type":"function","name":"initializeLiquidity","inputs":[{"name":"positions","type":"tuple[3]","internalType":"struct LiquidityPosition[3]","components":[{"name":"lowerTick","type":"int24","internalType":"int24"},{"name":"upperTick","type":"int24","internalType":"int24"},{"name":"liquidity","type":"uint128","internalType":"uint128"},{"name":"price","type":"uint256","internalType":"uint256"},{"name":"tickSpacing","type":"int24","internalType":"int24"}]}],"outputs":[],"stateMutability":"nonpayable"},{"type":"function","name":"mintTokens","inputs":[{"name":"to","type":"address","internalType":"address"},{"name":"amount","type":"uint256","internalType":"uint256"}],"outputs":[],"stateMutability":"nonpayable"},{"type":"function","name":"modelHelper","inputs":[],"outputs":[{"name":"","type":"address","internalType":"address"}],"stateMutability":"view"},{"type":"function","name":"paybackLoan","inputs":[{"name":"who","type":"address","internalType":"address"},{"name":"repayAmount","type":"uint256","internalType":"uint256"}],"outputs":[],"stateMutability":"nonpayable"},{"type":"function","name":"pool","inputs":[],"outputs":[{"name":"","type":"address","internalType":"contract IUniswapV3Pool"}],"stateMutability":"view"},{"type":"function","name":"rollLoan","inputs":[{"name":"who","type":"address","internalType":"address"},{"name":"newDuration","type":"uint256","internalType":"uint256"}],"outputs":[],"stateMutability":"nonpayable"},{"type":"function","name":"setFees","inputs":[{"name":"_feesAccumulatedToken0","type":"uint256","internalType":"uint256"},{"name":"_feesAccumulatedToken1","type":"uint256","internalType":"uint256"}],"outputs":[],"stateMutability":"nonpayable"},{"type":"function","name":"teamMultiSig","inputs":[],"outputs":[{"name":"","type":"address","internalType":"address"}],"stateMutability":"view"},{"type":"function","name":"uniswapV3MintCallback","inputs":[{"name":"amount0Owed","type":"uint256","internalType":"uint256"},{"name":"amount1Owed","type":"uint256","internalType":"uint256"},{"name":"data","type":"bytes","internalType":"bytes"}],"outputs":[],"stateMutability":"nonpayable"},{"type":"function","name":"updatePositions","inputs":[{"name":"_positions","type":"tuple[3]","internalType":"struct LiquidityPosition[3]","components":[{"name":"lowerTick","type":"int24","internalType":"int24"},{"name":"upperTick","type":"int24","internalType":"int24"},{"name":"liquidity","type":"uint128","internalType":"uint128"},{"name":"price","type":"uint256","internalType":"uint256"},{"name":"tickSpacing","type":"int24","internalType":"int24"}]}],"outputs":[],"stateMutability":"nonpayable"},{"type":"event","name":"FloorUpdated","inputs":[{"name":"floorPrice","type":"uint256","indexed":false,"internalType":"uint256"},{"name":"floorCapacity","type":"uint256","indexed":false,"internalType":"uint256"}],"anonymous":false},{"type":"error","name":"ActiveLoan","inputs":[]},{"type":"error","name":"AlreadyInitialized","inputs":[]},{"type":"error","name":"CallbackCaller","inputs":[]},{"type":"error","name":"CantRollLoan","inputs":[]},{"type":"error","name":"InsufficientCollateral","inputs":[]},{"type":"error","name":"InsufficientFloorBalance","inputs":[]},{"type":"error","name":"InsufficientLoanAmount","inputs":[]},{"type":"error","name":"InvalidDuration","inputs":[]},{"type":"error","name":"InvalidPosition","inputs":[]},{"type":"error","name":"InvalidRepayAmount","inputs":[]},{"type":"error","name":"InvalidTicks","inputs":[]},{"type":"error","name":"LoanExpired","inputs":[]},{"type":"error","name":"NoActiveLoan","inputs":[]},{"type":"error","name":"NoLiquidity","inputs":[]},{"type":"error","name":"NotAuthorized","inputs":[]},{"type":"error","name":"NotInitialized","inputs":[]},{"type":"error","name":"OnlyDeployer","inputs":[]},{"type":"error","name":"OnlyFactory","inputs":[]},{"type":"error","name":"OnlyInternalCalls","inputs":[]},{"type":"error","name":"ResolverNotSet","inputs":[]},{"type":"error","name":"SafeERC20FailedOperation","inputs":[{"name":"token","type":"address","internalType":"address"}]},{"type":"error","name":"ZeroLiquidty","inputs":[]}],"bytecode":{"object":"0x608060405234801561001057600080fd5b506156ad80620000216000396000f3fe608060405234801561001057600080fd5b50600436106101da5760003560e01c806395d7d0ad11610104578063d3487997116100a2578063f0dda65c11610071578063f0dda65c14610487578063f4a1a46d1461049a578063fd896f9d146104d5578063ffb938db146104ea57600080fd5b8063d348799714610451578063d76b817a14610464578063dee02ffa14610477578063ef5ddb311461047f57600080fd5b8063ad66d3b3116100de578063ad66d3b31461040e578063b331fdcb14610421578063c45a015514610434578063c58aad871461043c57600080fd5b806395d7d0ad14610390578063a1774da0146103a3578063a3e44b331461040657600080fd5b80636d1b229d1161017c5780637fd762af1161014b5780637fd762af14610358578063802758601461036b578063854567f114610380578063899e86891461038857600080fd5b80636d1b229d146102a85780636d75b9ee146102bb5780637a7cee43146102ce5780637f98aa71146102e157600080fd5b8063315deeaa116101b8578063315deeaa146102385780635df45a371461024a5780635f260855146102655780636010ba641461026d57600080fd5b80630b78f9c0146101df57806314cdce32146101f457806316f0115b14610207575b600080fd5b6101f26101ed366004614826565b6104f2565b005b6101f26102023660046149a0565b610563565b602854600160301b90046001600160a01b03165b6040516001600160a01b0390911681526020015b60405180910390f35b6005545b60405190815260200161022f565b602954602a546040805192835260208301919091520161022f565b6101f26109cc565b61028061027b366004614b32565b610ab0565b604080519586526020860194909452928401919091526060830152608082015260a00161022f565b6101f26102b6366004614b4f565b610b1e565b6101f26102c9366004614b68565b610cb0565b6101f26102dc366004614b68565b610f03565b6102e9611232565b60405161022f9190600061010082019050825182526020830151602083015260408301516040830152606083015160608301526080830151608083015260a083015160018060a01b0380821660a08501528060c08601511660c0850152505060e083015160e083015292915050565b6101f2610366366004614ba9565b611328565b61037361150b565b60405161022f9190614c72565b61021b6115f1565b6101f2611660565b6101f261039e366004614ba9565b61177f565b6103ab611845565b60405161022f919081516001600160a01b03908116825260208084015182169083015260408084015182169083015260608084015182169083015260808084015182169083015260a092830151169181019190915260c00190565b61021b6118ec565b61023c61041c366004614826565b6119bf565b6101f261042f366004614b68565b6119d4565b61021b611e04565b610444611e8d565b60405161022f9190614d0b565b6101f261045f366004614dfd565b611fa4565b6101f2610472366004614e7d565b6121c7565b61023c612785565b61021b612795565b6101f2610495366004614b68565b612827565b6104ad6104a8366004614eb2565b6128c7565b60408051600295860b81529390940b602084015292820152606081019190915260800161022f565b6104dd612963565b60405161022f9190614ed3565b61023c61319a565b6000546001600160a01b0316331480159061050d5750333014155b1561052b5760405163139f696160e31b815260040160405180910390fd5b81600060290160008282546105409190614f37565b9091555050602a805482919060009061055a908490614f37565b90915550505050565b61056b611e04565b6001600160a01b0316336001600160a01b03161461059c57604051630636a15760e11b815260040160405180910390fd5b7f4f9c0bef5053eed4819cef85d67629ba17aab16cf28b037737c292417ab8601a547f4f9c0bef5053eed4819cef85d67629ba17aab16cf28b037737c292417ab86015906001600160a01b031661060657604051630d09117560e41b815260040160405180910390fd5b6005810154600280546001600160a01b039283166001600160a01b031991821617909155602880546601000000000000600160d01b031916600160301b8a851681029190911791829055600080549093168d85161790925560408051630dfe168160e01b815290519290910490921691630dfe16819160048083019260209291908290030181865afa1580156106a0573d6000803e3d6000fd5b505050506040513d601f19601f820116820180604052508101906106c49190614f55565b602680546001600160a01b0319166001600160a01b039283161790556028546040805163d21220a760e01b81529051600160301b9092049092169163d21220a79160048083019260209291908290030181865afa158015610729573d6000803e3d6000fd5b505050506040513d601f19601f8201168201806040525081019061074d9190614f55565b602780546001600160a01b03199081166001600160a01b0393841617909155601480546101808601516006556016805484168a86161790556017805484168986161790556000600555601a8054909316878516179092556101006001600160b01b031990921662010000938b16840217821790558351600980546020870151604088015160ff94851661ffff19909316929092179084169094029390931762ff0000191691909216909202919091178155606083015183919061081490600a90600261468a565b506080820151600282015560a0820151600382015560c08201516004808301805460e086015161010087015162ffffff95861665ffffffffffff19909316929092176301000000918616919091021768ffffff0000000000001916600160301b94909116840217905561012084015160058401556101408401516006840155610160840151600784015561018084015160088401556101a084015160098401556101c090930151600a90920191909155600180546001600160a01b0319166001600160a01b038c81169190911790915560285460408051630dfe168160e01b815290519390910490911692630dfe16819282820192602092908290030181865afa158015610926573d6000803e3d6000fd5b505050506040513d601f19601f8201168201806040525081019061094a9190614f55565b60405163095ea7b360e01b81526001600160a01b0389811660048301526000196024830152919091169063095ea7b3906044016020604051808303816000875af115801561099c573d6000803e3d6000fd5b505050506040513d601f19601f820116820180604052508101906109c09190614f82565b50505050505050505050565b6000546001600160a01b031633148015906109e75750333014155b15610a055760405163139f696160e31b815260040160405180910390fd5b60005b600354811015610aad576000806003018281548110610a2957610a29614f9d565b60009182526020808320909101546001600160a01b031680835260079091526040909120600381015491925090421115610aa357610a6682613227565b6001600160a01b038216600090815260076020526040812081815560018101829055600281018290556003810182905560040155610aa382613302565b5050600101610a08565b50565b6001600160a01b0381166000908152600760205260408120805482918291829182918203610af05760008060008060009550955095509550955050610b15565b8060000154816001015482600201548360030154846004015495509550955095509550505b91939590929450565b6000546001600160a01b03163314801590610b395750333014155b15610b575760405163139f696160e31b815260040160405180910390fd5b600060280160069054906101000a90046001600160a01b03166001600160a01b0316630dfe16816040518163ffffffff1660e01b8152600401602060405180830381865afa158015610bad573d6000803e3d6000fd5b505050506040513d601f19601f82011682018060405250810190610bd19190614f55565b60005460405163095ea7b360e01b81526001600160a01b0391821660048201526024810184905291169063095ea7b3906044016020604051808303816000875af1158015610c23573d6000803e3d6000fd5b505050506040513d601f19601f82011682018060405250810190610c479190614f82565b50600054604051631dd319cb60e01b8152306004820152602481018390526001600160a01b0390911690631dd319cb906044015b600060405180830381600087803b158015610c9557600080fd5b505af1158015610ca9573d6000803e3d6000fd5b5050505050565b6000546001600160a01b03163314801590610ccb5750333014155b15610ce95760405163139f696160e31b815260040160405180910390fd5b80600003610d0a57604051633a23d82560e01b815260040160405180910390fd5b6001600160a01b0382166000908152600760205260408120549003610d42576040516301c8bc7760e21b815260040160405180910390fd5b600060280160069054906101000a90046001600160a01b03166001600160a01b0316630dfe16816040518163ffffffff1660e01b8152600401602060405180830381865afa158015610d98573d6000803e3d6000fd5b505050506040513d601f19601f82011682018060405250810190610dbc9190614f55565b6001600160a01b03166323b872dd8330846040518463ffffffff1660e01b8152600401610deb93929190614fb3565b6020604051808303816000875af1158015610e0a573d6000803e3d6000fd5b505050506040513d601f19601f82011682018060405250810190610e2e9190614f82565b50610ebe600060280160069054906101000a90046001600160a01b03166001600160a01b0316630dfe16816040518163ffffffff1660e01b8152600401602060405180830381865afa158015610e88573d6000803e3d6000fd5b505050506040513d601f19601f82011682018060405250810190610eac9190614f55565b601a546001600160a01b031683613401565b8060006005016000828254610ed39190614f37565b90915550506001600160a01b0382166000908152600760205260408120600101805483929061055a908490614f37565b6000546001600160a01b03163314801590610f1e5750333014155b15610f3c5760405163139f696160e31b815260040160405180910390fd5b6001600160a01b03821660009081526007602052604081208054909103610f76576040516301c8bc7760e21b815260040160405180910390fd5b8060030154421115610f9b57604051632ee48ce560e11b815260040160405180910390fd5b811580610fa85750805482115b15610fc657604051630f55bf8d60e21b815260040160405180910390fd5b60008160000154838360010154610fdd9190614fd7565b610fe79190615004565b9050600060280160069054906101000a90046001600160a01b03166001600160a01b031663d21220a76040518163ffffffff1660e01b8152600401602060405180830381865afa15801561103f573d6000803e3d6000fd5b505050506040513d601f19601f820116820180604052508101906110639190614f55565b6001600160a01b03166323b872dd8530866040518463ffffffff1660e01b815260040161109293929190614fb3565b6020604051808303816000875af11580156110b1573d6000803e3d6000fd5b505050506040513d601f19601f820116820180604052508101906110d59190614f82565b50601a5460285460408051630dfe168160e01b815290516001600160a01b0393841693639e3f751e93600160301b90041691630dfe16819160048083019260209291908290030181865afa158015611131573d6000803e3d6000fd5b505050506040513d601f19601f820116820180604052508101906111559190614f55565b86846040518463ffffffff1660e01b815260040161117593929190614fb3565b600060405180830381600087803b15801561118f57600080fd5b505af11580156111a3573d6000803e3d6000fd5b505050506111b2836000613458565b828260000160008282546111c69190615018565b92505081905550808260010160008282546111e19190615018565b9091555050815460000361122c576001600160a01b03841660009081526007602052604081208181556001810182905560028101829055600381018290556004015561122c84613302565b50505050565b61128c604051806101000160405280600081526020016000815260200160008152602001600081526020016000815260200160006001600160a01b0316815260200160006001600160a01b03168152602001600081525090565b6112946118ec565b602854604051638a3fecc960e01b81526001600160a01b03600160301b909204821660048201523060248201526026548216604482015260275482166064820152911690638a3fecc99060840161010060405180830381865afa1580156112ff573d6000803e3d6000fd5b505050506040513d601f19601f82011682018060405250810190611323919061502b565b905090565b6014546201000090046001600160a01b031633146113595760405163618bbdd560e01b815260040160405180910390fd5b60145460ff161561137c5760405162dc149f60e41b815260040160405180910390fd5b8051604001516001600160801b031615806113a657506020810151604001516001600160801b0316155b806113bf575060408082015101516001600160801b0316155b156113dd5760405163673f032f60e11b815260040160405180910390fd5b6014805460ff191660011790558060005b602090810291909101518051601b80548385015160408086015162ffffff95861665ffffffffffff1994851617630100000093871684021775ffffffffffffffffffffffffffffffff00000000000019908116600160301b6001600160801b03938416810291909117909655606080890151601c55608098890151601d805462ffffff19908116928b169290921790558b8b01518051601e8054838f0151848a0151938e16918c1691909117908d168a021786169187168b0291909117905580830151601f558a01518b548216908a16178b559a8401518051602180549c83015196830151918b169c9098169b909b1794891690950293909317169716909302959095179055830151602255910151602380549093169116179055565b611513614720565b506040805161010081018252601b54600281810b60608085019182526301000000808504840b6080808801919091526001600160801b03600160301b96879004811660a0808a0191909152601c5460c08a0152601d54870b60e08a015294885288518086018a52601e5480880b8252848104880b602083810191909152908990048316828c0152601f54828701528054880b82850152808a019190915289519586018a5260215480880b8752938404870b9086015295909104909416828701526022549082015260235490910b918101919091529181019190915290565b600080546040805163854567f160e01b815290516001600160a01b039092169163854567f1916004808201926020929091908290030181865afa15801561163c573d6000803e3d6000fd5b505050506040513d601f19601f820116820180604052508101906113239190614f55565b6017546001600160a01b0316331461168b5760405163ea8e4eb560e01b815260040160405180910390fd5b6002546040805180820190915260088152672232b83637bcb2b960c11b60208201526000916001600160a01b03169063dacb2d01906116c990613649565b6040518263ffffffff1660e01b815260040161170a918152604060208201819052600b908201526a3737902232b83637bcb2b960a91b606082015260800190565b602060405180830381865afa158015611727573d6000803e3d6000fd5b505050506040513d601f19601f8201168201806040525081019061174b9190614f55565b600054604051637d19a2cb60e01b81526001600160a01b038084166004830152929350911690637d19a2cb90602401610c7b565b6000546001600160a01b0316331480159061179a5750333014155b156117b85760405163139f696160e31b815260040160405180910390fd5b60145460ff166117db576040516321c4e35760e21b815260040160405180910390fd5b8051604001516001600160801b0316158061180557506020810151604001516001600160801b0316155b8061181e575060408082015101516001600160801b0316155b1561183c57604051636180f03f60e11b815260040160405180910390fd5b610aad816136a8565b6040805160c081018252600080825260208201819052918101829052606081018290526080810182905260a08101919091526040805160c0810182526028546001600160a01b03600160301b909104811682523060208301526014546201000090041691810191909152606081016118bb6118ec565b6001600160a01b0390811682526017541660208201526040016118dc612795565b6001600160a01b03169052919050565b6000806118f76136b0565b9050806001600160a01b031663dacb2d016119346040518060400160405280600b81526020016a26b7b232b62432b63832b960a91b815250613649565b6040518263ffffffff1660e01b8152600401611978918152604060208201819052600e908201526d37379026b7b232b62432b63832b960911b606082015260800190565b602060405180830381865afa158015611995573d6000803e3d6000fd5b505050506040513d601f19601f820116820180604052508101906119b99190614f55565b91505090565b60006119cb83836136f1565b90505b92915050565b6000546001600160a01b031633148015906119ef5750333014155b15611a0d5760405163139f696160e31b815260040160405180910390fd5b6001600160a01b03821660009081526007602052604081208054909103611a47576040516301c8bc7760e21b815260040160405180910390fd5b8060030154421115611a6c57604051632ee48ce560e11b815260040160405180910390fd5b81600003611a8d57604051637616640160e01b815260040160405180910390fd5b6000611b0e8260010154611a9f6118ec565b604051636013be6d60e01b81523060048201526001600160a01b039190911690636013be6d90602401602060405180830381865afa158015611ae5573d6000803e3d6000fd5b505050506040513d601f19601f82011682018060405250810190611b0991906150ce565b61374a565b82549091508111611b32576040516330a15b0960e01b815260040160405180910390fd5b8154600090611b419083615018565b90506000611b4f82866136f1565b9050611b5b8542614f37565b60038501558354611b6d908390614f37565b8455611b7a826001613458565b600060280160069054906101000a90046001600160a01b03166001600160a01b031663d21220a76040518163ffffffff1660e01b8152600401602060405180830381865afa158015611bd0573d6000803e3d6000fd5b505050506040513d601f19601f82011682018060405250810190611bf49190614f55565b6001600160a01b031663a9059cbb87611c0d8486615018565b6040516001600160e01b031960e085901b1681526001600160a01b03909216600483015260248201526044016020604051808303816000875af1158015611c58573d6000803e3d6000fd5b505050506040513d601f19601f82011682018060405250810190611c7c9190614f82565b506040805161010081018252601b54600281810b60608085019182526301000000808504840b6080808801919091526001600160801b03600160301b96879004811660a0808a0191909152601c5460c08a0152601d54870b60e08a015294885288518086018a52601e5480880b8252848104880b602083810191909152908990048316828c0152601f54828701528054880b82850152808a019190915289519586018a5260215480880b8752938404870b9086015295909104909416828701526022549082015260235490910b918101919091528183015290516395d7d0ad60e01b815230916395d7d0ad91611d759190600401614c72565b600060405180830381600087803b158015611d8f57600080fd5b505af1158015611da3573d6000803e3d6000fd5b50505050611daf6118ec565b604051634986609560e11b81523060048201526001600160a01b03919091169063930cc12a9060240160006040518083038186803b158015611df057600080fd5b505afa1580156109c0573d6000803e3d6000fd5b600080611e0f6136b0565b9050806001600160a01b031663dacb2d01611e4d6040518060400160405280600c81526020016b4f696b6f73466163746f727960a01b815250613649565b6040518263ffffffff1660e01b8152600401611978918152604060208201819052600a90820152696e6f20466163746f727960b01b606082015260800190565b611e9561476d565b604080516101e0810182526009805460ff8082168452610100820481166020850152620100009091041682840152825180840193849052919290916060840191600a90600290826000855b82829054906101000a900461ffff1661ffff1681526020019060020190602082600101049283019260010382029150808411611ee057505050928452505050600282810154602083015260038301546040830152600483015480820b606084015263010000008104820b6080840152600160301b9004900b60a0820152600582015460c0820152600682015460e0820152600782015461010082015260088201546101208201526009820154610140820152600a9091015461016090910152919050565b602854600160301b90046001600160a01b03163314611fd6576040516348b77d9160e11b815260040160405180910390fd5b6026546040516370a0823160e01b81523060048201526000916001600160a01b0316906370a0823190602401602060405180830381865afa15801561201f573d6000803e3d6000fd5b505050506040513d601f19601f8201168201806040525081019061204391906150ce565b6027546040516370a0823160e01b81523060048201529192506000916001600160a01b03909116906370a0823190602401602060405180830381865afa158015612091573d6000803e3d6000fd5b505050506040513d601f19601f820116820180604052508101906120b591906150ce565b905085821061213b57851561213b5760265460405163a9059cbb60e01b8152336004820152602481018890526001600160a01b039091169063a9059cbb906044016020604051808303816000875af1158015612115573d6000803e3d6000fd5b505050506040513d601f19601f820116820180604052508101906121399190614f82565b505b8481106121bf5784156121bf5760275460405163a9059cbb60e01b8152336004820152602481018790526001600160a01b039091169063a9059cbb906044016020604051808303816000875af1158015612199573d6000803e3d6000fd5b505050506040513d601f19601f820116820180604052508101906121bd9190614f82565b505b505050505050565b6000546001600160a01b031633148015906121e25750333014155b156122005760405163139f696160e31b815260040160405180910390fd5b8160000361222157604051639c73083760e01b815260040160405180910390fd5b62278d0081108061223557506301e1338081115b1561225357604051637616640160e01b815260040160405180910390fd5b6001600160a01b0383166000908152600760205260409020541561228a5760405163f16664fd60e01b815260040160405180910390fd5b60006122958361376c565b50905060006122a484846136f1565b9050816000036122c757604051633a23d82560e01b815260040160405180910390fd5b6122d2846001613458565b600060280160069054906101000a90046001600160a01b03166001600160a01b0316630dfe16816040518163ffffffff1660e01b8152600401602060405180830381865afa158015612328573d6000803e3d6000fd5b505050506040513d601f19601f8201168201806040525081019061234c9190614f55565b6001600160a01b03166323b872dd8630856040518463ffffffff1660e01b815260040161237b93929190614fb3565b6020604051808303816000875af115801561239a573d6000803e3d6000fd5b505050506040513d601f19601f820116820180604052508101906123be9190614f82565b5061244e600060280160069054906101000a90046001600160a01b03166001600160a01b0316630dfe16816040518163ffffffff1660e01b8152600401602060405180830381865afa158015612418573d6000803e3d6000fd5b505050506040513d601f19601f8201168201806040525081019061243c9190614f55565b601a546001600160a01b031684613401565b6124db600060280160069054906101000a90046001600160a01b03166001600160a01b031663d21220a76040518163ffffffff1660e01b8152600401602060405180830381865afa1580156124a7573d6000803e3d6000fd5b505050506040513d601f19601f820116820180604052508101906124cb9190614f55565b866124d68488615018565b613401565b6001600160a01b038516600090815260086020908152604080832054815160a08101835288815292830186905290820184905291906060810161251e8742614f37565b8152602001868152509050836000600501600082825461253e9190614f37565b90915550506001600160a01b0387166000908152600760209081526040918290208351815590830151600182015590820151600282015560608201516003820155608082015160049091015581612594816150e7565b6001600160a01b0389166000818152600860209081526040808320959095556003805460018101825592527fc2575a0e9e593c00f959f8c92f12db2869c3395a3b0502d05e2516446f71f85b90910180546001600160a01b031916909217909155825161010081018452601b54600281810b60608085019182526301000000808504840b6080808801919091526001600160801b03600160301b96879004811660a0808a0191909152601c5460c08a0152601d54870b60e08a01529488528a518086018c52601e5480880b8252848104880b828c01528890048216818d0152601f54818601528954870b81840152888a01528a519485018b5260215480870b8652928304860b988501989098529490049095168188015260225494810194909452602354900b908301528084019190915291516395d7d0ad60e01b815290935030916395d7d0ad916126e99190600401614c72565b600060405180830381600087803b15801561270357600080fd5b505af1158015612717573d6000803e3d6000fd5b505050506127236118ec565b604051634986609560e11b81523060048201526001600160a01b03919091169063930cc12a9060240160006040518083038186803b15801561276457600080fd5b505afa158015612778573d6000803e3d6000fd5b5050505050505050505050565b6025546000906113239042615018565b6000806127a06136b0565b9050806001600160a01b031663dacb2d016127e06040518060400160405280600e81526020016d4164617074697665537570706c7960901b815250613649565b6040518263ffffffff1660e01b8152600401611978918152604060208201819052601190820152706e6f204164617074697665537570706c7960781b606082015260800190565b6000546001600160a01b031633148015906128425750333014155b156128605760405163139f696160e31b815260040160405180910390fd5b42602555600054604051633c37699760e21b81526001600160a01b038481166004830152602482018490529091169063f0dda65c906044015b600060405180830381600087803b1580156128b357600080fd5b505af11580156121bf573d6000803e3d6000fd5b6000806000806128d56118ec565b6028546040516317886cbb60e11b81526001600160a01b0392831692632f10d9769261291392600160301b9091049091169030908a90600401615116565b608060405180830381865afa158015612930573d6000803e3d6000fd5b505050506040513d601f19601f82011682018060405250810190612954919061515a565b93509350935093509193509193565b60408051601280825261026082019092526060916000919060208201610240803683370190505090506040518060600160405280602881526020016156506028913980519060200120816000815181106129bf576129bf614f9d565b6001600160e01b031990921660209283029190910182015260408051808201909152601c81527f7061796261636b4c6f616e28616464726573732c75696e74323536290000000091015280517f7a7cee4388a2c9ec406527e40afd89460a3b0d5a7e75b106c4f06c4db1b530b49082906001908110612a4057612a40614f9d565b6001600160e01b031990921660209283029190910182015260408051808201909152601981527f726f6c6c4c6f616e28616464726573732c75696e74323536290000000000000091015280517fb331fdcb54e030d83421252fb8a3e0bfd04b9d4591f28edd8de53da03fc65ff29082906002908110612ac157612ac1614f9d565b6001600160e01b031990921660209283029190910182015260408051808201909152600e81526d64656661756c744c6f616e73282960901b91015280517f5f2608558f9fd129b4e36803431a07c7f34134980dbf6bcfeef7bff09b18425c9082906003908110612b3357612b33614f9d565b60200260200101906001600160e01b03191690816001600160e01b031916815250506040518060600160405280603781526020016155f7603791398051906020012081600481518110612b8857612b88614f9d565b6001600160e01b031990921660209283029190910182015260408051808201909152600e81526d676574506f736974696f6e73282960901b91015280517f80275860e94ae2352a6f96e7331d60fec5acb8be3449303acc2955074b0ae8919082906005908110612bfa57612bfa614f9d565b6001600160e01b031990921660209283029190910182015260408051808201909152600e81526d7465616d4d756c7469536967282960901b91015280517f854567f1ebcf52af01539bbb2eb91efa4f35506d34e268a7a77e05fac717b9d69082906006908110612c6c57612c6c614f9d565b6001600160e01b031990921660209283029190910182015260408051808201909152601781527f67657450726f746f636f6c506172616d6574657273282900000000000000000091015280517fc58aad872b3b4ca1be02017b517aa3d4dc2cde8329ed50f2f7b5e8d426b87df89082906007908110612ced57612ced614f9d565b6001600160e01b031990921660209283029190910182015260408051808201909152601681527567657454696d6553696e63654c6173744d696e74282960501b91015280517fdee02ffaa72188dc53f5a6b5d074114cf589f27a6f21fc80fb35e5a154d604029082906008908110612d6757612d67614f9d565b6001600160e01b0319909216602092830291909101820152604080518082019091526015815274676574436f6c6c61746572616c416d6f756e74282960581b91015280517f315deeaaa77bb93e9c57a7a502d8026cdd3dadf8faa53374cabfc419585f37fd9082906009908110612de057612de0614f9d565b6001600160e01b031990921660209283029190910182015260408051808201909152601b81527f6d696e74546f6b656e7328616464726573732c75696e7432353629000000000091015280517ff0dda65cf836e94d4ef937906c9c60bfee0b848c2d3202142a7cc87420ad437c908290600a908110612e6157612e61614f9d565b6001600160e01b03199092166020928302919091018201526040805180820190915260138152726275726e546f6b656e732875696e743235362960681b91015280517f6d1b229dafadcd720d5a60a73409508ab97a09a020cffe742460e5a58f790b61908290600b908110612ed857612ed8614f9d565b6001600160e01b0319909216602092830291909101820152604080518082019091526006815265706f6f6c282960d01b91015280517f16f0115b5901d3f6295e520505af05475e18f6f1e134f347475c881a6302260d908290600c908110612f4257612f42614f9d565b6001600160e01b0319909216602092830291909101820152604080518082019091526014815273676574416363756d756c6174656446656573282960601b91015280517f5df45a3726e2430fc7db93443f7d212a24cee57c63dfca1e6d9d339521e8fb6c908290600d908110612fba57612fba614f9d565b6001600160e01b031990921660209283029190910182015260408051808201909152600e8082526d616674657250726573616c65282960901b919092015281517f899e8689d09c1013329814dcc3cd2004aa09d9c22649cb76a50b413c8cae4e1f918391811061302c5761302c614f9d565b6001600160e01b03199092166020928302919091018201526040805180820190915260168152756765744163746976654c6f616e28616464726573732960501b91015280517f6010ba64103ad51dc5ab347605dca601efead93ea7ef6332a4ee8d12a4e95fd4908290600f9081106130a6576130a6614f9d565b60200260200101906001600160e01b03191690816001600160e01b0319168152505060405180606001604052806022815260200161562e6022913980519060200120816010815181106130fb576130fb614f9d565b6001600160e01b031990921660209283029190910182015260408051808201909152601e81527f616464436f6c6c61746572616c28616464726573732c75696e7432353629000091015280517f6d75b9ee0275377267abaf593e89eed8503895093532e20af862d791c80a5f42908290601190811061317c5761317c614f9d565b6001600160e01b031990921660209283029190910190910152919050565b6000806131a56118ec565b602854604051630c45b42360e11b81526001600160a01b03600160301b90920482166004820152306024820152831515604482015291169063188b684690606401602060405180830381865afa158015613203573d6000803e3d6000fd5b505050506040513d601f19601f820116820180604052508101906119b991906150ce565b6001600160a01b03811660009081526007602052604081206001810154600580549293919290919061325a908490615018565b9091555050601a5460285460408051630dfe168160e01b815290516001600160a01b0393841693639e3f751e93600160301b90041691630dfe16819160048083019260209291908290030181865afa1580156132ba573d6000803e3d6000fd5b505050506040513d601f19601f820116820180604052508101906132de9190614f55565b3084600101546040518463ffffffff1660e01b815260040161289993929190614fb3565b60005b6003548110156133fd57816001600160a01b03166000600301828154811061332f5761332f614f9d565b6000918252602090912001546001600160a01b0316036133f5576003805461335990600190615018565b8154811061336957613369614f9d565b600091825260209091200154600380546001600160a01b03909216918390811061339557613395614f9d565b600091825260209091200180546001600160a01b0319166001600160a01b039290921691909117905560038054806133cf576133cf6151a2565b600082815260209020810160001990810180546001600160a01b03191690550190555050565b600101613305565b5050565b604080516001600160a01b038416602482015260448082018490528251808303909101815260649091019091526020810180516001600160e01b031663a9059cbb60e01b1790526134539084906137f8565b505050565b6000806134636118ec565b6028546040516317886cbb60e11b81526001600160a01b0392831692632f10d976926134a292600160301b909104909116903090600090600401615116565b608060405180830381865afa1580156134bf573d6000803e3d6000fd5b505050506040513d601f19601f820116820180604052508101906134e3919061515a565b93509350505082156135105783811015613510576040516318f76aff60e11b815260040160405180910390fd5b6040805161010081018252601b54600281810b60608085018281526301000000808604850b6080808901829052600160301b978890046001600160801b0390811660a0808c0191909152601c5460c08c0152601d54890b60e08c0152948a528a518086018c52601e54808a0b82528581048a0b602080840191909152908b90048316828e0152601f548289015280548a0b82850152808c01919091528b519586018c52602154808a0b8752948504890b9086015292889004909216838a01526022549383019390935260235490940b9381019390935294840191909152602854929361360c93929092046001600160a01b03169130919061386e565b6028546121bf90600160301b90046001600160a01b0316308587613639576136348987614f37565b613643565b6136438987615018565b85613968565b80516000908290820361365f5750600092915050565b60208151111561366e57600080fd5b602083015181519092505b60208110156136a15761368d81601f615018565b613698906008614fd7565b50600101613679565b5050919050565b8060006113ee565b6002546001600160a01b0316806136ee57507f4f9c0bef5053eed4819cef85d67629ba17aab16cf28b037737c292417ab8601a546001600160a01b03165b90565b60065460009062015180908261370c8264e8d4a51000614fd7565b905068056bc75e2d631000006137228487615004565b61372c8389614fd7565b6137369190614fd7565b6137409190615004565b9695505050505050565b60006137586012600a61529c565b6137628385614fd7565b6119cb9190615004565b60008060006137796118ec565b604051636013be6d60e01b81523060048201526001600160a01b039190911690636013be6d90602401602060405180830381865afa1580156137bf573d6000803e3d6000fd5b505050506040513d601f19601f820116820180604052508101906137e391906150ce565b90506137ef8482613ab2565b94909350915050565b600080602060008451602086016000885af18061381b576040513d6000823e3d81fd5b50506000513d91508115613833578060011415613840565b6001600160a01b0384163b155b1561122c57604051635274afe760e01b81526001600160a01b03851660048201526024015b60405180910390fd5b6040516bffffffffffffffffffffffff193060601b16602082015260e883811b603483015282901b6037820152600090603a0160408051601f1981840301815290829052805160209091012063514ea4bf60e01b82526004820181905291506000906001600160a01b0387169063514ea4bf9060240160a060405180830381865afa158015613901573d6000803e3d6000fd5b505050506040513d601f19601f8201168201806040525081019061392591906152a8565b5050505090506000816001600160801b0316111561394f5761394a8686868685613acb565b6121bf565b60405163367e98e760e11b815260040160405180910390fd5b6040805160a08101825260008082526020808301829052928201819052606082018190526080820152825180519201519091600290810b91900b136139c057604051631434ed7f60e01b815260040160405180910390fd5b815180516020909101516139fb918891889190866000602002015160800151600060405180604001604052808c81526020018b815250613be2565b90506000604051806060016040528083815260200184600160038110613a2357613a23614f9d565b6020020151815260200184600260038110613a4057613a40614f9d565b602002015190526040516395d7d0ad60e01b81529091506001600160a01b038716906395d7d0ad90613a76908490600401614c72565b600060405180830381600087803b158015613a9057600080fd5b505af1158015613aa4573d6000803e3d6000fd5b505050505095945050505050565b600081613ac16012600a61529c565b6137629085614fd7565b60405163a34123a760e01b8152600284810b600483015283900b60248201526001600160801b03821660448201526001600160a01b0386169063a34123a79060640160408051808303816000875af1158015613b2b573d6000803e3d6000fd5b505050506040513d601f19601f82011682018060405250810190613b4f919061530a565b50506040516309e3d67b60e31b81526001600160a01b038581166004830152600285810b602484015284900b60448301526001600160801b03606483018190526084830152861690634f1eb3d89060a40160408051808303816000875af1158015613bbe573d6000803e3d6000fd5b505050506040513d601f19601f820116820180604052508101906121bd919061532e565b6040805160a0810182526000808252602082018190529181018290526060810182905260808101919091526000886001600160a01b0316633850c7bd6040518163ffffffff1660e01b815260040160e060405180830381865afa158015613c4d573d6000803e3d6000fd5b505050506040513d601f19601f82011682018060405250810190613c719190615368565b50505050505090506000613c9d82613c888a613d89565b613c918a613d89565b875160208901516141a9565b90506002856002811115613cb357613cb3615100565b03613d02578351600003613d02578351613ccc9061426d565b604051602001613cdc9190615423565b60408051601f198184030181529082905262461bcd60e51b8252613865916004016154a2565b6001600160801b03811615613d2657613d218a8a8a8a858a6000614399565b613d48565b613d38816001600160801b031661426d565b604051602001613cdc91906154b5565b6040805160a0810182526002998a0b815297890b60208901526001600160801b0390911690870152505060006060850152505090910b608082015292915050565b60008060008360020b12613da0578260020b613dad565b8260020b613dad906154fb565b9050613dbc620d89e719615517565b60020b811115613df25760405162461bcd60e51b81526020600482015260016024820152601560fa1b6044820152606401613865565b600081600116600003613e0957600160801b613e1b565b6ffffcb933bd6fad37aa2d162d1a5940015b70ffffffffffffffffffffffffffffffffff1690506002821615613e5a576080613e55826ffff97272373d413259a46990580e213a614fd7565b901c90505b6004821615613e84576080613e7f826ffff2e50f5f656932ef12357cf3c7fdcc614fd7565b901c90505b6008821615613eae576080613ea9826fffe5caca7e10e4e61c3624eaa0941cd0614fd7565b901c90505b6010821615613ed8576080613ed3826fffcb9843d60f6159c9db58835c926644614fd7565b901c90505b6020821615613f02576080613efd826fff973b41fa98c081472e6896dfb254c0614fd7565b901c90505b6040821615613f2c576080613f27826fff2ea16466c96a3843ec78b326b52861614fd7565b901c90505b6080821615613f56576080613f51826ffe5dee046a99a2a811c461f1969c3053614fd7565b901c90505b610100821615613f81576080613f7c826ffcbe86c7900a88aedcffc83b479aa3a4614fd7565b901c90505b610200821615613fac576080613fa7826ff987a7253ac413176f2b074cf7815e54614fd7565b901c90505b610400821615613fd7576080613fd2826ff3392b0822b70005940c7a398e4b70f3614fd7565b901c90505b610800821615614002576080613ffd826fe7159475a2c29b7443b29c7fa6e889d9614fd7565b901c90505b61100082161561402d576080614028826fd097f3bdfd2022b8845ad8f792aa5825614fd7565b901c90505b612000821615614058576080614053826fa9f746462d870fdf8a65dc1f90e061e5614fd7565b901c90505b61400082161561408357608061407e826f70d869a156d2a1b890bb3df62baf32f7614fd7565b901c90505b6180008216156140ae5760806140a9826f31be135f97d08fd981231505542fcfa6614fd7565b901c90505b620100008216156140da5760806140d5826f09aa508b5b7a84e1c677de54f3e99bc9614fd7565b901c90505b62020000821615614105576080614100826e5d6af8dedb81196699c329225ee604614fd7565b901c90505b6204000082161561412f57608061412a826d2216e584f5fa1ea926041bedfe98614fd7565b901c90505b62080000821615614157576080614152826b048a170391f7dc42444e8fa2614fd7565b901c90505b60008460020b13156141725761416f81600019615004565b90505b61418164010000000082615539565b1561418d576001614190565b60005b6141a19060ff16602083901c614f37565b949350505050565b6000836001600160a01b0316856001600160a01b031611156141c9579293925b846001600160a01b0316866001600160a01b0316116141f4576141ed858585614516565b9050614264565b836001600160a01b0316866001600160a01b0316101561425657600061421b878686614516565b9050600061422a87898661458b565b9050806001600160801b0316826001600160801b03161061424b578061424d565b815b92505050614264565b61426185858461458b565b90505b95945050505050565b6060816000036142945750506040805180820190915260018152600360fc1b602082015290565b8160005b81156142be57806142a8816150e7565b91506142b79050600a83615004565b9150614298565b60008167ffffffffffffffff8111156142d9576142d961485d565b6040519080825280601f01601f191660200182016040528015614303576020820181803683370190505b509050815b851561439057614319600182615018565b90506000614328600a88615004565b61433390600a614fd7565b61433d9088615018565b61434890603061554d565b905060008160f81b90508084848151811061436557614365614f9d565b60200101906001600160f81b031916908160001a905350614387600a89615004565b97505050614308565b50949350505050565b6040805180820190915260048152631b5a5b9d60e21b6020820152606090821561440757604051806040016040528060058152602001641cda1a599d60da1b81525090506000816040516020016143f1929190615566565b60405160208183030381529060405291506144a0565b600084600281111561441b5761441b615100565b03614434576000816040516020016143f1929190615566565b600184600281111561444857614448615100565b03614461576001816040516020016143f1929190615566565b600284600281111561447557614475615100565b036144a05760028160405160200161448e929190615566565b60405160208183030381529060405291505b604051633c8a7d8d60e01b81526001600160a01b038a1690633c8a7d8d906144d4908b908b908b908b908990600401615582565b60408051808303816000875af11580156144f2573d6000803e3d6000fd5b505050506040513d601f19601f82011682018060405250810190612778919061530a565b6000826001600160a01b0316846001600160a01b03161115614536579192915b6000614559856001600160a01b0316856001600160a01b0316600160601b6145c1565b905061458061457b848361456d89896155cf565b6001600160a01b03166145c1565b61466f565b9150505b9392505050565b6000826001600160a01b0316846001600160a01b031611156145ab579192915b6141a161457b83600160601b61456d88886155cf565b60008080600019858709858702925082811083820303915050806000036145fa57600084116145ef57600080fd5b508290049050614584565b80841161460657600080fd5b60008486880960026001871981018816978890046003810283188082028403028082028403028082028403028082028403028082028403029081029092039091026000889003889004909101858311909403939093029303949094049190911702949350505050565b806001600160801b038116811461468557600080fd5b919050565b6001830191839082156147105791602002820160005b838211156146e057835183826101000a81548161ffff021916908361ffff16021790555092602001926002016020816001010492830192600103026146a0565b801561470e5782816101000a81549061ffff02191690556002016020816001010492830192600103026146e0565b505b5061471c9291506147f3565b5090565b60405180606001604052806003905b6040805160a08101825260008082526020808301829052928201819052606082018190526080820152825260001990920191018161472f5790505090565b604080516101e0810182526000808252602082018190529181019190915260608101614797614808565b81526020016000815260200160008152602001600060020b8152602001600060020b8152602001600060020b81526020016000815260200160008152602001600081526020016000815260200160008152602001600081525090565b5b8082111561471c57600081556001016147f4565b60405180604001604052806002906020820280368337509192915050565b6000806040838503121561483957600080fd5b50508035926020909101359150565b6001600160a01b0381168114610aad57600080fd5b634e487b7160e01b600052604160045260246000fd5b6040516101e0810167ffffffffffffffff811182821017156148975761489761485d565b60405290565b60405160a0810167ffffffffffffffff811182821017156148975761489761485d565b6040516060810167ffffffffffffffff811182821017156148975761489761485d565b60ff81168114610aad57600080fd5b8035614685816148e3565b61ffff81168114610aad57600080fd5b600082601f83011261491e57600080fd5b6040516040810181811067ffffffffffffffff821117156149415761494161485d565b806040525080604084018581111561495857600080fd5b845b8181101561497b57803561496d816148fd565b83526020928301920161495a565b509195945050505050565b8060020b8114610aad57600080fd5b803561468581614986565b600080600080600080600080888a036102e08112156149be57600080fd5b89356149c981614848565b985060208a01356149d981614848565b975060408a01356149e981614848565b965060608a01356149f981614848565b955060808a0135614a0981614848565b945060a08a0135614a1981614848565b935060c08a0135614a2981614848565b925061020060df1982011215614a3e57600080fd5b50614a47614873565b614a5360e08b016148f2565b8152614a626101008b016148f2565b6020820152614a746101208b016148f2565b6040820152610140614a888c828d0161490d565b6060830152610180808c013560808401526101a0808d013560a08501526101c0614ab3818f01614995565b60c0860152614ac56101e08f01614995565b60e0860152614ad76102008f01614995565b6101008601526102208e01356101208601526102408e0135848601526102608e01356101608601526102808e0135838601526102a08e0135828601526102c08e01358186015250505050809150509295985092959890939650565b600060208284031215614b4457600080fd5b813561458481614848565b600060208284031215614b6157600080fd5b5035919050565b60008060408385031215614b7b57600080fd5b8235614b8681614848565b946020939093013593505050565b6001600160801b0381168114610aad57600080fd5b60006101e0808385031215614bbd57600080fd5b83601f840112614bcc57600080fd5b614bd46148c0565b908301908085831115614be657600080fd5b845b83811015614c685760a08188031215614c015760008081fd5b614c0961489d565b8135614c1481614986565b8152602082810135614c2581614986565b82820152604083810135614c3881614b94565b9083015260608381013590830152608080840135614c5581614986565b908301529084529092019160a001614be8565b5095945050505050565b6101e08101818360005b6003811015614cdb5781518051600290810b8552602080830151820b818701526040808401516001600160801b0316908701526060808401519087015260809283015190910b9185019190915260a09093019290910190600101614c7c565b50505092915050565b8060005b600281101561122c57815161ffff16845260209384019390910190600101614ce8565b815160ff16815261020081016020830151614d2b602084018260ff169052565b506040830151614d40604084018260ff169052565b506060830151614d536060840182614ce4565b50608083015160a083015260a083015160c083015260c0830151614d7c60e084018260020b9052565b5060e0830151610100614d938185018360020b9052565b8401519050610120614da98482018360020b9052565b8401516101408481019190915284015161016080850191909152840151610180808501919091528401516101a0808501919091528401516101c080850191909152909301516101e090920191909152919050565b60008060008060608587031215614e1357600080fd5b8435935060208501359250604085013567ffffffffffffffff80821115614e3957600080fd5b818701915087601f830112614e4d57600080fd5b813581811115614e5c57600080fd5b886020828501011115614e6e57600080fd5b95989497505060200194505050565b600080600060608486031215614e9257600080fd5b8335614e9d81614848565b95602085013595506040909401359392505050565b600060208284031215614ec457600080fd5b81356003811061458457600080fd5b6020808252825182820181905260009190848201906040850190845b81811015614f155783516001600160e01b03191683529284019291840191600101614eef565b50909695505050505050565b634e487b7160e01b600052601160045260246000fd5b808201808211156119ce576119ce614f21565b805161468581614848565b600060208284031215614f6757600080fd5b815161458481614848565b8051801515811461468557600080fd5b600060208284031215614f9457600080fd5b6119cb82614f72565b634e487b7160e01b600052603260045260246000fd5b6001600160a01b039384168152919092166020820152604081019190915260600190565b80820281158282048414176119ce576119ce614f21565b634e487b7160e01b600052601260045260246000fd5b60008261501357615013614fee565b500490565b818103818111156119ce576119ce614f21565b600061010080838503121561503f57600080fd5b6040519081019067ffffffffffffffff821181831017156150625761506261485d565b81604052835181526020840151602082015260408401516040820152606084015160608201526080840151608082015260a084015191506150a282614848565b8160a08201526150b460c08501614f4a565b60c082015260e084015160e0820152809250505092915050565b6000602082840312156150e057600080fd5b5051919050565b6000600182016150f9576150f9614f21565b5060010190565b634e487b7160e01b600052602160045260246000fd5b6001600160a01b03848116825283166020820152606081016003831061514c57634e487b7160e01b600052602160045260246000fd5b826040830152949350505050565b6000806000806080858703121561517057600080fd5b845161517b81614986565b602086015190945061518c81614986565b6040860151606090960151949790965092505050565b634e487b7160e01b600052603160045260246000fd5b600181815b808511156151f35781600019048211156151d9576151d9614f21565b808516156151e657918102915b93841c93908002906151bd565b509250929050565b60008261520a575060016119ce565b81615217575060006119ce565b816001811461522d576002811461523757615253565b60019150506119ce565b60ff84111561524857615248614f21565b50506001821b6119ce565b5060208310610133831016604e8410600b8410161715615276575081810a6119ce565b61528083836151b8565b806000190482111561529457615294614f21565b029392505050565b60006119cb83836151fb565b600080600080600060a086880312156152c057600080fd5b85516152cb81614b94565b80955050602086015193506040860151925060608601516152eb81614b94565b60808701519092506152fc81614b94565b809150509295509295909350565b6000806040838503121561531d57600080fd5b505080516020909101519092909150565b6000806040838503121561534157600080fd5b825161534c81614b94565b602084015190925061535d81614b94565b809150509250929050565b600080600080600080600060e0888a03121561538357600080fd5b875161538e81614848565b602089015190975061539f81614986565b60408901519096506153b0816148fd565b60608901519095506153c1816148fd565b60808901519094506153d2816148fd565b60a08901519093506153e3816148e3565b91506153f160c08901614f72565b905092959891949750929550565b60005b8381101561541a578181015183820152602001615402565b50506000910152565b7f5f6465706c6f79506f736974696f6e2831293a206c697175696469747920697381526401018101d160dd1b6020820152600082516154698160258501602087016153ff565b9190910160250192915050565b6000815180845261548e8160208601602086016153ff565b601f01601f19169290920160200192915050565b6020815260006119cb6020830184615476565b7f5f6465706c6f79506f736974696f6e2832293a206c697175696469747920697381526401018101d160dd1b6020820152600082516154698160258501602087016153ff565b6000600160ff1b820161551057615510614f21565b5060000390565b60008160020b627fffff19810361553057615530614f21565b60000392915050565b60008261554857615548614fee565b500690565b60ff81811683821601908111156119ce576119ce614f21565b60ff831681526040602082015260006141a16040830184615476565b60018060a01b03861681528460020b60208201528360020b60408201526001600160801b038316606082015260a0608082015260006155c460a0830184615476565b979650505050505050565b6001600160a01b038281168282160390808211156155ef576155ef614f21565b509291505056fe757064617465506f736974696f6e732828696e7432342c696e7432342c75696e743132382c75696e743235362c696e743234295b335d2963616c63756c6174654c6f616e466565732875696e743235362c75696e7432353629626f72726f7746726f6d466c6f6f7228616464726573732c75696e743235362c75696e7432353629a26469706673582212200cec9a8f46938b0b2ec033f3a0d005ab7185cf0a8b44d7e41750bbed66712ba064736f6c63430008170033","linkReferences":{}},"methodIdentifiers":{"adaptiveSupply()":"ef5ddb31","addCollateral(address,uint256)":"6d75b9ee","afterPresale()":"899e8689","borrowFromFloor(address,uint256,uint256)":"d76b817a","burnTokens(uint256)":"6d1b229d","calculateLoanFees(uint256,uint256)":"ad66d3b3","defaultLoans()":"5f260855","factory()":"c45a0155","getAccumulatedFees()":"5df45a37","getActiveLoan(address)":"6010ba64","getCollateralAmount()":"315deeaa","getExcessReserveToken1()":"ffb938db","getFunctionSelectors()":"fd896f9d","getPositions()":"80275860","getProtocolAddresses()":"a1774da0","getProtocolParameters()":"c58aad87","getTimeSinceLastMint()":"dee02ffa","getUnderlyingBalances(uint8)":"f4a1a46d","getVaultInfo()":"7f98aa71","initialize(address,address,address,address,address,address,address,(uint8,uint8,uint8,uint16[2],uint256,uint256,int24,int24,int24,uint256,uint256,uint256,uint256,uint256,uint256))":"14cdce32","initializeLiquidity((int24,int24,uint128,uint256,int24)[3])":"7fd762af","mintTokens(address,uint256)":"f0dda65c","modelHelper()":"a3e44b33","paybackLoan(address,uint256)":"7a7cee43","pool()":"16f0115b","rollLoan(address,uint256)":"b331fdcb","setFees(uint256,uint256)":"0b78f9c0","teamMultiSig()":"854567f1","uniswapV3MintCallback(uint256,uint256,bytes)":"d3487997","updatePositions((int24,int24,uint128,uint256,int24)[3])":"95d7d0ad"},"id":129}