{"abi":[{"type":"function","name":"enforceSolvencyInvariant","inputs":[{"name":"_vault","type":"address","internalType":"address"}],"outputs":[],"stateMutability":"view"},{"type":"function","name":"getCirculatingSupply","inputs":[{"name":"pool","type":"address","internalType":"address"},{"name":"vault","type":"address","internalType":"address"}],"outputs":[{"name":"","type":"uint256","internalType":"uint256"}],"stateMutability":"view"},{"type":"function","name":"getExcessReserveBalance","inputs":[{"name":"pool","type":"address","internalType":"address"},{"name":"vault","type":"address","internalType":"address"},{"name":"isToken0","type":"bool","internalType":"bool"}],"outputs":[{"name":"","type":"uint256","internalType":"uint256"}],"stateMutability":"view"},{"type":"function","name":"getIntrinsicMinimumValue","inputs":[{"name":"_vault","type":"address","internalType":"address"}],"outputs":[{"name":"","type":"uint256","internalType":"uint256"}],"stateMutability":"view"},{"type":"function","name":"getLiquidityRatio","inputs":[{"name":"pool","type":"address","internalType":"address"},{"name":"vault","type":"address","internalType":"address"}],"outputs":[{"name":"liquidityRatio","type":"uint256","internalType":"uint256"}],"stateMutability":"view"},{"type":"function","name":"getPositionCapacity","inputs":[{"name":"pool","type":"address","internalType":"address"},{"name":"vault","type":"address","internalType":"address"},{"name":"position","type":"tuple","internalType":"struct LiquidityPosition","components":[{"name":"lowerTick","type":"int24","internalType":"int24"},{"name":"upperTick","type":"int24","internalType":"int24"},{"name":"liquidity","type":"uint128","internalType":"uint128"},{"name":"price","type":"uint256","internalType":"uint256"},{"name":"tickSpacing","type":"int24","internalType":"int24"}]},{"name":"liquidityType","type":"uint8","internalType":"enum LiquidityType"}],"outputs":[{"name":"amount0Current","type":"uint256","internalType":"uint256"}],"stateMutability":"view"},{"type":"function","name":"getTotalSupply","inputs":[{"name":"pool","type":"address","internalType":"address"},{"name":"isToken0","type":"bool","internalType":"bool"}],"outputs":[{"name":"totalSupply","type":"uint256","internalType":"uint256"}],"stateMutability":"view"},{"type":"function","name":"getUnderlyingBalances","inputs":[{"name":"pool","type":"address","internalType":"address"},{"name":"vault","type":"address","internalType":"address"},{"name":"liquidityType","type":"uint8","internalType":"enum LiquidityType"}],"outputs":[{"name":"","type":"int24","internalType":"int24"},{"name":"","type":"int24","internalType":"int24"},{"name":"","type":"uint256","internalType":"uint256"},{"name":"","type":"uint256","internalType":"uint256"}],"stateMutability":"view"},{"type":"function","name":"getVaultInfo","inputs":[{"name":"pool","type":"address","internalType":"address"},{"name":"vault","type":"address","internalType":"address"},{"name":"tokenInfo","type":"tuple","internalType":"struct TokenInfo","components":[{"name":"token0","type":"address","internalType":"address"},{"name":"token1","type":"address","internalType":"address"}]}],"outputs":[{"name":"vaultInfo","type":"tuple","internalType":"struct VaultInfo","components":[{"name":"liquidityRatio","type":"uint256","internalType":"uint256"},{"name":"circulatingSupply","type":"uint256","internalType":"uint256"},{"name":"spotPriceX96","type":"uint256","internalType":"uint256"},{"name":"anchorCapacity","type":"uint256","internalType":"uint256"},{"name":"floorCapacity","type":"uint256","internalType":"uint256"},{"name":"token0","type":"address","internalType":"address"},{"name":"token1","type":"address","internalType":"address"},{"name":"newFloor","type":"uint256","internalType":"uint256"}]}],"stateMutability":"view"},{"type":"error","name":"InsolvencyInvariant","inputs":[]}],"bytecode":{"object":"0x608060405234801561000f575f80fd5b50612adf8061001d5f395ff3fe608060405234801561000f575f80fd5b5060043610610090575f3560e01c80636013be6d116100635780636013be6d1461011b5780638a3fecc91461012e578063930cc12a146101af578063a4dda1a2146101c4578063e1f00486146101d7575f80fd5b8063188b68461461009457806323c9deeb146100ba578063280eabf4146100cd5780632f10d976146100e0575b5f80fd5b6100a76100a236600461218b565b6101ea565b6040519081526020015b60405180910390f35b6100a76100c83660046121d3565b6103b3565b6100a76100db36600461229f565b610681565b6100f36100ee366004612357565b6107ef565b60408051600295860b81529390940b60208401529282015260608101919091526080016100b1565b6100a761012936600461239b565b610906565b61014161013c3660046123b6565b610a06565b6040516100b191905f61010082019050825182526020830151602083015260408301516040830152606083015160608301526080830151608083015260a083015160018060a01b0380821660a08501528060c08601511660c0850152505060e083015160e083015292915050565b6101c26101bd36600461239b565b610a21565b005b6100a76101d23660046121d3565b610ac7565b6100a76101e536600461244d565b610f2c565b5f808261025657846001600160a01b031663d21220a76040518163ffffffff1660e01b8152600401602060405180830381865afa15801561022d573d5f803e3d5ffd5b505050506040513d601f19601f820116820180604052508101906102519190612484565b6102b6565b846001600160a01b0316630dfe16816040518163ffffffff1660e01b8152600401602060405180830381865afa158015610292573d5f803e3d5ffd5b505050506040513d601f19601f820116820180604052508101906102b69190612484565b6040516370a0823160e01b81526001600160a01b0386811660048301529192505f918316906370a0823190602401602060405180830381865afa1580156102ff573d5f803e3d5ffd5b505050506040513d601f19601f82011682018060405250810190610323919061249f565b90505f80866001600160a01b0316635df45a376040518163ffffffff1660e01b81526004016040805180830381865afa158015610362573d5f803e3d5ffd5b505050506040513d601f19601f8201168201806040525081019061038691906124b6565b915091505f866103965781610398565b825b90506103a481856124ec565b955050505050505b9392505050565b5f80826001600160a01b031663802758606040518163ffffffff1660e01b81526004016101e060405180830381865afa1580156103f2573d5f803e3d5ffd5b505050506040513d601f19601f8201168201806040525081019061041691906124ff565b90505f846001600160a01b0316633850c7bd6040518163ffffffff1660e01b815260040160e060405180830381865afa158015610455573d5f803e3d5ffd5b505050506040513d601f19601f8201168201806040525081019061047991906125e6565b50505050505090505f856001600160a01b0316630dfe16816040518163ffffffff1660e01b8152600401602060405180830381865afa1580156104be573d5f803e3d5ffd5b505050506040513d601f19601f820116820180604052508101906104e29190612484565b6001600160a01b031663313ce5676040518163ffffffff1660e01b8152600401602060405180830381865afa15801561051d573d5f803e3d5ffd5b505050506040513d601f19601f820116820180604052508101906105419190612670565b90505f73__$00856c2daf1848075e4d6b3791a97a7365$__63b7df07b3610572866001602002015160200151611056565b6040516001600160e01b031960e084901b1681526001600160a01b03909116600482015260ff85166024820152604401602060405180830381865af41580156105bd573d5f803e3d5ffd5b505050506040513d601f19601f820116820180604052508101906105e1919061249f565b60405163b7df07b360e01b81526001600160a01b038516600482015260ff841660248201529091505f9073__$00856c2daf1848075e4d6b3791a97a7365$__9063b7df07b390604401602060405180830381865af4158015610645573d5f803e3d5ffd5b505050506040513d601f19601f82011682018060405250810190610669919061249f565b90506106758282611060565b98975050505050505050565b5f80856001600160a01b031663514ea4bf86865f015187602001516040516020016106ae939291906126a4565b604051602081830303815290604052805190602001206040518263ffffffff1660e01b81526004016106e291815260200190565b60a060405180830381865afa1580156106fd573d5f803e3d5ffd5b505050506040513d601f19601f8201168201806040525081019061072191906126d2565b5050505090505f816001600160801b0316111561075d5761075a610747855f0151611082565b6107548660200151611082565b83611498565b91505b5f83600281111561077057610770612730565b036107e6575f856001600160a01b031663315deeaa6040518163ffffffff1660e01b8152600401602060405180830381865afa1580156107b2573d5f803e3d5ffd5b505050506040513d601f19601f820116820180604052508101906107d6919061249f565b90506107e28184612744565b9250505b50949350505050565b5f805f805f866001600160a01b031663802758606040518163ffffffff1660e01b81526004016101e060405180830381865afa158015610831573d5f803e3d5ffd5b505050506040513d601f19601f8201168201806040525081019061085591906124ff565b6040805160a0810182525f80825260208201819052918101829052606081018290526080810182905291925087600281111561089357610893612730565b036108a757815f5b602002015190506108e8565b60018760028111156108bb576108bb612730565b036108c85781600161089b565b60028760028111156108dc576108dc612730565b036108e8575060408101515b6108f389898361150a565b9550955095509550505093509350935093565b5f80826001600160a01b031663802758606040518163ffffffff1660e01b81526004016101e060405180830381865afa158015610945573d5f803e3d5ffd5b505050506040513d601f19601f8201168201806040525081019061096991906124ff565b8051519091505f61097982611056565b60405163b7df07b360e01b81526001600160a01b03821660048201526012602482015290915073__$00856c2daf1848075e4d6b3791a97a7365$__9063b7df07b390604401602060405180830381865af41580156109d9573d5f803e3d5ffd5b505050506040513d601f19601f820116820180604052508101906109fd919061249f565b95945050505050565b610a0e612118565b610a1984848461166d565b949350505050565b5f816001600160a01b0316637f98aa716040518163ffffffff1660e01b815260040161010060405180830381865afa158015610a5f573d5f803e3d5ffd5b505050506040513d601f19601f82011682018060405250810190610a839190612757565b602081015160608201516080830151929350909182610aa28284612744565b11610ac0576040516306e4305160e31b815260040160405180910390fd5b5050505050565b5f80826001600160a01b031663802758606040518163ffffffff1660e01b81526004016101e060405180830381865afa158015610b06573d5f803e3d5ffd5b505050506040513d601f19601f82011682018060405250810190610b2a91906124ff565b90505f846001600160a01b0316630dfe16816040518163ffffffff1660e01b8152600401602060405180830381865afa158015610b69573d5f803e3d5ffd5b505050506040513d601f19601f82011682018060405250810190610b8d9190612484565b6001600160a01b03166318160ddd6040518163ffffffff1660e01b8152600401602060405180830381865afa158015610bc8573d5f803e3d5ffd5b505050506040513d601f19601f82011682018060405250810190610bec919061249f565b90505f610c01868685845b602002015161150a565b5092505f9150610c1690508787866001610bf7565b5092505f9150610c2b90508888876002610bf7565b50925050505f886001600160a01b0316630dfe16816040518163ffffffff1660e01b8152600401602060405180830381865afa158015610c6d573d5f803e3d5ffd5b505050506040513d601f19601f82011682018060405250810190610c919190612484565b6040516370a0823160e01b81526001600160a01b038a8116600483015291909116906370a0823190602401602060405180830381865afa158015610cd7573d5f803e3d5ffd5b505050506040513d601f19601f82011682018060405250810190610cfb919061249f565b90505f886001600160a01b0316638e68dce46040518163ffffffff1660e01b8152600401602060405180830381865afa158015610d3a573d5f803e3d5ffd5b505050506040513d601f19601f82011682018060405250810190610d5e9190612484565b90505f6001600160a01b038216610d75575f610e3f565b8a6001600160a01b0316630dfe16816040518163ffffffff1660e01b8152600401602060405180830381865afa158015610db1573d5f803e3d5ffd5b505050506040513d601f19601f82011682018060405250810190610dd59190612484565b6040516370a0823160e01b81526001600160a01b03848116600483015291909116906370a0823190602401602060405180830381865afa158015610e1b573d5f803e3d5ffd5b505050506040513d601f19601f82011682018060405250810190610e3f919061249f565b90505f8b6001600160a01b0316633850c7bd6040518163ffffffff1660e01b815260040160e060405180830381865afa158015610e7e573d5f803e3d5ffd5b505050506040513d601f19601f82011682018060405250810190610ea291906125e6565b50505050505090505f610ed78a5f60038110610ec057610ec0612690565b60200201518d8f6001610ed287611837565b611b6c565b905080838688610ee78b8d612744565b610ef19190612744565b610efb9190612744565b610f059190612744565b610f0f9190612744565b610f19908a6124ec565b9a50505050505050505050505b92915050565b5f81610f9757826001600160a01b031663d21220a76040518163ffffffff1660e01b8152600401602060405180830381865afa158015610f6e573d5f803e3d5ffd5b505050506040513d601f19601f82011682018060405250810190610f929190612484565b610ff7565b826001600160a01b0316630dfe16816040518163ffffffff1660e01b8152600401602060405180830381865afa158015610fd3573d5f803e3d5ffd5b505050506040513d601f19601f82011682018060405250810190610ff79190612484565b6001600160a01b03166318160ddd6040518163ffffffff1660e01b8152600401602060405180830381865afa158015611032573d5f803e3d5ffd5b505050506040513d601f19601f820116820180604052508101906103ac919061249f565b5f610f2682611082565b5f8161106e6012600a6128d8565b61107890856128e3565b6103ac919061290e565b5f805f8360020b12611097578260020b6110a4565b8260020b6110a490612921565b90506110b3620d89e71961293b565b60020b8111156110ee5760405162461bcd60e51b81526020600482015260016024820152601560fa1b60448201526064015b60405180910390fd5b5f816001165f0361110357600160801b611115565b6ffffcb933bd6fad37aa2d162d1a5940015b70ffffffffffffffffffffffffffffffffff169050600282161561115457608061114f826ffff97272373d413259a46990580e213a6128e3565b901c90505b600482161561117e576080611179826ffff2e50f5f656932ef12357cf3c7fdcc6128e3565b901c90505b60088216156111a85760806111a3826fffe5caca7e10e4e61c3624eaa0941cd06128e3565b901c90505b60108216156111d25760806111cd826fffcb9843d60f6159c9db58835c9266446128e3565b901c90505b60208216156111fc5760806111f7826fff973b41fa98c081472e6896dfb254c06128e3565b901c90505b6040821615611226576080611221826fff2ea16466c96a3843ec78b326b528616128e3565b901c90505b608082161561125057608061124b826ffe5dee046a99a2a811c461f1969c30536128e3565b901c90505b61010082161561127b576080611276826ffcbe86c7900a88aedcffc83b479aa3a46128e3565b901c90505b6102008216156112a65760806112a1826ff987a7253ac413176f2b074cf7815e546128e3565b901c90505b6104008216156112d15760806112cc826ff3392b0822b70005940c7a398e4b70f36128e3565b901c90505b6108008216156112fc5760806112f7826fe7159475a2c29b7443b29c7fa6e889d96128e3565b901c90505b611000821615611327576080611322826fd097f3bdfd2022b8845ad8f792aa58256128e3565b901c90505b61200082161561135257608061134d826fa9f746462d870fdf8a65dc1f90e061e56128e3565b901c90505b61400082161561137d576080611378826f70d869a156d2a1b890bb3df62baf32f76128e3565b901c90505b6180008216156113a85760806113a3826f31be135f97d08fd981231505542fcfa66128e3565b901c90505b620100008216156113d45760806113cf826f09aa508b5b7a84e1c677de54f3e99bc96128e3565b901c90505b620200008216156113ff5760806113fa826e5d6af8dedb81196699c329225ee6046128e3565b901c90505b62040000821615611429576080611424826d2216e584f5fa1ea926041bedfe986128e3565b901c90505b6208000082161561145157608061144c826b048a170391f7dc42444e8fa26128e3565b901c90505b5f8460020b131561146a57611467815f1961290e565b90505b6114796401000000008261295b565b15611485576001611487565b5f5b610a199060ff16602083901c612744565b5f826001600160a01b0316846001600160a01b031611156114b7579192915b6001600160a01b0384166115006fffffffffffffffffffffffffffffffff60601b606085901b166114e8878761296e565b6001600160a01b0316866001600160a01b0316611f8e565b610a19919061290e565b5f805f805f876001600160a01b0316633850c7bd6040518163ffffffff1660e01b815260040160e060405180830381865afa15801561154b573d5f803e3d5ffd5b505050506040513d601f19601f8201168201806040525081019061156f91906125e6565b50505050505090505f886001600160a01b031663514ea4bf89895f01518a602001516040516020016115a3939291906126a4565b604051602081830303815290604052805190602001206040518263ffffffff1660e01b81526004016115d791815260200190565b60a060405180830381865afa1580156115f2573d5f803e3d5ffd5b505050506040513d601f19601f8201168201806040525081019061161691906126d2565b5050505090505f816001600160801b03161115611662576116508261163d895f0151611082565b61164a8a60200151611082565b84612034565b885160208a0151909850965090945092505b505093509350935093565b611675612118565b5f836001600160a01b031663802758606040518163ffffffff1660e01b81526004016101e060405180830381865afa1580156116b3573d5f803e3d5ffd5b505050506040513d601f19601f820116820180604052508101906116d791906124ff565b90505f856001600160a01b0316633850c7bd6040518163ffffffff1660e01b815260040160e060405180830381865afa158015611716573d5f803e3d5ffd5b505050506040513d601f19601f8201168201806040525081019061173a91906125e6565b505050505050905061174c86866103b3565b83526117588686610ac7565b602084015260405163b7df07b360e01b81526001600160a01b03821660048201526012602482015273__$00856c2daf1848075e4d6b3791a97a7365$__9063b7df07b390604401602060405180830381865af41580156117ba573d5f803e3d5ffd5b505050506040513d601f19601f820116820180604052508101906117de919061249f565b60408401526117f7868684600160200201516001610681565b6060840152815161180c90879087905f610681565b6080840152505081516001600160a01b0390811660a083015260208301511660c08201529392505050565b5f6401000276a36001600160a01b03831610801590611872575073fffd8963efd1fc6a506488495d951d5263988d266001600160a01b038316105b6118a25760405162461bcd60e51b81526020600482015260016024820152602960f91b60448201526064016110e5565b640100000000600160c01b03602083901b166001600160801b03811160071b81811c67ffffffffffffffff811160061b90811c63ffffffff811160051b90811c61ffff811160041b90811c60ff8111600390811b91821c600f811160021b90811c918211600190811b92831c9790881196179094179092171790911717176080811061193d57611933607f826124ec565b83901c915061194e565b61194881607f6124ec565b83901b91505b5f604061195c608084612995565b901b9050828302607f1c92508260801c80603f1b8217915083811c935050828302607f1c92508260801c80603e1b8217915083811c935050828302607f1c92508260801c80603d1b8217915083811c935050828302607f1c92508260801c80603c1b8217915083811c935050828302607f1c92508260801c80603b1b8217915083811c935050828302607f1c92508260801c80603a1b8217915083811c935050828302607f1c92508260801c8060391b8217915083811c935050828302607f1c92508260801c8060381b8217915083811c935050828302607f1c92508260801c8060371b8217915083811c935050828302607f1c92508260801c8060361b8217915083811c935050828302607f1c92508260801c8060351b8217915083811c935050828302607f1c92508260801c8060341b8217915083811c935050828302607f1c92508260801c8060331b8217915083811c935050828302607f1c92508260801c8060321b82179150505f81693627a301d71055774c85611ade91906129b4565b90505f6080611afd6f028f6481ab7f045a5af012a19d003aaa84612995565b901d90505f6080611b1e846fdb2df09e81959a81455e260799a0632f6129e3565b901d90508060020b8260020b14611b5d57886001600160a01b0316611b4282611082565b6001600160a01b03161115611b575781611b5f565b80611b5f565b815b9998505050505050505050565b5f805f805f805f896001600160a01b031663514ea4bf8c8e5f01518f60200151604051602001611b9e939291906126a4565b604051602081830303815290604052805190602001206040518263ffffffff1660e01b8152600401611bd291815260200190565b60a060405180830381865afa158015611bed573d5f803e3d5ffd5b505050506040513d601f19601f82011682018060405250810190611c1191906126d2565b50509250925092508815611d9b57896001600160a01b031663f30583996040518163ffffffff1660e01b8152600401602060405180830381865afa158015611c5b573d5f803e3d5ffd5b505050506040513d601f19601f82011682018060405250810190611c7f919061249f565b8c5160405163f30dba9360e01b815260029190910b60048201529094506001600160a01b038b169063f30dba939060240161010060405180830381865afa158015611ccc573d5f803e3d5ffd5b505050506040513d601f19601f82011682018060405250810190611cf09190612a0a565b90919293949596509091929394955090919293509091925090915090505080965050896001600160a01b031663f30dba938d602001516040518263ffffffff1660e01b8152600401611d4b919060029190910b815260200190565b61010060405180830381865afa158015611d67573d5f803e3d5ffd5b505050506040513d601f19601f82011682018060405250810190611d8b9190612a0a565b50939a50611f1395505050505050565b896001600160a01b031663461413196040518163ffffffff1660e01b8152600401602060405180830381865afa158015611dd7573d5f803e3d5ffd5b505050506040513d601f19601f82011682018060405250810190611dfb919061249f565b8c5160405163f30dba9360e01b815260029190910b60048201529094506001600160a01b038b169063f30dba939060240161010060405180830381865afa158015611e48573d5f803e3d5ffd5b505050506040513d601f19601f82011682018060405250810190611e6c9190612a0a565b9091929394959650909192939495509091929394509091925090915090505080965050896001600160a01b031663f30dba938d602001516040518263ffffffff1660e01b8152600401611ec8919060029190910b815260200190565b61010060405180830381865afa158015611ee4573d5f803e3d5ffd5b505050506040513d601f19601f82011682018060405250810190611f089190612a0a565b50929a505050505050505b5f8c5f015160020b8960020b12611f2b575085611f30565b508584035b5f8d6020015160020b8a60020b1215611f4a575085611f4f565b508585035b818603819003611f7b6001600160801b0387168d611f6d5785611f6f565b865b8303600160801b611f8e565b9f9e505050505050505050505050505050565b5f80805f19858709858702925082811083820303915050805f03611fc2575f8411611fb7575f80fd5b5082900490506103ac565b808411611fcd575f80fd5b5f8486880960026001871981018816978890046003810283188082028403028082028403028082028403028082028403028082028403029081029092039091025f889003889004909101858311909403939093029303949094049190911702949350505050565b5f80836001600160a01b0316856001600160a01b03161115612054579293925b846001600160a01b0316866001600160a01b03161161207f57612078858585611498565b91506120c6565b836001600160a01b0316866001600160a01b031610156120b8576120a4868585611498565b91506120b18587856120cf565b90506120c6565b6120c38585856120cf565b90505b94509492505050565b5f826001600160a01b0316846001600160a01b031611156120ee579192915b610a196001600160801b038316612105868661296e565b6001600160a01b0316600160601b611f8e565b6040518061010001604052805f81526020015f81526020015f81526020015f81526020015f81526020015f6001600160a01b031681526020015f6001600160a01b031681526020015f81525090565b6001600160a01b038116811461217b575f80fd5b50565b801515811461217b575f80fd5b5f805f6060848603121561219d575f80fd5b83356121a881612167565b925060208401356121b881612167565b915060408401356121c88161217e565b809150509250925092565b5f80604083850312156121e4575f80fd5b82356121ef81612167565b915060208301356121ff81612167565b809150509250929050565b634e487b7160e01b5f52604160045260245ffd5b60405160a0810167ffffffffffffffff811182821017156122415761224161220a565b60405290565b6040516060810167ffffffffffffffff811182821017156122415761224161220a565b8060020b811461217b575f80fd5b6001600160801b038116811461217b575f80fd5b80356003811061229a575f80fd5b919050565b5f805f808486036101008112156122b4575f80fd5b85356122bf81612167565b945060208601356122cf81612167565b935060a0603f19820112156122e2575f80fd5b506122eb61221e565b60408601356122f98161226a565b815260608601356123098161226a565b6020820152608086013561231c81612278565b604082015260a0860135606082015260c08601356123398161226a565b6080820152915061234c60e0860161228c565b905092959194509250565b5f805f60608486031215612369575f80fd5b833561237481612167565b9250602084013561238481612167565b91506123926040850161228c565b90509250925092565b5f602082840312156123ab575f80fd5b81356103ac81612167565b5f805f83850360808112156123c9575f80fd5b84356123d481612167565b935060208501356123e481612167565b92506040603f19820112156123f7575f80fd5b506040516040810181811067ffffffffffffffff8211171561241b5761241b61220a565b604090815285013561242c81612167565b8152606085013561243c81612167565b602082015292959194509192509050565b5f806040838503121561245e575f80fd5b823561246981612167565b915060208301356121ff8161217e565b805161229a81612167565b5f60208284031215612494575f80fd5b81516103ac81612167565b5f602082840312156124af575f80fd5b5051919050565b5f80604083850312156124c7575f80fd5b505080516020909101519092909150565b634e487b7160e01b5f52601160045260245ffd5b81810381811115610f2657610f266124d8565b5f6101e0808385031215612511575f80fd5b83601f84011261251f575f80fd5b612527612247565b908301908085831115612538575f80fd5b845b838110156125b85760a08188031215612551575f80fd5b61255961221e565b81516125648161226a565b81526020828101516125758161226a565b8282015260408381015161258881612278565b90830152606083810151908301526080808401516125a58161226a565b908301529084529092019160a00161253a565b5095945050505050565b805161ffff8116811461229a575f80fd5b805163ffffffff8116811461229a575f80fd5b5f805f805f805f60e0888a0312156125fc575f80fd5b875161260781612167565b60208901519097506126188161226a565b9550612626604089016125c2565b9450612634606089016125c2565b9350612642608089016125c2565b925061265060a089016125d3565b915060c08801516126608161217e565b8091505092959891949750929550565b5f60208284031215612680575f80fd5b815160ff811681146103ac575f80fd5b634e487b7160e01b5f52603260045260245ffd5b60609390931b6bffffffffffffffffffffffff1916835260e891821b6014840152901b6017820152601a0190565b5f805f805f60a086880312156126e6575f80fd5b85516126f181612278565b809550506020860151935060408601519250606086015161271181612278565b608087015190925061272281612278565b809150509295509295909350565b634e487b7160e01b5f52602160045260245ffd5b80820180821115610f2657610f266124d8565b5f610100808385031215612769575f80fd5b6040519081019067ffffffffffffffff8211818310171561278c5761278c61220a565b81604052835181526020840151602082015260408401516040820152606084015160608201526080840151608082015260a084015191506127cc82612167565b8160a08201526127de60c08501612479565b60c082015260e084015160e0820152809250505092915050565b600181815b8085111561283257815f1904821115612818576128186124d8565b8085161561282557918102915b93841c93908002906127fd565b509250929050565b5f8261284857506001610f26565b8161285457505f610f26565b816001811461286a576002811461287457612890565b6001915050610f26565b60ff841115612885576128856124d8565b50506001821b610f26565b5060208310610133831016604e8410600b84101617156128b3575081810a610f26565b6128bd83836127f8565b805f19048211156128d0576128d06124d8565b029392505050565b5f6103ac838361283a565b8082028115828204841417610f2657610f266124d8565b634e487b7160e01b5f52601260045260245ffd5b5f8261291c5761291c6128fa565b500490565b5f600160ff1b8201612935576129356124d8565b505f0390565b5f8160020b627fffff198103612953576129536124d8565b5f0392915050565b5f82612969576129696128fa565b500690565b6001600160a01b0382811682821603908082111561298e5761298e6124d8565b5092915050565b8181035f83128015838313168383128216171561298e5761298e6124d8565b8082025f8212600160ff1b841416156129cf576129cf6124d8565b8181058314821517610f2657610f266124d8565b8082018281125f831280158216821582161715612a0257612a026124d8565b505092915050565b5f805f805f805f80610100898b031215612a22575f80fd5b8851612a2d81612278565b80985050602089015180600f0b8114612a44575f80fd5b80975050604089015195506060890151945060808901518060060b8114612a69575f80fd5b60a08a0151909450612a7a81612167565b9250612a8860c08a016125d3565b915060e0890151612a988161217e565b80915050929598509295989093965056fea2646970667358221220188c9b1cff0a98f708301048cc8f5e3b16890170a4bf70e0cb041dc1832e301264736f6c63430008170033","linkReferences":{"src/libraries/Conversions.sol":{"Conversions":[{"start":1379,"length":20},{"start":1578,"length":20},{"start":2494,"length":20},{"start":6047,"length":20}]}}},"methodIdentifiers":{"enforceSolvencyInvariant(address)":"930cc12a","getCirculatingSupply(address,address)":"a4dda1a2","getExcessReserveBalance(address,address,bool)":"188b6846","getIntrinsicMinimumValue(address)":"6013be6d","getLiquidityRatio(address,address)":"23c9deeb","getPositionCapacity(address,address,(int24,int24,uint128,uint256,int24),uint8)":"280eabf4","getTotalSupply(address,bool)":"e1f00486","getUnderlyingBalances(address,address,uint8)":"2f10d976","getVaultInfo(address,address,(address,address))":"8a3fecc9"},"id":119}