{"abi":[{"type":"constructor","inputs":[{"name":"_uniswapV3Factory","type":"address","internalType":"address"},{"name":"_pancakeSwapV3Factory","type":"address","internalType":"address"},{"name":"_resolver","type":"address","internalType":"address"},{"name":"_deployerFactory","type":"address","internalType":"address"},{"name":"_extFactory","type":"address","internalType":"address"},{"name":"_presaleFactory","type":"address","internalType":"address"}],"stateMutability":"nonpayable"},{"type":"function","name":"adaptiveSupply","inputs":[],"outputs":[{"name":"","type":"address","internalType":"address"}],"stateMutability":"view"},{"type":"function","name":"burnFor","inputs":[{"name":"from","type":"address","internalType":"address"},{"name":"amount","type":"uint256","internalType":"uint256"}],"outputs":[],"stateMutability":"nonpayable"},{"type":"function","name":"deferredDeploy","inputs":[{"name":"_deployerContract","type":"address","internalType":"address"}],"outputs":[],"stateMutability":"nonpayable"},{"type":"function","name":"deployVault","inputs":[{"name":"presaleParams","type":"tuple","internalType":"struct PresaleUserParams","components":[{"name":"softCap","type":"uint256","internalType":"uint256"},{"name":"deadline","type":"uint256","internalType":"uint256"}]},{"name":"vaultDeployParams","type":"tuple","internalType":"struct VaultDeployParams","components":[{"name":"name","type":"string","internalType":"string"},{"name":"symbol","type":"string","internalType":"string"},{"name":"decimals","type":"uint8","internalType":"uint8"},{"name":"initialSupply","type":"uint256","internalType":"uint256"},{"name":"maxTotalSupply","type":"uint256","internalType":"uint256"},{"name":"IDOPrice","type":"uint256","internalType":"uint256"},{"name":"floorPrice","type":"uint256","internalType":"uint256"},{"name":"token1","type":"address","internalType":"address"},{"name":"feeTier","type":"uint24","internalType":"uint24"},{"name":"presale","type":"uint8","internalType":"uint8"},{"name":"useUniswap","type":"bool","internalType":"bool"}]}],"outputs":[{"name":"","type":"address","internalType":"address"},{"name":"","type":"address","internalType":"address"},{"name":"","type":"address","internalType":"address"}],"stateMutability":"payable"},{"type":"function","name":"getDeployers","inputs":[],"outputs":[{"name":"","type":"address[]","internalType":"address[]"}],"stateMutability":"view"},{"type":"function","name":"getPresaleProtocolParams","inputs":[],"outputs":[{"name":"","type":"tuple","internalType":"struct PresaleProtocolParams","components":[{"name":"maxSoftCap","type":"uint256","internalType":"uint256"},{"name":"minContributionRatio","type":"uint256","internalType":"uint256"},{"name":"maxContributionRatio","type":"uint256","internalType":"uint256"},{"name":"presalePercentage","type":"uint256","internalType":"uint256"},{"name":"minDuration","type":"uint256","internalType":"uint256"},{"name":"maxDuration","type":"uint256","internalType":"uint256"},{"name":"referralPercentage","type":"uint256","internalType":"uint256"},{"name":"teamFee","type":"uint256","internalType":"uint256"}]}],"stateMutability":"view"},{"type":"function","name":"getProtocolParameters","inputs":[],"outputs":[{"name":"","type":"tuple","internalType":"struct ProtocolParameters","components":[{"name":"floorPercentage","type":"uint8","internalType":"uint8"},{"name":"anchorPercentage","type":"uint8","internalType":"uint8"},{"name":"idoPriceMultiplier","type":"uint8","internalType":"uint8"},{"name":"floorBips","type":"uint16[2]","internalType":"uint16[2]"},{"name":"shiftRatio","type":"uint256","internalType":"uint256"},{"name":"slideRatio","type":"uint256","internalType":"uint256"},{"name":"discoveryBips","type":"int24","internalType":"int24"},{"name":"shiftAnchorUpperBips","type":"int24","internalType":"int24"},{"name":"slideAnchorUpperBips","type":"int24","internalType":"int24"},{"name":"lowBalanceThresholdFactor","type":"uint256","internalType":"uint256"},{"name":"highBalanceThresholdFactor","type":"uint256","internalType":"uint256"},{"name":"inflationFee","type":"uint256","internalType":"uint256"},{"name":"loanFee","type":"uint256","internalType":"uint256"},{"name":"deployFee","type":"uint256","internalType":"uint256"},{"name":"presalePremium","type":"uint256","internalType":"uint256"},{"name":"selfRepayLtvTreshold","type":"uint256","internalType":"uint256"}]}],"stateMutability":"view"},{"type":"function","name":"getVaultDescription","inputs":[{"name":"_deployer","type":"address","internalType":"address"}],"outputs":[{"name":"","type":"tuple","internalType":"struct VaultDescription","components":[{"name":"tokenName","type":"string","internalType":"string"},{"name":"tokenSymbol","type":"string","internalType":"string"},{"name":"tokenDecimals","type":"uint8","internalType":"uint8"},{"name":"token0","type":"address","internalType":"address"},{"name":"token1","type":"address","internalType":"address"},{"name":"deployer","type":"address","internalType":"address"},{"name":"vault","type":"address","internalType":"address"},{"name":"presaleContract","type":"address","internalType":"address"},{"name":"stakingContract","type":"address","internalType":"address"}]}],"stateMutability":"view"},{"type":"function","name":"getVaults","inputs":[{"name":"_deployer","type":"address","internalType":"address"}],"outputs":[{"name":"","type":"address[]","internalType":"address[]"}],"stateMutability":"view"},{"type":"function","name":"mintTokens","inputs":[{"name":"to","type":"address","internalType":"address"},{"name":"amount","type":"uint256","internalType":"uint256"}],"outputs":[],"stateMutability":"nonpayable"},{"type":"function","name":"modelHelper","inputs":[],"outputs":[{"name":"","type":"address","internalType":"address"}],"stateMutability":"view"},{"type":"function","name":"numDeployers","inputs":[],"outputs":[{"name":"","type":"uint256","internalType":"uint256"}],"stateMutability":"view"},{"type":"function","name":"numVaults","inputs":[{"name":"_deployer","type":"address","internalType":"address"}],"outputs":[{"name":"","type":"uint256","internalType":"uint256"}],"stateMutability":"view"},{"type":"function","name":"owner","inputs":[],"outputs":[{"name":"","type":"address","internalType":"address"}],"stateMutability":"view"},{"type":"function","name":"setMultiSigAddress","inputs":[{"name":"_address","type":"address","internalType":"address"}],"outputs":[],"stateMutability":"nonpayable"},{"type":"function","name":"setPermissionlessDeploy","inputs":[{"name":"_flag","type":"bool","internalType":"bool"}],"outputs":[],"stateMutability":"nonpayable"},{"type":"function","name":"setPresaleProtocolParams","inputs":[{"name":"_params","type":"tuple","internalType":"struct PresaleProtocolParams","components":[{"name":"maxSoftCap","type":"uint256","internalType":"uint256"},{"name":"minContributionRatio","type":"uint256","internalType":"uint256"},{"name":"maxContributionRatio","type":"uint256","internalType":"uint256"},{"name":"presalePercentage","type":"uint256","internalType":"uint256"},{"name":"minDuration","type":"uint256","internalType":"uint256"},{"name":"maxDuration","type":"uint256","internalType":"uint256"},{"name":"referralPercentage","type":"uint256","internalType":"uint256"},{"name":"teamFee","type":"uint256","internalType":"uint256"}]}],"outputs":[],"stateMutability":"nonpayable"},{"type":"function","name":"setProtocolParameters","inputs":[{"name":"_params","type":"tuple","internalType":"struct ProtocolParameters","components":[{"name":"floorPercentage","type":"uint8","internalType":"uint8"},{"name":"anchorPercentage","type":"uint8","internalType":"uint8"},{"name":"idoPriceMultiplier","type":"uint8","internalType":"uint8"},{"name":"floorBips","type":"uint16[2]","internalType":"uint16[2]"},{"name":"shiftRatio","type":"uint256","internalType":"uint256"},{"name":"slideRatio","type":"uint256","internalType":"uint256"},{"name":"discoveryBips","type":"int24","internalType":"int24"},{"name":"shiftAnchorUpperBips","type":"int24","internalType":"int24"},{"name":"slideAnchorUpperBips","type":"int24","internalType":"int24"},{"name":"lowBalanceThresholdFactor","type":"uint256","internalType":"uint256"},{"name":"highBalanceThresholdFactor","type":"uint256","internalType":"uint256"},{"name":"inflationFee","type":"uint256","internalType":"uint256"},{"name":"loanFee","type":"uint256","internalType":"uint256"},{"name":"deployFee","type":"uint256","internalType":"uint256"},{"name":"presalePremium","type":"uint256","internalType":"uint256"},{"name":"selfRepayLtvTreshold","type":"uint256","internalType":"uint256"}]}],"outputs":[],"stateMutability":"nonpayable"},{"type":"function","name":"teamMultiSig","inputs":[],"outputs":[{"name":"","type":"address","internalType":"address"}],"stateMutability":"view"},{"type":"function","name":"tokenFactory","inputs":[],"outputs":[{"name":"","type":"address","internalType":"address"}],"stateMutability":"view"},{"type":"function","name":"upgradeToken","inputs":[{"name":"_token","type":"address","internalType":"address"},{"name":"_newImplementation","type":"address","internalType":"address"}],"outputs":[],"stateMutability":"nonpayable"},{"type":"error","name":"InvalidDecimals","inputs":[]},{"type":"error","name":"InvalidFeeTier","inputs":[]},{"type":"error","name":"InvalidParameters","inputs":[]},{"type":"error","name":"InvalidSymbol","inputs":[]},{"type":"error","name":"NotAuthorityError","inputs":[]},{"type":"error","name":"OnlyVaultsError","inputs":[]},{"type":"error","name":"SafeERC20FailedOperation","inputs":[{"name":"token","type":"address","internalType":"address"}]},{"type":"error","name":"SupplyTransferError","inputs":[]},{"type":"error","name":"TokenAlreadyExistsError","inputs":[]},{"type":"error","name":"ZeroAddressError","inputs":[]}],"bytecode":{"object":"0x60806040525f600160146101000a81548160ff0219169083151502179055503480156200002a575f80fd5b5060405162007c6a38038062007c6a833981810160405281019062000050919062000453565b5f73ffffffffffffffffffffffffffffffffffffffff168673ffffffffffffffffffffffffffffffffffffffff161480620000b657505f73ffffffffffffffffffffffffffffffffffffffff168573ffffffffffffffffffffffffffffffffffffffff16145b80620000ed57505f73ffffffffffffffffffffffffffffffffffffffff168473ffffffffffffffffffffffffffffffffffffffff16145b806200012457505f73ffffffffffffffffffffffffffffffffffffffff168373ffffffffffffffffffffffffffffffffffffffff16145b806200015b57505f73ffffffffffffffffffffffffffffffffffffffff168273ffffffffffffffffffffffffffffffffffffffff16145b806200019257505f73ffffffffffffffffffffffffffffffffffffffff168173ffffffffffffffffffffffffffffffffffffffff16145b15620001ca576040517f3efa09af00000000000000000000000000000000000000000000000000000000815260040160405180910390fd5b3360055f6101000a81548173ffffffffffffffffffffffffffffffffffffffff021916908373ffffffffffffffffffffffffffffffffffffffff1602179055503360085f6101000a81548173ffffffffffffffffffffffffffffffffffffffff021916908373ffffffffffffffffffffffffffffffffffffffff1602179055508560065f6101000a81548173ffffffffffffffffffffffffffffffffffffffff021916908373ffffffffffffffffffffffffffffffffffffffff1602179055508460075f6101000a81548173ffffffffffffffffffffffffffffffffffffffff021916908373ffffffffffffffffffffffffffffffffffffffff160217905550835f806101000a81548173ffffffffffffffffffffffffffffffffffffffff021916908373ffffffffffffffffffffffffffffffffffffffff1602179055508260035f6101000a81548173ffffffffffffffffffffffffffffffffffffffff021916908373ffffffffffffffffffffffffffffffffffffffff1602179055508160045f6101000a81548173ffffffffffffffffffffffffffffffffffffffff021916908373ffffffffffffffffffffffffffffffffffffffff1602179055508060025f6101000a81548173ffffffffffffffffffffffffffffffffffffffff021916908373ffffffffffffffffffffffffffffffffffffffff1602179055505f600a5f6101000a81548160ff021916908315150217905550505050505050620004eb565b5f80fd5b5f73ffffffffffffffffffffffffffffffffffffffff82169050919050565b5f6200041d82620003f2565b9050919050565b6200042f8162000411565b81146200043a575f80fd5b50565b5f815190506200044d8162000424565b92915050565b5f805f805f8060c0878903121562000470576200046f620003ee565b5b5f6200047f89828a016200043d565b96505060206200049289828a016200043d565b9550506040620004a589828a016200043d565b9450506060620004b889828a016200043d565b9350506080620004cb89828a016200043d565b92505060a0620004de89828a016200043d565b9150509295509295509295565b61777180620004f95f395ff3fe608060405260043610610129575f3560e01c8063854567f1116100aa578063e77772fe1161006e578063e77772fe146103b1578063ee4a3e37146103db578063ef5ddb3114610403578063f0dda65c1461042d578063f9c7bba514610455578063fe7c9c921461049157610129565b8063854567f1146102d757806386d20da4146103015780638da5cb5b14610333578063a3e44b331461035d578063c58aad871461038757610129565b8063397ae005116100f1578063397ae0051461020b57806355b8ce0a14610233578063607c12b51461025b578063615de71f146102855780637d19a2cb146102af57610129565b80630337c57a1461012d578063077f2cfc14610169578063098eddb11461019157806319b10ac3146101bb5780631dd319cb146101e3575b5f80fd5b348015610138575f80fd5b50610153600480360381019061014e9190614ff8565b6104cd565b60405161016091906151a0565b60405180910390f35b348015610174575f80fd5b5061018f600480360381019061018a9190614ff8565b61085f565b005b34801561019c575f80fd5b506101a561098d565b6040516101b291906151d8565b60405180910390f35b3480156101c6575f80fd5b506101e160048036038101906101dc9190615560565b61099d565b005b3480156101ee575f80fd5b506102096004803603810190610204919061558c565b610b7b565b005b348015610216575f80fd5b50610231600480360381019061022c91906155ff565b610d0b565b005b34801561023e575f80fd5b506102596004803603810190610254919061562a565b610dad565b005b348015610266575f80fd5b5061026f610eeb565b60405161027c9190615710565b60405180910390f35b348015610290575f80fd5b50610299610fba565b6040516102a691906157df565b60405180910390f35b3480156102ba575f80fd5b506102d560048036038101906102d09190614ff8565b611024565b005b3480156102e2575f80fd5b506102eb6114c3565b6040516102f89190615808565b60405180910390f35b61031b60048036038101906103169190615a97565b6114eb565b60405161032a93929190615af1565b60405180910390f35b34801561033e575f80fd5b5061034761198b565b6040516103549190615808565b60405180910390f35b348015610368575f80fd5b506103716119b3565b60405161037e9190615808565b60405180910390f35b348015610392575f80fd5b5061039b611a8e565b6040516103a89190615d23565b60405180910390f35b3480156103bc575f80fd5b506103c5611c18565b6040516103d29190615808565b60405180910390f35b3480156103e6575f80fd5b5061040160048036038101906103fc9190615e04565b611cf3565b005b34801561040e575f80fd5b50610417611dd0565b6040516104249190615808565b60405180910390f35b348015610438575f80fd5b50610453600480360381019061044e919061558c565b611eab565b005b348015610460575f80fd5b5061047b60048036038101906104769190614ff8565b61203b565b60405161048891906151d8565b60405180910390f35b34801561049c575f80fd5b506104b760048036038101906104b29190614ff8565b612088565b6040516104c49190615710565b60405180910390f35b6104d5614b4c565b60225f8373ffffffffffffffffffffffffffffffffffffffff1673ffffffffffffffffffffffffffffffffffffffff1681526020019081526020015f20604051806101200160405290815f8201805461052d90615e5d565b80601f016020809104026020016040519081016040528092919081815260200182805461055990615e5d565b80156105a45780601f1061057b576101008083540402835291602001916105a4565b820191905f5260205f20905b81548152906001019060200180831161058757829003601f168201915b505050505081526020016001820180546105bd90615e5d565b80601f01602080910402602001604051908101604052809291908181526020018280546105e990615e5d565b80156106345780601f1061060b57610100808354040283529160200191610634565b820191905f5260205f20905b81548152906001019060200180831161061757829003601f168201915b50505050508152602001600282015f9054906101000a900460ff1660ff1660ff1681526020016002820160019054906101000a900473ffffffffffffffffffffffffffffffffffffffff1673ffffffffffffffffffffffffffffffffffffffff1673ffffffffffffffffffffffffffffffffffffffff168152602001600382015f9054906101000a900473ffffffffffffffffffffffffffffffffffffffff1673ffffffffffffffffffffffffffffffffffffffff1673ffffffffffffffffffffffffffffffffffffffff168152602001600482015f9054906101000a900473ffffffffffffffffffffffffffffffffffffffff1673ffffffffffffffffffffffffffffffffffffffff1673ffffffffffffffffffffffffffffffffffffffff168152602001600582015f9054906101000a900473ffffffffffffffffffffffffffffffffffffffff1673ffffffffffffffffffffffffffffffffffffffff1673ffffffffffffffffffffffffffffffffffffffff168152602001600682015f9054906101000a900473ffffffffffffffffffffffffffffffffffffffff1673ffffffffffffffffffffffffffffffffffffffff1673ffffffffffffffffffffffffffffffffffffffff168152602001600782015f9054906101000a900473ffffffffffffffffffffffffffffffffffffffff1673ffffffffffffffffffffffffffffffffffffffff1673ffffffffffffffffffffffffffffffffffffffff16815250509050919050565b60085f9054906101000a900473ffffffffffffffffffffffffffffffffffffffff1673ffffffffffffffffffffffffffffffffffffffff163373ffffffffffffffffffffffffffffffffffffffff16146108e5576040517f52cb9b1c00000000000000000000000000000000000000000000000000000000815260040160405180910390fd5b5f73ffffffffffffffffffffffffffffffffffffffff168173ffffffffffffffffffffffffffffffffffffffff160361094a576040517f3efa09af00000000000000000000000000000000000000000000000000000000815260040160405180910390fd5b8060085f6101000a81548173ffffffffffffffffffffffffffffffffffffffff021916908373ffffffffffffffffffffffffffffffffffffffff16021790555050565b5f610998601f61215b565b905090565b60055f9054906101000a900473ffffffffffffffffffffffffffffffffffffffff1673ffffffffffffffffffffffffffffffffffffffff163373ffffffffffffffffffffffffffffffffffffffff1614610a23576040517f52cb9b1c00000000000000000000000000000000000000000000000000000000815260040160405180910390fd5b80600b5f820151815f015f6101000a81548160ff021916908360ff1602179055506020820151815f0160016101000a81548160ff021916908360ff1602179055506040820151815f0160026101000a81548160ff021916908360ff160217905550606082015181600101906002610a9b929190614c18565b506080820151816002015560a0820151816003015560c0820151816004015f6101000a81548162ffffff021916908360020b62ffffff16021790555060e08201518160040160036101000a81548162ffffff021916908360020b62ffffff1602179055506101008201518160040160066101000a81548162ffffff021916908360020b62ffffff16021790555061012082015181600501556101408201518160060155610160820151816007015561018082015181600801556101a082015181600901556101c082015181600a01556101e082015181600b015590505050565b3373ffffffffffffffffffffffffffffffffffffffff1660225f3373ffffffffffffffffffffffffffffffffffffffff1673ffffffffffffffffffffffffffffffffffffffff1681526020019081526020015f206005015f9054906101000a900473ffffffffffffffffffffffffffffffffffffffff1673ffffffffffffffffffffffffffffffffffffffff1614610c3f576040517f260c767e00000000000000000000000000000000000000000000000000000000815260040160405180910390fd5b60225f3373ffffffffffffffffffffffffffffffffffffffff1673ffffffffffffffffffffffffffffffffffffffff1681526020019081526020015f2060020160019054906101000a900473ffffffffffffffffffffffffffffffffffffffff1673ffffffffffffffffffffffffffffffffffffffff16639dc29fac83836040518363ffffffff1660e01b8152600401610cda929190615e8d565b5f604051808303815f87803b158015610cf1575f80fd5b505af1158015610d03573d5f803e3d5ffd5b505050505050565b60055f9054906101000a900473ffffffffffffffffffffffffffffffffffffffff1673ffffffffffffffffffffffffffffffffffffffff163373ffffffffffffffffffffffffffffffffffffffff1614610d91576040517f52cb9b1c00000000000000000000000000000000000000000000000000000000815260040160405180910390fd5b80600a5f6101000a81548160ff02191690831515021790555050565b60055f9054906101000a900473ffffffffffffffffffffffffffffffffffffffff1673ffffffffffffffffffffffffffffffffffffffff163373ffffffffffffffffffffffffffffffffffffffff1614610e33576040517f52cb9b1c00000000000000000000000000000000000000000000000000000000815260040160405180910390fd5b8173ffffffffffffffffffffffffffffffffffffffff16634f1ef286825f67ffffffffffffffff811115610e6a57610e696151f5565b5b6040519080825280601f01601f191660200182016040528015610e9c5781602001600182028036833780820191505090505b506040518363ffffffff1660e01b8152600401610eba929190615f06565b5f604051808303815f87803b158015610ed1575f80fd5b505af1158015610ee3573d5f803e3d5ffd5b505050505050565b60605f610ef661098d565b90505f8167ffffffffffffffff811115610f1357610f126151f5565b5b604051908082528060200260200182016040528015610f415781602001602082028036833780820191505090505b5090505f5b82811015610fb157610f578161216e565b828281518110610f6a57610f69615f34565b5b602002602001019073ffffffffffffffffffffffffffffffffffffffff16908173ffffffffffffffffffffffffffffffffffffffff16815250508080600101915050610f46565b50809250505090565b610fc2614cb4565b6017604051806101000160405290815f8201548152602001600182015481526020016002820154815260200160038201548152602001600482015481526020016005820154815260200160068201548152602001600782015481525050905090565b3373ffffffffffffffffffffffffffffffffffffffff1660225f3373ffffffffffffffffffffffffffffffffffffffff1673ffffffffffffffffffffffffffffffffffffffff1681526020019081526020015f206005015f9054906101000a900473ffffffffffffffffffffffffffffffffffffffff1673ffffffffffffffffffffffffffffffffffffffff16146110e8576040517f260c767e00000000000000000000000000000000000000000000000000000000815260040160405180910390fd5b5f60245f3373ffffffffffffffffffffffffffffffffffffffff1673ffffffffffffffffffffffffffffffffffffffff1681526020019081526020015f20604051806101600160405290815f8201805461114190615e5d565b80601f016020809104026020016040519081016040528092919081815260200182805461116d90615e5d565b80156111b85780601f1061118f576101008083540402835291602001916111b8565b820191905f5260205f20905b81548152906001019060200180831161119b57829003601f168201915b505050505081526020016001820180546111d190615e5d565b80601f01602080910402602001604051908101604052809291908181526020018280546111fd90615e5d565b80156112485780601f1061121f57610100808354040283529160200191611248565b820191905f5260205f20905b81548152906001019060200180831161122b57829003601f168201915b50505050508152602001600282015f9054906101000a900460ff1660ff1660ff16815260200160038201548152602001600482015481526020016005820154815260200160068201548152602001600782015f9054906101000a900473ffffffffffffffffffffffffffffffffffffffff1673ffffffffffffffffffffffffffffffffffffffff1673ffffffffffffffffffffffffffffffffffffffff1681526020016007820160149054906101000a900462ffffff1662ffffff1662ffffff1681526020016007820160179054906101000a900460ff1660ff1660ff1681526020016007820160189054906101000a900460ff16151515158152505090505f61135682610100015161218a565b90506113738260a0015183606001518361136e611a8e565b61219b565b8273ffffffffffffffffffffffffffffffffffffffff16634bb278f36040518163ffffffff1660e01b81526004015f604051808303815f87803b1580156113b8575f80fd5b505af11580156113ca573d5f803e3d5ffd5b5050505060245f3373ffffffffffffffffffffffffffffffffffffffff1673ffffffffffffffffffffffffffffffffffffffff1681526020019081526020015f205f8082015f61141a9190614cf1565b600182015f6114299190614cf1565b600282015f6101000a81549060ff0219169055600382015f9055600482015f9055600582015f9055600682015f9055600782015f6101000a81549073ffffffffffffffffffffffffffffffffffffffff02191690556007820160146101000a81549062ffffff02191690556007820160176101000a81549060ff02191690556007820160186101000a81549060ff02191690555050505050565b5f60085f9054906101000a900473ffffffffffffffffffffffffffffffffffffffff16905090565b5f805f600a5f9054906101000a900460ff166115885760055f9054906101000a900473ffffffffffffffffffffffffffffffffffffffff1673ffffffffffffffffffffffffffffffffffffffff163373ffffffffffffffffffffffffffffffffffffffff1614611587576040517f52cb9b1c00000000000000000000000000000000000000000000000000000000815260040160405180910390fd5b5b6115958460e001516123d9565b5f6115a485610100015161218a565b90505f855f015186602001516040516020016115c1929190615f9b565b60405160208183030381529060405280519060200120905060235f8281526020019081526020015f205f9054906101000a900460ff161561162e576040517fe92b0f0e00000000000000000000000000000000000000000000000000000000815260040160405180910390fd5b5f611637611c18565b73ffffffffffffffffffffffffffffffffffffffff16632ca1f89a886040518263ffffffff1660e01b815260040161166f91906160cf565b6060604051808303815f875af115801561168b573d5f803e3d5ffd5b505050506040513d601f19601f820116820180604052508101906116af91906161a9565b50915050600160235f8481526020019081526020015f205f6101000a81548160ff0219169083151502179055505f6116fd8860a00151838a60e001518b6101000151888d6101400151612530565b9050611707614d2e565b89815f018190525088816020018190525081816040019073ffffffffffffffffffffffffffffffffffffffff16908173ffffffffffffffffffffffffffffffffffffffff168152505082816060019073ffffffffffffffffffffffffffffffffffffffff16908173ffffffffffffffffffffffffffffffffffffffff168152505084816080019060020b908160020b81525050600189610120015160ff161480156117ff575060055f9054906101000a900473ffffffffffffffffffffffffffffffffffffffff1673ffffffffffffffffffffffffffffffffffffffff163373ffffffffffffffffffffffffffffffffffffffff1614155b1561196f5761180c611a8e565b6101a0015134101561184a576040517fe523909000000000000000000000000000000000000000000000000000000000815260040160405180910390fd5b5f73ffffffffffffffffffffffffffffffffffffffff1660085f9054906101000a900473ffffffffffffffffffffffffffffffffffffffff1673ffffffffffffffffffffffffffffffffffffffff16146119085760085f9054906101000a900473ffffffffffffffffffffffffffffffffffffffff1673ffffffffffffffffffffffffffffffffffffffff166108fc3490811502906040515f60405180830381858888f19350505050158015611902573d5f803e3d5ffd5b5061196e565b60055f9054906101000a900473ffffffffffffffffffffffffffffffffffffffff1673ffffffffffffffffffffffffffffffffffffffff166108fc3490811502906040515f60405180830381858888f1935050505015801561196c573d5f803e3d5ffd5b505b5b61197989826127a5565b97509750975050505050509250925092565b5f60055f9054906101000a900473ffffffffffffffffffffffffffffffffffffffff16905090565b5f805f9054906101000a900473ffffffffffffffffffffffffffffffffffffffff1673ffffffffffffffffffffffffffffffffffffffff1663dacb2d01611a2e6040518060400160405280600b81526020017f4d6f64656c48656c7065720000000000000000000000000000000000000000008152506133a2565b6040518263ffffffff1660e01b8152600401611a4a9190616262565b602060405180830381865afa158015611a65573d5f803e3d5ffd5b505050506040513d601f19601f82011682018060405250810190611a8991906162a2565b905090565b611a96614e3e565b600b604051806102000160405290815f82015f9054906101000a900460ff1660ff1660ff1681526020015f820160019054906101000a900460ff1660ff1660ff1681526020015f820160029054906101000a900460ff1660ff1660ff16815260200160018201600280602002604051908101604052809291908260028015611b5a576020028201915f905b82829054906101000a900461ffff1661ffff1681526020019060020190602082600101049283019260010382029150808411611b215790505b505050505081526020016002820154815260200160038201548152602001600482015f9054906101000a900460020b60020b60020b81526020016004820160039054906101000a900460020b60020b60020b81526020016004820160069054906101000a900460020b60020b60020b81526020016005820154815260200160068201548152602001600782015481526020016008820154815260200160098201548152602001600a8201548152602001600b82015481525050905090565b5f805f9054906101000a900473ffffffffffffffffffffffffffffffffffffffff1673ffffffffffffffffffffffffffffffffffffffff1663dacb2d01611c936040518060400160405280600c81526020017f546f6b656e466163746f727900000000000000000000000000000000000000008152506133a2565b6040518263ffffffff1660e01b8152600401611caf9190616317565b602060405180830381865afa158015611cca573d5f803e3d5ffd5b505050506040513d601f19601f82011682018060405250810190611cee91906162a2565b905090565b60055f9054906101000a900473ffffffffffffffffffffffffffffffffffffffff1673ffffffffffffffffffffffffffffffffffffffff163373ffffffffffffffffffffffffffffffffffffffff1614611d79576040517f52cb9b1c00000000000000000000000000000000000000000000000000000000815260040160405180910390fd5b8060175f820151815f01556020820151816001015560408201518160020155606082015181600301556080820151816004015560a0820151816005015560c0820151816006015560e0820151816007015590505050565b5f805f9054906101000a900473ffffffffffffffffffffffffffffffffffffffff1673ffffffffffffffffffffffffffffffffffffffff1663dacb2d01611e4b6040518060400160405280600e81526020017f4164617074697665537570706c790000000000000000000000000000000000008152506133a2565b6040518263ffffffff1660e01b8152600401611e67919061638d565b602060405180830381865afa158015611e82573d5f803e3d5ffd5b505050506040513d601f19601f82011682018060405250810190611ea691906162a2565b905090565b3373ffffffffffffffffffffffffffffffffffffffff1660225f3373ffffffffffffffffffffffffffffffffffffffff1673ffffffffffffffffffffffffffffffffffffffff1681526020019081526020015f206005015f9054906101000a900473ffffffffffffffffffffffffffffffffffffffff1673ffffffffffffffffffffffffffffffffffffffff1614611f6f576040517f260c767e00000000000000000000000000000000000000000000000000000000815260040160405180910390fd5b60225f3373ffffffffffffffffffffffffffffffffffffffff1673ffffffffffffffffffffffffffffffffffffffff1681526020019081526020015f2060020160019054906101000a900473ffffffffffffffffffffffffffffffffffffffff1673ffffffffffffffffffffffffffffffffffffffff166340c10f1983836040518363ffffffff1660e01b815260040161200a929190615e8d565b5f604051808303815f87803b158015612021575f80fd5b505af1158015612033573d5f803e3d5ffd5b505050505050565b5f61208160215f8473ffffffffffffffffffffffffffffffffffffffff1673ffffffffffffffffffffffffffffffffffffffff1681526020019081526020015f2061215b565b9050919050565b60605f6120948361203b565b90505f8167ffffffffffffffff8111156120b1576120b06151f5565b5b6040519080825280602002602001820160405280156120df5781602001602082028036833780820191505090505b5090505f5b82811015612150576120f68582613415565b82828151811061210957612108615f34565b5b602002602001019073ffffffffffffffffffffffffffffffffffffffff16908173ffffffffffffffffffffffffffffffffffffffff168152505080806001019150506120e4565b508092505050919050565b5f612167825f0161346d565b9050919050565b5f61218382601f61347c90919063ffffffff16565b9050919050565b5f61219482613493565b9050919050565b60015f9054906101000a900473ffffffffffffffffffffffffffffffffffffffff1673ffffffffffffffffffffffffffffffffffffffff16636a384ed0856064845f015160ff16876121ed91906163e6565b6121f79190616454565b856040518463ffffffff1660e01b815260040161221693929190616493565b5f604051808303815f87803b15801561222d575f80fd5b505af115801561223f573d5f803e3d5ffd5b5050505060015f9054906101000a900473ffffffffffffffffffffffffffffffffffffffff1673ffffffffffffffffffffffffffffffffffffffff16634303ca7582606001515f6002811061229757612296615f34565b5b602002015183606001516001600281106122b4576122b3615f34565b5b60200201516064856020015160ff16886122ce91906163e6565b6122d89190616454565b6040518463ffffffff1660e01b81526004016122f693929190616501565b5f604051808303815f87803b15801561230d575f80fd5b505af115801561231f573d5f803e3d5ffd5b5050505060015f9054906101000a900473ffffffffffffffffffffffffffffffffffffffff1673ffffffffffffffffffffffffffffffffffffffff1663f4315506826040015160ff168661237391906163e6565b5f6040518363ffffffff1660e01b8152600401612391929190616545565b60c0604051808303815f875af11580156123ad573d5f803e3d5ffd5b505050506040513d601f19601f820116820180604052508101906123d19190616685565b505050505050565b5f808273ffffffffffffffffffffffffffffffffffffffff166395d89b416040518163ffffffff1660e01b81526004015f60405180830381865afa158015612423573d5f803e3d5ffd5b505050506040513d5f823e3d601f19601f8201168201806040525081019061244b9190616731565b90505f8190505f81510361248b576040517f04119bc400000000000000000000000000000000000000000000000000000000815260040160405180910390fd5b602082015192505f8054906101000a900473ffffffffffffffffffffffffffffffffffffffff1673ffffffffffffffffffffffffffffffffffffffff1663dacb2d01846040518263ffffffff1660e01b81526004016124ea91906167c2565b602060405180830381865afa158015612505573d5f803e3d5ffd5b505050506040513d601f19601f8201168201806040525081019061252991906162a2565b5050505050565b5f808261255e5760075f9054906101000a900473ffffffffffffffffffffffffffffffffffffffff16612581565b60065f9054906101000a900473ffffffffffffffffffffffffffffffffffffffff165b90505f8173ffffffffffffffffffffffffffffffffffffffff16631698ee828989896040518463ffffffff1660e01b81526004016125c1939291906167fd565b602060405180830381865afa1580156125dc573d5f803e3d5ffd5b505050506040513d601f19601f8201168201806040525081019061260091906162a2565b90505f8873ffffffffffffffffffffffffffffffffffffffff1663313ce5676040518163ffffffff1660e01b8152600401602060405180830381865afa15801561264c573d5f803e3d5ffd5b505050506040513d601f19601f820116820180604052508101906126709190616846565b90505f73ffffffffffffffffffffffffffffffffffffffff168273ffffffffffffffffffffffffffffffffffffffff1603612795578273ffffffffffffffffffffffffffffffffffffffff1663a16712958a8a8a6040518463ffffffff1660e01b81526004016126e2939291906167fd565b6020604051808303815f875af11580156126fe573d5f803e3d5ffd5b505050506040513d601f19601f8201168201806040525081019061272291906162a2565b91508173ffffffffffffffffffffffffffffffffffffffff1663f637731d61274b8c8985613526565b6040518263ffffffff1660e01b81526004016127679190616880565b5f604051808303815f87803b15801561277e575f80fd5b505af1158015612790573d5f803e3d5ffd5b505050505b8193505050509695505050505050565b5f805f805f9054906101000a900473ffffffffffffffffffffffffffffffffffffffff1673ffffffffffffffffffffffffffffffffffffffff1663dacb2d016128226040518060400160405280600981526020017f457463685661756c7400000000000000000000000000000000000000000000008152506133a2565b6040518263ffffffff1660e01b815260040161283e91906168e3565b602060405180830381865afa158015612859573d5f803e3d5ffd5b505050506040513d601f19601f8201168201806040525081019061287d91906162a2565b73ffffffffffffffffffffffffffffffffffffffff1663cda1ac0b5f8054906101000a900473ffffffffffffffffffffffffffffffffffffffff166040518263ffffffff1660e01b81526004016128d49190615808565b60408051808303815f875af11580156128ef573d5f803e3d5ffd5b505050506040513d601f19601f82011682018060405250810190612913919061690f565b8560a0018660c0018273ffffffffffffffffffffffffffffffffffffffff1673ffffffffffffffffffffffffffffffffffffffff168152508273ffffffffffffffffffffffffffffffffffffffff1673ffffffffffffffffffffffffffffffffffffffff16815250505060045f9054906101000a900473ffffffffffffffffffffffffffffffffffffffff1673ffffffffffffffffffffffffffffffffffffffff16632d882cc7865f01518760200151308860a0015189606001516040518663ffffffff1660e01b81526004016129ee959493929190616985565b6060604051808303815f875af1158015612a0a573d5f803e3d5ffd5b505050506040513d601f19601f82011682018060405250810190612a2e91906169e4565b8660e001876101000188610140018373ffffffffffffffffffffffffffffffffffffffff1673ffffffffffffffffffffffffffffffffffffffff168152508373ffffffffffffffffffffffffffffffffffffffff1673ffffffffffffffffffffffffffffffffffffffff168152508373ffffffffffffffffffffffffffffffffffffffff1673ffffffffffffffffffffffffffffffffffffffff1681525050505060035f9054906101000a900473ffffffffffffffffffffffffffffffffffffffff1673ffffffffffffffffffffffffffffffffffffffff1663c071e0cb305f8054906101000a900473ffffffffffffffffffffffffffffffffffffffff166040518363ffffffff1660e01b8152600401612b4a929190616a34565b6020604051808303815f875af1158015612b66573d5f803e3d5ffd5b505050506040513d601f19601f82011682018060405250810190612b8a91906162a2565b60015f6101000a81548173ffffffffffffffffffffffffffffffffffffffff021916908373ffffffffffffffffffffffffffffffffffffffff16021790555060015f9054906101000a900473ffffffffffffffffffffffffffffffffffffffff1673ffffffffffffffffffffffffffffffffffffffff1663f8c8765e308660a001518760400151612c196119b3565b6040518563ffffffff1660e01b8152600401612c389493929190616a5b565b5f604051808303815f87803b158015612c4f575f80fd5b505af1158015612c61573d5f803e3d5ffd5b505050508360c0015173ffffffffffffffffffffffffffffffffffffffff1663c9d5fba58560a001515f8054906101000a900473ffffffffffffffffffffffffffffffffffffffff1673ffffffffffffffffffffffffffffffffffffffff1663dacb2d01612d036040518060400160405280601481526020017f5661756c745570677261646546696e616c697a650000000000000000000000008152506133a2565b6040518263ffffffff1660e01b8152600401612d1f9190616ae8565b602060405180830381865afa158015612d3a573d5f803e3d5ffd5b505050506040513d601f19601f82011682018060405250810190612d5e91906162a2565b6040518363ffffffff1660e01b8152600401612d7b929190616a34565b5f604051808303815f87803b158015612d92575f80fd5b505af1158015612da4573d5f803e3d5ffd5b50505050612e0060015f9054906101000a900473ffffffffffffffffffffffffffffffffffffffff16856020015160600151866060015173ffffffffffffffffffffffffffffffffffffffff166135439092919063ffffffff16565b836020015160600151846060015173ffffffffffffffffffffffffffffffffffffffff166370a0823160015f9054906101000a900473ffffffffffffffffffffffffffffffffffffffff166040518263ffffffff1660e01b8152600401612e679190615808565b602060405180830381865afa158015612e82573d5f803e3d5ffd5b505050506040513d601f19601f82011682018060405250810190612ea69190616b14565b14612edd576040517fa0ca77d900000000000000000000000000000000000000000000000000000000815260040160405180910390fd5b612f2b846060015160015f9054906101000a900473ffffffffffffffffffffffffffffffffffffffff1686610100015187604001518860a001518961014001518a602001518b5f01516135c2565b84610120019073ffffffffffffffffffffffffffffffffffffffff16908173ffffffffffffffffffffffffffffffffffffffff16815250505f60405180610120016040528086602001515f01518152602001866020015160200151815260200186602001516040015160ff168152602001866060015173ffffffffffffffffffffffffffffffffffffffff168152602001866020015160e0015173ffffffffffffffffffffffffffffffffffffffff1681526020013373ffffffffffffffffffffffffffffffffffffffff1681526020018660a0015173ffffffffffffffffffffffffffffffffffffffff16815260200186610120015173ffffffffffffffffffffffffffffffffffffffff16815260200186610100015173ffffffffffffffffffffffffffffffffffffffff1681525090508060225f8760a0015173ffffffffffffffffffffffffffffffffffffffff1673ffffffffffffffffffffffffffffffffffffffff1681526020019081526020015f205f820151815f0190816130b39190616cd3565b5060208201518160010190816130c99190616cd3565b506040820151816002015f6101000a81548160ff021916908360ff16021790555060608201518160020160016101000a81548173ffffffffffffffffffffffffffffffffffffffff021916908373ffffffffffffffffffffffffffffffffffffffff1602179055506080820151816003015f6101000a81548173ffffffffffffffffffffffffffffffffffffffff021916908373ffffffffffffffffffffffffffffffffffffffff16021790555060a0820151816004015f6101000a81548173ffffffffffffffffffffffffffffffffffffffff021916908373ffffffffffffffffffffffffffffffffffffffff16021790555060c0820151816005015f6101000a81548173ffffffffffffffffffffffffffffffffffffffff021916908373ffffffffffffffffffffffffffffffffffffffff16021790555060e0820151816006015f6101000a81548173ffffffffffffffffffffffffffffffffffffffff021916908373ffffffffffffffffffffffffffffffffffffffff160217905550610100820151816007015f6101000a81548173ffffffffffffffffffffffffffffffffffffffff021916908373ffffffffffffffffffffffffffffffffffffffff1602179055509050506132e68560a0015160215f3373ffffffffffffffffffffffffffffffffffffffff1673ffffffffffffffffffffffffffffffffffffffff1681526020019081526020015f206136f490919063ffffffff16565b506132fb33601f6136f490919063ffffffff16565b50600160095f82825461330e9190616da2565b925050819055506133855f8054906101000a900473ffffffffffffffffffffffffffffffffffffffff168660a001518761010001518860e00151896101200151613356611dd0565b61335e6119b3565b60015f9054906101000a900473ffffffffffffffffffffffffffffffffffffffff16613721565b8460a0015185604001518660600151935093509350509250925092565b5f808290505f8151036133ba575f801b915050613410565b6020815111156133c8575f80fd5b602083015191505f815190505b602081101561340d5780601f6133eb9190616dd5565b60086133f791906163e6565b5f901b5f1b8317925080806001019150506133d5565b50505b919050565b5f6134658260215f8673ffffffffffffffffffffffffffffffffffffffff1673ffffffffffffffffffffffffffffffffffffffff1681526020019081526020015f2061347c90919063ffffffff16565b905092915050565b5f815f01805490509050919050565b5f613489835f0183613ca3565b5f1c905092915050565b5f60648262ffffff16036134aa5760019050613521565b6101f48262ffffff16036134c157600a9050613521565b610bb88262ffffff16036134d857603c9050613521565b6127108262ffffff16036134ef5760c89050613521565b6040517f3733548a00000000000000000000000000000000000000000000000000000000815260040160405180910390fd5b919050565b5f61353a613535858585613cca565b613e26565b90509392505050565b6135bd838473ffffffffffffffffffffffffffffffffffffffff1663a9059cbb8585604051602401613576929190615e8d565b604051602081830303815290604052915060e01b6020820180517bffffffffffffffffffffffffffffffffffffffffffffffffffffffff8381831617835250505050613e37565b505050565b5f806135d287878a888888613ed2565b9050600184610120015160ff16036136e4576136e36040518061012001604052808873ffffffffffffffffffffffffffffffffffffffff1681526020013373ffffffffffffffffffffffffffffffffffffffff1681526020018b73ffffffffffffffffffffffffffffffffffffffff1681526020018973ffffffffffffffffffffffffffffffffffffffff1681526020018a73ffffffffffffffffffffffffffffffffffffffff1681526020018373ffffffffffffffffffffffffffffffffffffffff1681526020018c73ffffffffffffffffffffffffffffffffffffffff1681526020018773ffffffffffffffffffffffffffffffffffffffff1681526020016136db611a8e565b815250614495565b5b8091505098975050505050505050565b5f613719835f018373ffffffffffffffffffffffffffffffffffffffff165f1b614531565b905092915050565b5f600667ffffffffffffffff81111561373d5761373c6151f5565b5b60405190808252806020026020018201604052801561376b5781602001602082028036833780820191505090505b5090506137ac6040518060400160405280600e81526020017f4164617074697665537570706c790000000000000000000000000000000000008152506133a2565b815f815181106137bf576137be615f34565b5b6020026020010181815250506138096040518060400160405280600b81526020017f4d6f64656c48656c7065720000000000000000000000000000000000000000008152506133a2565b8160018151811061381d5761381c615f34565b5b6020026020010181815250506138676040518060400160405280600781526020017f5374616b696e67000000000000000000000000000000000000000000000000008152506133a2565b8160028151811061387b5761387a615f34565b5b6020026020010181815250506138c56040518060400160405280600581526020017f734e4f4d410000000000000000000000000000000000000000000000000000008152506133a2565b816003815181106138d9576138d8615f34565b5b6020026020010181815250506139236040518060400160405280600881526020017f4465706c6f7965720000000000000000000000000000000000000000000000008152506133a2565b8160048151811061393757613936615f34565b5b6020026020010181815250506139816040518060400160405280600781526020017f50726573616c65000000000000000000000000000000000000000000000000008152506133a2565b8160058151811061399557613994615f34565b5b6020026020010181815250505f600667ffffffffffffffff8111156139bd576139bc6151f5565b5b6040519080825280602002602001820160405280156139eb5781602001602082028036833780820191505090505b50905084815f81518110613a0257613a01615f34565b5b602002602001019073ffffffffffffffffffffffffffffffffffffffff16908173ffffffffffffffffffffffffffffffffffffffff16815250508381600181518110613a5157613a50615f34565b5b602002602001019073ffffffffffffffffffffffffffffffffffffffff16908173ffffffffffffffffffffffffffffffffffffffff16815250508781600281518110613aa057613a9f615f34565b5b602002602001019073ffffffffffffffffffffffffffffffffffffffff16908173ffffffffffffffffffffffffffffffffffffffff16815250508681600381518110613aef57613aee615f34565b5b602002602001019073ffffffffffffffffffffffffffffffffffffffff16908173ffffffffffffffffffffffffffffffffffffffff16815250508281600481518110613b3e57613b3d615f34565b5b602002602001019073ffffffffffffffffffffffffffffffffffffffff16908173ffffffffffffffffffffffffffffffffffffffff16815250508581600581518110613b8d57613b8c615f34565b5b602002602001019073ffffffffffffffffffffffffffffffffffffffff16908173ffffffffffffffffffffffffffffffffffffffff16815250508973ffffffffffffffffffffffffffffffffffffffff1663b2bd66a48a6040518263ffffffff1660e01b8152600401613c009190615808565b5f604051808303815f87803b158015613c17575f80fd5b505af1158015613c29573d5f803e3d5ffd5b505050508973ffffffffffffffffffffffffffffffffffffffff166394c3a6f08a84846040518463ffffffff1660e01b8152600401613c6a93929190616ebf565b5f604051808303815f87803b158015613c81575f80fd5b505af1158015613c93573d5f803e3d5ffd5b5050505050505050505050505050565b5f825f018281548110613cb957613cb8615f34565b5b905f5260205f200154905092915050565b5f60068260ff1610158015613ce3575060128260ff1611155b613d19576040517fd25598a000000000000000000000000000000000000000000000000000000000815260040160405180910390fd5b5f826012613d279190616f02565b600a613d339190617065565b90508085613d4191906170b8565b945083613e1268033dd1780914b9684073__$28bae0af19d0e90d77349cc0e88bc3c39a$__63bc4225aa670de0b6b3a76400008a613d7f91906170b8565b670de0b6b3a76400006706f05b59d3b200006040518463ffffffff1660e01b8152600401613daf939291906171af565b602060405180830381865af4158015613dca573d5f803e3d5ffd5b505050506040513d601f19601f82011682018060405250810190613dee919061720e565b613df89190617239565b8660020b658334ae9d7c0a613e0d91906170b8565b614598565b613e1c9190617279565b9150509392505050565b5f613e30826145f9565b9050919050565b5f8060205f8451602086015f885af180613e56576040513d5f823e3d81fd5b3d92505f519150505f8214613e6f576001811415613e8a565b5f8473ffffffffffffffffffffffffffffffffffffffff163b145b15613ecc57836040517f5274afe7000000000000000000000000000000000000000000000000000000008152600401613ec39190615808565b60405180910390fd5b50505050565b5f80613ee284610100015161218a565b90505f6040518060400160405280600481526020017f4e4f4d41000000000000000000000000000000000000000000000000000000008152508051906020012085602001518051906020012014613f4557613f408560a00151614aab565b613f4b565b8460a001515b9050600185610120015160ff1603614265578460245f8a73ffffffffffffffffffffffffffffffffffffffff1673ffffffffffffffffffffffffffffffffffffffff1681526020019081526020015f205f820151815f019081613fae9190616cd3565b506020820151816001019081613fc49190616cd3565b506040820151816002015f6101000a81548160ff021916908360ff160217905550606082015181600301556080820151816004015560a0820151816005015560c0820151816006015560e0820151816007015f6101000a81548173ffffffffffffffffffffffffffffffffffffffff021916908373ffffffffffffffffffffffffffffffffffffffff1602179055506101008201518160070160146101000a81548162ffffff021916908362ffffff1602179055506101208201518160070160176101000a81548160ff021916908360ff1602179055506101408201518160070160186101000a81548160ff02191690831515021790555090505060025f9054906101000a900473ffffffffffffffffffffffffffffffffffffffff1673ffffffffffffffffffffffffffffffffffffffff16639e98b2626040518061018001604052803373ffffffffffffffffffffffffffffffffffffffff1681526020018b73ffffffffffffffffffffffffffffffffffffffff1681526020018c73ffffffffffffffffffffffffffffffffffffffff168152602001875f0151815260200184815260200187602001518152602001885f015160405160200161418991906172ff565b604051602081830303815290604052815260200188602001516040516020016141b2919061736a565b6040516020818303038152906040528152602001886040015160ff1681526020018560020b81526020016141e4611a8e565b5f015160ff16815260200188606001518152506141ff610fba565b6040518363ffffffff1660e01b815260040161421c929190617493565b6020604051808303815f875af1158015614238573d5f803e3d5ffd5b505050506040513d601f19601f8201168201806040525081019061425c91906162a2565b9250505061448b565b6143f16040518061012001604052808a73ffffffffffffffffffffffffffffffffffffffff1681526020013373ffffffffffffffffffffffffffffffffffffffff16815260200160015f9054906101000a900473ffffffffffffffffffffffffffffffffffffffff1673ffffffffffffffffffffffffffffffffffffffff1681526020018b73ffffffffffffffffffffffffffffffffffffffff1681526020018973ffffffffffffffffffffffffffffffffffffffff1681526020018573ffffffffffffffffffffffffffffffffffffffff1681526020018b73ffffffffffffffffffffffffffffffffffffffff16630dfe16816040518163ffffffff1660e01b8152600401602060405180830381865afa158015614386573d5f803e3d5ffd5b505050506040513d601f19601f820116820180604052508101906143aa91906162a2565b73ffffffffffffffffffffffffffffffffffffffff1681526020018873ffffffffffffffffffffffffffffffffffffffff1681526020016143e9611a8e565b815250614495565b61440c8560a00151866060015184614407611a8e565b61219b565b60015f9054906101000a900473ffffffffffffffffffffffffffffffffffffffff1673ffffffffffffffffffffffffffffffffffffffff16634bb278f36040518163ffffffff1660e01b81526004015f604051808303815f87803b158015614472575f80fd5b505af1158015614484573d5f803e3d5ffd5b5050505050505b9695505050505050565b5f815f015190508073ffffffffffffffffffffffffffffffffffffffff1663b2d4f6733084602001518560400151866060015187608001518860a001518960e001518a61010001516040518963ffffffff1660e01b81526004016145009897969594939291906174c2565b5f604051808303815f87803b158015614517575f80fd5b505af1158015614529573d5f803e3d5ffd5b505050505050565b5f61453c8383614b2c565b61458e57825f0182908060018154018082558091505060019003905f5260205f20015f9091909190915055825f0180549050836001015f8481526020019081526020015f208190555060019050614592565b5f90505b92915050565b5f61138861271083856127106145ae91906170b8565b6145b8919061753e565b6145c291906175a6565b136145d85781836145d3919061753e565b6145f1565b600182846145e6919061753e565b6145f091906175d6565b5b905092915050565b5f805f8360020b1261460e578260020b61461c565b8260020b61461b90617617565b5b90507ffffffffffffffffffffffffffffffffffffffffffffffffffffffffffff276186146489061765d565b60020b81111561468d576040517f08c379a0000000000000000000000000000000000000000000000000000000008152600401614684906176ed565b60405180910390fd5b5f8060018316036146af577001000000000000000000000000000000006146c1565b6ffffcb933bd6fad37aa2d162d1a5940015b70ffffffffffffffffffffffffffffffffff1690505f60028316146147035760806ffff97272373d413259a46990580e213a826146fe91906163e6565b901c90505b5f60048316146147305760806ffff2e50f5f656932ef12357cf3c7fdcc8261472b91906163e6565b901c90505b5f600883161461475d5760806fffe5caca7e10e4e61c3624eaa0941cd08261475891906163e6565b901c90505b5f601083161461478a5760806fffcb9843d60f6159c9db58835c9266448261478591906163e6565b901c90505b5f60208316146147b75760806fff973b41fa98c081472e6896dfb254c0826147b291906163e6565b901c90505b5f60408316146147e45760806fff2ea16466c96a3843ec78b326b52861826147df91906163e6565b901c90505b5f60808316146148115760806ffe5dee046a99a2a811c461f1969c30538261480c91906163e6565b901c90505b5f61010083161461483f5760806ffcbe86c7900a88aedcffc83b479aa3a48261483a91906163e6565b901c90505b5f61020083161461486d5760806ff987a7253ac413176f2b074cf7815e548261486891906163e6565b901c90505b5f61040083161461489b5760806ff3392b0822b70005940c7a398e4b70f38261489691906163e6565b901c90505b5f6108008316146148c95760806fe7159475a2c29b7443b29c7fa6e889d9826148c491906163e6565b901c90505b5f6110008316146148f75760806fd097f3bdfd2022b8845ad8f792aa5825826148f291906163e6565b901c90505b5f6120008316146149255760806fa9f746462d870fdf8a65dc1f90e061e58261492091906163e6565b901c90505b5f6140008316146149535760806f70d869a156d2a1b890bb3df62baf32f78261494e91906163e6565b901c90505b5f6180008316146149815760806f31be135f97d08fd981231505542fcfa68261497c91906163e6565b901c90505b5f620100008316146149b05760806f09aa508b5b7a84e1c677de54f3e99bc9826149ab91906163e6565b901c90505b5f620200008316146149de5760806e5d6af8dedb81196699c329225ee604826149d991906163e6565b901c90505b5f62040000831614614a0b5760806d2216e584f5fa1ea926041bedfe9882614a0691906163e6565b901c90505b5f62080000831614614a365760806b048a170391f7dc42444e8fa282614a3191906163e6565b901c90505b5f8460020b1315614a7057807fffffffffffffffffffffffffffffffffffffffffffffffffffffffffffffffff614a6d9190616454565b90505b5f64010000000082614a82919061770b565b14614a8e576001614a90565b5f5b60ff16602082901c614aa29190616da2565b92505050919050565b5f80614ab5611a8e565b6101c0015103614af1576040517fe523909000000000000000000000000000000000000000000000000000000000815260040160405180910390fd5b5f6064614afc611a8e565b6101c0015184614b0c91906163e6565b614b169190616454565b83614b219190616da2565b905080915050919050565b5f80836001015f8481526020019081526020015f20541415905092915050565b60405180610120016040528060608152602001606081526020015f60ff1681526020015f73ffffffffffffffffffffffffffffffffffffffff1681526020015f73ffffffffffffffffffffffffffffffffffffffff1681526020015f73ffffffffffffffffffffffffffffffffffffffff1681526020015f73ffffffffffffffffffffffffffffffffffffffff1681526020015f73ffffffffffffffffffffffffffffffffffffffff1681526020015f73ffffffffffffffffffffffffffffffffffffffff1681525090565b826002600f01601090048101928215614ca3579160200282015f5b83821115614c7357835183826101000a81548161ffff021916908361ffff1602179055509260200192600201602081600101049283019260010302614c33565b8015614ca15782816101000a81549061ffff0219169055600201602081600101049283019260010302614c73565b505b509050614cb09190614ec4565b5090565b6040518061010001604052805f81526020015f81526020015f81526020015f81526020015f81526020015f81526020015f81526020015f81525090565b508054614cfd90615e5d565b5f825580601f10614d0e5750614d2b565b601f0160209004905f5260205f2090810190614d2a9190614ec4565b5b50565b604051806101600160405280614d42614edf565b8152602001614d4f614ef7565b81526020015f73ffffffffffffffffffffffffffffffffffffffff1681526020015f73ffffffffffffffffffffffffffffffffffffffff1681526020015f60020b81526020015f73ffffffffffffffffffffffffffffffffffffffff1681526020015f73ffffffffffffffffffffffffffffffffffffffff1681526020015f73ffffffffffffffffffffffffffffffffffffffff1681526020015f73ffffffffffffffffffffffffffffffffffffffff1681526020015f73ffffffffffffffffffffffffffffffffffffffff1681526020015f73ffffffffffffffffffffffffffffffffffffffff1681525090565b6040518061020001604052805f60ff1681526020015f60ff1681526020015f60ff168152602001614e6d614f6b565b81526020015f81526020015f81526020015f60020b81526020015f60020b81526020015f60020b81526020015f81526020015f81526020015f81526020015f81526020015f81526020015f81526020015f81525090565b5b80821115614edb575f815f905550600101614ec5565b5090565b60405180604001604052805f81526020015f81525090565b60405180610160016040528060608152602001606081526020015f60ff1681526020015f81526020015f81526020015f81526020015f81526020015f73ffffffffffffffffffffffffffffffffffffffff1681526020015f62ffffff1681526020015f60ff1681526020015f151581525090565b6040518060400160405280600290602082028036833780820191505090505090565b5f604051905090565b5f80fd5b5f80fd5b5f73ffffffffffffffffffffffffffffffffffffffff82169050919050565b5f614fc782614f9e565b9050919050565b614fd781614fbd565b8114614fe1575f80fd5b50565b5f81359050614ff281614fce565b92915050565b5f6020828403121561500d5761500c614f96565b5b5f61501a84828501614fe4565b91505092915050565b5f81519050919050565b5f82825260208201905092915050565b5f5b8381101561505a57808201518184015260208101905061503f565b5f8484015250505050565b5f601f19601f8301169050919050565b5f61507f82615023565b615089818561502d565b935061509981856020860161503d565b6150a281615065565b840191505092915050565b5f60ff82169050919050565b6150c2816150ad565b82525050565b6150d181614fbd565b82525050565b5f61012083015f8301518482035f8601526150f28282615075565b9150506020830151848203602086015261510c8282615075565b915050604083015161512160408601826150b9565b50606083015161513460608601826150c8565b50608083015161514760808601826150c8565b5060a083015161515a60a08601826150c8565b5060c083015161516d60c08601826150c8565b5060e083015161518060e08601826150c8565b506101008301516151956101008601826150c8565b508091505092915050565b5f6020820190508181035f8301526151b881846150d7565b905092915050565b5f819050919050565b6151d2816151c0565b82525050565b5f6020820190506151eb5f8301846151c9565b92915050565b5f80fd5b7f4e487b71000000000000000000000000000000000000000000000000000000005f52604160045260245ffd5b61522b82615065565b810181811067ffffffffffffffff8211171561524a576152496151f5565b5b80604052505050565b5f61525c614f8d565b90506152688282615222565b919050565b5f80fd5b61527a816150ad565b8114615284575f80fd5b50565b5f8135905061529581615271565b92915050565b5f80fd5b5f67ffffffffffffffff8211156152b9576152b86151f5565b5b602082029050919050565b5f80fd5b5f61ffff82169050919050565b6152de816152c8565b81146152e8575f80fd5b50565b5f813590506152f9816152d5565b92915050565b5f61531161530c8461529f565b615253565b9050806020840283018581111561532b5761532a6152c4565b5b835b81811015615354578061534088826152eb565b84526020840193505060208101905061532d565b5050509392505050565b5f82601f8301126153725761537161529b565b5b600261537f8482856152ff565b91505092915050565b615391816151c0565b811461539b575f80fd5b50565b5f813590506153ac81615388565b92915050565b5f8160020b9050919050565b6153c7816153b2565b81146153d1575f80fd5b50565b5f813590506153e2816153be565b92915050565b5f61022082840312156153fe576153fd6151f1565b5b615409610200615253565b90505f61541884828501615287565b5f83015250602061542b84828501615287565b602083015250604061543f84828501615287565b60408301525060606154538482850161535e565b60608301525060a06154678482850161539e565b60808301525060c061547b8482850161539e565b60a08301525060e061548f848285016153d4565b60c0830152506101006154a4848285016153d4565b60e0830152506101206154b9848285016153d4565b610100830152506101406154cf8482850161539e565b610120830152506101606154e58482850161539e565b610140830152506101806154fb8482850161539e565b610160830152506101a06155118482850161539e565b610180830152506101c06155278482850161539e565b6101a0830152506101e061553d8482850161539e565b6101c0830152506102006155538482850161539e565b6101e08301525092915050565b5f610220828403121561557657615575614f96565b5b5f615583848285016153e8565b91505092915050565b5f80604083850312156155a2576155a1614f96565b5b5f6155af85828601614fe4565b92505060206155c08582860161539e565b9150509250929050565b5f8115159050919050565b6155de816155ca565b81146155e8575f80fd5b50565b5f813590506155f9816155d5565b92915050565b5f6020828403121561561457615613614f96565b5b5f615621848285016155eb565b91505092915050565b5f80604083850312156156405761563f614f96565b5b5f61564d85828601614fe4565b925050602061565e85828601614fe4565b9150509250929050565b5f81519050919050565b5f82825260208201905092915050565b5f819050602082019050919050565b5f61569c83836150c8565b60208301905092915050565b5f602082019050919050565b5f6156be82615668565b6156c88185615672565b93506156d383615682565b805f5b838110156157035781516156ea8882615691565b97506156f5836156a8565b9250506001810190506156d6565b5085935050505092915050565b5f6020820190508181035f83015261572881846156b4565b905092915050565b615739816151c0565b82525050565b61010082015f8201516157545f850182615730565b5060208201516157676020850182615730565b50604082015161577a6040850182615730565b50606082015161578d6060850182615730565b5060808201516157a06080850182615730565b5060a08201516157b360a0850182615730565b5060c08201516157c660c0850182615730565b5060e08201516157d960e0850182615730565b50505050565b5f610100820190506157f35f83018461573f565b92915050565b61580281614fbd565b82525050565b5f60208201905061581b5f8301846157f9565b92915050565b5f60408284031215615836576158356151f1565b5b6158406040615253565b90505f61584f8482850161539e565b5f8301525060206158628482850161539e565b60208301525092915050565b5f80fd5b5f67ffffffffffffffff82111561588c5761588b6151f5565b5b61589582615065565b9050602081019050919050565b828183375f83830152505050565b5f6158c26158bd84615872565b615253565b9050828152602081018484840111156158de576158dd61586e565b5b6158e98482856158a2565b509392505050565b5f82601f8301126159055761590461529b565b5b81356159158482602086016158b0565b91505092915050565b5f62ffffff82169050919050565b6159358161591e565b811461593f575f80fd5b50565b5f813590506159508161592c565b92915050565b5f610160828403121561596c5761596b6151f1565b5b615977610160615253565b90505f82013567ffffffffffffffff8111156159965761599561526d565b5b6159a2848285016158f1565b5f83015250602082013567ffffffffffffffff8111156159c5576159c461526d565b5b6159d1848285016158f1565b60208301525060406159e584828501615287565b60408301525060606159f98482850161539e565b6060830152506080615a0d8482850161539e565b60808301525060a0615a218482850161539e565b60a08301525060c0615a358482850161539e565b60c08301525060e0615a4984828501614fe4565b60e083015250610100615a5e84828501615942565b61010083015250610120615a7484828501615287565b61012083015250610140615a8a848285016155eb565b6101408301525092915050565b5f8060608385031215615aad57615aac614f96565b5b5f615aba85828601615821565b925050604083013567ffffffffffffffff811115615adb57615ada614f9a565b5b615ae785828601615956565b9150509250929050565b5f606082019050615b045f8301866157f9565b615b1160208301856157f9565b615b1e60408301846157f9565b949350505050565b5f60029050919050565b5f81905092915050565b5f819050919050565b615b4c816152c8565b82525050565b5f615b5d8383615b43565b60208301905092915050565b5f602082019050919050565b615b7e81615b26565b615b888184615b30565b9250615b9382615b3a565b805f5b83811015615bc3578151615baa8782615b52565b9650615bb583615b69565b925050600181019050615b96565b505050505050565b615bd4816153b2565b82525050565b61022082015f820151615bef5f8501826150b9565b506020820151615c0260208501826150b9565b506040820151615c1560408501826150b9565b506060820151615c286060850182615b75565b506080820151615c3b60a0850182615730565b5060a0820151615c4e60c0850182615730565b5060c0820151615c6160e0850182615bcb565b5060e0820151615c75610100850182615bcb565b50610100820151615c8a610120850182615bcb565b50610120820151615c9f610140850182615730565b50610140820151615cb4610160850182615730565b50610160820151615cc9610180850182615730565b50610180820151615cde6101a0850182615730565b506101a0820151615cf36101c0850182615730565b506101c0820151615d086101e0850182615730565b506101e0820151615d1d610200850182615730565b50505050565b5f61022082019050615d375f830184615bda565b92915050565b5f6101008284031215615d5357615d526151f1565b5b615d5e610100615253565b90505f615d6d8482850161539e565b5f830152506020615d808482850161539e565b6020830152506040615d948482850161539e565b6040830152506060615da88482850161539e565b6060830152506080615dbc8482850161539e565b60808301525060a0615dd08482850161539e565b60a08301525060c0615de48482850161539e565b60c08301525060e0615df88482850161539e565b60e08301525092915050565b5f6101008284031215615e1a57615e19614f96565b5b5f615e2784828501615d3d565b91505092915050565b7f4e487b71000000000000000000000000000000000000000000000000000000005f52602260045260245ffd5b5f6002820490506001821680615e7457607f821691505b602082108103615e8757615e86615e30565b5b50919050565b5f604082019050615ea05f8301856157f9565b615ead60208301846151c9565b9392505050565b5f81519050919050565b5f82825260208201905092915050565b5f615ed882615eb4565b615ee28185615ebe565b9350615ef281856020860161503d565b615efb81615065565b840191505092915050565b5f604082019050615f195f8301856157f9565b8181036020830152615f2b8184615ece565b90509392505050565b7f4e487b71000000000000000000000000000000000000000000000000000000005f52603260045260245ffd5b5f81905092915050565b5f615f7582615023565b615f7f8185615f61565b9350615f8f81856020860161503d565b80840191505092915050565b5f615fa68285615f6b565b9150615fb28284615f6b565b91508190509392505050565b615fc78161591e565b82525050565b615fd6816155ca565b82525050565b5f61016083015f8301518482035f860152615ff78282615075565b915050602083015184820360208601526160118282615075565b915050604083015161602660408601826150b9565b5060608301516160396060860182615730565b50608083015161604c6080860182615730565b5060a083015161605f60a0860182615730565b5060c083015161607260c0860182615730565b5060e083015161608560e08601826150c8565b5061010083015161609a610100860182615fbe565b506101208301516160af6101208601826150b9565b506101408301516160c4610140860182615fcd565b508091505092915050565b5f6020820190508181035f8301526160e78184615fdc565b905092915050565b5f6160f982614fbd565b9050919050565b616109816160ef565b8114616113575f80fd5b50565b5f8151905061612481616100565b92915050565b5f61613482614f9e565b9050919050565b5f6161458261612a565b9050919050565b6161558161613b565b811461615f575f80fd5b50565b5f815190506161708161614c565b92915050565b5f819050919050565b61618881616176565b8114616192575f80fd5b50565b5f815190506161a38161617f565b92915050565b5f805f606084860312156161c0576161bf614f96565b5b5f6161cd86828701616116565b93505060206161de86828701616162565b92505060406161ef86828701616195565b9150509250925092565b61620281616176565b82525050565b5f82825260208201905092915050565b7f6e6f206d6f64656c48656c7065720000000000000000000000000000000000005f82015250565b5f61624c600e83616208565b915061625782616218565b602082019050919050565b5f6040820190506162755f8301846161f9565b818103602083015261628681616240565b905092915050565b5f8151905061629c81614fce565b92915050565b5f602082840312156162b7576162b6614f96565b5b5f6162c48482850161628e565b91505092915050565b7f6e6f20546f6b656e466163746f727900000000000000000000000000000000005f82015250565b5f616301600f83616208565b915061630c826162cd565b602082019050919050565b5f60408201905061632a5f8301846161f9565b818103602083015261633b816162f5565b905092915050565b7f6e6f204164617074697665537570706c790000000000000000000000000000005f82015250565b5f616377601183616208565b915061638282616343565b602082019050919050565b5f6040820190506163a05f8301846161f9565b81810360208301526163b18161636b565b905092915050565b7f4e487b71000000000000000000000000000000000000000000000000000000005f52601160045260245ffd5b5f6163f0826151c0565b91506163fb836151c0565b9250828202616409816151c0565b915082820484148315176164205761641f6163b9565b5b5092915050565b7f4e487b71000000000000000000000000000000000000000000000000000000005f52601260045260245ffd5b5f61645e826151c0565b9150616469836151c0565b92508261647957616478616427565b5b828204905092915050565b61648d816153b2565b82525050565b5f6060820190506164a65f8301866151c9565b6164b360208301856151c9565b6164c06040830184616484565b949350505050565b5f819050919050565b5f6164eb6164e66164e1846152c8565b6164c8565b6151c0565b9050919050565b6164fb816164d1565b82525050565b5f6060820190506165145f8301866164f2565b61652160208301856164f2565b61652e60408301846151c9565b949350505050565b61653f816155ca565b82525050565b5f6040820190506165585f8301856151c9565b6165656020830184616536565b9392505050565b5f8151905061657a816153be565b92915050565b5f6fffffffffffffffffffffffffffffffff82169050919050565b6165a481616580565b81146165ae575f80fd5b50565b5f815190506165bf8161659b565b92915050565b5f815190506165d381615388565b92915050565b5f60a082840312156165ee576165ed6151f1565b5b6165f860a0615253565b90505f6166078482850161656c565b5f83015250602061661a8482850161656c565b602083015250604061662e848285016165b1565b6040830152506060616642848285016165c5565b60608301525060806166568482850161656c565b60808301525092915050565b6003811061666e575f80fd5b50565b5f8151905061667f81616662565b92915050565b5f8060c0838503121561669b5761669a614f96565b5b5f6166a8858286016165d9565b92505060a06166b985828601616671565b9150509250929050565b5f6166d56166d084615872565b615253565b9050828152602081018484840111156166f1576166f061586e565b5b6166fc84828561503d565b509392505050565b5f82601f8301126167185761671761529b565b5b81516167288482602086016166c3565b91505092915050565b5f6020828403121561674657616745614f96565b5b5f82015167ffffffffffffffff81111561676357616762614f9a565b5b61676f84828501616704565b91505092915050565b7f6e6f742061207265736572766520746f6b656e000000000000000000000000005f82015250565b5f6167ac601383616208565b91506167b782616778565b602082019050919050565b5f6040820190506167d55f8301846161f9565b81810360208301526167e6816167a0565b905092915050565b6167f78161591e565b82525050565b5f6060820190506168105f8301866157f9565b61681d60208301856157f9565b61682a60408301846167ee565b949350505050565b5f8151905061684081615271565b92915050565b5f6020828403121561685b5761685a614f96565b5b5f61686884828501616832565b91505092915050565b61687a81614f9e565b82525050565b5f6020820190506168935f830184616871565b92915050565b7f6e6f20457463685661756c7400000000000000000000000000000000000000005f82015250565b5f6168cd600c83616208565b91506168d882616899565b602082019050919050565b5f6040820190506168f65f8301846161f9565b8181036020830152616907816168c1565b905092915050565b5f806040838503121561692557616924614f96565b5b5f6169328582860161628e565b92505060206169438582860161628e565b9150509250929050565b5f61695782615023565b6169618185616208565b935061697181856020860161503d565b61697a81615065565b840191505092915050565b5f60a0820190508181035f83015261699d818861694d565b905081810360208301526169b1818761694d565b90506169c060408301866157f9565b6169cd60608301856157f9565b6169da60808301846157f9565b9695505050505050565b5f805f606084860312156169fb576169fa614f96565b5b5f616a088682870161628e565b9350506020616a198682870161628e565b9250506040616a2a8682870161628e565b9150509250925092565b5f604082019050616a475f8301856157f9565b616a5460208301846157f9565b9392505050565b5f608082019050616a6e5f8301876157f9565b616a7b60208301866157f9565b616a8860408301856157f9565b616a9560608301846157f9565b95945050505050565b7f6e6f207661756c745570677261646546696e616c697a650000000000000000005f82015250565b5f616ad2601783616208565b9150616add82616a9e565b602082019050919050565b5f604082019050616afb5f8301846161f9565b8181036020830152616b0c81616ac6565b905092915050565b5f60208284031215616b2957616b28614f96565b5b5f616b36848285016165c5565b91505092915050565b5f819050815f5260205f209050919050565b5f6020601f8301049050919050565b5f82821b905092915050565b5f60088302616b9b7fffffffffffffffffffffffffffffffffffffffffffffffffffffffffffffffff82616b60565b616ba58683616b60565b95508019841693508086168417925050509392505050565b5f616bd7616bd2616bcd846151c0565b6164c8565b6151c0565b9050919050565b5f819050919050565b616bf083616bbd565b616c04616bfc82616bde565b848454616b6c565b825550505050565b5f90565b616c18616c0c565b616c23818484616be7565b505050565b5b81811015616c4657616c3b5f82616c10565b600181019050616c29565b5050565b601f821115616c8b57616c5c81616b3f565b616c6584616b51565b81016020851015616c74578190505b616c88616c8085616b51565b830182616c28565b50505b505050565b5f82821c905092915050565b5f616cab5f1984600802616c90565b1980831691505092915050565b5f616cc38383616c9c565b9150826002028217905092915050565b616cdc82615023565b67ffffffffffffffff811115616cf557616cf46151f5565b5b616cff8254615e5d565b616d0a828285616c4a565b5f60209050601f831160018114616d3b575f8415616d29578287015190505b616d338582616cb8565b865550616d9a565b601f198416616d4986616b3f565b5f5b82811015616d7057848901518255600182019150602085019450602081019050616d4b565b86831015616d8d5784890151616d89601f891682616c9c565b8355505b6001600288020188555050505b505050505050565b5f616dac826151c0565b9150616db7836151c0565b9250828201905080821115616dcf57616dce6163b9565b5b92915050565b5f616ddf826151c0565b9150616dea836151c0565b9250828203905081811115616e0257616e016163b9565b5b92915050565b5f81519050919050565b5f82825260208201905092915050565b5f819050602082019050919050565b616e3a81616176565b82525050565b5f616e4b8383616e31565b60208301905092915050565b5f602082019050919050565b5f616e6d82616e08565b616e778185616e12565b9350616e8283616e22565b805f5b83811015616eb2578151616e998882616e40565b9750616ea483616e57565b925050600181019050616e85565b5085935050505092915050565b5f606082019050616ed25f8301866157f9565b8181036020830152616ee48185616e63565b90508181036040830152616ef881846156b4565b9050949350505050565b5f616f0c826150ad565b9150616f17836150ad565b9250828203905060ff811115616f3057616f2f6163b9565b5b92915050565b5f8160011c9050919050565b5f808291508390505b6001851115616f8b57808604811115616f6757616f666163b9565b5b6001851615616f765780820291505b8081029050616f8485616f36565b9450616f4b565b94509492505050565b5f82616fa3576001905061705e565b81616fb0575f905061705e565b8160018114616fc65760028114616fd057616fff565b600191505061705e565b60ff841115616fe257616fe16163b9565b5b8360020a915084821115616ff957616ff86163b9565b5b5061705e565b5060208310610133831016604e8410600b84101617156170345782820a90508381111561702f5761702e6163b9565b5b61705e565b6170418484846001616f42565b92509050818404811115617058576170576163b9565b5b81810290505b9392505050565b5f61706f826151c0565b915061707a836150ad565b92506170a77fffffffffffffffffffffffffffffffffffffffffffffffffffffffffffffffff8484616f94565b905092915050565b5f819050919050565b5f6170c2826170af565b91506170cd836170af565b92508282026170db816170af565b91507f800000000000000000000000000000000000000000000000000000000000000084145f84121615617112576171116163b9565b5b8282058414831517617127576171266163b9565b5b5092915050565b617137816170af565b82525050565b5f819050919050565b5f61716061715b6171568461713d565b6164c8565b6170af565b9050919050565b61717081617146565b82525050565b5f819050919050565b5f61719961719461718f84617176565b6164c8565b6170af565b9050919050565b6171a98161717f565b82525050565b5f6060820190506171c25f83018661712e565b6171cf6020830185617167565b6171dc60408301846171a0565b949350505050565b6171ed816170af565b81146171f7575f80fd5b50565b5f81519050617208816171e4565b92915050565b5f6020828403121561722357617222614f96565b5b5f617230848285016171fa565b91505092915050565b5f617243826170af565b915061724e836170af565b925082820390508181125f8412168282135f851215161715617273576172726163b9565b5b92915050565b5f617283826153b2565b915061728e836153b2565b925082820261729c816153b2565b91508082146172ae576172ad6163b9565b5b5092915050565b7f20507265204173736574000000000000000000000000000000000000000000005f82015250565b5f6172e9600a83615f61565b91506172f4826172b5565b600a82019050919050565b5f61730a8284615f6b565b9150617315826172dd565b915081905092915050565b7f702d0000000000000000000000000000000000000000000000000000000000005f82015250565b5f617354600283615f61565b915061735f82617320565b600282019050919050565b5f61737482617348565b91506173808284615f6b565b915081905092915050565b5f61018083015f8301516173a15f8601826150c8565b5060208301516173b460208601826150c8565b5060408301516173c760408601826150c8565b5060608301516173da6060860182615730565b5060808301516173ed6080860182615730565b5060a083015161740060a0860182615730565b5060c083015184820360c08601526174188282615075565b91505060e083015184820360e08601526174328282615075565b9150506101008301516174496101008601826150b9565b5061012083015161745e610120860182615bcb565b50610140830151617473610140860182615730565b50610160830151617488610160860182615730565b508091505092915050565b5f610120820190508181035f8301526174ac818561738b565b90506174bb602083018461573f565b9392505050565b5f610300820190506174d65f83018b6157f9565b6174e3602083018a6157f9565b6174f060408301896157f9565b6174fd60608301886157f9565b61750a60808301876157f9565b61751760a08301866157f9565b61752460c08301856157f9565b61753160e0830184615bda565b9998505050505050505050565b5f617548826170af565b9150617553836170af565b92508261756357617562616427565b5b60015f0383147f80000000000000000000000000000000000000000000000000000000000000008314161561759b5761759a6163b9565b5b828205905092915050565b5f6175b0826170af565b91506175bb836170af565b9250826175cb576175ca616427565b5b828207905092915050565b5f6175e0826170af565b91506175eb836170af565b92508282019050828112155f8312168382125f841215161715617611576176106163b9565b5b92915050565b5f617621826170af565b91507f80000000000000000000000000000000000000000000000000000000000000008203617653576176526163b9565b5b815f039050919050565b5f617667826153b2565b91507fffffffffffffffffffffffffffffffffffffffffffffffffffffffffff8000008203617699576176986163b9565b5b815f039050919050565b7f54000000000000000000000000000000000000000000000000000000000000005f82015250565b5f6176d7600183616208565b91506176e2826176a3565b602082019050919050565b5f6020820190508181035f830152617704816176cb565b9050919050565b5f617715826151c0565b9150617720836151c0565b9250826177305761772f616427565b5b82820690509291505056fea26469706673582212206525a6c3128f8dca7756aaafd607a8dffaf9e1f9a9db90085d17347165b2e02864736f6c63430008170033","linkReferences":{"src/libraries/Logarithm.sol":{"Logarithm":[{"start":16972,"length":20}]}}},"methodIdentifiers":{"adaptiveSupply()":"ef5ddb31","burnFor(address,uint256)":"1dd319cb","deferredDeploy(address)":"7d19a2cb","deployVault((uint256,uint256),(string,string,uint8,uint256,uint256,uint256,uint256,address,uint24,uint8,bool))":"86d20da4","getDeployers()":"607c12b5","getPresaleProtocolParams()":"615de71f","getProtocolParameters()":"c58aad87","getVaultDescription(address)":"0337c57a","getVaults(address)":"fe7c9c92","mintTokens(address,uint256)":"f0dda65c","modelHelper()":"a3e44b33","numDeployers()":"098eddb1","numVaults(address)":"f9c7bba5","owner()":"8da5cb5b","setMultiSigAddress(address)":"077f2cfc","setPermissionlessDeploy(bool)":"397ae005","setPresaleProtocolParams((uint256,uint256,uint256,uint256,uint256,uint256,uint256,uint256))":"ee4a3e37","setProtocolParameters((uint8,uint8,uint8,uint16[2],uint256,uint256,int24,int24,int24,uint256,uint256,uint256,uint256,uint256,uint256,uint256))":"19b10ac3","teamMultiSig()":"854567f1","tokenFactory()":"e77772fe","upgradeToken(address,address)":"55b8ce0a"},"id":93}