{"abi":[{"type":"constructor","inputs":[{"name":"_factory","type":"address","internalType":"address"},{"name":"params","type":"tuple","internalType":"struct PresaleDeployParams","components":[{"name":"deployer","type":"address","internalType":"address"},{"name":"vaultAddress","type":"address","internalType":"address"},{"name":"pool","type":"address","internalType":"address"},{"name":"softCap","type":"uint256","internalType":"uint256"},{"name":"initialPrice","type":"uint256","internalType":"uint256"},{"name":"deadline","type":"uint256","internalType":"uint256"},{"name":"name","type":"string","internalType":"string"},{"name":"symbol","type":"string","internalType":"string"},{"name":"decimals","type":"uint8","internalType":"uint8"},{"name":"tickSpacing","type":"int24","internalType":"int24"},{"name":"floorPercentage","type":"uint256","internalType":"uint256"},{"name":"totalSupply","type":"uint256","internalType":"uint256"}]},{"name":"_protocolParams","type":"tuple","internalType":"struct PresaleProtocolParams","components":[{"name":"maxSoftCap","type":"uint256","internalType":"uint256"},{"name":"minContributionRatio","type":"uint256","internalType":"uint256"},{"name":"maxContributionRatio","type":"uint256","internalType":"uint256"},{"name":"presalePercentage","type":"uint256","internalType":"uint256"},{"name":"minDuration","type":"uint256","internalType":"uint256"},{"name":"maxDuration","type":"uint256","internalType":"uint256"},{"name":"referralPercentage","type":"uint256","internalType":"uint256"},{"name":"teamFee","type":"uint256","internalType":"uint256"}]}],"stateMutability":"nonpayable"},{"type":"function","name":"MAX_CONTRIBUTION","inputs":[],"outputs":[{"name":"","type":"uint256","internalType":"uint256"}],"stateMutability":"view"},{"type":"function","name":"MIN_CONTRIBUTION","inputs":[],"outputs":[{"name":"","type":"uint256","internalType":"uint256"}],"stateMutability":"view"},{"type":"function","name":"allowance","inputs":[{"name":"owner","type":"address","internalType":"address"},{"name":"spender","type":"address","internalType":"address"}],"outputs":[{"name":"","type":"uint256","internalType":"uint256"}],"stateMutability":"view"},{"type":"function","name":"approve","inputs":[{"name":"spender","type":"address","internalType":"address"},{"name":"value","type":"uint256","internalType":"uint256"}],"outputs":[{"name":"","type":"bool","internalType":"bool"}],"stateMutability":"nonpayable"},{"type":"function","name":"balanceOf","inputs":[{"name":"account","type":"address","internalType":"address"}],"outputs":[{"name":"","type":"uint256","internalType":"uint256"}],"stateMutability":"view"},{"type":"function","name":"canFinalize","inputs":[],"outputs":[{"name":"allowed","type":"bool","internalType":"bool"},{"name":"ownerOnly","type":"bool","internalType":"bool"}],"stateMutability":"view"},{"type":"function","name":"claimReferralRewards","inputs":[],"outputs":[],"stateMutability":"nonpayable"},{"type":"function","name":"claimableReferralRewards","inputs":[{"name":"user","type":"address","internalType":"address"}],"outputs":[{"name":"","type":"uint256","internalType":"uint256"}],"stateMutability":"view"},{"type":"function","name":"contributions","inputs":[{"name":"","type":"address","internalType":"address"}],"outputs":[{"name":"","type":"uint256","internalType":"uint256"}],"stateMutability":"view"},{"type":"function","name":"contributors","inputs":[{"name":"","type":"uint256","internalType":"uint256"}],"outputs":[{"name":"","type":"address","internalType":"address"}],"stateMutability":"view"},{"type":"function","name":"deadline","inputs":[],"outputs":[{"name":"","type":"uint256","internalType":"uint256"}],"stateMutability":"view"},{"type":"function","name":"decimals","inputs":[],"outputs":[{"name":"","type":"uint8","internalType":"uint8"}],"stateMutability":"view"},{"type":"function","name":"deployer","inputs":[],"outputs":[{"name":"","type":"address","internalType":"address"}],"stateMutability":"view"},{"type":"function","name":"deposit","inputs":[{"name":"referralCode","type":"bytes8","internalType":"bytes8"}],"outputs":[],"stateMutability":"payable"},{"type":"function","name":"emergencyWithdrawal","inputs":[],"outputs":[],"stateMutability":"nonpayable"},{"type":"function","name":"emergencyWithdrawalFlag","inputs":[],"outputs":[{"name":"","type":"bool","internalType":"bool"}],"stateMutability":"view"},{"type":"function","name":"factory","inputs":[],"outputs":[{"name":"","type":"address","internalType":"address"}],"stateMutability":"view"},{"type":"function","name":"finalize","inputs":[],"outputs":[],"stateMutability":"nonpayable"},{"type":"function","name":"finalized","inputs":[],"outputs":[{"name":"","type":"bool","internalType":"bool"}],"stateMutability":"view"},{"type":"function","name":"floorPercentage","inputs":[],"outputs":[{"name":"","type":"uint256","internalType":"uint256"}],"stateMutability":"view"},{"type":"function","name":"getCurrentTimestamp","inputs":[],"outputs":[{"name":"","type":"uint256","internalType":"uint256"}],"stateMutability":"view"},{"type":"function","name":"getParticipantCount","inputs":[],"outputs":[{"name":"","type":"uint256","internalType":"uint256"}],"stateMutability":"view"},{"type":"function","name":"getPresaleParams","inputs":[],"outputs":[{"name":"","type":"tuple","internalType":"struct LivePresaleParams","components":[{"name":"softCap","type":"uint256","internalType":"uint256"},{"name":"hardCap","type":"uint256","internalType":"uint256"},{"name":"initialPrice","type":"uint256","internalType":"uint256"},{"name":"deadline","type":"uint256","internalType":"uint256"},{"name":"launchSupply","type":"uint256","internalType":"uint256"},{"name":"deployer","type":"address","internalType":"address"}]}],"stateMutability":"view"},{"type":"function","name":"getReferralUserCount","inputs":[{"name":"referralCode","type":"bytes8","internalType":"bytes8"}],"outputs":[{"name":"","type":"uint256","internalType":"uint256"}],"stateMutability":"view"},{"type":"function","name":"getTimeLeft","inputs":[],"outputs":[{"name":"","type":"uint256","internalType":"uint256"}],"stateMutability":"view"},{"type":"function","name":"getTotalReferredByCode","inputs":[{"name":"referralCode","type":"bytes8","internalType":"bytes8"}],"outputs":[{"name":"","type":"uint256","internalType":"uint256"}],"stateMutability":"view"},{"type":"function","name":"hardCap","inputs":[],"outputs":[{"name":"","type":"uint256","internalType":"uint256"}],"stateMutability":"view"},{"type":"function","name":"hasExpired","inputs":[],"outputs":[{"name":"","type":"bool","internalType":"bool"}],"stateMutability":"view"},{"type":"function","name":"initialPrice","inputs":[],"outputs":[{"name":"","type":"uint256","internalType":"uint256"}],"stateMutability":"view"},{"type":"function","name":"isContributor","inputs":[{"name":"","type":"address","internalType":"address"}],"outputs":[{"name":"","type":"bool","internalType":"bool"}],"stateMutability":"view"},{"type":"function","name":"launchSupply","inputs":[],"outputs":[{"name":"","type":"uint256","internalType":"uint256"}],"stateMutability":"view"},{"type":"function","name":"migrationContract","inputs":[],"outputs":[{"name":"","type":"address","internalType":"address"}],"stateMutability":"view"},{"type":"function","name":"name","inputs":[],"outputs":[{"name":"","type":"string","internalType":"string"}],"stateMutability":"view"},{"type":"function","name":"owner","inputs":[],"outputs":[{"name":"","type":"address","internalType":"address"}],"stateMutability":"view"},{"type":"function","name":"pancakeV3SwapCallback","inputs":[{"name":"amount0Delta","type":"int256","internalType":"int256"},{"name":"amount1Delta","type":"int256","internalType":"int256"},{"name":"data","type":"bytes","internalType":"bytes"}],"outputs":[],"stateMutability":"nonpayable"},{"type":"function","name":"pool","inputs":[],"outputs":[{"name":"","type":"address","internalType":"contract IUniswapV3Pool"}],"stateMutability":"view"},{"type":"function","name":"protocolParams","inputs":[],"outputs":[{"name":"maxSoftCap","type":"uint256","internalType":"uint256"},{"name":"minContributionRatio","type":"uint256","internalType":"uint256"},{"name":"maxContributionRatio","type":"uint256","internalType":"uint256"},{"name":"presalePercentage","type":"uint256","internalType":"uint256"},{"name":"minDuration","type":"uint256","internalType":"uint256"},{"name":"maxDuration","type":"uint256","internalType":"uint256"},{"name":"referralPercentage","type":"uint256","internalType":"uint256"},{"name":"teamFee","type":"uint256","internalType":"uint256"}],"stateMutability":"view"},{"type":"function","name":"referralEarnings","inputs":[{"name":"","type":"bytes8","internalType":"bytes8"}],"outputs":[{"name":"","type":"uint256","internalType":"uint256"}],"stateMutability":"view"},{"type":"function","name":"referralParticipants","inputs":[{"name":"","type":"bytes8","internalType":"bytes8"}],"outputs":[{"name":"","type":"uint256","internalType":"uint256"}],"stateMutability":"view"},{"type":"function","name":"referralPercentage","inputs":[],"outputs":[{"name":"","type":"uint256","internalType":"uint256"}],"stateMutability":"view"},{"type":"function","name":"renounceOwnership","inputs":[],"outputs":[],"stateMutability":"nonpayable"},{"type":"function","name":"setEmergencyWithdrawalFlag","inputs":[{"name":"flag","type":"bool","internalType":"bool"}],"outputs":[],"stateMutability":"nonpayable"},{"type":"function","name":"setMigrationContract","inputs":[{"name":"_migrationContract","type":"address","internalType":"address"}],"outputs":[],"stateMutability":"nonpayable"},{"type":"function","name":"softCap","inputs":[],"outputs":[{"name":"","type":"uint256","internalType":"uint256"}],"stateMutability":"view"},{"type":"function","name":"softCapReached","inputs":[],"outputs":[{"name":"","type":"bool","internalType":"bool"}],"stateMutability":"view"},{"type":"function","name":"symbol","inputs":[],"outputs":[{"name":"","type":"string","internalType":"string"}],"stateMutability":"view"},{"type":"function","name":"teamFeePct","inputs":[],"outputs":[{"name":"","type":"uint256","internalType":"uint256"}],"stateMutability":"view"},{"type":"function","name":"tickSpacing","inputs":[],"outputs":[{"name":"","type":"int24","internalType":"int24"}],"stateMutability":"view"},{"type":"function","name":"totalDeposited","inputs":[],"outputs":[{"name":"","type":"uint256","internalType":"uint256"}],"stateMutability":"view"},{"type":"function","name":"totalRaised","inputs":[],"outputs":[{"name":"","type":"uint256","internalType":"uint256"}],"stateMutability":"view"},{"type":"function","name":"totalSupply","inputs":[],"outputs":[{"name":"","type":"uint256","internalType":"uint256"}],"stateMutability":"view"},{"type":"function","name":"transfer","inputs":[{"name":"to","type":"address","internalType":"address"},{"name":"value","type":"uint256","internalType":"uint256"}],"outputs":[{"name":"","type":"bool","internalType":"bool"}],"stateMutability":"nonpayable"},{"type":"function","name":"transferFrom","inputs":[{"name":"from","type":"address","internalType":"address"},{"name":"to","type":"address","internalType":"address"},{"name":"value","type":"uint256","internalType":"uint256"}],"outputs":[{"name":"","type":"bool","internalType":"bool"}],"stateMutability":"nonpayable"},{"type":"function","name":"transferOwnership","inputs":[{"name":"newOwner","type":"address","internalType":"address"}],"outputs":[],"stateMutability":"nonpayable"},{"type":"function","name":"uniswapV3SwapCallback","inputs":[{"name":"amount0Delta","type":"int256","internalType":"int256"},{"name":"amount1Delta","type":"int256","internalType":"int256"},{"name":"data","type":"bytes","internalType":"bytes"}],"outputs":[],"stateMutability":"nonpayable"},{"type":"function","name":"vaultAddress","inputs":[],"outputs":[{"name":"","type":"address","internalType":"address"}],"stateMutability":"view"},{"type":"function","name":"withdraw","inputs":[],"outputs":[],"stateMutability":"nonpayable"},{"type":"function","name":"withdrawExcess","inputs":[],"outputs":[],"stateMutability":"nonpayable"},{"type":"event","name":"Approval","inputs":[{"name":"owner","type":"address","indexed":true,"internalType":"address"},{"name":"spender","type":"address","indexed":true,"internalType":"address"},{"name":"value","type":"uint256","indexed":false,"internalType":"uint256"}],"anonymous":false},{"type":"event","name":"Deposit","inputs":[{"name":"user","type":"address","indexed":true,"internalType":"address"},{"name":"amount","type":"uint256","indexed":false,"internalType":"uint256"},{"name":"referralCode","type":"bytes8","indexed":true,"internalType":"bytes8"}],"anonymous":false},{"type":"event","name":"Finalized","inputs":[{"name":"totalRaised","type":"uint256","indexed":false,"internalType":"uint256"},{"name":"feeTaken","type":"uint256","indexed":false,"internalType":"uint256"},{"name":"contributionAmount","type":"uint256","indexed":false,"internalType":"uint256"},{"name":"slippagePriceX96","type":"uint256","indexed":false,"internalType":"uint256"}],"anonymous":false},{"type":"event","name":"OwnershipTransferred","inputs":[{"name":"previousOwner","type":"address","indexed":true,"internalType":"address"},{"name":"newOwner","type":"address","indexed":true,"internalType":"address"}],"anonymous":false},{"type":"event","name":"ReferralPaid","inputs":[{"name":"referralCode","type":"bytes8","indexed":true,"internalType":"bytes8"},{"name":"amount","type":"uint256","indexed":false,"internalType":"uint256"}],"anonymous":false},{"type":"event","name":"TokenBurned","inputs":[{"name":"user","type":"address","indexed":true,"internalType":"address"},{"name":"amount","type":"uint256","indexed":false,"internalType":"uint256"}],"anonymous":false},{"type":"event","name":"TokensWithdrawn","inputs":[{"name":"user","type":"address","indexed":true,"internalType":"address"},{"name":"amount","type":"uint256","indexed":false,"internalType":"uint256"}],"anonymous":false},{"type":"event","name":"Transfer","inputs":[{"name":"from","type":"address","indexed":true,"internalType":"address"},{"name":"to","type":"address","indexed":true,"internalType":"address"},{"name":"value","type":"uint256","indexed":false,"internalType":"uint256"}],"anonymous":false},{"type":"error","name":"AlreadyFinalized","inputs":[]},{"type":"error","name":"CallbackCaller","inputs":[]},{"type":"error","name":"ERC20InsufficientAllowance","inputs":[{"name":"spender","type":"address","internalType":"address"},{"name":"allowance","type":"uint256","internalType":"uint256"},{"name":"needed","type":"uint256","internalType":"uint256"}]},{"type":"error","name":"ERC20InsufficientBalance","inputs":[{"name":"sender","type":"address","internalType":"address"},{"name":"balance","type":"uint256","internalType":"uint256"},{"name":"needed","type":"uint256","internalType":"uint256"}]},{"type":"error","name":"ERC20InvalidApprover","inputs":[{"name":"approver","type":"address","internalType":"address"}]},{"type":"error","name":"ERC20InvalidReceiver","inputs":[{"name":"receiver","type":"address","internalType":"address"}]},{"type":"error","name":"ERC20InvalidSender","inputs":[{"name":"sender","type":"address","internalType":"address"}]},{"type":"error","name":"ERC20InvalidSpender","inputs":[{"name":"spender","type":"address","internalType":"address"}]},{"type":"error","name":"EmergencyWithdrawalNotEnabled","inputs":[]},{"type":"error","name":"HardCapExceeded","inputs":[]},{"type":"error","name":"InvalidDecimals","inputs":[]},{"type":"error","name":"InvalidHardCap","inputs":[]},{"type":"error","name":"InvalidParameters","inputs":[]},{"type":"error","name":"InvalidSoftCap","inputs":[]},{"type":"error","name":"InvalidSwap","inputs":[]},{"type":"error","name":"NoContributionsToWithdraw","inputs":[]},{"type":"error","name":"NoReentrantCalls","inputs":[]},{"type":"error","name":"NoTokensExchanged","inputs":[]},{"type":"error","name":"NotAuthorized","inputs":[]},{"type":"error","name":"NotFinalized","inputs":[]},{"type":"error","name":"NothingToClaim","inputs":[]},{"type":"error","name":"OnlyFactoryOwner","inputs":[]},{"type":"error","name":"OwnableInvalidOwner","inputs":[{"name":"owner","type":"address","internalType":"address"}]},{"type":"error","name":"OwnableUnauthorizedAccount","inputs":[{"name":"account","type":"address","internalType":"address"}]},{"type":"error","name":"PresaleEnded","inputs":[]},{"type":"error","name":"PresaleOngoing","inputs":[]},{"type":"error","name":"SafeERC20FailedOperation","inputs":[{"name":"token","type":"address","internalType":"address"}]},{"type":"error","name":"SlippageExceeded","inputs":[]},{"type":"error","name":"SoftCapNotMet","inputs":[]},{"type":"error","name":"WithdrawNotAllowedYet","inputs":[]}],"bytecode":{"object":"0x608060405234801562000010575f80fd5b5060405162006f8738038062006f87833981810160405281019062000036919062000d29565b815f01518260c001518360e00151846101000151828281600390816200005d919062000fd0565b5080600490816200006f919062000fd0565b5050505050505f73ffffffffffffffffffffffffffffffffffffffff168173ffffffffffffffffffffffffffffffffffffffff1603620000e8575f6040517f1e4fbdf7000000000000000000000000000000000000000000000000000000008152600401620000df9190620010c5565b60405180910390fd5b620000f9816200077460201b60201c565b50815f015160145f6101000a81548173ffffffffffffffffffffffffffffffffffffffff021916908373ffffffffffffffffffffffffffffffffffffffff160217905550816020015160065f6101000a81548173ffffffffffffffffffffffffffffffffffffffff021916908373ffffffffffffffffffffffffffffffffffffffff1602179055508160400151600c5f6101000a81548173ffffffffffffffffffffffffffffffffffffffff021916908373ffffffffffffffffffffffffffffffffffffffff160217905550816060015160078190555081608001516009819055508160a0015142620001ed91906200110d565b600d8190555081610120015160245f6101000a81548162ffffff021916908360020b62ffffff160217905550816101600151600a81905550816101400151600b8190555080601c5f820151815f01556020820151816001015560408201518160020155606082015181600301556080820151816004015560a0820151816005015560c0820151816006015560e082015181600701559050508060c001516012819055508260155f6101000a81548173ffffffffffffffffffffffffffffffffffffffff021916908373ffffffffffffffffffffffffffffffffffffffff1602179055508060e001516027819055505f600c5f9054906101000a900473ffffffffffffffffffffffffffffffffffffffff1673ffffffffffffffffffffffffffffffffffffffff16630dfe16816040518163ffffffff1660e01b8152600401602060405180830381865afa15801562000347573d5f803e3d5ffd5b505050506040513d601f19601f820116820180604052508101906200036d919062001147565b73ffffffffffffffffffffffffffffffffffffffff1663313ce5676040518163ffffffff1660e01b8152600401602060405180830381865afa158015620003b6573d5f803e3d5ffd5b505050506040513d601f19601f82011682018060405250810190620003dc919062001177565b60ff1690505f601290505f826012620003f69190620011a7565b600a62000404919062001331565b600a5462000413919062001381565b90505f826012620004259190620011a7565b600a62000433919062001331565b60095462000442919062001381565b90506064866101400151670de0b6b3a7640000838562000463919062001381565b6200046f9190620013f8565b6200047b919062001381565b620004879190620013f8565b6008819055506064855f0151600854620004a2919062001381565b620004ae9190620013f8565b6007541115620004ea576040517fe523909000000000000000000000000000000000000000000000000000000000815260040160405180910390fd5b600854600754111562000529576040517f34d07a3200000000000000000000000000000000000000000000000000000000815260040160405180910390fd5b6040518060400160405280600c5f9054906101000a900473ffffffffffffffffffffffffffffffffffffffff1673ffffffffffffffffffffffffffffffffffffffff16630dfe16816040518163ffffffff1660e01b8152600401602060405180830381865afa1580156200059f573d5f803e3d5ffd5b505050506040513d601f19601f82011682018060405250810190620005c5919062001147565b73ffffffffffffffffffffffffffffffffffffffff168152602001600c5f9054906101000a900473ffffffffffffffffffffffffffffffffffffffff1673ffffffffffffffffffffffffffffffffffffffff1663d21220a76040518163ffffffff1660e01b8152600401602060405180830381865afa1580156200064b573d5f803e3d5ffd5b505050506040513d601f19601f8201168201806040525081019062000671919062001147565b73ffffffffffffffffffffffffffffffffffffffff16815250601a5f820151815f015f6101000a81548173ffffffffffffffffffffffffffffffffffffffff021916908373ffffffffffffffffffffffffffffffffffffffff1602179055506020820151816001015f6101000a81548173ffffffffffffffffffffffffffffffffffffffff021916908373ffffffffffffffffffffffffffffffffffffffff16021790555090505084602001516008546200072d9190620013f8565b6025819055508460400151600854620007479190620013f8565b602681905550600160285f6101000a81548160ff021916908315150217905550505050505050506200142f565b5f60055f9054906101000a900473ffffffffffffffffffffffffffffffffffffffff1690508160055f6101000a81548173ffffffffffffffffffffffffffffffffffffffff021916908373ffffffffffffffffffffffffffffffffffffffff1602179055508173ffffffffffffffffffffffffffffffffffffffff168173ffffffffffffffffffffffffffffffffffffffff167f8be0079c531659141344cd1fd0a4f28419497f9722a3daafe3b4186f6b6457e060405160405180910390a35050565b5f604051905090565b5f80fd5b5f80fd5b5f73ffffffffffffffffffffffffffffffffffffffff82169050919050565b5f620008738262000848565b9050919050565b620008858162000867565b811462000890575f80fd5b50565b5f81519050620008a3816200087a565b92915050565b5f80fd5b5f601f19601f8301169050919050565b7f4e487b71000000000000000000000000000000000000000000000000000000005f52604160045260245ffd5b620008f582620008ad565b810181811067ffffffffffffffff82111715620009175762000916620008bd565b5b80604052505050565b5f6200092b62000837565b9050620009398282620008ea565b919050565b5f80fd5b5f819050919050565b620009568162000942565b811462000961575f80fd5b50565b5f8151905062000974816200094b565b92915050565b5f80fd5b5f80fd5b5f67ffffffffffffffff8211156200099f576200099e620008bd565b5b620009aa82620008ad565b9050602081019050919050565b5f5b83811015620009d6578082015181840152602081019050620009b9565b5f8484015250505050565b5f620009f7620009f18462000982565b62000920565b90508281526020810184848401111562000a165762000a156200097e565b5b62000a23848285620009b7565b509392505050565b5f82601f83011262000a425762000a416200097a565b5b815162000a54848260208601620009e1565b91505092915050565b5f60ff82169050919050565b62000a748162000a5d565b811462000a7f575f80fd5b50565b5f8151905062000a928162000a69565b92915050565b5f8160020b9050919050565b62000aaf8162000a98565b811462000aba575f80fd5b50565b5f8151905062000acd8162000aa4565b92915050565b5f610180828403121562000aec5762000aeb620008a9565b5b62000af961018062000920565b90505f62000b0a8482850162000893565b5f83015250602062000b1f8482850162000893565b602083015250604062000b358482850162000893565b604083015250606062000b4b8482850162000964565b606083015250608062000b618482850162000964565b60808301525060a062000b778482850162000964565b60a08301525060c082015167ffffffffffffffff81111562000b9e5762000b9d6200093e565b5b62000bac8482850162000a2b565b60c08301525060e082015167ffffffffffffffff81111562000bd35762000bd26200093e565b5b62000be18482850162000a2b565b60e08301525061010062000bf88482850162000a82565b6101008301525061012062000c108482850162000abd565b6101208301525061014062000c288482850162000964565b6101408301525061016062000c408482850162000964565b6101608301525092915050565b5f610100828403121562000c665762000c65620008a9565b5b62000c7361010062000920565b90505f62000c848482850162000964565b5f83015250602062000c998482850162000964565b602083015250604062000caf8482850162000964565b604083015250606062000cc58482850162000964565b606083015250608062000cdb8482850162000964565b60808301525060a062000cf18482850162000964565b60a08301525060c062000d078482850162000964565b60c08301525060e062000d1d8482850162000964565b60e08301525092915050565b5f805f610140848603121562000d445762000d4362000840565b5b5f62000d538682870162000893565b935050602084015167ffffffffffffffff81111562000d775762000d7662000844565b5b62000d858682870162000ad3565b925050604062000d988682870162000c4d565b9150509250925092565b5f81519050919050565b7f4e487b71000000000000000000000000000000000000000000000000000000005f52602260045260245ffd5b5f600282049050600182168062000df157607f821691505b60208210810362000e075762000e0662000dac565b5b50919050565b5f819050815f5260205f209050919050565b5f6020601f8301049050919050565b5f82821b905092915050565b5f6008830262000e6b7fffffffffffffffffffffffffffffffffffffffffffffffffffffffffffffffff8262000e2e565b62000e77868362000e2e565b95508019841693508086168417925050509392505050565b5f819050919050565b5f62000eb862000eb262000eac8462000942565b62000e8f565b62000942565b9050919050565b5f819050919050565b62000ed38362000e98565b62000eeb62000ee28262000ebf565b84845462000e3a565b825550505050565b5f90565b62000f0162000ef3565b62000f0e81848462000ec8565b505050565b5b8181101562000f355762000f295f8262000ef7565b60018101905062000f14565b5050565b601f82111562000f845762000f4e8162000e0d565b62000f598462000e1f565b8101602085101562000f69578190505b62000f8162000f788562000e1f565b83018262000f13565b50505b505050565b5f82821c905092915050565b5f62000fa65f198460080262000f89565b1980831691505092915050565b5f62000fc0838362000f95565b9150826002028217905092915050565b62000fdb8262000da2565b67ffffffffffffffff81111562000ff75762000ff6620008bd565b5b62001003825462000dd9565b6200101082828562000f39565b5f60209050601f83116001811462001046575f841562001031578287015190505b6200103d858262000fb3565b865550620010ac565b601f198416620010568662000e0d565b5f5b828110156200107f5784890151825560018201915060208501945060208101905062001058565b868310156200109f57848901516200109b601f89168262000f95565b8355505b6001600288020188555050505b505050505050565b620010bf8162000867565b82525050565b5f602082019050620010da5f830184620010b4565b92915050565b7f4e487b71000000000000000000000000000000000000000000000000000000005f52601160045260245ffd5b5f620011198262000942565b9150620011268362000942565b9250828201905080821115620011415762001140620010e0565b5b92915050565b5f602082840312156200115f576200115e62000840565b5b5f6200116e8482850162000893565b91505092915050565b5f602082840312156200118f576200118e62000840565b5b5f6200119e8482850162000a82565b91505092915050565b5f620011b38262000942565b9150620011c08362000942565b9250828203905081811115620011db57620011da620010e0565b5b92915050565b5f8160011c9050919050565b5f808291508390505b60018511156200123e57808604811115620012165762001215620010e0565b5b6001851615620012265780820291505b80810290506200123685620011e1565b9450620011f6565b94509492505050565b5f826200125857600190506200132a565b8162001267575f90506200132a565b81600181146200128057600281146200128b57620012c1565b60019150506200132a565b60ff841115620012a0576200129f620010e0565b5b8360020a915084821115620012ba57620012b9620010e0565b5b506200132a565b5060208310610133831016604e8410600b8410161715620012fb5782820a905083811115620012f557620012f4620010e0565b5b6200132a565b6200130a8484846001620011ed565b92509050818404811115620013245762001323620010e0565b5b81810290505b9392505050565b5f6200133d8262000942565b91506200134a8362000942565b9250620013797fffffffffffffffffffffffffffffffffffffffffffffffffffffffffffffffff848462001247565b905092915050565b5f6200138d8262000942565b91506200139a8362000942565b9250828202620013aa8162000942565b91508282048414831517620013c457620013c3620010e0565b5b5092915050565b7f4e487b71000000000000000000000000000000000000000000000000000000005f52601260045260245ffd5b5f620014048262000942565b9150620014118362000942565b925082620014245762001423620013cb565b5b828204905092915050565b615b4a806200143d5f395ff3fe60806040526004361061037f575f3560e01c806371e28126116101d0578063b3f05b9711610101578063d6d4b53d1161009f578063f2fde38b1161006e578063f2fde38b14610cc5578063fa461e3314610ced578063fb86a40414610d15578063ff50abdc14610d3f5761037f565b8063d6d4b53d14610c0b578063dbb33deb14610c35578063dd62ed3e14610c5f578063e12ceb1714610c9b5761037f565b8063c5c4744c116100db578063c5c4744c14610b63578063c7e284b814610b8d578063d0c93a7c14610bb7578063d5f3948814610be15761037f565b8063b3f05b9714610af9578063c264a06314610b23578063c45a015514610b395761037f565b806394d95f8f1161016e578063a01ab2e711610148578063a01ab2e714610a2f578063a02f360114610a6b578063a9059cbb14610a93578063ad60572914610acf5761037f565b806394d95f8f146109b157806395d89b41146109db57806396ea8b9c14610a055761037f565b80638da5cb5b116101aa5780638da5cb5b14610902578063906a26e01461092c57806390e64d131461095657806393aab9d5146109805761037f565b806371e28126146108735780637f4ffdab1461089e57806388b79cec146108da5761037f565b8063313ce567116102b5578063430bf08a116102535780635b0a3843116102225780635b0a3843146107e15780636c9230db146107f757806370a0823114610821578063715018a61461085d5761037f565b8063430bf08a1461073b5780634bb278f3146107655780635167f93f1461077b578063560ca03d146107a55761037f565b80633ef8e69a1161028f5780633ef8e69a1461068f5780633f7ed6b7146106ab57806340650c91146106d557806342e94c90146106ff5761037f565b8063313ce567146106135780633cb5d1001461063d5780633ccfd60b146106795761037f565b8063198b90a71161032257806323a69e75116102fc57806323a69e751461055b57806323b872dd1461058357806329dcb0cf146105bf5780632b9edee9146105e95761037f565b8063198b90a7146104b95780631d0806ae146104f55780631d0d35f51461051f5761037f565b8063095ea7b31161035e578063095ea7b3146103ff5780630fee1a201461043b57806316f0115b1461046557806318160ddd1461048f5761037f565b806251a11b1461038357806305eaab4b146103bf57806306fdde03146103d5575b5f80fd5b34801561038e575f80fd5b506103a960048036038101906103a4919061488f565b610d69565b6040516103b691906148d2565b60405180910390f35b3480156103ca575f80fd5b506103d3610e2e565b005b3480156103e0575f80fd5b506103e9611057565b6040516103f69190614975565b60405180910390f35b34801561040a575f80fd5b50610425600480360381019061042091906149bf565b6110e7565b6040516104329190614a17565b60405180910390f35b348015610446575f80fd5b5061044f611109565b60405161045c9190614a3f565b60405180910390f35b348015610470575f80fd5b5061047961112e565b6040516104869190614ab3565b60405180910390f35b34801561049a575f80fd5b506104a3611153565b6040516104b091906148d2565b60405180910390f35b3480156104c4575f80fd5b506104df60048036038101906104da9190614b21565b61115c565b6040516104ec91906148d2565b60405180910390f35b348015610500575f80fd5b50610509611171565b60405161051691906148d2565b60405180910390f35b34801561052a575f80fd5b506105456004803603810190610540919061488f565b611177565b6040516105529190614a17565b60405180910390f35b348015610566575f80fd5b50610581600480360381019061057c9190614be0565b611194565b005b34801561058e575f80fd5b506105a960048036038101906105a49190614c51565b6112d4565b6040516105b69190614a17565b60405180910390f35b3480156105ca575f80fd5b506105d3611302565b6040516105e091906148d2565b60405180910390f35b3480156105f4575f80fd5b506105fd611308565b60405161060a9190614a17565b60405180910390f35b34801561061e575f80fd5b50610627611314565b6040516106349190614cbc565b60405180910390f35b348015610648575f80fd5b50610663600480360381019061065e9190614cd5565b61131c565b6040516106709190614a3f565b60405180910390f35b348015610684575f80fd5b5061068d611357565b005b6106a960048036038101906106a49190614b21565b6116ce565b005b3480156106b6575f80fd5b506106bf611d4d565b6040516106cc91906148d2565b60405180910390f35b3480156106e0575f80fd5b506106e9611d53565b6040516106f691906148d2565b60405180910390f35b34801561070a575f80fd5b506107256004803603810190610720919061488f565b611d59565b60405161073291906148d2565b60405180910390f35b348015610746575f80fd5b5061074f611d6e565b60405161075c9190614a3f565b60405180910390f35b348015610770575f80fd5b50610779611d93565b005b348015610786575f80fd5b5061078f6124f1565b60405161079c91906148d2565b60405180910390f35b3480156107b0575f80fd5b506107cb60048036038101906107c69190614b21565b6124f7565b6040516107d891906148d2565b60405180910390f35b3480156107ec575f80fd5b506107f561250c565b005b348015610802575f80fd5b5061080b6127f5565b60405161081891906148d2565b60405180910390f35b34801561082c575f80fd5b506108476004803603810190610842919061488f565b6127fc565b60405161085491906148d2565b60405180910390f35b348015610868575f80fd5b50610871612841565b005b34801561087e575f80fd5b50610887612854565b604051610895929190614d00565b60405180910390f35b3480156108a9575f80fd5b506108c460048036038101906108bf9190614b21565b6129f8565b6040516108d191906148d2565b60405180910390f35b3480156108e5575f80fd5b5061090060048036038101906108fb919061488f565b612a48565b005b34801561090d575f80fd5b50610916612b7d565b6040516109239190614a3f565b60405180910390f35b348015610937575f80fd5b50610940612ba5565b60405161094d91906148d2565b60405180910390f35b348015610961575f80fd5b5061096a612bab565b6040516109779190614a17565b60405180910390f35b34801561098b575f80fd5b50610994612bb6565b6040516109a8989796959493929190614d27565b60405180910390f35b3480156109bc575f80fd5b506109c5612beb565b6040516109d291906148d2565b60405180910390f35b3480156109e6575f80fd5b506109ef612bf1565b6040516109fc9190614975565b60405180910390f35b348015610a10575f80fd5b50610a19612c81565b604051610a2691906148d2565b60405180910390f35b348015610a3a575f80fd5b50610a556004803603810190610a509190614b21565b612c87565b604051610a6291906148d2565b60405180910390f35b348015610a76575f80fd5b50610a916004803603810190610a8c9190614dcd565b612cd7565b005b348015610a9e575f80fd5b50610ab96004803603810190610ab491906149bf565b612e26565b604051610ac69190614a17565b60405180910390f35b348015610ada575f80fd5b50610ae3612e48565b604051610af091906148d2565b60405180910390f35b348015610b04575f80fd5b50610b0d612e54565b604051610b1a9190614a17565b60405180910390f35b348015610b2e575f80fd5b50610b37612e66565b005b348015610b44575f80fd5b50610b4d612e80565b604051610b5a9190614a3f565b60405180910390f35b348015610b6e575f80fd5b50610b77612ea5565b604051610b8491906148d2565b60405180910390f35b348015610b98575f80fd5b50610ba1612eab565b604051610bae91906148d2565b60405180910390f35b348015610bc2575f80fd5b50610bcb612ed2565b604051610bd89190614e13565b60405180910390f35b348015610bec575f80fd5b50610bf5612ee4565b604051610c029190614a3f565b60405180910390f35b348015610c16575f80fd5b50610c1f612f09565b604051610c2c9190614a17565b60405180910390f35b348015610c40575f80fd5b50610c49612f1b565b604051610c5691906148d2565b60405180910390f35b348015610c6a575f80fd5b50610c856004803603810190610c809190614e2c565b612f21565b604051610c9291906148d2565b60405180910390f35b348015610ca6575f80fd5b50610caf612fa3565b604051610cbc9190614f01565b60405180910390f35b348015610cd0575f80fd5b50610ceb6004803603810190610ce6919061488f565b61301e565b005b348015610cf8575f80fd5b50610d136004803603810190610d0e9190614be0565b6130a2565b005b348015610d20575f80fd5b50610d296131e2565b604051610d3691906148d2565b60405180910390f35b348015610d4a575f80fd5b50610d536131e8565b604051610d6091906148d2565b60405180910390f35b5f60105f73__$02d520d13cf184fb066b4c9912635b5d1d$__6392c40344856040518263ffffffff1660e01b8152600401610da49190614f29565b602060405180830381865af4158015610dbf573d5f803e3d5ffd5b505050506040513d601f19601f82011682018060405250810190610de39190614f56565b77ffffffffffffffffffffffffffffffffffffffffffffffff191677ffffffffffffffffffffffffffffffffffffffffffffffff191681526020019081526020015f20549050919050565b600e5f9054906101000a900460ff16610e73576040517f1bee0d5a00000000000000000000000000000000000000000000000000000000815260040160405180910390fd5b5f73__$02d520d13cf184fb066b4c9912635b5d1d$__6392c40344336040518263ffffffff1660e01b8152600401610eab9190614f29565b602060405180830381865af4158015610ec6573d5f803e3d5ffd5b505050506040513d601f19601f82011682018060405250810190610eea9190614f56565b90505f60105f8377ffffffffffffffffffffffffffffffffffffffffffffffff191677ffffffffffffffffffffffffffffffffffffffffffffffff191681526020019081526020015f205490505f8103610f70576040517f969bf72800000000000000000000000000000000000000000000000000000000815260040160405180910390fd5b5f60105f8477ffffffffffffffffffffffffffffffffffffffffffffffff191677ffffffffffffffffffffffffffffffffffffffffffffffff191681526020019081526020015f20819055503373ffffffffffffffffffffffffffffffffffffffff166108fc8290811502906040515f60405180830381858888f19350505050158015610fff573d5f803e3d5ffd5b508177ffffffffffffffffffffffffffffffffffffffffffffffff19167feb2292431657eaf611da096fb710d42b085942dde0fce8bb62af558da27309be8260405161104b91906148d2565b60405180910390a25050565b60606003805461106690614fae565b80601f016020809104026020016040519081016040528092919081815260200182805461109290614fae565b80156110dd5780601f106110b4576101008083540402835291602001916110dd565b820191905f5260205f20905b8154815290600101906020018083116110c057829003601f168201915b5050505050905090565b5f806110f16131ee565b90506110fe8185856131f5565b600191505092915050565b60165f9054906101000a900473ffffffffffffffffffffffffffffffffffffffff1681565b600c5f9054906101000a900473ffffffffffffffffffffffffffffffffffffffff1681565b5f600254905090565b6010602052805f5260405f205f915090505481565b60095481565b6017602052805f5260405f205f915054906101000a900460ff1681565b600c5f9054906101000a900473ffffffffffffffffffffffffffffffffffffffff1673ffffffffffffffffffffffffffffffffffffffff163373ffffffffffffffffffffffffffffffffffffffff161461121a576040517f916efb2200000000000000000000000000000000000000000000000000000000815260040160405180910390fd5b5f841315611275576112703385601a5f015f9054906101000a900473ffffffffffffffffffffffffffffffffffffffff1673ffffffffffffffffffffffffffffffffffffffff166132079092919063ffffffff16565b6112ce565b5f8313156112cd576112cc3384601a6001015f9054906101000a900473ffffffffffffffffffffffffffffffffffffffff1673ffffffffffffffffffffffffffffffffffffffff166132079092919063ffffffff16565b5b5b50505050565b5f806112de6131ee565b90506112eb858285613286565b6112f6858585613318565b60019150509392505050565b600d5481565b5f600754471015905090565b5f6012905090565b6013818154811061132b575f80fd5b905f5260205f20015f915054906101000a900473ffffffffffffffffffffffffffffffffffffffff1681565b602860019054906101000a900460ff161561139e576040517f7fa8a98700000000000000000000000000000000000000000000000000000000815260040160405180910390fd5b6001602860016101000a81548160ff021916908315150217905550600e5f9054906101000a900460ff166113fe576040517f1bee0d5a00000000000000000000000000000000000000000000000000000000815260040160405180910390fd5b5f611408336127fc565b90505f8103611443576040517fc9767fc200000000000000000000000000000000000000000000000000000000815260040160405180910390fd5b61144d3382613408565b5f600c5f9054906101000a900473ffffffffffffffffffffffffffffffffffffffff1673ffffffffffffffffffffffffffffffffffffffff16630dfe16816040518163ffffffff1660e01b8152600401602060405180830381865afa1580156114b8573d5f803e3d5ffd5b505050506040513d601f19601f820116820180604052508101906114dc9190614ff2565b90505f6103e86103d9846114f0919061504a565b6114fa91906150b8565b90505f8273ffffffffffffffffffffffffffffffffffffffff166370a08231306040518263ffffffff1660e01b81526004016115369190614a3f565b602060405180830381865afa158015611551573d5f803e3d5ffd5b505050506040513d601f19601f8201168201806040525081019061157591906150fc565b90505f82905080821015611587578190505b5f8073ffffffffffffffffffffffffffffffffffffffff1660165f9054906101000a900473ffffffffffffffffffffffffffffffffffffffff1673ffffffffffffffffffffffffffffffffffffffff161415905080156116325761162d60165f9054906101000a900473ffffffffffffffffffffffffffffffffffffffff16838773ffffffffffffffffffffffffffffffffffffffff166132079092919063ffffffff16565b61165e565b61165d33838773ffffffffffffffffffffffffffffffffffffffff166132079092919063ffffffff16565b5b3373ffffffffffffffffffffffffffffffffffffffff167f6352c5382c4a4578e712449ca65e83cdb392d045dfcf1cad9615189db2da244b836040516116a491906148d2565b60405180910390a25050505050505f602860016101000a81548160ff021916908315150217905550565b602860019054906101000a900460ff1615611715576040517f7fa8a98700000000000000000000000000000000000000000000000000000000815260040160405180910390fd5b6001602860016101000a81548160ff021916908315150217905550611738612bab565b1561176f576040517f1eb1561f00000000000000000000000000000000000000000000000000000000815260040160405180910390fd5b600e5f9054906101000a900460ff16156117b5576040517f475a253500000000000000000000000000000000000000000000000000000000815260040160405180910390fd5b5f34036117ee576040517fe523909000000000000000000000000000000000000000000000000000000000815260040160405180910390fd5b5f60c01b77ffffffffffffffffffffffffffffffffffffffffffffffff19168177ffffffffffffffffffffffffffffffffffffffffffffffff1916141580156118e1575073__$02d520d13cf184fb066b4c9912635b5d1d$__6392c40344336040518263ffffffff1660e01b81526004016118699190614f29565b602060405180830381865af4158015611884573d5f803e3d5ffd5b505050506040513d601f19601f820116820180604052508101906118a89190614f56565b77ffffffffffffffffffffffffffffffffffffffffffffffff19168177ffffffffffffffffffffffffffffffffffffffffffffffff1916145b15611918576040517fe523909000000000000000000000000000000000000000000000000000000000815260040160405180910390fd5b5f73ffffffffffffffffffffffffffffffffffffffff1660165f9054906101000a900473ffffffffffffffffffffffffffffffffffffffff1673ffffffffffffffffffffffffffffffffffffffff16036119b55760255434108061197d575060265434115b156119b4576040517fe523909000000000000000000000000000000000000000000000000000000000815260040160405180910390fd5b5b5f4790506008548111156119f5576040517f3895e79200000000000000000000000000000000000000000000000000000000815260040160405180910390fd5b34600f5f3373ffffffffffffffffffffffffffffffffffffffff1673ffffffffffffffffffffffffffffffffffffffff1681526020019081526020015f205f828254611a419190615127565b925050819055503460195f828254611a599190615127565b925050819055503460185f828254611a719190615127565b925050819055505f600954670de0b6b3a764000034611a90919061504a565b611a9a91906150b8565b9050611aa63382613487565b60175f3373ffffffffffffffffffffffffffffffffffffffff1673ffffffffffffffffffffffffffffffffffffffff1681526020019081526020015f205f9054906101000a900460ff16611baa57601333908060018154018082558091505060019003905f5260205f20015f9091909190916101000a81548173ffffffffffffffffffffffffffffffffffffffff021916908373ffffffffffffffffffffffffffffffffffffffff160217905550600160175f3373ffffffffffffffffffffffffffffffffffffffff1673ffffffffffffffffffffffffffffffffffffffff1681526020019081526020015f205f6101000a81548160ff0219169083151502179055505b5f60c01b77ffffffffffffffffffffffffffffffffffffffffffffffff19168377ffffffffffffffffffffffffffffffffffffffffffffffff191614611cc4575f606460125434611bfb919061504a565b611c0591906150b8565b90508060105f8677ffffffffffffffffffffffffffffffffffffffffffffffff191677ffffffffffffffffffffffffffffffffffffffffffffffff191681526020019081526020015f205f828254611c5d9190615127565b92505081905550600160115f8677ffffffffffffffffffffffffffffffffffffffffffffffff191677ffffffffffffffffffffffffffffffffffffffffffffffff191681526020019081526020015f205f828254611cbb9190615127565b92505081905550505b8277ffffffffffffffffffffffffffffffffffffffffffffffff19163373ffffffffffffffffffffffffffffffffffffffff167f4fbbc5046356e233bbdcbc23fdff3b3baa5289f2aeba8de1e6fde862e69cc95634604051611d2691906148d2565b60405180910390a350505f602860016101000a81548160ff02191690831515021790555050565b600a5481565b60255481565b600f602052805f5260405f205f915090505481565b60065f9054906101000a900473ffffffffffffffffffffffffffffffffffffffff1681565b602860019054906101000a900460ff1615611dda576040517f7fa8a98700000000000000000000000000000000000000000000000000000000815260040160405180910390fd5b6001602860016101000a81548160ff021916908315150217905550600e5f9054906101000a900460ff1615611e3b576040517f475a253500000000000000000000000000000000000000000000000000000000815260040160405180910390fd5b5f611e44612bab565b90505f600754471015905081611ef85780611e8b576040517fdaf751b400000000000000000000000000000000000000000000000000000000815260040160405180910390fd5b611e93612b7d565b73ffffffffffffffffffffffffffffffffffffffff163373ffffffffffffffffffffffffffffffffffffffff1614611ef7576040517fea8e4eb500000000000000000000000000000000000000000000000000000000815260040160405180910390fd5b5b5f601c604051806101000160405290815f820154815260200160018201548152602001600282015481526020016003820154815260200160048201548152602001600582015481526020016006820154815260200160078201548152505090505f816060015190505f811480611f6e5750606481115b15611fa5576040517fe523909000000000000000000000000000000000000000000000000000000000815260040160405180910390fd5b5f4790505f60648383611fb8919061504a565b611fc291906150b8565b90505f8073ffffffffffffffffffffffffffffffffffffffff1660165f9054906101000a900473ffffffffffffffffffffffffffffffffffffffff1673ffffffffffffffffffffffffffffffffffffffff160361202a578183612025919061515a565b61202c565b825b90505f8073ffffffffffffffffffffffffffffffffffffffff1660165f9054906101000a900473ffffffffffffffffffffffffffffffffffffffff1673ffffffffffffffffffffffffffffffffffffffff16036120ae576064856064612092919061515a565b60075461209f919061504a565b6120a991906150b8565b6120b2565b6007545b9050808210156120ee576040517f46c21a5500000000000000000000000000000000000000000000000000000000815260040160405180910390fd5b6001600e5f6101000a81548160ff02191690831515021790555060065f9054906101000a900473ffffffffffffffffffffffffffffffffffffffff1673ffffffffffffffffffffffffffffffffffffffff1663899e86896040518163ffffffff1660e01b81526004015f604051808303815f87803b15801561216e575f80fd5b505af1158015612180573d5f803e3d5ffd5b50505050601a6001015f9054906101000a900473ffffffffffffffffffffffffffffffffffffffff1673ffffffffffffffffffffffffffffffffffffffff1663d0e30db0836040518263ffffffff1660e01b81526004015f604051808303818588803b1580156121ee575f80fd5b505af1158015612200573d5f803e3d5ffd5b50505050505f600c5f9054906101000a900473ffffffffffffffffffffffffffffffffffffffff1673ffffffffffffffffffffffffffffffffffffffff16633850c7bd6040518163ffffffff1660e01b815260040160e060405180830381865afa158015612270573d5f803e3d5ffd5b505050506040513d601f19601f820116820180604052508101906122949190615265565b50505050505090505f73__$00856c2daf1848075e4d6b3791a97a7365$__63b7df07b38360126040518363ffffffff1660e01b81526004016122d792919061534a565b602060405180830381865af41580156122f2573d5f803e3d5ffd5b505050506040513d601f19601f8201168201806040525081019061231691906150fc565b90505f6103e8600583612329919061504a565b61233391906150b8565b8261233e9190615127565b9050612483604051806101400160405280600c5f9054906101000a900473ffffffffffffffffffffffffffffffffffffffff1673ffffffffffffffffffffffffffffffffffffffff168152602001601a5f015f9054906101000a900473ffffffffffffffffffffffffffffffffffffffff1673ffffffffffffffffffffffffffffffffffffffff168152602001601a6001015f9054906101000a900473ffffffffffffffffffffffffffffffffffffffff1673ffffffffffffffffffffffffffffffffffffffff1681526020013073ffffffffffffffffffffffffffffffffffffffff1681526020015f151581526020018781526020016001151581526020016124588460245f9054906101000a900460020b6012613506565b73ffffffffffffffffffffffffffffffffffffffff168152602001600181526020015f815250613523565b50507f32046dc3847a4f54dd5b5984bc3a183f0c8ddbfb0f73b68f0ba6693d09b67312878787846040516124ba9493929190615371565b60405180910390a16124ca613826565b50505050505050505050505f602860016101000a81548160ff021916908315150217905550565b60275481565b6011602052805f5260405f205f915090505481565b60285f9054906101000a900460ff16612551576040517f3a09febe00000000000000000000000000000000000000000000000000000000815260040160405180910390fd5b602860019054906101000a900460ff1615612598576040517f7fa8a98700000000000000000000000000000000000000000000000000000000815260040160405180910390fd5b6001602860016101000a81548160ff021916908315150217905550600e5f9054906101000a900460ff16156125f9576040517f475a253500000000000000000000000000000000000000000000000000000000815260040160405180910390fd5b62278d00600d5461260a9190615127565b421015612643576040517f4aeb789d00000000000000000000000000000000000000000000000000000000815260040160405180910390fd5b5f600f5f3373ffffffffffffffffffffffffffffffffffffffff1673ffffffffffffffffffffffffffffffffffffffff1681526020019081526020015f205490505f81036126bd576040517fc9767fc200000000000000000000000000000000000000000000000000000000815260040160405180910390fd5b5f600954670de0b6b3a7640000836126d5919061504a565b6126df91906150b8565b90506126eb3382613408565b5f600f5f3373ffffffffffffffffffffffffffffffffffffffff1673ffffffffffffffffffffffffffffffffffffffff1681526020019081526020015f20819055508160185f82825461273e919061515a565b925050819055503373ffffffffffffffffffffffffffffffffffffffff166108fc8390811502906040515f60405180830381858888f19350505050158015612788573d5f803e3d5ffd5b503373ffffffffffffffffffffffffffffffffffffffff167f1af5163f80e79b5e554f61e1d052084d3a3fe1166e42a265798c4e2ddce8ffa2826040516127cf91906148d2565b60405180910390a250505f602860016101000a81548160ff021916908315150217905550565b5f42905090565b5f805f8373ffffffffffffffffffffffffffffffffffffffff1673ffffffffffffffffffffffffffffffffffffffff1681526020019081526020015f20549050919050565b6128496139f0565b6128525f613a77565b565b5f80600e5f9054906101000a900460ff1615612875575f80915091506129f4565b5f601c6003015490505f81148061288c5750606481115b1561289d575f8092509250506129f4565b5f4790505f8073ffffffffffffffffffffffffffffffffffffffff1660165f9054906101000a900473ffffffffffffffffffffffffffffffffffffffff1673ffffffffffffffffffffffffffffffffffffffff160361291e5760648383612904919061504a565b61290e91906150b8565b82612919919061515a565b612920565b815b90505f8073ffffffffffffffffffffffffffffffffffffffff1660165f9054906101000a900473ffffffffffffffffffffffffffffffffffffffff1673ffffffffffffffffffffffffffffffffffffffff16036129a2576064846064612986919061515a565b600754612993919061504a565b61299d91906150b8565b6129a6565b6007545b90505f818310159050806129c4575f809650965050505050506129f4565b5f6129cd612bab565b9050806129e657600180975097505050505050506129f4565b60015f975097505050505050505b9091565b5f60115f8377ffffffffffffffffffffffffffffffffffffffffffffffff191677ffffffffffffffffffffffffffffffffffffffffffffffff191681526020019081526020015f20549050919050565b60155f9054906101000a900473ffffffffffffffffffffffffffffffffffffffff1673ffffffffffffffffffffffffffffffffffffffff16638da5cb5b6040518163ffffffff1660e01b8152600401602060405180830381865afa158015612ab2573d5f803e3d5ffd5b505050506040513d601f19601f82011682018060405250810190612ad69190614ff2565b73ffffffffffffffffffffffffffffffffffffffff163373ffffffffffffffffffffffffffffffffffffffff1614612b3a576040517f4bf08e8600000000000000000000000000000000000000000000000000000000815260040160405180910390fd5b8060165f6101000a81548173ffffffffffffffffffffffffffffffffffffffff021916908373ffffffffffffffffffffffffffffffffffffffff16021790555050565b5f60055f9054906101000a900473ffffffffffffffffffffffffffffffffffffffff16905090565b60075481565b5f600d544211905090565b601c805f0154908060010154908060020154908060030154908060040154908060050154908060060154908060070154905088565b60265481565b606060048054612c0090614fae565b80601f0160208091040260200160405190810160405280929190818152602001828054612c2c90614fae565b8015612c775780601f10612c4e57610100808354040283529160200191612c77565b820191905f5260205f20905b815481529060010190602001808311612c5a57829003601f168201915b5050505050905090565b60125481565b5f60105f8377ffffffffffffffffffffffffffffffffffffffffffffffff191677ffffffffffffffffffffffffffffffffffffffffffffffff191681526020019081526020015f20549050919050565b612cdf612b7d565b73ffffffffffffffffffffffffffffffffffffffff163373ffffffffffffffffffffffffffffffffffffffff1614158015612dd3575060155f9054906101000a900473ffffffffffffffffffffffffffffffffffffffff1673ffffffffffffffffffffffffffffffffffffffff16638da5cb5b6040518163ffffffff1660e01b8152600401602060405180830381865afa158015612d7f573d5f803e3d5ffd5b505050506040513d601f19601f82011682018060405250810190612da39190614ff2565b73ffffffffffffffffffffffffffffffffffffffff163373ffffffffffffffffffffffffffffffffffffffff1614155b15612e0a576040517fea8e4eb500000000000000000000000000000000000000000000000000000000815260040160405180910390fd5b8060285f6101000a81548160ff02191690831515021790555050565b5f80612e306131ee565b9050612e3d818585613318565b600191505092915050565b5f601380549050905090565b600e5f9054906101000a900460ff1681565b612e6e6139f0565b612e76613826565b612e7e613b3a565b565b60155f9054906101000a900473ffffffffffffffffffffffffffffffffffffffff1681565b60185481565b5f600d54421115612ebe575f9050612ecf565b42600d54612ecc919061515a565b90505b90565b60245f9054906101000a900460020b81565b60145f9054906101000a900473ffffffffffffffffffffffffffffffffffffffff1681565b60285f9054906101000a900460ff1681565b600b5481565b5f60015f8473ffffffffffffffffffffffffffffffffffffffff1673ffffffffffffffffffffffffffffffffffffffff1681526020019081526020015f205f8373ffffffffffffffffffffffffffffffffffffffff1673ffffffffffffffffffffffffffffffffffffffff1681526020019081526020015f2054905092915050565b612fab6147e7565b6040518060c00160405280600754815260200160085481526020016009548152602001600d548152602001600a54815260200160145f9054906101000a900473ffffffffffffffffffffffffffffffffffffffff1673ffffffffffffffffffffffffffffffffffffffff16815250905090565b6130266139f0565b5f73ffffffffffffffffffffffffffffffffffffffff168173ffffffffffffffffffffffffffffffffffffffff1603613096575f6040517f1e4fbdf700000000000000000000000000000000000000000000000000000000815260040161308d9190614a3f565b60405180910390fd5b61309f81613a77565b50565b600c5f9054906101000a900473ffffffffffffffffffffffffffffffffffffffff1673ffffffffffffffffffffffffffffffffffffffff163373ffffffffffffffffffffffffffffffffffffffff1614613128576040517f916efb2200000000000000000000000000000000000000000000000000000000815260040160405180910390fd5b5f8413156131835761317e3385601a5f015f9054906101000a900473ffffffffffffffffffffffffffffffffffffffff1673ffffffffffffffffffffffffffffffffffffffff166132079092919063ffffffff16565b6131dc565b5f8313156131db576131da3384601a6001015f9054906101000a900473ffffffffffffffffffffffffffffffffffffffff1673ffffffffffffffffffffffffffffffffffffffff166132079092919063ffffffff16565b5b5b50505050565b60085481565b60195481565b5f33905090565b6132028383836001613ce4565b505050565b613281838473ffffffffffffffffffffffffffffffffffffffff1663a9059cbb858560405160240161323a9291906153b4565b604051602081830303815290604052915060e01b6020820180517bffffffffffffffffffffffffffffffffffffffffffffffffffffffff8381831617835250505050613eb3565b505050565b5f6132918484612f21565b90507fffffffffffffffffffffffffffffffffffffffffffffffffffffffffffffffff81146133125781811015613303578281836040517ffb8f41b20000000000000000000000000000000000000000000000000000000081526004016132fa939291906153db565b60405180910390fd5b61331184848484035f613ce4565b5b50505050565b5f73ffffffffffffffffffffffffffffffffffffffff168373ffffffffffffffffffffffffffffffffffffffff1603613388575f6040517f96c6fd1e00000000000000000000000000000000000000000000000000000000815260040161337f9190614a3f565b60405180910390fd5b5f73ffffffffffffffffffffffffffffffffffffffff168273ffffffffffffffffffffffffffffffffffffffff16036133f8575f6040517fec442f050000000000000000000000000000000000000000000000000000000081526004016133ef9190614a3f565b60405180910390fd5b613403838383613f4e565b505050565b5f73ffffffffffffffffffffffffffffffffffffffff168273ffffffffffffffffffffffffffffffffffffffff1603613478575f6040517f96c6fd1e00000000000000000000000000000000000000000000000000000000815260040161346f9190614a3f565b60405180910390fd5b613483825f83613f4e565b5050565b5f73ffffffffffffffffffffffffffffffffffffffff168273ffffffffffffffffffffffffffffffffffffffff16036134f7575f6040517fec442f050000000000000000000000000000000000000000000000000000000081526004016134ee9190614a3f565b60405180910390fd5b6135025f8383613f4e565b5050565b5f61351a613515858585614167565b6142c3565b90509392505050565b5f805f8360a0015103613562576040517f1115766700000000000000000000000000000000000000000000000000000000815260040160405180910390fd5b5f73ffffffffffffffffffffffffffffffffffffffff16836060015173ffffffffffffffffffffffffffffffffffffffff16036135cb576040517f1115766700000000000000000000000000000000000000000000000000000000815260040160405180910390fd5b8260c001511580156135e157505f836101200151145b15613618576040517f8199f5f300000000000000000000000000000000000000000000000000000000815260040160405180910390fd5b5f8360c0015161366957836080015161365157600173fffd8963efd1fc6a506488495d951d5263988d2661364c9190615410565b613664565b60016401000276a36136639190615457565b5b61366f565b8360e001515b9050835f015173ffffffffffffffffffffffffffffffffffffffff1663128acb08856060015186608001518760a00151856040518563ffffffff1660e01b81526004016136bf94939291906154ef565b60408051808303815f875af19250505080156136f957506040513d601f19601f820116820180604052508101906136f69190615559565b60015b61372f576040517f1115766700000000000000000000000000000000000000000000000000000000815260040160405180910390fd5b8194508093505f86608001511561378a575f8212613779576040517f4ecdfb3000000000000000000000000000000000000000000000000000000000815260040160405180910390fd5b8161378390615597565b90506137d0565b5f83126137c3576040517f4ecdfb3000000000000000000000000000000000000000000000000000000000815260040160405180910390fd5b826137cd90615597565b90505b8660c001511580156137e6575086610120015181105b1561381d576040517f8199f5f300000000000000000000000000000000000000000000000000000000815260040160405180910390fd5b50505050915091565b600e5f9054906101000a900460ff1661386b576040517f1bee0d5a00000000000000000000000000000000000000000000000000000000815260040160405180910390fd5b5f4790505f606460275483613880919061504a565b61388a91906150b8565b90505f60155f9054906101000a900473ffffffffffffffffffffffffffffffffffffffff1673ffffffffffffffffffffffffffffffffffffffff1663854567f16040518163ffffffff1660e01b8152600401602060405180830381865afa1580156138f7573d5f803e3d5ffd5b505050506040513d601f19601f8201168201806040525081019061391b9190614ff2565b90505f73ffffffffffffffffffffffffffffffffffffffff168173ffffffffffffffffffffffffffffffffffffffff1614613995578073ffffffffffffffffffffffffffffffffffffffff166108fc8390811502906040515f60405180830381858888f19350505050158015613993573d5f803e3d5ffd5b505b61399d612b7d565b73ffffffffffffffffffffffffffffffffffffffff166108fc83856139c2919061515a565b90811502906040515f60405180830381858888f193505050501580156139ea573d5f803e3d5ffd5b50505050565b6139f86131ee565b73ffffffffffffffffffffffffffffffffffffffff16613a16612b7d565b73ffffffffffffffffffffffffffffffffffffffff1614613a7557613a396131ee565b6040517f118cdaa7000000000000000000000000000000000000000000000000000000008152600401613a6c9190614a3f565b60405180910390fd5b565b5f60055f9054906101000a900473ffffffffffffffffffffffffffffffffffffffff1690508160055f6101000a81548173ffffffffffffffffffffffffffffffffffffffff021916908373ffffffffffffffffffffffffffffffffffffffff1602179055508173ffffffffffffffffffffffffffffffffffffffff168173ffffffffffffffffffffffffffffffffffffffff167f8be0079c531659141344cd1fd0a4f28419497f9722a3daafe3b4186f6b6457e060405160405180910390a35050565b600e5f9054906101000a900460ff16613b7f576040517f1bee0d5a00000000000000000000000000000000000000000000000000000000815260040160405180910390fd5b5f600c5f9054906101000a900473ffffffffffffffffffffffffffffffffffffffff1673ffffffffffffffffffffffffffffffffffffffff16630dfe16816040518163ffffffff1660e01b8152600401602060405180830381865afa158015613bea573d5f803e3d5ffd5b505050506040513d601f19601f82011682018060405250810190613c0e9190614ff2565b90505f8173ffffffffffffffffffffffffffffffffffffffff166370a08231306040518263ffffffff1660e01b8152600401613c4a9190614a3f565b602060405180830381865afa158015613c65573d5f803e3d5ffd5b505050506040513d601f19601f82011682018060405250810190613c8991906150fc565b90505f811115613ce057613cdf60065f9054906101000a900473ffffffffffffffffffffffffffffffffffffffff16828473ffffffffffffffffffffffffffffffffffffffff166132079092919063ffffffff16565b5b5050565b5f73ffffffffffffffffffffffffffffffffffffffff168473ffffffffffffffffffffffffffffffffffffffff1603613d54575f6040517fe602df05000000000000000000000000000000000000000000000000000000008152600401613d4b9190614a3f565b60405180910390fd5b5f73ffffffffffffffffffffffffffffffffffffffff168373ffffffffffffffffffffffffffffffffffffffff1603613dc4575f6040517f94280d62000000000000000000000000000000000000000000000000000000008152600401613dbb9190614a3f565b60405180910390fd5b8160015f8673ffffffffffffffffffffffffffffffffffffffff1673ffffffffffffffffffffffffffffffffffffffff1681526020019081526020015f205f8573ffffffffffffffffffffffffffffffffffffffff1673ffffffffffffffffffffffffffffffffffffffff1681526020019081526020015f20819055508015613ead578273ffffffffffffffffffffffffffffffffffffffff168473ffffffffffffffffffffffffffffffffffffffff167f8c5be1e5ebec7d5bd14f71427d1e84f3dd0314c0f7b2291e5b200ac8c7c3b92584604051613ea491906148d2565b60405180910390a35b50505050565b5f8060205f8451602086015f885af180613ed2576040513d5f823e3d81fd5b3d92505f519150505f8214613eeb576001811415613f06565b5f8473ffffffffffffffffffffffffffffffffffffffff163b145b15613f4857836040517f5274afe7000000000000000000000000000000000000000000000000000000008152600401613f3f9190614a3f565b60405180910390fd5b50505050565b5f73ffffffffffffffffffffffffffffffffffffffff168373ffffffffffffffffffffffffffffffffffffffff1603613f9e578060025f828254613f929190615127565b9250508190555061406c565b5f805f8573ffffffffffffffffffffffffffffffffffffffff1673ffffffffffffffffffffffffffffffffffffffff1681526020019081526020015f2054905081811015614027578381836040517fe450d38c00000000000000000000000000000000000000000000000000000000815260040161401e939291906153db565b60405180910390fd5b8181035f808673ffffffffffffffffffffffffffffffffffffffff1673ffffffffffffffffffffffffffffffffffffffff1681526020019081526020015f2081905550505b5f73ffffffffffffffffffffffffffffffffffffffff168273ffffffffffffffffffffffffffffffffffffffff16036140b3578060025f82825403925050819055506140fd565b805f808473ffffffffffffffffffffffffffffffffffffffff1673ffffffffffffffffffffffffffffffffffffffff1681526020019081526020015f205f82825401925050819055505b8173ffffffffffffffffffffffffffffffffffffffff168373ffffffffffffffffffffffffffffffffffffffff167fddf252ad1be2c89b69c2b068fc378daa952ba7f163c4a11628f55a4df523b3ef8360405161415a91906148d2565b60405180910390a3505050565b5f60068260ff1610158015614180575060128260ff1611155b6141b6576040517fd25598a000000000000000000000000000000000000000000000000000000000815260040160405180910390fd5b5f8260126141c491906155dd565b600a6141d09190615740565b905080856141de919061578a565b9450836142af68033dd1780914b9684073__$28bae0af19d0e90d77349cc0e88bc3c39a$__63bc4225aa670de0b6b3a76400008a61421c919061578a565b670de0b6b3a76400006706f05b59d3b200006040518463ffffffff1660e01b815260040161424c93929190615881565b602060405180830381865af4158015614267573d5f803e3d5ffd5b505050506040513d601f19601f8201168201806040525081019061428b91906158b6565b61429591906158e1565b8660020b658334ae9d7c0a6142aa919061578a565b6142d4565b6142b99190615921565b9150509392505050565b5f6142cd82614335565b9050919050565b5f61138861271083856127106142ea919061578a565b6142f4919061595d565b6142fe91906159c5565b1361431457818361430f919061595d565b61432d565b60018284614322919061595d565b61432c91906159f5565b5b905092915050565b5f805f8360020b1261434a578260020b614358565b8260020b61435790615597565b5b90507ffffffffffffffffffffffffffffffffffffffffffffffffffffffffffff2761861438490615a36565b60020b8111156143c9576040517f08c379a00000000000000000000000000000000000000000000000000000000081526004016143c090615ac6565b60405180910390fd5b5f8060018316036143eb577001000000000000000000000000000000006143fd565b6ffffcb933bd6fad37aa2d162d1a5940015b70ffffffffffffffffffffffffffffffffff1690505f600283161461443f5760806ffff97272373d413259a46990580e213a8261443a919061504a565b901c90505b5f600483161461446c5760806ffff2e50f5f656932ef12357cf3c7fdcc82614467919061504a565b901c90505b5f60088316146144995760806fffe5caca7e10e4e61c3624eaa0941cd082614494919061504a565b901c90505b5f60108316146144c65760806fffcb9843d60f6159c9db58835c926644826144c1919061504a565b901c90505b5f60208316146144f35760806fff973b41fa98c081472e6896dfb254c0826144ee919061504a565b901c90505b5f60408316146145205760806fff2ea16466c96a3843ec78b326b528618261451b919061504a565b901c90505b5f608083161461454d5760806ffe5dee046a99a2a811c461f1969c305382614548919061504a565b901c90505b5f61010083161461457b5760806ffcbe86c7900a88aedcffc83b479aa3a482614576919061504a565b901c90505b5f6102008316146145a95760806ff987a7253ac413176f2b074cf7815e54826145a4919061504a565b901c90505b5f6104008316146145d75760806ff3392b0822b70005940c7a398e4b70f3826145d2919061504a565b901c90505b5f6108008316146146055760806fe7159475a2c29b7443b29c7fa6e889d982614600919061504a565b901c90505b5f6110008316146146335760806fd097f3bdfd2022b8845ad8f792aa58258261462e919061504a565b901c90505b5f6120008316146146615760806fa9f746462d870fdf8a65dc1f90e061e58261465c919061504a565b901c90505b5f61400083161461468f5760806f70d869a156d2a1b890bb3df62baf32f78261468a919061504a565b901c90505b5f6180008316146146bd5760806f31be135f97d08fd981231505542fcfa6826146b8919061504a565b901c90505b5f620100008316146146ec5760806f09aa508b5b7a84e1c677de54f3e99bc9826146e7919061504a565b901c90505b5f6202000083161461471a5760806e5d6af8dedb81196699c329225ee60482614715919061504a565b901c90505b5f620400008316146147475760806d2216e584f5fa1ea926041bedfe9882614742919061504a565b901c90505b5f620800008316146147725760806b048a170391f7dc42444e8fa28261476d919061504a565b901c90505b5f8460020b13156147ac57807fffffffffffffffffffffffffffffffffffffffffffffffffffffffffffffffff6147a991906150b8565b90505b5f640100000000826147be9190615ae4565b146147ca5760016147cc565b5f5b60ff16602082901c6147de9190615127565b92505050919050565b6040518060c001604052805f81526020015f81526020015f81526020015f81526020015f81526020015f73ffffffffffffffffffffffffffffffffffffffff1681525090565b5f80fd5b5f80fd5b5f73ffffffffffffffffffffffffffffffffffffffff82169050919050565b5f61485e82614835565b9050919050565b61486e81614854565b8114614878575f80fd5b50565b5f8135905061488981614865565b92915050565b5f602082840312156148a4576148a361482d565b5b5f6148b18482850161487b565b91505092915050565b5f819050919050565b6148cc816148ba565b82525050565b5f6020820190506148e55f8301846148c3565b92915050565b5f81519050919050565b5f82825260208201905092915050565b5f5b83811015614922578082015181840152602081019050614907565b5f8484015250505050565b5f601f19601f8301169050919050565b5f614947826148eb565b61495181856148f5565b9350614961818560208601614905565b61496a8161492d565b840191505092915050565b5f6020820190508181035f83015261498d818461493d565b905092915050565b61499e816148ba565b81146149a8575f80fd5b50565b5f813590506149b981614995565b92915050565b5f80604083850312156149d5576149d461482d565b5b5f6149e28582860161487b565b92505060206149f3858286016149ab565b9150509250929050565b5f8115159050919050565b614a11816149fd565b82525050565b5f602082019050614a2a5f830184614a08565b92915050565b614a3981614854565b82525050565b5f602082019050614a525f830184614a30565b92915050565b5f819050919050565b5f614a7b614a76614a7184614835565b614a58565b614835565b9050919050565b5f614a8c82614a61565b9050919050565b5f614a9d82614a82565b9050919050565b614aad81614a93565b82525050565b5f602082019050614ac65f830184614aa4565b92915050565b5f7fffffffffffffffff00000000000000000000000000000000000000000000000082169050919050565b614b0081614acc565b8114614b0a575f80fd5b50565b5f81359050614b1b81614af7565b92915050565b5f60208284031215614b3657614b3561482d565b5b5f614b4384828501614b0d565b91505092915050565b5f819050919050565b614b5e81614b4c565b8114614b68575f80fd5b50565b5f81359050614b7981614b55565b92915050565b5f80fd5b5f80fd5b5f80fd5b5f8083601f840112614ba057614b9f614b7f565b5b8235905067ffffffffffffffff811115614bbd57614bbc614b83565b5b602083019150836001820283011115614bd957614bd8614b87565b5b9250929050565b5f805f8060608587031215614bf857614bf761482d565b5b5f614c0587828801614b6b565b9450506020614c1687828801614b6b565b935050604085013567ffffffffffffffff811115614c3757614c36614831565b5b614c4387828801614b8b565b925092505092959194509250565b5f805f60608486031215614c6857614c6761482d565b5b5f614c758682870161487b565b9350506020614c868682870161487b565b9250506040614c97868287016149ab565b9150509250925092565b5f60ff82169050919050565b614cb681614ca1565b82525050565b5f602082019050614ccf5f830184614cad565b92915050565b5f60208284031215614cea57614ce961482d565b5b5f614cf7848285016149ab565b91505092915050565b5f604082019050614d135f830185614a08565b614d206020830184614a08565b9392505050565b5f61010082019050614d3b5f83018b6148c3565b614d48602083018a6148c3565b614d5560408301896148c3565b614d6260608301886148c3565b614d6f60808301876148c3565b614d7c60a08301866148c3565b614d8960c08301856148c3565b614d9660e08301846148c3565b9998505050505050505050565b614dac816149fd565b8114614db6575f80fd5b50565b5f81359050614dc781614da3565b92915050565b5f60208284031215614de257614de161482d565b5b5f614def84828501614db9565b91505092915050565b5f8160020b9050919050565b614e0d81614df8565b82525050565b5f602082019050614e265f830184614e04565b92915050565b5f8060408385031215614e4257614e4161482d565b5b5f614e4f8582860161487b565b9250506020614e608582860161487b565b9150509250929050565b614e73816148ba565b82525050565b614e8281614854565b82525050565b60c082015f820151614e9c5f850182614e6a565b506020820151614eaf6020850182614e6a565b506040820151614ec26040850182614e6a565b506060820151614ed56060850182614e6a565b506080820151614ee86080850182614e6a565b5060a0820151614efb60a0850182614e79565b50505050565b5f60c082019050614f145f830184614e88565b92915050565b614f2381614854565b82525050565b5f602082019050614f3c5f830184614f1a565b92915050565b5f81519050614f5081614af7565b92915050565b5f60208284031215614f6b57614f6a61482d565b5b5f614f7884828501614f42565b91505092915050565b7f4e487b71000000000000000000000000000000000000000000000000000000005f52602260045260245ffd5b5f6002820490506001821680614fc557607f821691505b602082108103614fd857614fd7614f81565b5b50919050565b5f81519050614fec81614865565b92915050565b5f602082840312156150075761500661482d565b5b5f61501484828501614fde565b91505092915050565b7f4e487b71000000000000000000000000000000000000000000000000000000005f52601160045260245ffd5b5f615054826148ba565b915061505f836148ba565b925082820261506d816148ba565b915082820484148315176150845761508361501d565b5b5092915050565b7f4e487b71000000000000000000000000000000000000000000000000000000005f52601260045260245ffd5b5f6150c2826148ba565b91506150cd836148ba565b9250826150dd576150dc61508b565b5b828204905092915050565b5f815190506150f681614995565b92915050565b5f602082840312156151115761511061482d565b5b5f61511e848285016150e8565b91505092915050565b5f615131826148ba565b915061513c836148ba565b92508282019050808211156151545761515361501d565b5b92915050565b5f615164826148ba565b915061516f836148ba565b92508282039050818111156151875761518661501d565b5b92915050565b61519681614835565b81146151a0575f80fd5b50565b5f815190506151b18161518d565b92915050565b6151c081614df8565b81146151ca575f80fd5b50565b5f815190506151db816151b7565b92915050565b5f61ffff82169050919050565b6151f7816151e1565b8114615201575f80fd5b50565b5f81519050615212816151ee565b92915050565b5f63ffffffff82169050919050565b61523081615218565b811461523a575f80fd5b50565b5f8151905061524b81615227565b92915050565b5f8151905061525f81614da3565b92915050565b5f805f805f805f60e0888a0312156152805761527f61482d565b5b5f61528d8a828b016151a3565b975050602061529e8a828b016151cd565b96505060406152af8a828b01615204565b95505060606152c08a828b01615204565b94505060806152d18a828b01615204565b93505060a06152e28a828b0161523d565b92505060c06152f38a828b01615251565b91505092959891949750929550565b61530b81614835565b82525050565b5f819050919050565b5f61533461532f61532a84615311565b614a58565b614ca1565b9050919050565b6153448161531a565b82525050565b5f60408201905061535d5f830185615302565b61536a602083018461533b565b9392505050565b5f6080820190506153845f8301876148c3565b61539160208301866148c3565b61539e60408301856148c3565b6153ab60608301846148c3565b95945050505050565b5f6040820190506153c75f830185614a30565b6153d460208301846148c3565b9392505050565b5f6060820190506153ee5f830186614a30565b6153fb60208301856148c3565b61540860408301846148c3565b949350505050565b5f61541a82614835565b915061542583614835565b9250828203905073ffffffffffffffffffffffffffffffffffffffff8111156154515761545061501d565b5b92915050565b5f61546182614835565b915061546c83614835565b9250828201905073ffffffffffffffffffffffffffffffffffffffff8111156154985761549761501d565b5b92915050565b6154a781614b4c565b82525050565b6154b681614835565b82525050565b5f82825260208201905092915050565b50565b5f6154da5f836154bc565b91506154e5826154cc565b5f82019050919050565b5f60a0820190506155025f830187614a30565b61550f6020830186614a08565b61551c604083018561549e565b61552960608301846154ad565b818103608083015261553a816154cf565b905095945050505050565b5f8151905061555381614b55565b92915050565b5f806040838503121561556f5761556e61482d565b5b5f61557c85828601615545565b925050602061558d85828601615545565b9150509250929050565b5f6155a182614b4c565b91507f800000000000000000000000000000000000000000000000000000000000000082036155d3576155d261501d565b5b815f039050919050565b5f6155e782614ca1565b91506155f283614ca1565b9250828203905060ff81111561560b5761560a61501d565b5b92915050565b5f8160011c9050919050565b5f808291508390505b6001851115615666578086048111156156425761564161501d565b5b60018516156156515780820291505b808102905061565f85615611565b9450615626565b94509492505050565b5f8261567e5760019050615739565b8161568b575f9050615739565b81600181146156a157600281146156ab576156da565b6001915050615739565b60ff8411156156bd576156bc61501d565b5b8360020a9150848211156156d4576156d361501d565b5b50615739565b5060208310610133831016604e8410600b841016171561570f5782820a90508381111561570a5761570961501d565b5b615739565b61571c848484600161561d565b925090508184048111156157335761573261501d565b5b81810290505b9392505050565b5f61574a826148ba565b915061575583614ca1565b92506157827fffffffffffffffffffffffffffffffffffffffffffffffffffffffffffffffff848461566f565b905092915050565b5f61579482614b4c565b915061579f83614b4c565b92508282026157ad81614b4c565b91507f800000000000000000000000000000000000000000000000000000000000000084145f841216156157e4576157e361501d565b5b82820584148315176157f9576157f861501d565b5b5092915050565b61580981614b4c565b82525050565b5f819050919050565b5f61583261582d6158288461580f565b614a58565b614b4c565b9050919050565b61584281615818565b82525050565b5f819050919050565b5f61586b61586661586184615848565b614a58565b614b4c565b9050919050565b61587b81615851565b82525050565b5f6060820190506158945f830186615800565b6158a16020830185615839565b6158ae6040830184615872565b949350505050565b5f602082840312156158cb576158ca61482d565b5b5f6158d884828501615545565b91505092915050565b5f6158eb82614b4c565b91506158f683614b4c565b925082820390508181125f8412168282135f85121516171561591b5761591a61501d565b5b92915050565b5f61592b82614df8565b915061593683614df8565b925082820261594481614df8565b91508082146159565761595561501d565b5b5092915050565b5f61596782614b4c565b915061597283614b4c565b9250826159825761598161508b565b5b60015f0383147f8000000000000000000000000000000000000000000000000000000000000000831416156159ba576159b961501d565b5b828205905092915050565b5f6159cf82614b4c565b91506159da83614b4c565b9250826159ea576159e961508b565b5b828207905092915050565b5f6159ff82614b4c565b9150615a0a83614b4c565b92508282019050828112155f8312168382125f841215161715615a3057615a2f61501d565b5b92915050565b5f615a4082614df8565b91507fffffffffffffffffffffffffffffffffffffffffffffffffffffffffff8000008203615a7257615a7161501d565b5b815f039050919050565b7f54000000000000000000000000000000000000000000000000000000000000005f82015250565b5f615ab06001836148f5565b9150615abb82615a7c565b602082019050919050565b5f6020820190508181035f830152615add81615aa4565b9050919050565b5f615aee826148ba565b9150615af9836148ba565b925082615b0957615b0861508b565b5b82820690509291505056fea2646970667358221220d38f1a588d80351ff2f40559364b2850cbfed2b5453a593654436c8e00cd54cf64736f6c63430008170033","linkReferences":{"src/libraries/Conversions.sol":{"Conversions":[{"start":14044,"length":20}]},"src/libraries/Logarithm.sol":{"Logarithm":[{"start":22061,"length":20}]},"src/libraries/Utils.sol":{"Utils":[{"start":8620,"length":20},{"start":8883,"length":20},{"start":11377,"length":20}]}}},"methodIdentifiers":{"MAX_CONTRIBUTION()":"94d95f8f","MIN_CONTRIBUTION()":"40650c91","allowance(address,address)":"dd62ed3e","approve(address,uint256)":"095ea7b3","balanceOf(address)":"70a08231","canFinalize()":"71e28126","claimReferralRewards()":"05eaab4b","claimableReferralRewards(address)":"0051a11b","contributions(address)":"42e94c90","contributors(uint256)":"3cb5d100","deadline()":"29dcb0cf","decimals()":"313ce567","deployer()":"d5f39488","deposit(bytes8)":"3ef8e69a","emergencyWithdrawal()":"5b0a3843","emergencyWithdrawalFlag()":"d6d4b53d","factory()":"c45a0155","finalize()":"4bb278f3","finalized()":"b3f05b97","floorPercentage()":"dbb33deb","getCurrentTimestamp()":"6c9230db","getParticipantCount()":"ad605729","getPresaleParams()":"e12ceb17","getReferralUserCount(bytes8)":"7f4ffdab","getTimeLeft()":"c7e284b8","getTotalReferredByCode(bytes8)":"a01ab2e7","hardCap()":"fb86a404","hasExpired()":"90e64d13","initialPrice()":"1d0806ae","isContributor(address)":"1d0d35f5","launchSupply()":"3f7ed6b7","migrationContract()":"0fee1a20","name()":"06fdde03","owner()":"8da5cb5b","pancakeV3SwapCallback(int256,int256,bytes)":"23a69e75","pool()":"16f0115b","protocolParams()":"93aab9d5","referralEarnings(bytes8)":"198b90a7","referralParticipants(bytes8)":"560ca03d","referralPercentage()":"96ea8b9c","renounceOwnership()":"715018a6","setEmergencyWithdrawalFlag(bool)":"a02f3601","setMigrationContract(address)":"88b79cec","softCap()":"906a26e0","softCapReached()":"2b9edee9","symbol()":"95d89b41","teamFeePct()":"5167f93f","tickSpacing()":"d0c93a7c","totalDeposited()":"ff50abdc","totalRaised()":"c5c4744c","totalSupply()":"18160ddd","transfer(address,uint256)":"a9059cbb","transferFrom(address,address,uint256)":"23b872dd","transferOwnership(address)":"f2fde38b","uniswapV3SwapCallback(int256,int256,bytes)":"fa461e33","vaultAddress()":"430bf08a","withdraw()":"3ccfd60b","withdrawExcess()":"c264a063"},"id":80}