{"abi":[{"type":"constructor","inputs":[{"name":"_oikos","type":"address","internalType":"address"},{"name":"_sOikos","type":"address","internalType":"address"},{"name":"_vault","type":"address","internalType":"address"}],"stateMutability":"nonpayable"},{"type":"function","name":"OKS","inputs":[],"outputs":[{"name":"","type":"address","internalType":"contract IERC20"}],"stateMutability":"view"},{"type":"function","name":"authority","inputs":[],"outputs":[{"name":"","type":"address","internalType":"address"}],"stateMutability":"view"},{"type":"function","name":"epoch","inputs":[],"outputs":[{"name":"number","type":"uint256","internalType":"uint256"},{"name":"end","type":"uint256","internalType":"uint256"},{"name":"distribute","type":"uint256","internalType":"uint256"}],"stateMutability":"view"},{"type":"function","name":"epochs","inputs":[{"name":"","type":"uint256","internalType":"uint256"}],"outputs":[{"name":"number","type":"uint256","internalType":"uint256"},{"name":"end","type":"uint256","internalType":"uint256"},{"name":"distribute","type":"uint256","internalType":"uint256"}],"stateMutability":"view"},{"type":"function","name":"lastOperationTimestamp","inputs":[{"name":"","type":"address","internalType":"address"}],"outputs":[{"name":"","type":"uint256","internalType":"uint256"}],"stateMutability":"view"},{"type":"function","name":"lockInEpochs","inputs":[],"outputs":[{"name":"","type":"uint256","internalType":"uint256"}],"stateMutability":"view"},{"type":"function","name":"notifyRewardAmount","inputs":[{"name":"_reward","type":"uint256","internalType":"uint256"}],"outputs":[],"stateMutability":"nonpayable"},{"type":"function","name":"sOKS","inputs":[],"outputs":[{"name":"","type":"address","internalType":"contract IsOikosToken"}],"stateMutability":"view"},{"type":"function","name":"stake","inputs":[{"name":"_amount","type":"uint256","internalType":"uint256"}],"outputs":[],"stateMutability":"nonpayable"},{"type":"function","name":"stakedBalance","inputs":[{"name":"_user","type":"address","internalType":"address"}],"outputs":[{"name":"","type":"uint256","internalType":"uint256"}],"stateMutability":"view"},{"type":"function","name":"stakedEpochs","inputs":[{"name":"","type":"address","internalType":"address"}],"outputs":[{"name":"","type":"uint256","internalType":"uint256"}],"stateMutability":"view"},{"type":"function","name":"totalEpochs","inputs":[],"outputs":[{"name":"","type":"uint256","internalType":"uint256"}],"stateMutability":"view"},{"type":"function","name":"totalRewards","inputs":[],"outputs":[{"name":"","type":"uint256","internalType":"uint256"}],"stateMutability":"view"},{"type":"function","name":"totalStaked","inputs":[],"outputs":[{"name":"","type":"uint256","internalType":"uint256"}],"stateMutability":"view"},{"type":"function","name":"unstake","inputs":[],"outputs":[],"stateMutability":"nonpayable"},{"type":"function","name":"vault","inputs":[],"outputs":[{"name":"","type":"address","internalType":"address"}],"stateMutability":"view"},{"type":"event","name":"NotifiedReward","inputs":[{"name":"reward","type":"uint256","indexed":false,"internalType":"uint256"}],"anonymous":false},{"type":"event","name":"Staked","inputs":[{"name":"user","type":"address","indexed":true,"internalType":"address"},{"name":"amount","type":"uint256","indexed":false,"internalType":"uint256"}],"anonymous":false},{"type":"event","name":"Unstaked","inputs":[{"name":"user","type":"address","indexed":true,"internalType":"address"},{"name":"amount","type":"uint256","indexed":false,"internalType":"uint256"}],"anonymous":false},{"type":"error","name":"CooldownNotElapsed","inputs":[]},{"type":"error","name":"CustomError","inputs":[]},{"type":"error","name":"InvalidParameters","inputs":[]},{"type":"error","name":"InvalidReward","inputs":[]},{"type":"error","name":"LockInPeriodNotElapsed","inputs":[]},{"type":"error","name":"NotEnoughBalance","inputs":[{"name":"currentBalance","type":"uint256","internalType":"uint256"}]},{"type":"error","name":"OnlyVault","inputs":[]},{"type":"error","name":"SafeERC20FailedOperation","inputs":[{"name":"token","type":"address","internalType":"address"}]},{"type":"error","name":"StakingNotEnabled","inputs":[]}],"bytecode":{"object":"0x60806040526001600e5534801561001557600080fd5b50604051610e91380380610e918339810160408190526100349161014c565b600080546001600160a01b038581166001600160a01b031992831617909255600180548584169083168117909155600380549385169390921692909217905560405163189acdbd60e31b815230600482015263c4d66de890602401600060405180830381600087803b1580156100a957600080fd5b505af11580156100bd573d6000803e3d6000fd5b505060408051606081018252600180825260006020808401829052928401819052600482905560058181556006828155600a839055600980548452600790955294822083815590549281019290925592546002909101558054935091506101238361018f565b91905055505050506101b6565b80516001600160a01b038116811461014757600080fd5b919050565b60008060006060848603121561016157600080fd5b61016a84610130565b925061017860208501610130565b915061018660408501610130565b90509250925092565b6000600182016101af57634e487b7160e01b600052601160045260246000fd5b5060010190565b610ccc806101c56000396000f3fe608060405234801561001057600080fd5b50600436106101005760003560e01c8063817b1cd211610097578063c6b61e4c11610066578063c6b61e4c1461022a578063cffd1a8f14610259578063ece3529814610279578063fbfa77cf1461028257600080fd5b8063817b1cd2146101ce578063900cf0cf146101d7578063a694fc3a14610204578063bf7e214f1461021757600080fd5b80633c6b16ab116100d35780633c6b16ab14610169578063602172671461017c5780636c5ec94d146101a5578063700bb04b146101ae57600080fd5b80630ad806b7146101055780630e15561a1461013557806317face671461014c5780632def66201461015f575b600080fd5b600054610118906001600160a01b031681565b6040516001600160a01b0390911681526020015b60405180910390f35b61013e60085481565b60405190815260200161012c565b600154610118906001600160a01b031681565b610167610295565b005b610167610177366004610bbd565b610664565b61013e61018a366004610bd6565b6001600160a01b03166000908152600b602052604090205490565b61013e60095481565b61013e6101bc366004610bd6565b600d6020526000908152604090205481565b61013e600a5481565b6004546005546006546101e992919083565b6040805193845260208401929092529082015260600161012c565b610167610212366004610bbd565b610870565b600254610118906001600160a01b031681565b6101e9610238366004610bbd565b60076020526000908152604090208054600182015460029092015490919083565b61013e610267366004610bd6565b600c6020526000908152604090205481565b61013e600e5481565b600354610118906001600160a01b031681565b600360009054906101000a90046001600160a01b03166001600160a01b0316631cfff51b6040518163ffffffff1660e01b8152600401602060405180830381865afa1580156102e8573d6000803e3d6000fd5b505050506040513d601f19601f8201168201806040525081019061030c9190610c06565b151560000361032e5760405163a3df9bcf60e01b815260040160405180910390fd5b600e54336000908152600d602052604090205461034b9190610c3e565b600454101561036d5760405163486b574560e11b815260040160405180910390fd5b6001546040516370a0823160e01b8152336004820152600091610451916001600160a01b03909116906370a0823190602401602060405180830381865afa1580156103bc573d6000803e3d6000fd5b505050506040513d601f19601f820116820180604052508101906103e09190610c51565b6000546040516370a0823160e01b81523060048201526001600160a01b03909116906370a0823190602401602060405180830381865afa158015610428573d6000803e3d6000fd5b505050506040513d601f19601f8201168201806040525081019061044c9190610c51565b610adf565b90508060000361047c576040516374e0caad60e01b8152600060048201526024015b60405180910390fd5b6000546040516370a0823160e01b815230600482015282916001600160a01b0316906370a0823190602401602060405180830381865afa1580156104c4573d6000803e3d6000fd5b505050506040513d601f19601f820116820180604052508101906104e89190610c51565b101561050a576040516374e0caad60e01b815260048101829052602401610473565b6001546040516370a0823160e01b81523360048201526001600160a01b039091169063fcd3533c9082906370a0823190602401602060405180830381865afa15801561055a573d6000803e3d6000fd5b505050506040513d601f19601f8201168201806040525081019061057e9190610c51565b6040516001600160e01b031960e084901b1681526004810191909152336024820152604401600060405180830381600087803b1580156105bd57600080fd5b505af11580156105d1573d6000803e3d6000fd5b50506000546105ed92506001600160a01b031690503383610aef565b336000908152600b6020526040812054600a805491929091610610908490610c6a565b9091555050336000818152600b602052604080822091909155517f0f5bb82176feb1b5e747e28471aa92156a04d9f3ab9f45f28e2d704232b93f75906106599084815260200190565b60405180910390a250565b6003546001600160a01b0316331480159061067f5750333014155b1561069d57604051638d1af8bd60e01b815260040160405180910390fd5b60001981036106bf576040516314414f4160e11b815260040160405180910390fd5b600360009054906101000a90046001600160a01b03166001600160a01b0316631cfff51b6040518163ffffffff1660e01b8152600401602060405180830381865afa158015610712573d6000803e3d6000fd5b505050506040513d601f19601f820116820180604052508101906107369190610c06565b15156000036107585760405163a3df9bcf60e01b815260040160405180910390fd5b42600590815560098054600090815260076020526040812060045481559254600184015560065460029093019290925580549161079483610c7d565b90915550506040805160608101825260095480825260006020830181905291830182905260049081556005829055600691909155600154915163bc4f2d6d60e01b81529081018390526001600160a01b039091169063bc4f2d6d90602401600060405180830381600087803b15801561080c57600080fd5b505af1158015610820573d6000803e3d6000fd5b5050505080600860008282546108369190610c3e565b90915550506040518181527e26e7497a09565f1474bfb88ac7af039b814d7b1781a9e0a09774f56b182f519060200160405180910390a150565b8060000361089157604051630e52390960e41b815260040160405180910390fd5b600360009054906101000a90046001600160a01b03166001600160a01b0316631cfff51b6040518163ffffffff1660e01b8152600401602060405180830381865afa1580156108e4573d6000803e3d6000fd5b505050506040513d601f19601f820116820180604052508101906109089190610c06565b151560000361092a5760405163a3df9bcf60e01b815260040160405180910390fd5b336000908152600c6020526040902054610947906203f480610c3e565b42101561096757604051635115ba2f60e11b815260040160405180910390fd5b336000818152600c6020526040808220429055905490516323b872dd60e01b81526004810192909252306024830152604482018390526001600160a01b0316906323b872dd906064016020604051808303816000875af11580156109cf573d6000803e3d6000fd5b505050506040513d601f19601f820116820180604052508101906109f39190610c06565b506001546040516340c10f1960e01b8152336004820152602481018390526001600160a01b03909116906340c10f1990604401600060405180830381600087803b158015610a4057600080fd5b505af1158015610a54573d6000803e3d6000fd5b5050336000908152600b602052604081208054859450909250610a78908490610c3e565b9250508190555080600a6000828254610a919190610c3e565b9091555050600454336000818152600d6020526040908190209290925590517f9e71bc8eea02a63969f509818f2dafb9254532904319f9dbda79b67bd34a5f3d906106599084815260200190565b8082108183180281185b92915050565b604080516001600160a01b038416602482015260448082018490528251808303909101815260649091019091526020810180516001600160e01b031663a9059cbb60e01b179052610b41908490610b46565b505050565b600080602060008451602086016000885af180610b69576040513d6000823e3d81fd5b50506000513d91508115610b81578060011415610b8e565b6001600160a01b0384163b155b15610bb757604051635274afe760e01b81526001600160a01b0385166004820152602401610473565b50505050565b600060208284031215610bcf57600080fd5b5035919050565b600060208284031215610be857600080fd5b81356001600160a01b0381168114610bff57600080fd5b9392505050565b600060208284031215610c1857600080fd5b81518015158114610bff57600080fd5b634e487b7160e01b600052601160045260246000fd5b80820180821115610ae957610ae9610c28565b600060208284031215610c6357600080fd5b5051919050565b81810381811115610ae957610ae9610c28565b600060018201610c8f57610c8f610c28565b506001019056fea264697066735822122040346652989965945354861a4a0e2cf0d748adf3ad511f8860038eb36d63852464736f6c63430008170033","linkReferences":{}},"methodIdentifiers":{"OKS()":"0ad806b7","authority()":"bf7e214f","epoch()":"900cf0cf","epochs(uint256)":"c6b61e4c","lastOperationTimestamp(address)":"cffd1a8f","lockInEpochs()":"ece35298","notifyRewardAmount(uint256)":"3c6b16ab","sOKS()":"17face67","stake(uint256)":"a694fc3a","stakedBalance(address)":"60217267","stakedEpochs(address)":"700bb04b","totalEpochs()":"6c5ec94d","totalRewards()":"0e15561a","totalStaked()":"817b1cd2","unstake()":"2def6620","vault()":"fbfa77cf"},"id":123}